S0100000504F435F524138502E73726563B8
S3150200000000040022410B0002410A00024B0B0002CF
S315020000104B0B00024B0B00024B0B00024B0B000278
S31502000020000000000000000000000000D9010002EC
S315020000304B0B000200000000F1010002590200020F
S31502000040022818BF704740F22C4042F6A441C2F281
S315020000500020C0F2002100F020BAD4D4D4D4D4D4E3
S31502000060012001F077FDFBE77047FFF7FDBF00BEF9
S315020000707047D4D4D4D4D4D4B0B540F234444FF07B
S31502000080FF31C2F20024206801F0EEF9012803D004
S3150200009020680021FFF7EBFF40F23840C2F2002051
S315020000A0017801B1B0BD01210170FFF7DEFF40F218
S315020000B03C45C2F2002500BF286801382860F1D00D
S315020000C0206800210022002300F09AFF0128F3D0C5
S315020000D020680021FFF7CBFFEEE780B540F23842F9
S315020000E040F23C40C2F20022C2F20020002111700E
S315020000F040F240420160C2F200224FF480700121B8
S3150200010000F05BFF40F23441C2F20021086018B9E8
S3150200011000200021FFF7ABFF00F020F801F09EFD62
S31502000120002080BD40F2884C40F2E843C2F2002C27
S31502000130C2F20023C0F800C00B6080201060704736
S3150200014040F2E86C40F24873C2F2002CC2F200237D
S31502000150C0F800C00B6080201060704780B584B084
S3150200016040F23C4042F20463C2F2002040F6481CD0
S3150200017040F6704EC0F2002301684FF480720131DE
S3150200018001600120009040F2C51042F6B511C0F29E
S315020001900020C0F20021C2F2002CC2F2002ECDE9EC
S315020001A001EC01F081FA40F6A811C2F200210860C2
S315020001B008B104B080BD0020002104B0BDE8804033
S315020001C0FFF755BF10B50446FFF756FF2046BDE8B8
S315020001D01040FFF745BFD4D41EF0040F0CBFEFF357
S315020001E00880EFF309800149084700007F020002F8
S315020001F00F4B1968EFF309821EF0100F08BF22EDAC
S31502000200108A22E9F04FEFF30B8342F8043D0A60AD
S315020002104FF0100080F31188BFF34F8FBFF36F8F3B
S3150200022001F0CAFC4FF0000080F3118800F002B81A
S315020002306C0A0022074801680A6802CA81F30B8821
S31502000240B2E8F04F1EF0100F08BFB2EC108A82F32C
S31502000250098870476C0A002210B51020EFF311844A
S3150200026080F3118801F078FD30B14EF604504FF05C
S315020002708051CEF20000016084F3118810BD8069BE
S3150200028010F8020C022801D1FFF7D4BF042838BFA8
S31502000290704780B542F22E6042F66A1242F2397314
S315020002A0C0F20020C0F20022C0F200234FF47E7199
S315020002B000F07EFB283140F8481D40F2E1214FF064
S315020002C0807CC0F2002122F00102C1630264C0F800
S315020002D044C06FF00201C0E909137047D4D4D4D4E4
S315020002E000BE00BF00BF00BFFEE7D4D4D4D4D4D42E
S315020002F04EF62250F021CEF20000017000F016F800
S315020003004EF63470CEF20000016841F040410160C1
S3150200031062B6BFF36F8FEFF3148C2CF0040C8CF3E0
S315020003201488BFF36F8F02DF00BEFDE740F6182088
S3150200033044F6D351C2F20020C1F262010068A0FB6A
S3150200034001014FF0FF3000EB91110020B0EB116F6D
S3150200035018BF70474EF21002F023CEF2000251602F
S315020003604EF62351CEF200010B709060072010600A
S315020003707047EFF31180102181F3118840F6AC111A
S31502000380C2F200210A68002A02F101020A6018BFBD
S31502000390704740F6B011C2F2002108604EF60450D2
S315020003A0CEF200000068C00500D1704780B542F267
S315020003B02E6042F2546242F6DB03C0F20020C0F223
S315020003C00022C0F2002340F2A44100F0F1FA40F606
S315020003D0AC10C2F20020016859B10139016018BFA0
S315020003E0704740F6B010C2F20020006880F3118810
S315020003F0704780B542F22E6042F6A13242F208639D
S31502000400C0F20020C0F20022C0F2002340F2AD4149
S3150200041000F0CEFA80B598B34EF6902EC4F2010ED5
S315020004209EF800100A0722D04EF2FA324AF2025C15
S31502000430C4F20102CFF6FF7C00201388A2F800C0A6
S315020004408EF8000043F425401080BFF34F8F30BF73
S31502000450BFF36F8F62B6BFF36F8F72B61088A2F8C2
S3150200046000C08EF8001040F42540108080BDBFF316
S315020004704F8F30BFBFF36F8F62B6BFF36F8F72B607
S3150200048080BD80B572B601F03CFA0120FFF7C2FFCB
S3150200049062B6BDE8804001F08FBA80B545F25422BB
S315020004A0C5F24F020260084600F002F8002080BD45
S315020004B070B5044600F060F840F6082CEFF31081A0
S315020004C0C2F2002C012080F31088DCF8000038B953
S315020004D040F614500022C4F240000270402202701C
S315020004E0DCF800000130CCF8000081F31088208887
S315020004F028B340F6000E0021C4F2400E00BF00BF32
S31502000500606800EBC10250F831309288D8034FEA96
S315020005101220D2B20BD50EEB801555F8226026F4C6
S31502000520803645F8226023F4803645F822600EEBC9
S315020005308010013140F8223020888142E0D3012028
S31502000540EFF3108180F31088DCF8000020B1DCF8AC
S3150200055000000138CCF80000DCF8000038B940F69B
S3150200056014500022C4F2400002708022027081F30D
S31502000570108870BDD4D4D4D42DE9F04F81B004468E
S315020005800088002862D04EF64C4B0025C4F2010BBF
S315020005904FF0010A00BF00BF42F2400642F6B048E1
S315020005A00027C4F22006C0F2002800BF00BF00BF29
S315020005B0606838F8021B00EBC50082888A423DD18A
S315020005C000689BF8001000F0B8500AFA07F9B0F17B
S315020005D0807F09EA010017D158B9012000F088FA94
S315020005E09BF8000040EA09008BF80000012000F0A9
S315020005F058FA96F90000002820D4307840F080009E
S3150200060017E000BF00BF00BF58B1012000F070FA2A
S315020006109BF8000020EA09008BF80000012000F098
S3150200062040FA96F90000B0F1FF3F07DC307800F09F
S315020006307F003070C820012100F0BFF90137023671
S31502000640032FB5D1208801358542A5D301B0BDE877
S31502000650F08FD4D44EF22401C4F2010188780988BD
S3150200066001F00F02A2F1080103293BD8DFE801F0ED
S31502000670022C101E40F20041C2F2002151F8200065
S315020006804AF6AB21CAF6AA21A0FB0101480830E0CE
S3150200069040F20041C2F2002151F820004AF6AB2195
S315020006A0CAF6AA21A0FB0101C80822E040F20041D5
S315020006B0C2F2002151F820004AF6AB21CAF6AA215D
S315020006C0A0FB0101080914E040F20041C2F2002138
S315020006D051F820004AF6AB21CAF6AA21A0FB010175
S315020006E0880806E040F20041C2F2002151F82000DB
S315020006F0D04040F61821C2F2002108607047D4D4D7
S315020007002DE9F04180A04EF2FA34C4F201044AF215
S31502000710015190ED001F40F20040CFF6FF71C2F288
S315020007200020023121804CF600214EF601464EF69B
S315020007300047C3F69A314FF40042C0E9042144F25D
S31502000740553148F200424EF2140580ED001FC4F204
S315020007500106C4F20107C1F2DE31C1F2D772C4F258
S315020007600105C0E90712FFF775FF4FF650600A212F
S31502000770CFF6FF703954092085F88E00387818B9FB
S315020007803078800700F0B880387840B90120387098
S31502000790C820012100F011F938780128FCD1002087
S315020007A0307038704AF201580020A87700BF00BFA7
S315020007B095F828000007FBD54EF614504FF60211A5
S315020007C0C5F8981040F251412987CEF20000BFF3D6
S315020007D04F8FBFF36F8F02684EF2000122F4003290
S315020007E002600022C0F83C22CEF20101BFF34F8F15
S315020007F0BFF36F8F0A6822F440520A60BFF34F8F2D
S31502000800BFF36F8F2A7802F0F80201322A7000BF16
S315020008102A78D206FCD40A6842F440520A60BFF330
S315020008204F8FBFF36F8F0168890312D4BFF34F8FC7
S31502000830BFF36F8F0021C0F83C12BFF34F8FBFF397
S315020008406F8F016841F400310160BFF34F8FBFF330
S315020008506F8F0020A87500BF95F828008006FBD58B
S315020008604CF200070020C4F2130738703878387843
S3150200087038787868FA2807D0FA20C1F6006000BFF7
S3150200088078607968FA29FBD1B8687D2808D07D207E
S31502000890CEF2001000BF00BFB860B9687D29FBD157
S315020008A043F23240C3F22320E86042F2201028824B
S315020008B00520A874FFF7CEFE1E200121012600F0B6
S315020008C07CF878686FF39F20652828BF3E70FFF793
S315020008D0C1FE42F200004FF42541C4F20000A0F826
S315020008E00080BFF35F8F0672BFF35F8F018085F8CA
S315020008F03F602180BDE8F0814FF47A7000F00CF879
S3150200090050E700BF00BF00BF006CDC0200127A0095
S315020009100080000000366E017047D4D4D4D4D4D4FB
S31502000920B0B542F22404C820C4F2200401210025F5
S31502000930257100F042F82570207808B12FF005C025
S31502000940207840F00200207020788007FCD4002036
S3150200095004F8020C00BF00BF14F8020C08B12FF015
S3150200096005C84FF0030E002004F11C0100BF00BFB2
S3150200097011F8102002F07F0201F8102000BF00BF1C
S3150200098011F91020002AFBD401300FF00FC8012004
S3150200099000F0AEF84EF64C410120C4F201010022ED
S315020009A00A70BDE8B04000F07CB87047D4D4D4D405
S315020009B000BE00BF00BF00BFFEE740F6182241F2AC
S315020009C00023C2F20022C0F27A03484312689A4216
S315020009D00FD344F23F21C0F20F0111444DF6836258
S315020009E0C4F21B32A1FB0212910CA0FB0101C9B198
S315020009F01BE04CF60021C3F69A31B1FBF2F148F640
S31502000A003812C0F24102904205D24FF47A72504334
S31502000A10B0FBF1F006E0B0FBF1F0904205D24FF4E4
S31502000A207A71484328B100F007B84FF0FF3000F062
S31502000A3003B87047D4D4D4D401380028FCD1704707
S31502000A40F0B581B04CF2001540F6B417C4F20005B9
S31502000A500024C2F200272868296A01EA000600BFBC
S31502000A6026FA04F0C00704D057F8241009B120462C
S31502000A7088470134152CF3D12E6100BF00BF00BF99
S31502000A80286A3042FCD101B0F0BD42F6A460C0F241
S31502000A900020008820B14CF20031C4F20001086047
S31502000AA07047EFF31081012282F3108840F60C2280
S31502000AB0C2F2002232F8103023B132F81030013B74
S31502000AC022F8103032F810207AB94EF2FA3242F693
S31502000AD0A66CC4F20102C0F2002C13883CF8100086
S31502000AE043F4254323EA0000108081F310887047FF
S31502000AF010B5EFF31081012282F3108840F60C2222
S31502000B00C2F2002232F8103083B94EF2FA3E42F6B1
S31502000B10A66CC4F2010EC0F2002CBEF800403CF8EE
S31502000B201030234343F42543AEF8003032F8103038
S31502000B30013322F8103081F3108810BDD4D4D4D4F6
S31502000B4000F006F8FFF7C9FAFEE700BE7047D4D4F4
S31502000B5070B54EF6005540F20120CEF20005C0F205
S31502000B600E004EF200066861CEF20106BFF34F8F09
S31502000B70BFF36F8F2968C1F3035001285FEA1F9202
S31502000B8011F00F0F5FEA0F911142316811D102285D
S31502000B900FD241F0040030604EF20800BFF34F8FCF
S31502000BA0CEF20000BFF36F8F016841F4803101601D
S31502000BB002E021F004003060BFF34F8FBFF36F8F66
S31502000BC04FF4700040F20001C5F888000020C0F220
S31502000BD00021A9600024FFF733FAFFF791FD4EF2D8
S31502000BE0FA304EF6B022C4F20100C4F201024AF211
S31502000BF00251018014704FF4254101800120FFF754
S31502000C001FFA40F20000C2F2002080F30A88306820
S31502000C10800721D5A868B0F1007F1DD130694FF455
S31502000C200071C0F3C300726901FA00F3C2F3C30094
S31502000C3081400020DA08CB080146064642F005C08C
S31502000C40E6E802010FF005C04FF0005243F005C07E
S31502000C50E2E802010FF005C0002000F095F8FFF768
S31502000C60F9FCFFF75DFE0320FFF742FF4FF00E0E81
S31502000C7040F63050C4F2400020F8044B0FF005C095
S31502000C804EF210140320C4F20104FFF70AFF0320F8
S31502000C90FFF72EFF44F204000021C4F22000016097
S31502000CA041608160C1600320FFF7FBFED4F8C802F1
S31502000CB0800714D42078A0B10120FFF719FF00BFE6
S31502000CC094F9000010F1410FFADC0020207000BFF9
S31502000CD020783F28FCD80120FFF7E3FE01E0D4F894
S31502000CE0C802D4F8C802400715D42079A8B1012059
S31502000CF0FFF7FEFE00BF00BF94F9040010F1410F9A
S31502000D00FADC0020207100BF20793F28FCD80120A0
S31502000D10FFF7C7FE01E0D4F8C8020220FFF790F9F8
S31502000D20012000F031F840F67044C2F20024204659
S31502000D3001F054FC204601F047FCBFF34F8FBFF38E
S31502000D406F8F0020C5F8500242F6027042F6027119
S31502000D50C0F20020C0F20021BFF34F8F081ABFF382
S31502000D606F8F8410012C08DB42F60275C0F2002553
S31502000D7055F8040B8047013CFAD1FFF786FE0020A6
S31502000D80BDE87040FFF711BEF0B581B042F6D0451E
S31502000D900446C0F200252E6876B16868071D00BFBA
S31502000DA07879844204D157E90101091A01F0F7FB67
S31502000DB0013E07F10C07F3D1AE6896B1E86800F17F
S31502000DC0080500BF00BF00BF6879844205D155E916
S31502000DD002022968121A01F0E6FB013E05F110052E
S31502000DE0F2D101B0F0BD01464FF0FF3241F8082FB3
S31502000DF00022C0E90311C0E9002170470021016108
S31502000E007047D4D4D4D4D4D480B5D1F800C01CF160
S31502000E10010207D000F1080296465268136863453C
S31502000E20FAD903E0D0F810E0DEF804204A609160B7
S31502000E30C1F808E0CEF804100861016801310160CA
S31502000E4080BDD0E901230169936042685A604A680D
S31502000E50824201D182684A60002202610868013832
S31502000E600860704770B500284BD00446C06BC0B30B
S31502000E700E46216CA0FB010199BBFFF77AFAD4E971
S31502000E800F010025226801FB00230138A56300FB40
S31502000E900120C4E90123E060FF2084F8440084F8BD
S31502000EA0450004F110004EB1FFF79DFF04F1240046
S31502000EB0FFF799FFFFF78BFA012070BD0168002941
S31502000EC0F8D001F088F80028F4D04EF604504FF01E
S31502000ED08051CEF200000160BFF34F8FBFF36F8FD8
S31502000EE0E8E742F6052042F6863242F6FB23C0F2D6
S31502000EF00020C0F20022C0F200234FF4B671FFF7C1
S31502000F0057FD42F6052042F6863242F6E823C0F243
S31502000F100020C0F20022C0F2002340F23711FFF790
S31502000F2047FD10B582B043B3B8B11C4601B9A2B9A8
S31502000F3001B192B148230193019B482B2DD100297F
S31502000F4054EA0282019BC4E90F0101212046226074
S31502000F50FFF788FF204602B010BD42F6052042F692
S31502000F60501242F66F23C0F20020C0F20022C0F2F5
S31502000F7000234FF4D871FFF71BFD42F6052042F617
S31502000F80501242F2CF73C0F20020C0F20022C0F229
S31502000F9000234FF4C271FFF70BFD42F6052042F61D
S31502000FA0501242F62113C0F20020C0F20022C0F213
S31502000FB000234FF4CB71FFF7FBFCB0B582B060B1F2
S31502000FC00D46814209D81446002100222346FFF726
S31502000FD0A8FFA563204602B0B0BD42F6052042F640
S31502000FE0C01242F2DD73C0F20020C0F20022C0F24B
S31502000FF000234FF45E71FFF7DBFCD4D4D4D4D4D4EF
S315020010002DE9F04F83B00028029200F09D8004463D
S315020010101D461646894619B9206C002840F0C48040
S31502001020022D03D1E06B012840F0AE8001F0BFF83B
S3150200103010B9002E40F09880FFF79BF9022DA06BA5
S315020010405BD0E16B884258D301206F464FF0000B0C
S3150200105002AE00BF00BF00BF0299002968D0C007D8
S3150200106002D0384601F03FF8FFF7B1F900F049FC2B
S31502001070FFF77FF994F84400FF2808BF84F844B0CC
S3150200108094F84500FF2808BF84F845B0FFF79FF99A
S315020010903846314601F034F800284CD1FFF769F999
S315020010A0D4F838A0D4F83C80FFF791F9C24517D19D
S315020010B0029904F1100000F031FF204600F0B4F866
S315020010C000F07AFC88B94EF604504FF08051CEF209
S315020010D000000160BFF34F8FBFF36F8F05E000BFC3
S315020010E0204600F0A1F800F067FCFFF742F9A06B7A
S315020010F0E16B88424FF00000AED2204649462A46AE
S3150200110000F062F854F8240F70B1204600F063FF35
S3150200111050B14EF604504FF08051CEF200000160FD
S31502001120BFF34F8FBFF36F8FFFF751F9012008E02E
S31502001130FFF74DF904E0204600F076F800F03CFC9B
S31502001140002003B0BDE8F08F42F6052042F24F724E
S3150200115042F6E823C0F20020C0F20022C0F20023C9
S3150200116040F2B631FFF724FC42F6052042F24F72F6
S3150200117042F26173C0F20020C0F20022C0F20023E4
S3150200118040F2BB31FFF714FC42F6052042F24F72E1
S3150200119042F2E573C0F20020C0F20022C0F2002340
S315020011A04FF46E71FFF704FC42F6052042F24F72CD
S315020011B042F6F033C0F20020C0F20022C0F2002351
S315020011C040F2B731FFF7F4FB70B5866B036C044649
S315020011D02BB31546B2B1E0681A4601F0E4F921686C
S315020011E0E268206C121AE2608A4203D24042A16887
S315020011F00844E060022D5FEA1F90002E5FEA00803D
S31502001200361A0CE060681A4601F0CDF9D4E90101FC
S31502001210226C10446060884201D320686060701CB2
S31502001220A06370BDD4D4D4D4F0B581B00446FFF720
S31502001230A0F894F94560012E0EDB04F1240500BFE7
S31502001240286848B1284600F0C6FE08B100F0A8FF9B
S3150200125070B2013E0128F3DCFF2684F84560FFF7F1
S31502001260B6F8FFF786F894F94470012F10DB04F103
S31502001270100500BF00BF00BF286848B1284600F02D
S31502001280AAFE08B100F08CFF78B2013F0128F3DC18
S3150200129084F8446001B0BDE8F040FFF798B8D4D4B2
S315020012A02DE9F04F83B00028029200F0AA8004468E
S315020012B01646894619B9206C002840F0C28000F013
S315020012C076FF10B9002E40F0AC80FFF752F8D4F842
S315020012D038A0BAF1000F29D0226C52B1D4E902012A
S315020012E01144E160814201D32168E160484601F080
S315020012F05AF954F8100F0028AAF10100A0620ED084
S31502001300204600F068FE50B14EF604504FF0805170
S31502001310CEF200000160BFF34F8FBFF36F8F01243F
S31502001320FFF755F8204603B0BDE8F08F04F1240814
S3150200133001206F464FF0000B02AE00BF00BF00BF98
S315020013400299002959D0C00702D0384600F0CBFED8
S31502001350FFF73DF800F0D5FAFFF70BF894F84400D2
S31502001360FF2808BF84F844B094F84500FF2808BF58
S3150200137084F845B0FFF72BF83846314600F0C0FE38
S3150200138070B12046FFF750FF00F016FBFEF7F1FFA3
S31502001390A56BFFF71CF895B326E000BF00BF00BFA0
S315020013A0FEF7E7FFA56BFFF712F82DB12046FFF710
S315020013B03BFF00F001FB17E00299404600F0AEFD4C
S315020013C02046FFF731FF00F0F7FA68B94EF60450EF
S315020013D04FF08051CEF200000160BFF34F8FBFF392
S315020013E06F8F00BF00BF00BFFEF7C3FFD4F838A05F
S315020013F00020BAF1000FA3D06EE7002490E7002484
S3150200140090E742F6052042F6E41242F2B473C0F2C5
S315020014100020C0F20022C0F2002340F2E951FFF799
S31502001420C7FA42F6052042F6E41242F26173C0F2AE
S315020014300020C0F20022C0F2002340F2F251FFF770
S31502001440B7FA42F6052042F6E41242F67A23C0F2D1
S315020014500020C0F20022C0F2002340F2ED51FFF755
S31502001460A7FAD4D4D4D4D4D42DE9F04F83B000282B
S31502001470029100F090800446006C002840F09B80A8
S315020014800D4600F094FE10B9002D40F0A480FEF740
S3150200149070FFA06BD0B154F8101F0138A06271B171
S315020014A0204600F098FD50B14EF604504FF08051A0
S315020014B0CEF200000160BFF34F8FBFF36F8F01249E
S315020014C0FEF785FF204603B0BDE8F08F4EF60459BD
S315020014D004F1240801216E464FF0000B02AFCEF252
S315020014E000094FF0805A00BF029800284FD0C80763
S315020014F002D0304600F0F7FDFEF769FF00F001FA70
S31502001500FEF737FF94F84400FF2808BF84F844B07A
S3150200151094F84500FF2808BF84F845B0FEF757FF48
S315020015203046394600F0ECFD70B12046FFF77CFEEE
S3150200153000F042FAFEF71DFFA56BFEF748FF45B322
S315020015401EE000BF00BF00BFFEF713FFA56BFEF74C
S315020015503EFF2DB12046FFF767FE00F02DFA0FE0A1
S315020015600299404600F0DAFC2046FFF75DFE00F0E5
S3150200157023FA28B9C9F800A0BFF34F8FBFF36F8FC4
S31502001580FEF7F7FEA06B00210028ADD083E700240A
S3150200159096E7002496E742F6052042F63C1242F20E
S315020015A0B473C0F20020C0F20022C0F2002340F25F
S315020015B08261FFF7FDF942F6052042F63C1242F639
S315020015C0B333C0F20020C0F20022C0F2002340F280
S315020015D08661FFF7EDF942F6052042F63C1242F229
S315020015E06173C0F20020C0F20022C0F2002340F272
S315020015F08B61FFF7DDF9D4D4B0B5F8B1C9B140F6C5
S315020016001C2E4FF0000CC2F2002E0022002300BF57
S315020016100EEB02046568A8420CD01BB92368002BA6
S3150200162054EA0C830832502AF2D1002B18BFC3E9C0
S315020016300010B0BD2346C3E90010B0BD42F6052036
S3150200164042F21A6242F63533C0F20020C0F200229C
S31502001650C0F2002340F6C931FFF7AAF970B5154664
S315020016600E460446FEF785FE94F84400FF2802D192
S31502001670002084F8440094F84500FF2802D1002097
S3150200168084F84500FEF7A3FEA06B28B904F12400F6
S3150200169031462A4600F063FC2046BDE87040FFF75B
S315020016A0C3BDD4D4D4D4D4D42DE9F04782B0DDF866
S315020016B02CA0BAF1000F00F0E4800C9C002C00F084
S315020016C0F0808146602001900198602840F0F98000
S315020016D00E46019860212046984615460A9F00F05C
S315020016E05EFFC4F830A07EB104F134000F2100BFC2
S315020016F016F8012B00F8012B1AB10029A1F10101FC
S31502001700F6D1002084F84300052F80F0EA800AEB28
S315020017108500251D0438E76220F007062846FFF7F4
S315020017206DFB04F11800FFF769FBC7F10500A06124
S31502001730216B30464A46434624616462FEF7BAFD8F
S315020017402060FEF716FE40F6902040F66C2AC2F2A2
S315020017500020C2F2002A40F674290168C2F200296A
S3150200176001310160DAF8001061B1D9F800000028F1
S3150200177044D1DAF80000E16AC06A884298BFCAF822
S3150200178000403BE0CAF800400068012836D140F626
S315020017909C260527C2F200263046FFF724FB013FAE
S315020017A006F11406F8D140F64838C2F2002840463F
S315020017B0FFF719FB40F65C36C2F200263046FFF709
S315020017C012FB40F61C30C2F20020FFF70CFB40F67B
S315020017D07820C2F20020FFF706FB40F60430C2F280
S315020017E00020FFF700FB40F63C3040F64031C2F2E3
S315020017F00020C2F20021C0F800800E6040F6702080
S31502001800C2F2002001680131016040F60031E06A4F
S31502001810C2F200210A68904288BF086000EB80008D
S3150200182040F69C21C2F2002101EB80004068A060D4
S315020018308268E26055608560E06A00EB800001EB39
S315020018408002626151F82020013241F82020FEF721
S31502001850BEFDD9F8000080B1DAF80000E16AC06A7C
S3150200186088420AD24EF604504FF08051CEF2000062
S315020018700160BFF34F8FBFF36F8F204602B0BDE802
S31502001880F08742F6442042F6302242F2F063C0F27A
S315020018900020C0F20022C0F2002340F2F141FFF71D
S315020018A087F842F6442042F6302242F69503C0F209
S315020018B00020C0F20022C0F2002340F2F241FFF7FC
S315020018C077F842F6442042F6302242F64643C0F208
S315020018D00020C0F20022C0F2002340F2FA41FFF7D4
S315020018E067F842F6442042F6B00242F63C03C0F2E2
S315020018F00020C0F20022C0F2002340F26471FFF71A
S3150200190057F840F69420C2F20020016801310160C6
S3150200191070472DE9F04381B040F6982240F63C33F9
S31502001920C2F2002240F66C24C2F20023C2F2002464
S31502001930156840F64032C2F20022D3F8008006460D
S315020019400F46D2F800902268101DFFF77AFA701C33
S3150200195016D1AFB140F60430C2F20020D0E900122F
S31502001960236801319A6093682768FB602768043709
S315020019705F6023680433936022680160506117E058
S315020019802068AD194560206800F1040105D3484678
S3150200199001B0BDE8F043FFF737BA4046FFF734FA25
S315020019A040F63030C2F2002001688D4238BF056031
S315020019B001B0BDE8F083D4D42DE9F047FEF7D9FC97
S315020019C040F69420C2F200200168002900F0B2809D
S315020019D0016801390160006828B10024FEF7F7FCAE
S315020019E02046BDE8F08740F69020C2F2002000684B
S315020019F00028F2D040F61C3040F6183AC2F2002017
S31502001A0040F66C29C2F2002AC2F2002901680029B6
S31502001A1067D040F6003E40F69C230021C2F2002E1B
S31502001A20C2F200234FF0010CC768FC6804F11802E9
S31502001A30D4E90775A66ABD60E7696F607568954265
S31502001A4001D1226A7260A1623268013A3260261DB1
S31502001A50D4E9022567699560A2686A607A68B2422B
S31502001A6001D1E2687A6061613A68013A3A60E76AEE
S31502001A70DEF80020974207EB870288BFCEF8007097
S31502001A8003EB82025268A2609568E5606E6096601A
S31502001A90E26A02EB820203EB8205656153F8225089
S31502001AA0013543F82250E26AD9F80040E46AA242BC
S31502001AB088BFCAF800C002680AB12FF04BC840F6C8
S31502001AC03C30C2F200200168096819B10068C0689A
S31502001AD0006801E04FF0FF3040F63031C2F20021DB
S31502001AE0086040F63838C2F20028D8F800606EB1B5
S31502001AF0012400BF00BF00BF00F02EF908B1CAF8EA
S31502001B000040013EF8D10020C8F80000DAF80000D3
S31502001B1000283FF462AFD9F800004EF60450CEF228
S31502001B2000004FF0805101240160BFF34F8FBFF3D5
S31502001B306F8F53E742F6442042F64D0242F6503387
S31502001B40C0F20020C0F20022C0F2002340F68B71E0
S31502001B50FEF72EFF80B580B140F69421C2F2002135
S31502001B600A6801320A600968012912D10021FFF7C9
S31502001B70D0FEFFF721FF00B180BD4EF604504FF0B4
S31502001B808051CEF200000160BFF34F8FBFF36F8F1B
S31502001B9080BD42F6442042F6F02242F67C13C0F2A1
S31502001BA00020C0F20022C0F2002340F68E11FEF79A
S31502001BB0FFFED4D4D4D4D4D480B540F69420C2F255
S31502001BC00020006830B140F618300121C2F2002030
S31502001BD0016080BD40F6183040F6003CC2F200209B
S31502001BE0C2F2002C002140F69C230160C2F20023BF
S31502001BF0DCF8001001EB810253F8220003EB8202AB
S31502001C0048B900BF00BF00BFC1B152F8140D013977
S31502001C1008B92FF007C8506802F1080E43685360EE
S31502001C20734501D1D368536040F66C22D868C2F27C
S31502001C3000221060CCF80010106880BD42F64420E5
S31502001C4042F2DD6242F6E233C0F20020C0F2002226
S31502001C50C0F2002341F2FA31FEF7AAFEB0B58AB00D
S31502001C6044F2494004A9C4F24C50069005A803AABE
S31502001C7000248DF81C40CDE90444FEF753FADDE951
S31502001C800320019042F2D91006A9C0F200200023D7
S31502001C90059D00940295FFF707FD40F63430C2F227
S31502001CA00020056000F0B1FA012811D0013025D1DB
S31502001CB042F6442042F63C3242F6A313C0F200201A
S31502001CC0C0F20022C0F2002340F6A961FEF770FEC0
S31502001CD040F630310120C2F2002180F310884FF025
S31502001CE0FF320A6040F6742140F69822C2F20021C1
S31502001CF0C2F2002208601460FEF7FAFA42F6B060F9
S31502001D00C0F2002000680AB0B0BDD4D4D4D4D4D472
S31502001D1070B540F68C24C2F200242068D8B140F691
S31502001D20782540F69026C2F20025C2F2002600BFB0
S31502001D30FEF71FFBE868C0680430FFF782F83068D8
S31502001D4001383060206801382060FEF740FB2068C9
S31502001D5008B12FF013C870BD2DE9F04F81B040F6DF
S31502001D609420C2F20020006840B140F63830C2F238
S31502001D7000200168013101600020B6E040F698209B
S31502001D8040F6303CC2F20020C2F2002C016811F18A
S31502001D90010BC0F800B022D340F63C30C2F200205C
S31502001DA001680968002940F0A38040F640330168C3
S31502001DB0C2F200231F680760196040F64431C2F27E
S31502001DC000210B6801330B600168096819B10068CC
S31502001DD0C068006801E04FF0FF30CCF80000DCF884
S31502001DE00000834501D2002077E040F63C3A4FF0EE
S31502001DF00009C2F2002ADAF800000068002867D05B
S31502001E0040F6003E40F69C2440F66C28C2F2002EB4
S31502001E10C2F20024C2F20028002000BF00BF00BFA9
S31502001E20DAF80050ED68EE68374657F8045FAB45BE
S31502001E3051D3D6E9021375698B60B1685960696836
S31502001E40B94201D1F1686960C6F81490296801396E
S31502001E502960B56A85B1D6E9071306F118028B60C7
S31502001E60F16959606968914201D1316A6960C6F8BF
S31502001E702890296801392960F56ADEF800108D423A
S31502001E8005EB850188BFCEF8005004EB8101496855
S31502001E90B1608A68F26057608F60F16A01EB810176
S31502001EA004EB8102726154F82120013244F82120A8
S31502001EB0F16AD8F80020D26ADAF80030914288BF77
S31502001EC00120196809B12FF055C84FF0FF3502E01D
S31502001ED04FF0FF350020CCF8005040F61831C2F220
S31502001EE000210968002918BF012001B0BDE8F08F62
S31502001EF042F6442042F6F21242F26763C0F2002032
S31502001F00C0F20022C0F2002341F25F21FEF750FD2B
S31502001F1040F69820C2F200200068704710B570B1F2
S31502001F200C4640F66C21C2F2002109681831FEF710
S31502001F306BFF01212046BDE81040FFF7EABC42F6DE
S31502001F40442042F61F3242F69713C0F20020C0F236
S31502001F500022C0F200234FF4A451FEF729FD10B56A
S31502001F6048B340F66C2CD0F804E0C2F2002C002AEA
S31502001F70DCF80030C3F81CE0DEF80830DCF800407C
S31502001F802362DCF8004004F118045C60DCF80030DF
S31502001F9003F11803CEF80830DCF80030986218BF57
S31502001FA04FF0FF3103680133036008461146BDE86E
S31502001FB01040FFF7AEBC42F6442042F65C0242F6FF
S31502001FC09713C0F20020C0F20022C0F2002341F2B1
S31502001FD0BE41FEF7EDFC80B5C068C068002872D02D
S31502001FE0D0E9073100F1180C826A9960C3694B6027
S31502001FF05168614501D1016A51600021816211680F
S315020020000139116040F69421C2F20021096891B1AA
S3150200201040F61C3EC2F2002EDEE90023C361996837
S315020020200162C1F804C0C3F808C0C0F828E0511C18
S31502002030CEF8001035E0D0E9023100F1040C426915
S31502002040996083684B605168614501D1C1685160EE
S315020020500021416140F600331168C2F200230139C2
S315020020601160C26A19688A4288BF1A6002EB82014D
S3150200207040F69C22C2F2002202EB8101496881608D
S315020020808B68C360C3F804C0C1F808C0C16A01EB1B
S31502002090810102EB8103436152F82130013342F898
S315020020A0213040F66C21C06AC2F200210968C96A71
S315020020B0884206D940F618310120C2F20021086092
S315020020C080BD002080BD42F6442042F67C0242F2E8
S315020020D0C073C0F20020C0F20022C0F2002341F217
S315020020E0F541FEF765FC40F64431C2F2002109686B
S315020020F0016040F69821C2F20021096841607047EA
S3150200210070B568B30D46D9B30446FEF732F940F608
S31502002110982EC2F2002EDEF8003029684A1C16D02C
S3150200212040F6443CD4E90002C2F2002CDCF800601E
S31502002130864201D093420CD29A1A914209D9881A40
S315020021402860DCF800002060DEF8000060600024F1
S3150200215002E0012400202860FEF739F9204670BD0E
S3150200216042F6442042F6D32242F63203C0F200205F
S31502002170C0F20022C0F2002341F2A551FEF718FC7C
S3150200218042F6442042F6D32242F6C503C0F20020AC
S31502002190C0F20022C0F2002341F2A651FEF708FC6B
S315020021A040F618300121C2F200200160704740F665
S315020021B07420C2F20020006850B140F69420C2F2A8
S315020021C00020006800284FF0000008BF0220704778
S315020021D001207047D4D4D4D440F69C244EF604553C
S315020021E0C2F20024CEF200054FF0805600BF00BFB7
S315020021F0FFF78EFD2068022804D32E60BFF34F8FAF
S31502002200BFF36F8FFEF73DF9F2E780B586B000F0B7
S315020022103AF840F67030C2F20020006818B3002087
S31502002220CDE9040005A804A903AAFDF789FF0DF16B
S315020022300C0E0320009042F2013042F69931C0F2B0
S3150200224000209EE80450C0F200210023CDE901CE11
S31502002250FFF72AFA40F67431C2F20021086010B183
S31502002260012006B080BD42F20D7042F6CC3242F633
S31502002270D303C0F20020C0F20022C0F200234FF4C2
S31502002280A371FEF795FB70B582B0FEF772F840F6C1
S315020022907036C2F20026306868BB40F68434C2F259
S315020022A000242046FEF79FFD40F69835C2F200252F
S315020022B02846FEF798FD40F6783040F67C31C2F2A9
S315020022C00020C2F2002140F6F43240F6AC3304603C
S315020022D00D60C2F20022C2F200230A200C21002560
S315020022E00095FEF71EFE306028B142F24A71C0F236
S315020022F00021FFF781F902B0BDE87040FEF767B82A
S3150200230084B040F6783840F67035C2F2002801AC47
S31502002310C2F200254FF0000BEA4600BF00BF00BF25
S31502002320D8F80000D0F80090B9F1000F04D0C068C8
S31502002330066802E000BF00BF0026FFF7E2FA204669
S3150200234000F0A6F8019919B1FFF736FB30E000BF9D
S315020023500746B9F1000F08D0BE4206D8FFF72CFB9C
S315020023603046394600F0C1F822E0B9F1000F01D03B
S31502002370002208E040F67C30C2F2002000680068C5
S3150200238000285FEA1F922868F11BFFF767F9FFF73B
S3150200239013FB68B94EF604504FF08051CEF200009E
S315020023A00160BFF34F8FBFF36F8F00BF00BF00BF47
S315020023B0CDF80CB0CDE901BB286800222146FEF714
S315020023C06FFF08B92FF055C001980028F4D4039E78
S315020023D0706910B1301DFEF734FD504600F058F812
S315020023E0019901390829E7D80746DFE801F0050512
S315020023F01E251E05051E250096F82400029BB169BE
S315020024003A4640F0010086F824001944304600F0AE
S31502002410A6F808B92FF031C096F8240041071BD45C
S3150200242000F0FA0086F824001DE096F8240000F079
S31502002430FE0086F82400BFE796F824100298B061E1
S3150200244041F0010186F8241088B1C11930463A4696
S315020024503B4600F084F8AFE70298B1690144304682
S315020024603A4600F065F8316A30468847A4E742F2F8
S315020024700D7042F66B3242F65F43C0F20020C0F2A4
S315020024800022C0F200234FF48261FEF791FAD4D4FF
S31502002490F0B581B00446FFF73BFD40F680360546AF
S315020024A0C2F200263168884210D240F67837C2F26C
S315020024B0002700BF00BF00BF3868016841B1C0688D
S315020024C04FF0FF31006800F010F8F5E7002007E052
S315020024D040F67C31C2F200210A68086001203A60A7
S315020024E020603560284601B0F0BD70B540F67832FE
S315020024F00646C2F200220D461268D268D468201D32
S31502002500FEF79FFC94F82400410704D400F0FA0079
S3150200251084F8240004E0204631462A4600F008F8F2
S31502002520216A2046BDE870400847D4D4D4D4D4D416
S3150200253070B50446806915460E460144204600BF22
S31502002540334600F00CF848B1A069216A06442046D9
S315020025508847A0692A4681192046F1E770BD8C4654
S3150200256001469445006141F804CF08D940F6783017
S315020025709A42C2F200200AD29C4508D30DE0806935
S31502002580D21A824209D240F67C30C2F2002080B5CD
S315020025900068FEF739FC002080BD012070470A461C
S315020025A0002100F009B810B5002322B1CC5C013A33
S315020025B0C4540133F9E710BD03461AB103F8011BEF
S315020025C0013AFAE77047D4D40249401A0249086030
S315020025D0704700BF080000006C0C002210B50549C8
S315020025E00446054AFFF7DFFF044805492044FFF782
S315020025F0D6FF10BD400000020000000000000000EF
S315020026000000000000000000757843726974696377
S31502002610616C4E657374696E670076517565756592
S31502002620416464546F5265676973747279002E2E21
S315020026302F72612F6673702F7372632F726D5F66CE
S3150200264072656572746F735F706F72742F706F72DA
S31502002650742E630076506F7274456E74657243729F
S3150200266069746963616C002820282028202820705C
S315020026707844656C617965645461736B4C697374F3
S3150200268020292D3E75784E756D6265724F664974C6
S31502002690656D73203D3D202820554261736554794E
S315020026A070655F74202920302029203F20282028A9
S315020026B02042617365547970655F74202920312048
S315020026C029203A20282028204261736554797065B2
S315020026D05F74202920302029202920290076546180
S315020026E0736B537769746368436F6E7465787400AD
S315020026F0707578537461636B4275666665722021E4
S315020027003D202828766F69642A293029002E2E2F2B
S3150200271072612F6177732F4672656552544F532F3C
S315020027204672656552544F532F536F757263652F08
S3150200273074696D6572732E630075635356434E75E5
S315020027406D626572203C3D203300546D72510078F3
S31502002750517565756547656E6572696353656E6425
S31502002760002128202820785461736B4765745363CF
S31502002770686564756C657253746174652829203DB9
S315020027803D202820282042617365547970655F7464
S315020027902029203020292029202626202820785466
S315020027A069636B73546F5761697420213D20302031
S315020027B02920290028207078517565756520290021
S315020027C07078556E626C6F636B6564544342007039
S315020027D078537461746963517565756500784861EB
S315020027E06E646C6500212820282078436F7079502A
S315020027F06F736974696F6E203D3D20282028204240
S31502002800617365547970655F74202920322029200E
S3150200281029202626202820707851756575652D3E5B
S3150200282075784C656E67746820213D203120292019
S315020028302900707854696D654F7574007578507209
S31502002840696F72697479203C2028352900785461B1
S31502002850736B526573756D65416C6C00765461736A
S315020028606B506C6163654F6E4576656E744C697329
S315020028707452657374726963746564007854617323
S315020028806B52656D6F766546726F6D4576656E74D1
S315020028904C6973740070785461736B427566666531
S315020028A07220213D202828766F69642A2930290062
S315020028B0707276496E697469616C6973654E657783
S315020028C05461736B0070785469636B73546F57610C
S315020028D06974007852657475726E0028282853430D
S315020028E0425F54797065202A29202828307845309D
S315020028F0303045303030554C29202B20307830444A
S315020029003030554C2920292D3E494353522026204A
S31502002910283078314646554C202929203D3D203025
S31502002920007853697A65203D3D2073697A656F6642
S31502002930282051756575655F742029007851756583
S31502002940756553656D6170686F726554616B65007C
S3150200295078517565756547656E657269634372651B
S315020029606174655374617469630076506F7274534F
S31502002970564348616E646C65725F430075785363B3
S31502002980686564756C657253757370656E646564AB
S31502002990203D3D2031550070784576656E744C6950
S315020029A07374007852657475726E20213D2028205A
S315020029B02D312029004E65772054687265616400C6
S315020029C0785175657565437265617465436F756E99
S315020029D074696E6753656D6170686F726553746171
S315020029E074696300785175657565526563656976C4
S315020029F06500785461736B496E6372656D656E74BA
S31502002A005469636B002E2E2F72612F6177732F46E6
S31502002A1072656552544F532F4672656552544F5331
S31502002A202F536F757263652F71756575652E630019
S31502002A307072764372656174655374617469635426
S31502002A4061736B002E2E2F72612F6177732F467280
S31502002A50656552544F532F4672656552544F532F34
S31502002A60536F757263652F7461736B732E63007097
S31502002A70784E6577517565756500212820282028CE
S31502002A802070764275666665722029203D3D2028B3
S31502002A9028766F69642A29302920292026262028AB
S31502002AA02028207078517565756520292D3E757828
S31502002AB04974656D53697A6520213D202820554267
S31502002AC0617365547970655F742029203055202919
S31502002AD0202900785461736B436865636B466F7295
S31502002AE054696D654F75740070785175657565002A
S31502002AF0765461736B44656C6179007852657475BE
S31502002B00726E20213D2028202820282042617365EC
S31502002B10547970655F742029203020292029007697
S31502002B205461736B506C6163654F6E4576656E7466
S31502002B304C697374007851756575650076546173D6
S31502002B406B53746172745363686564756C65720065
S31502002B5075785363686564756C65725375737065D1
S31502002B606E64656420213D20305500707276507285
S31502002B706F636573735265636569766564436F6DEA
S31502002B806D616E64730078517565756547656E652E
S31502002B90726963526573657400546D72205376636D
S31502002BA00076506F7274457869744372697469630A
S31502002BB0616C00707851756575652D3E757849743E
S31502002BC0656D53697A65203D3D2030007854696D04
S31502002BD0657243726561746554696D657254617399
S31502002BE06B007578546F705072696F7269747900F0
S31502002BF0212820282070764974656D546F517565B9
S31502002C007565203D3D202828766F69642A2930297A
S31502002C102029202626202820707851756575652D75
S31502002C203E75784974656D53697A6520213D202881
S31502002C30205542617365547970655F74202920308E
S31502002C405520292029007853697A65203D3D207355
S31502002C50697A656F6628205443425F7420290028EA
S31502002C6020707854696D65722D3E7854696D65726F
S31502002C70506572696F64496E5469636B73203E20B6
S31502002C8030202900000001000802000000000100B7
S31502002C9009020000000001000A0200000000010013
S31502002CA00B02000004000000842C00020000000059
S31502002CB0020403040404D4D400000068000000687F
S31502002CC000000080000000800000002200000022B8
S31502002CD009000000E82C000215000000542D000235
S31502002CE003000000B82C0002000000680000006823
S31502002CF00001000D00000068000000680001000DE0
S31502002D000000008000000080000100080000008032
S31502002D100000008000010008000000000000000022
S31502002D200100000500000020000000200100000450
S31502002D300000002200000022000000032C040022F2
S31502002D40700C002200000003700C0022700C00229E
S31502002D500000000300000068000000680000009008
S31502002D600001090D0000006800000068000000086C
S31502002D7000010E0D00000068000000680000002738
S31502002D800001020D00000068000000684000000219
S31502002D900001010D0000008000000080000000908C
S31502002DA00001090800000080000000800000000801
S31502002DB000010E08000000800000008000000027CD
S31502002DC000010208000000800000008040000002AE
S31502002DD00001010800000000000000000000009051
S31502002DE001010905000000000000000000000008C3
S31502002DF001000E0500000000000000000000002790
S31502002E000100020500000000000000004000000270
S31502002E1001000105000000200000002000000090D3
S31502002E200101090400000020000000200000000843
S31502002E3001000E0400000020000000200000002710
S31502002E4001000204000000200000002040000002F1
S31502002E500100010400000022000000220000009090
S31502002E600001090300000022000000220000000801
S31502002E7000000E03000000220000002200000027CE
S31502002E8000000203000000220000002240000002AF
S31502002E9000000103700C0022700C002240000002A8
S31502002EA000000103000001000200080010002000DB
S31502002EB00400000000000606362E362E300042754B
S31502002EC0696C7420776974682052656E65736173E4
S31502002ED020416476616E63656420466C657869623A
S31502002EE06C6520536F667477617265205061636BFF
S31502002EF06167652076657273696F6E20362E362E8F
S30702002F00300097
S30902C9F040FFFFFFFFFF
S30902C9F044EFFFFFFF0B
S30902C9F0C0FFFFFFFD81
S30902C9F0C4FFFFFFFF7B
S30902C9F120000000001A
S30902C9F1240000000016
S70502000B41AC
