:020000040200F8
:1000000000040022792C0002792B0002832C0002CC
:10001000832C0002832C0002832C0002832C00021C
:10002000000000000000000000000000912200021B
:10003000832C000200000000A9220002112300020C
:1000400003F1010C00BF00BFBCF1010C06D0036836
:100050000B425FEA0F9392EA030FF5D1BCF1000F58
:100060005FEA0F907047D4D403F1010C00BF00BFCA
:10007000BCF1010C06D003780B425FEA0F9392EAC1
:10008000030FF5D1BCF1000F5FEA0F90704780B508
:10009000012002F0C9FD43F2040043F2FF52C4F212
:1000A0002000CDF67B6201681140016041684FF687
:1000B000FF7221F0406141608168CBF6D77221F474
:1000C00040118160C1681140C1600068012002F0E8
:1000D00084FD01204FF47A71BDE8804002F009BD33
:1000E00040F6EC6CEFF31082C2F2002C012080F39A
:1000F0001088DCF80000002840F60400C4F240003C
:1001000005D1002380F81035402380F8103580B5E4
:10011000DCF8003040F200410133CCF8003010230D
:10012000C0F20161C0F2014382F3108803F57C7EC6
:10013000C0F844E3C0F8483301F17F42C0F8202200
:1001400003F18072C0F81C2240F20042C1F20102A9
:10015000C0F800E2C0F80432C0F8F02002F1100349
:10016000C0F8EC30C0F8A021C0F8A431C16301642C
:1001700041648164502140F20042C0F20171C0F834
:10018000FC10C0F20132C0F800110265C264C0F870
:100190004021C0F824221021C1610162C162C0F86F
:1001A00024110421C0F8C810C0F87C11C0F89812BE
:1001B000C0F820114FF4004202608261426340F6B1
:1001C0000042C1F20132C0F83422C0F83822C0F82F
:1001D0001821C0F83C1140F2004140F60042C1F243
:1001E0000161C1F60102C0F8CC20C0F8D020C0F8EF
:1001F000D420C0F8D820C0F8E420C0F8E020C0F82F
:100200005422C0F85822C0F85C22C0F86022C0F81E
:100210009420C0F85022C0F838111031C0F83411C1
:100220000521C0F8DC110121EFF3108281F3108861
:10023000DCF8001021B1DCF800100139CCF8001016
:10024000DCF8001029B9002180F81015802180F811
:10025000101582F3108880BD80B50723012A08BFDE
:100260000523002A45F6401C08BF032301FA03F3C7
:10027000C0F2737C4FF0000EC0F808E00CEB530C9A
:100280004FF480719C45416107D3BCFBF3F1013908
:10029000FF2928BFFF214FEA012E0EEB025141F04A
:1002A000100101614FF08051C1601121816080BD5A
:1002B000B0B540F640530C4605464830C0F2030343
:1002C0004FF000510122FFF7BBFE00B12C71B0BD11
:1002D0002DE9F0410F78AFB140F64056044600F1E9
:1002E00048084D1CC0F203064FF000510122404661
:1002F0003346FFF7A5FE00B1277115F8017B0FB15A
:100300002FF00FC0BDE8F081816CC90148BF0178B2
:10031000816CB1F1FF3FC4BF4FF0FF3070470078F0
:10032000704710B544F254704FF47A71C0F2002057
:100330000468E06820F01000E060E06840F0200011
:10034000E060012002F0D5FBE06840F6405320F069
:100350002000E06004F14800C0F203034FF00051B8
:100360000122FFF76DFE08B15520207110BD4CF23F
:1003700000100021C4F235003D22017081708272AC
:1003800001724FF4E061018248210170704770B53D
:100390004CF2031448F2A065C4F23504C0F2010522
:1003A00006462021012220462B46FFF75DFE48B17C
:1003B0008021012220462B466670FFF755FE08B1CA
:1003C000607870BD002070BD4EF20000C4F22500C0
:1003D000017801F07F010170017841F04001017066
:1003E000017841F080010170817801F08F01303196
:1003F0008170262141740174012101713021417104
:10040000017801F0BF01017070472DE9F0414EF213
:1004100001040746C4F2250448F2A068C0F20108AE
:1004200004F10805207A0E468021012200F0EF0039
:1004300020726220207028464346FFF715FEA0B1C7
:10044000780060744021012228464346FFF70CFEE5
:1004500068B1207AC0060AD44021012228464346CA
:1004600066740126FFF700FE02E0002604E0002685
:10047000207840F0080020703046BDE8F08170B56B
:10048000044640F640558069C0F2030504F11C069D
:1004900020F00400A0610421002230462B46FFF723
:1004A000CFFD20B3A069012161F30100A061012209
:1004B00030462B46FFF7C4FDC8B1606804F108065A
:1004C00020F0040060600421002230462B46FFF734
:1004D000B7FD60B1606801230121012263F30100CF
:1004E000606030462B46BDE87040FFF7A9BD002094
:1004F00070BDB0B50546FFF7C2FFF8B140F6050084
:1005000040F60521C0F21460C0F203212860C5F84E
:100510000011A86940F6405320F00300A861D5F807
:1005200004C005F11C00C0F20303012100222CF0DD
:1005300003046C60BDE8B040FFF782BDB0BDD4D409
:100540004FF0000CBCEBD12F2DD162B380B5A3F1DD
:10055000090E1EF1080F24D390F870C05FEACC7C1E
:100560001DD1DDF808C08904C0F804161907C0F8C9
:100570000816BCF1000F18BF4FF0040CC0F80CC6F1
:1005800000F5C26143F001E012F8013B01F8013BC4
:100590000FF007C04FF0010C80F870C001E04FF081
:1005A000000CBDE880406046704710B542F2040C74
:1005B0000124C4F2320C4FF4254EC0F800E004FAD6
:1005C00001F1CCF804100024C4624DF28F04C0F293
:1005D00003044466C26433B15208026540F2061255
:1005E000C0F2061201E04FF483724263C0F800E0EB
:1005F000CCF8001010BD4FF0FF32B1F57A7F98BFF4
:10060000032830D840F23843C2F200231B6853B3AA
:10061000594344F6D352C1F26202A1FB021242F2E4
:100620000011C4F23201B3EB921F88BF930950B19D
:10063000022804D0012809D101F150000EE042F651
:100640000041C4F2320101F14C0007E042F60040E3
:1006500001F51061C4F23200A0F5DA704FF42542C2
:100660000A60002203601046704710B548F200048B
:1006700040F64053C4F23304C0F2030301210122C7
:10068000206840F001002060201DFFF7D9FC4FF0EA
:100690000210A0604FF02010C4F840024FF48070A8
:1006A000C4F800064FF4E060C4F8100610BD80B531
:1006B00048F620400121C4F23300016001204FF4CC
:1006C0007A7102F016FA4AF2000040F23042C4F2A7
:1006D0003300C2F200220168118040F232414068CA
:1006E000C2F20021088080BD43F20400C4F223005E
:1006F000416841F480314160002120F8041C016808
:1007000021F000410160016841F001010160704782
:1007100040F2364143F20002C2F20021C4F2230249
:100720006FF31F30088010807047D4D4D4D4D4D451
:1007300040F2354240F6EC6CC2F20022C2F2002CCC
:1007400000F00F011170EFF31080012282F3108886
:10075000DCF800203AB940F614520023C4F24002FB
:100760001370402313702DE9F041DCF800204FF0A6
:10077000040E0132CCF8002080F3108844F260733C
:1007800040F6000443F6FA750022C0F200236FF031
:100790003F08C4F24004CFF6FE7500BF00BF00BFA3
:1007A00033F8026BF7B208EA960606EB870621FAE1
:1007B00002F707F00107013230592840384404306D
:1007C00030510FF013C80121EFF3108081F310882E
:1007D000DCF8001021B1DCF800100139CCF8001071
:1007E000DCF8001039B940F614510022C4F240017F
:1007F0000A7080220A7080F31088BDE8F081D4D49A
:1008000070B54FF0040E44F2587140F6000300201A
:10081000C0F200216FF03F0CC4F24003012200241B
:1008200031F8025BEEB20CEA950505EB860502FA9B
:1008300000F60130ED58AD0748BF34430FF011C04A
:10084000E0B270BD10B500244FF47A71C4F22504F3
:10085000208840F480602080012002F04AF920883E
:1008600020F040002080208820F020002080208878
:1008700040F001002080208840F01000208010BD52
:1008800044F2000040F64053C4F23500C0F20303C6
:1008900001210022D0F800C04CF0010CC0F800C0CB
:1008A000FFF7CEBB10B588B044F6686C6946C0F25D
:1008B000002C0A46BCE81940A2E819409CE81940FF
:1008C00082E8194040F22C4040F2304CC2F2002045
:1008D000C2F2002C026844F6A900C2F30333C0F24E
:1008E0000020C2F30324C35C8DF80530BCF800304F
:1008F00010F804E0C2F3031402F00F0C1A0B045DAD
:100900008DF806E08DF8074010F80C4010F802C092
:10091000C3F303228DF80EC040F2324CC2F2002C19
:1009200010F802E08DF80840C3F30314BCF800206F
:1009300003F00F0C045D8DF80FE0130B8DF81040E1
:1009400010F80C4010F803C0C2F303238DF813C055
:1009500040F2344CC2F2002C10F803E08DF8114044
:10096000C2F303149CF8003002F00F0C045D8DF804
:1009700014E01A0903F00F038DF8154010F80C402D
:10098000825CC05C8DF81B2044F24C72C0F20022E5
:100990008DF81C008DF816401068FFF799FC08B020
:1009A00010BDD4D4D4D4D4D42DE9F04182B00028E1
:1009B0004FF0FF3400F0C9810E46002900F0C581D8
:1009C0001546002A00F1C18101680746A9B1002D32
:1009D00000F0BB8130460124082200F8012B00BF43
:1009E000A5420CD001F07F02C90918BF803204F182
:1009F000010400F8012BF3D103E0002401E04FF0E3
:100A0000FF347868A8B1AC4280F09D811021315547
:100A10000134311900BF00BFA54200F0948100F0FD
:100A20007F02C00918BF803204F1010401F8012BD4
:100A3000F2D1002C00F18981B86840F2907800284A
:100A4000C2F2002800F0CD80F968A9B14046082222
:100A500000F8012B002200BF01F07F03C90918BF75
:100A6000803302F1010200F8013BF5D13969501CD5
:100A7000C1B1BE2A03D919E03969D1B100201022D1
:100A800008F80020013008EB000200BF00BF00BFE3
:100A900001F07F03C90918BF803300F1010002F89B
:100AA000013BF5D17969C9B1BF2807D94FF0FF30B3
:100AB00014E07969002900F06E810020182208F8FE
:100AC0000020013008EB000201F07F03C90918BFC4
:100AD000803300F1010002F8013BF5D1B96989B119
:100AE000BF2824D8202208F80020013008EB00029B
:100AF00001F07F03C90918BF803300F1010002F83B
:100B0000013BF5D1F969A1B1BF2810D8282208F816
:100B10000020013008EB000201F07F03C90918BF73
:100B2000803300F1010002F8013BF5D101E04FF004
:100B3000FF30396AB9B1BF2813D8302208F8002035
:100B4000013008EB000200BFC0280AD001F07F038B
:100B5000C90918BF803300F1010002F8013BF3D14D
:100B600001E04FF0FF30796AC9B1BF2815D83822AB
:100B700008F80020013008EB000200BF00BF00BFF2
:100B8000C0280AD001F07F03C90918BF803300F1E3
:100B9000010002F8013BF3D101E04FF0FF30B96AE8
:100BA00079B1BF2805D8BF284FF0400108F80010E0
:100BB00002D14FF0FF3004E008EB000102300122C7
:100BC0004A7007F12C02092101F039F90323009042
:100BD00030462946224600F0FBF80446002800F182
:100BE000B280F86BE8B1414608203A6C01F8010B7D
:100BF000012000BF00BF00BF02F07F03D20918BF71
:100C0000803300F1010001F8013BF5D1042300908D
:100C100030462946224600F0DBF80446002800F161
:100C20009280786CE0B141460820BA6C01F8010B63
:100C3000012000BF00BF00BF02F07F03D20918BF30
:100C4000803300F1010001F8013BF5D1052300904C
:100C500030462946224600F0BBF80446002872D4EC
:100C6000F86C80B3404608213A6D00F8021B002161
:100C700002F07F03D20918BF803300F8013C00F175
:100C8000010001F10101F3D1BE2910D87A6D0231C2
:100C9000102300F8013C00BF02F07F03D20918BF07
:100CA000803301F1010100F8013BF5D101E04FF083
:100CB000FF310623009130462946224600F088F88D
:100CC000044600283FD4B86D68B10021384600F0D2
:100CD000AFF80723009030462946224600F078F806
:100CE000044600282FD4786F68B10121384600F0FF
:100CF0009FF80823009030462946224600F068F805
:100D0000044600281FD4D7F89400F0B1D7F8981003
:100D1000F9B14046082200F8012B002200BF00BFB5
:100D200001F07F03C90918BF803302F1010200F806
:100D3000013BF5D1D7F89C10501CF9B1BE2A0CD953
:100D40004FF0FF301AE04FF0FF34204602B0BDE80C
:100D5000F081D7F89C10002081B1102208F8002003
:100D6000013008EB000200BF01F07F03C90918BF82
:100D7000803300F1010002F8013BF5D107F1A00238
:100D8000032101F05CF809230090304629462246F1
:100D900000F01EF8DAE7B96909B10020A2E6F969A6
:100DA00009B10020B2E6396A09B10020C5E6796AC6
:100DB00009B10020DBE6B86A28B1402088F80000BD
:100DC00000204146FAE60020FBE6D4D4D4D4D4D4A3
:100DD000B0B5049D4FF0FF34002D1CD48A421AD2C6
:100DE000DB00541C023383542A4600BF00BF00BFFF
:100DF000A1420ED002F07F03D20918BF8033035501
:100E000004F10104F4D1002C03D425B1491B8C4218
:100E100003DD4FF0FF342046B0BD40F29071204416
:100E2000C2F200212A4603F05AFC2C44F3E7D4D442
:100E30002DE9F0478A4600294FF07801044608BFA3
:100E40005C2140584FF080024FF07C0140F29079D5
:100E500004BF642260214FF088034FF08C06C2F279
:100E60000029224404BF6C23702667584946E35C7E
:100E700054F80680082601F8026B002600BF00BF68
:100E800000F07F05C00918BF803501F8015C01F151
:100E9000010106F10106F3D1BE2E10D8102001F891
:100EA000010CB01C00BF00BF07F07F06FF0918BF90
:100EB000803600F1010001F8016BF5D101E04FF03F
:100EC000FF30032100F0D0FFBF2805D8BF284FF026
:100ED000200109F8001002D14FF0FF3007E009EBC4
:100EE0000001B8F1000F5FEA0F9202304A70BAF1C8
:100EF000000F08BFBDE8F087BF2807D8D4F89010CE
:100F0000BF284FF0280209F8002003D14FF0FF302E
:100F1000BDE8F08709EB000200295FEA0F9102307B
:100F20005170BDE8F087D4D42DE9F04F87B0002987
:100F30004FF0FF3800F1E5810746002800F0E1811D
:100F40009346002A00F0DD818A46C821584603F006
:100F5000C2FBBAF1000F4FF000080497CDF814A0BF
:100F600000F0CF814FF00009DDF810E009F1010039
:100F70000EEB090109F102034A1C0025002400BF01
:100F800011F9016B06F07F07002E07FA04F745EA16
:100F9000070511D5152C00F2B2810734824500F106
:100FA000010009F1010902F1010203F1010300F05E
:100FB000A681E5E700BF00BF05F007014FEAD50CA9
:100FC0000229069024D1A5F11804372C20D85045C9
:100FD00080F2958182455AEAC0800024C0F1010167
:100FE000002000BF00BF00BF12F9015B05F07F06C3
:100FF000002D06FA04F640EA060032D5152C00F260
:101000007E8101330734CD18022D00F07881EBE7A3
:1010100041B104A800F076FA002800F07081DDE903
:1010200005A9FBE0504580F26A8182455AEAC080FA
:101030000023411E002000BF12F9017B07F07F064C
:10104000002F06FA03F640EA060040F1B080152BA7
:1010500000F2558109F101090733494500F04F813C
:10106000EAE7BAEB0301C0F24A818142C0F047814E
:101070000EEB0301CDE90010ACF1030103EB000915
:101080000529CDF80880CDF8189000F2CB80DFE874
:1010900001F003B1A1A89CBB01284FF00101CBF8DE
:1010A0000810C0F2BB800022824252EAC08C80F25B
:1010B00026810099541C1144002501F1010E0023E2
:1010C00011F9016B06F07F07002E07FA03F745EAD6
:1010D00007050BD5152B00F21281013207330134BD
:1010E0000EF1010E944500F00A81E9E74FEAD50CB4
:1010F000531C05F00701BCF1090F029308BF022938
:1011000004D089B1684600F0FDF905E01022684678
:101110000BF12C0100F0D5FE002800F0F080DDE995
:1011200001028242C0DB79E0834280F2E880A04283
:1011300050EAC4800023411E00201EF9014B04F038
:101140007F05002C05FA03F540EA050008D5152BAC
:1011500000F2D58001320733914200F0D080ECE7F5
:10116000ACF10101023207290292D8D8DFE801F080
:1011700004160A0D07191C10CBF80C00CFE7CBF8AA
:101180001C00CCE7CBF81400C9E7CBF81800C6E781
:1011900000285FEA0F90CBF82800C0E7CBF81000DA
:1011A000BDE7CBF82000BAE7CBF82400B7E7BCF1E5
:1011B000010F09F10209CDF8189000F09D80BCF1F3
:1011C000020F2BD1CBF8040028E000220120CBF83D
:1011D00058001DE00120CBF8440068460BF148019F
:1011E0000EE00120CBF84C0068460BF150010BF1EA
:1011F000540206E00120CBF83C0068460BF14001A8
:1012000003AA00F0A9F807E00120CBF8740001223E
:101210006846594600F0D8F8002870D0D145FFF64E
:10122000A3AE72E001284FF00101CBF89410F5DB7A
:101230000022824252EAC08C61DA0099541C1144A7
:10124000002501F1010E002311F9016B06F07F0763
:10125000002E07FA03F745EA070509D5152B4ED8E6
:101260000132073301340EF1010E944547D0EBE70C
:101270004FEAD50C531C05F00701BCF1030F029394
:1012800008BF022904D079B1684600F03BF905E0B7
:10129000282268460BF1A00100F013FE78B3DDE9C7
:1012A00001028242C5DBB9E7834228DAA04250EA54
:1012B000C4800023411E00201EF9014B04F07F056D
:1012C000002C05FA03F540EA050006D5152B16D8C3
:1012D00001320733914212D0EEE7BCF1020F02F166
:1012E0000201029105D0BCF1010FD8D1CBF89800D2
:1012F000D5E7CBF89C00D2E7CBF800008EE74FF0A3
:10130000FF38404607B0BDE8F08F4FF00008F8E71F
:10131000B0B5D0E901324FF0000E9A4252EAC38CC8
:101320006FF0060300BF00BF94450FD00568541C42
:1013300084600733AA5602F07F05002A05FA03F5F8
:101340004EEA050E04D5152B2246EDD90020B0BD7E
:101350000120C1F800E0B0BD2DE9F04383B00D4697
:101360000021064629601160D0E90101814224DA9A
:10137000914602AF0DF1040830463946FFF7C8FF29
:10138000E8B1029C304614F0070105D000F0BAF82D
:10139000A8B10EE000BF00BF4146FFF7B9FF70B132
:1013A000E1082846012902D00229484601D10199C5
:1013B0000160D6E901018142DEDB012000E000206E
:1013C00003B0BDE8F083D4D42DE9F04F85B00446D6
:1013D000D0E90103834280F28C8015460E460DF160
:1013E0000C0A4FF00009EB4620465146FFF790FFEC
:1013F000002800F083800398C70800F00701032F3E
:1014000008BF022908D0204691B300F07BF80028DD
:1014100000F0748068E000BF204604A9CDE900997F
:10142000FFF776FF002869D0D4E90107B84265DBF1
:10143000DDF81080C01B404560D3B8F1090F5AD2C7
:10144000B8F1000F05D020684246C119584603F094
:1014500046F908EB0700A060DDB106F180005946AF
:10146000424603F03CF986F888803DE000BF00BFAB
:1014700002A9FFF74DFF002840D09DB1781E042837
:1014800032D8DFE800F0031F311822000298B0675D
:101490002AE006F164005946424603F020F986F836
:1014A0006C8021E0042F1AD0022F15D0012F1BD100
:1014B0000298F06518E0029800285FEA0F90C6F8DD
:1014C0008C0011E00298F0670EE0029800285FEAB5
:1014D0000F90C6F8900007E00298306604E002988A
:1014E00000285FEA0F903067D4E901018142FFF6DE
:1014F0007BAF012003E008EB0700A060002005B0EF
:10150000BDE8F08F10B582B0044601294FF000000D
:1015100001900BD0022903D0052916D1042006E042
:1015200001A92046FFF7F4FE10B909E00820019058
:10153000D4E90110814203DB019A091A914201D2D8
:10154000002002E01044A060012002B010BDD4D4FD
:101550002DE9F04383B0DDF828904FF0FF34B9F166
:10156000C00F00F28280DDF82C80B8F1000F00F08F
:101570007C80002B5FEA1F97B9F1000F5FEA0F94A0
:1015800027424FF0FF3470D109F10A070C9EBE428A
:101590006BDB01278DF806708DF807008DF80810B9
:1015A0008DF8092000204FF6FF750DF10601082780
:1015B00041F221028DF80A908DF80B0000BF00BFA8
:1015C0000E5C47F001E085EA062500BF00BF00BFC2
:1015D0002C462EB26D00002E48BF82EA44050FF063
:1015E00009C801300628EBD1A8B24FEA1027EBB1A9
:1015F000B9F1000F1AD00020082241F2210100BFEA
:101600001F5C42F001E085EA072500BF00BF00BF74
:101610002F462EB26D00002E48BF81EA47050FF01D
:1016200009C801304845EBD1A8B2070ABDF80A1035
:10163000B9F1000F45F6A520A8F80000DDF8060076
:10164000C8F80200A8F8061008D008F108001946EA
:101650004A4603F044F809F1080000E0082008EBCE
:101660000001841C08F800504F70204603B0BDE80C
:10167000F083D4D4D4D4D4D42DE9F041002800F0A0
:10168000A48002780A2A00F28E80DFE802F02D069C
:10169000181E113135228115390000235A2908BF3F
:1016A0000223A5294FF0000208BF012303708DE03B
:1016B0008170C172052187E001720A2184E001294D
:1016C00074D10121417203217EE0417081720421B5
:1016D0007AE08288817342EA0122828093B2C12B30
:1016E0004FF00003C38068D3A5295FEA1F916BE028
:1016F000C1700173062167E081804173072163E0B7
:1017000090F808C000F109084FF6FF74002308267E
:1017100041F2210500BF00BF18F8037046F001E058
:1017200084EA072400BF00BF27B26200002F48BF31
:1017300085EA440214460FF009C80133062BEBD1A9
:1017400083884CEA012CDBB100F10F08002108224C
:1017500041F2210500BF00BF18F8017042F001E01E
:1017600084EA072400BF00BF27B26600002F48BFED
:1017700085EA440634460FF009C801319942EBD19D
:10178000A1B200230370C3808C455FEA1F921DE065
:10179000C2888388561C0244B5B2C6809D42D1736C
:1017A00013D3092110E0002202700FE0A5295FEA9F
:1017B0001F9101700022C28008E04FF6FF710A42BB
:1017C0004FF0080151EA1191017000221046BDE866
:1017D000F081D4D4D4D4D4D42DE9F04182B00028FF
:1017E00000F09C810446FFF747FF002800F0968137
:1017F000607820B194F8EC10884240F08F8104F5B5
:101800002375C821284604F5E2760127C4F8F07054
:1018100002F061FFA18804F10F003246FFF784FB5C
:1018200010B3E0780221C4F88C020020C4E9C8702B
:101830004FF00C0EC4F8281344F65C51C0F200219E
:1018400004F54B700131622200F8012B11F8012BD5
:101850000FF007C0002084F838032046294602B064
:10186000BDE8F04100F0A5B9306800B9E078D4F8DF
:10187000C811C4E9A3014A1E052A00F28480DFE8EA
:1018800002F00303320F9D55D4F8E8200120002A0E
:10189000C4F89402E1D0D4F8D00029469047DCE7A0
:1018A000D4F8080228B1D4F80C12B1F5805FC0F06A
:1018B000AD8004F5487301200421022207C34FF0D4
:1018C000070E44F65F61C0F2002104F54B70013150
:1018D000622200BF00BF00BF00F8012B11F8012BEE
:1018E0000FF007C08EE0D4F8000220B1D4F8041243
:1018F0001029C0F0908004F54873012003210222D2
:1019000007C34FF00B0E44F65011C0F2002104F54E
:101910004B700131622200BF00F8012B11F8012B3E
:101920000FF007C0002084F8370396E7D4F81C02B4
:1019300080B1D4F8201201290CD894F83032A3F1E8
:101940000900C0B2F82805D3D4F82422B2F5006FFC
:10195000C0F0818004F5487301200621022207C3EC
:101960004FF0070E44F65801C0F2002104F54B7009
:101970000131622200BF00BF00F8012B11F8012BDA
:101980000FF007C03EE00120C4E9C801C4F82803F5
:101990004FF00F0E44F61651C0F2002104F54B70C3
:1019A0000131752200BF00BF00F8012B11F8012B97
:1019B0000FF007C0002084F83B034EE7D4F8100274
:1019C00040B1D4F81412032904D8D4F81822B2F57F
:1019D0007A7F29D904F5487301200521022207C323
:1019E0004FF0070E44F28E71C0F2002104F54B70E7
:1019F0000131622200BF00BF00F8012B11F8012B5A
:101A00000FF007C0002084F8330326E7D4F8DC2069
:101A100022B9042014E0D4F8D82082B1D4F8D00040
:101A20009047D4F8C8010BE0D4F8E030ABB3D4F859
:101A3000D00098470028D4F8C80101D02EE0032038
:101A400001210022C4F82013C4F82403C4F8282379
:101A500084F82C2301E7D4F83472002F35D094F8A1
:101A6000ED00800731D401200621C4E9C8014FF000
:101A7000120EC4F8280344F6AA51C0F2002104F55E
:101A80004B700131632200F8012B11F8012B0FF08C
:101A900007C0002084F83E03DFE605200121022272
:101AA000C4E9C8104FF0070EC4F8282344F28E7121
:101AB000C0F2002104F54B700131622200F8012BC5
:101AC00011F8012B0FF007C09CE7D4F8E46046B38F
:101AD00004F50A78D4F8D000CDE900374346B04782
:101AE0000028D4F8C8011DD10121C4E9C81020463E
:101AF00029460022C4F8282384F82C2300F059F842
:101B000094F8201294F83002D4F82422D4F8343215
:101B1000CDE900032046434600F07DF802B0BDE861
:101B2000F081062001210222C4E9C8104FF0080EFE
:101B3000C4F8282344F6D741C0F2002104F54B70C5
:101B40000131632200F8012B11F8012B0FF007C0BF
:101B5000002084F8340380E6B0B548B30446D0F8DA
:101B6000F00028B304F52670BC2104F5237502F0BB
:101B7000B2FDD4F8F400D4F8E820411C0123B1F1FF
:101B8000004F4FF0004151EA9091C4F8F4104FF02B
:101B90000201C4F88C02C4E9A4131AB1D4F8D0002D
:101BA0002946904720462946BDE8B04000F001B8DC
:101BB000B0BDB0B584B00446D0F8D40048B30D46EB
:101BC00040F65001C2F20021C0222846FEF7ECFE8A
:101BD00000281ED494F8ECC094F8ED102A7840F652
:101BE000500380B20090C2F20023604604F1F80571
:101BF0004FF0CA0ECDE9015EFFF7AAFC002808D419
:101C0000D4E9341382B20846294604B0BDE8B04096
:101C1000184704B0B0BD2DE9F04F81B000283ED088
:101C20000A9E0446A6F1090010F1080F37D31D469D
:101C3000ABB3D4F8F00090B30F4604F52470C42180
:101C40009046DDF82CA004F5237902F044FDD4F889
:101C5000F400C4F88C02411C3246B1F1004F4FF041
:101C6000004151EA909104F54370C4F8F4102946FC
:101C70004FF0010BC4E9C0B7C4F8088302F02FFD90
:101C8000BAF1000F5FEA0F9084F814634946C4E983
:101C9000C60B204601B0BDE8F04FFFF78ABF01B088
:101CA000BDE8F08FD4D4D4D49AB170B544F250705A
:101CB0001446C0F200200D46066800BF00BF00BFFA
:101CC00015F8011B3046FEF7F3FA013CF8D1BDE8E8
:101CD000704070470846FEF72BBD0846FEF718BD5A
:101CE00008461146FEF787BC80B582B00020002967
:101CF000C4F23800059900F500509C4604BF00204E
:101D0000C4F2380000295FEA0F9E1146049B624628
:101D1000CDF800E0FEF714FC013802B080BD70B5CC
:101D200040F2324C40F22C40C2F2002C40F2344ED1
:101D3000C2F2002040F23042C2F2002EBCF8003065
:101D400040F2354CC2F20022C2F2002C06689EF826
:101D5000000040F2364E1588C2F2002E9CF800209A
:101D6000C1E9053001F11C00BEF800404FF0020C43
:101D70004FF0010E80E8141044F25210C1F828E030
:101D8000C1E90365C5F23800C8623120088670BD1C
:101D900010B540F23C444FF42171C2F2002404F12A
:101DA000D00002F098FC41F6A94041F6D541C0F2BE
:101DB0000020C0F2002141F6DB4241F6E14341F64A
:101DC000E94C41F61F5EC4F8D400C4F8D81040F2C4
:101DD0000230A4F8EC004FF00040C4F8F400D02129
:101DE0002046C0F20022C0F20023C0F2002CC0F254
:101DF000002EC4F8DC20C4F8E030C4F8E4C0C4F815
:101E0000E8E002F068FC10BDB0B544F25070C0F2DA
:101E1000002004682046FEF777FA00280ED440F22E
:101E20003C45C2F2002500BFC1B22846FFF7D4FCF2
:101E30002046FEF769FAB0F1FF3FF5DCB0BD70B5A2
:101E40001446127806465AB120460D4602F062FC4E
:101E50000346304629462246BDE8704000F004B8EB
:101E6000304670BDD4D4D4D470B5012B044626DBE3
:101E7000BF2C22D840F29070C900C2F200201E464A
:101E800002310155194600BFBF2C16D001F07F0367
:101E90000519C90904F1010418BF80336B70F3D12F
:101EA000C6F1C0018C4208DA2044114601303246A6
:101EB00002F015FC3019441C01E04FF0FF342046BD
:101EC00070BDF0B581B00D46694616460446FFF771
:101ED0001FFA38B1D4E90110814203DB009F091ACF
:101EE000B94202D2002001B0F0BD711E8F4257EA04
:101EF000B186012E05DB216832460144284602F0F6
:101F0000EEFB0020A855A0683844A0600120EAE755
:101F100010B5FEF7E5F8FEF7BAF844F24C704FF44E
:101F2000E131C0F20020002204682046FEF794F957
:101F300044F250704FF4E131C0F2002000220068FA
:101F4000FEF78AF944F254704FF49641C0F2002033
:101F500002220068FEF780F944F6DA112046C0F24A
:101F60000021FEF7B5F9FEF702FAFEF72DFA00247C
:101F7000C4F238042046FEF7BCFA04F50050FEF720
:101F8000B8FA40F2384042F20014C2F200204DF29A
:101F90008F01C4F232044EF64702C0F20301016021
:101FA000C0F20102012101232046FEF7FEFA04F5EA
:101FB00030600C214FF223420023FEF7F6FA04F5BD
:101FC00010600A2147F611220023FEF7EEFAFEF711
:101FD0004CFBFEF789FBFEF735FCFEF751FCBDE834
:101FE0001040FFF7D5BE70B584B040F22C4440F2EB
:101FF0003C40C2F20024C2F200202568D0F8F00074
:10200000002805F101008DF80F5020600AD100F082
:102010000F00FEF78DFB20884FF47F6101EA00106E
:10202000FEF776FB0024C4F23804FEF7E9FB40F229
:102030003441C2F200210870FEF739FBEDB22846A8
:10204000FEF7A5F950202946FEF7DFF90DF10F0242
:1020500040F2231101232046002500950126FEF7BA
:102060006FFA60B140F23C400DF10F03C2F2002064
:10207000002140F22312CDE90065FFF7CCFD04F505
:1020800000500DF10F0240F221310123009501248F
:10209000FEF756FA68B140F23C400DF10F03C2F270
:1020A0000020012140F221320026CDE90046FFF751
:1020B000B2FDFEF736F940F23C40C2F20020FFF7D5
:1020C0004BFDFEF7EFFB04B070BDD4D4D4D4D4D410
:1020D000FFF71EFF48F21F580024C5F2EB1819261F
:1020E000002700BF00BF00BFA7FB0801C80800FB16
:1020F0000645FFF789FE0DB9FFF775FF142001377C
:1021000001F0C4FD013CEFE7022818BF704740F61C
:10211000101044F6AC61C2F20020C0F2002100F0C1
:1021200018BAFFF7D5BF7047FFF7FDBF00BE704775
:10213000B0B540F618144FF0FF31C2F20024206809
:1021400001F02EFA012803D020680021FFF7EEFFEE
:1021500040F61C10C2F20020017801B1B0BD01218F
:102160000170FFF7E1FF40F62015C2F2002500BF25
:10217000286801382860F1D020680021002200235F
:1021800000F0DAFF0128F3D020680021FFF7CEFF2E
:10219000EEE780B540F61C1240F62010C2F2002295
:1021A000C2F200200021117040F624120160C2F238
:1021B00000224FF48070012100F09BFF40F61811BF
:1021C000C2F20021086018B900200021FFF7AEFF1D
:1021D00000F020F801F0DEFD002080BD40F66C1C10
:1021E00040F6CC13C2F2002CC2F20023C0F800C0AB
:1021F0000B6080201060704740F6CC3C40F62C43CA
:10220000C2F2002CC2F20023C0F800C00B60802094
:102210001060704780B584B040F6201044F68863A3
:10222000C2F2002040F62C6C41F2581EC0F200238E
:1022300001684FF48062013101600120009042F298
:102240007D2044F65731C0F20020C0F20021C2F2D6
:10225000002CC2F2002ECDE901EC01F0C1FA40F6EB
:102260008C61C2F20021086008B104B080BD00207A
:10227000002104B0BDE88040FFF758BF10B5044608
:10228000FFF756FF2046BDE81040FFF74ABFD4D401
:102290001EF0040F0CBFEFF30880EFF30980014933
:1022A00008470000372300020F4B1968EFF309823B
:1022B0001EF0100F08BF22ED108A22E9F04FEFF355
:1022C0000B8342F8043D0A604FF0100080F3118840
:1022D000BFF34F8FBFF36F8F01F00AFD4FF0000087
:1022E00080F3118800F002B8500F002207480168FF
:1022F0000A6802CA81F30B88B2E8F04F1EF0100F93
:1023000008BFB2EC108A82F309887047500F002290
:1023100010B51020EFF3118480F3118801F0B8FD9F
:1023200030B14EF604504FF08051CEF20000016003
:1023300084F3118810BD806910F8020C022801D1C5
:10234000FFF7D4BF042838BF704780B544F29670B9
:1023500044F60C3244F6BA03C0F20020C0F2002268
:10236000C0F200234FF47E7100F0BEFB283140F82C
:10237000481D42F299314FF0807CC0F2002122F0DA
:102380000102C1630264C0F844C06FF00201C0E9F9
:1023900009137047D4D4D4D400BE00BF00BF00BF1F
:1023A000FEE7D4D4D4D4D4D44EF62250F021CEF2C9
:1023B0000000017000F016F84EF63470CEF2000006
:1023C000016841F04041016062B6BFF36F8FEFF3E7
:1023D000148C2CF0040C8CF31488BFF36F8F02DF85
:1023E00000BEFDE740F6FC6044F6D351C2F2002087
:1023F000C1F262010068A0FB01014FF0FF3000EB69
:1024000091110020B0EB116F18BF70474EF210020F
:10241000F023CEF2000251604EF62351CEF20001BD
:102420000B709060072010607047EFF3118010214F
:1024300081F3118840F69061C2F200210A68002AF7
:1024400002F101020A6018BF704740F69461C2F2BF
:10245000002108604EF60450CEF200000068C0056E
:1024600000D1704780B544F2967044F2BC7244F6D5
:102470007D23C0F20020C0F20022C0F2002340F20F
:10248000A44100F031FB40F69060C2F200200168E8
:1024900059B10139016018BF704740F69460C2F22B
:1024A0000020006880F31188704780B544F2967070
:1024B00044F6695244F26873C0F20020C0F2002270
:1024C000C0F2002340F2AD4100F00EFB80B598B39E
:1024D0004EF6902EC4F2010E9EF800100A0722D08C
:1024E0004EF2FA324AF2025CC4F20102CFF6FF7CED
:1024F00000201388A2F800C08EF8000043F42540A5
:102500001080BFF34F8F30BFBFF36F8F62B6BFF342
:102510006F8F72B61088A2F800C08EF8001040F4D9
:102520002540108080BDBFF34F8F30BFBFF36F8F4A
:1025300062B6BFF36F8F72B680BD80B572B601F020
:102540007CFA0120FFF7C2FF62B6BDE8804001F0CF
:10255000CFBA80B545F25422C5F24F020260084658
:1025600000F002F8002080BD70B5044600F060F86D
:1025700040F6EC6CEFF31081C2F2002C012080F3E6
:102580001088DCF8000038B940F614500022C4F27C
:102590004000027040220270DCF800000130CCF8EC
:1025A000000081F31088208828B340F6000E002137
:1025B000C4F2400E00BF00BF606800EBC10250F8DB
:1025C00031309288D8034FEA1220D2B20BD50EEBED
:1025D000801555F8226026F4803645F8226023F4F1
:1025E000803645F822600EEB8010013140F8223031
:1025F00020888142E0D30120EFF3108180F310881E
:10260000DCF8000020B1DCF800000138CCF8000054
:10261000DCF8000038B940F614500022C4F2400043
:1026200002708022027081F3108870BDD4D4D4D49B
:102630002DE9F04F81B004460088002862D04EF6A4
:102640004C4B0025C4F2010B4FF0010A00BF00BF44
:1026500042F2400644F6B8680027C4F22006C0F2F1
:10266000002800BF00BF00BF606838F8021B00EB05
:10267000C50082888A423DD100689BF8001000F0B6
:10268000B8500AFA07F9B0F1807F09EA010017D1C2
:1026900058B9012000F0C8FA9BF8000040EA090090
:1026A0008BF80000012000F098FA96F9000000284D
:1026B00020D4307840F0800017E000BF00BF00BF9A
:1026C00058B1012000F0B0FA9BF8000020EA0900A0
:1026D0008BF80000012000F080FA96F90000B0F1BC
:1026E000FF3F07DC307800F07F003070C820012108
:1026F00000F0FFF901370236032FB5D120880135EC
:102700008542A5D301B0BDE8F08FD4D44EF22401A8
:10271000C4F201018878098801F00F02A2F10801D2
:1027200003293BD8DFE801F0022C101E40F20041E3
:10273000C2F2002151F820004AF6AB21CAF6AA21C4
:10274000A0FB0101480830E040F20041C2F2002144
:1027500051F820004AF6AB21CAF6AA21A0FB0101DC
:10276000C80822E040F20041C2F2002151F82000E6
:102770004AF6AB21CAF6AA21A0FB0101080914E020
:1027800040F20041C2F2002151F820004AF6AB218C
:10279000CAF6AA21A0FB0101880806E040F2004128
:1027A000C2F2002151F82000D04040F6FC61C2F294
:1027B000002108607047D4D42DE9F041A0A04EF26A
:1027C000FA38C4F201084AF2015190ED001F40F2BC
:1027D0000040CFF6FF71C2F200200231A8F80010CD
:1027E0004CF600214EF601464EF60047C3F69A31EC
:1027F0004FF40042C0E9042144F2553148F200424E
:102800004EF2140580ED001FC4F20106C4F2010768
:10281000C1F2DE31C1F2D772C4F20105C0E907127C
:10282000FFF774FF4FF650600A21CFF6FF7039545E
:10283000092085F88E00387818B93078800700F0C4
:10284000F980387858B901203870C820012100F08B
:1028500050F900BF00BF00BF38780128FCD100202C
:10286000307038704AF20156002085F82200A877AF
:1028700095F828000007FBD54EF614504FF60211CC
:10288000C5F8981040F251412987CEF20000BFF3FD
:102890004F8FBFF36F8F02684EF2000122F40032B7
:1028A00002600022C0F83C22CEF20101BFF34F8F3C
:1028B000BFF36F8F0A6822F440520A60BFF34F8F54
:1028C000BFF36F8F2A7802F0F80201322A7000BF3E
:1028D0002A78D206FCD40A6842F440520A60BFF358
:1028E0004F8FBFF36F8F0168890312D4BFF34F8FEF
:1028F000BFF36F8F0021C0F83C12BFF34F8FBFF3BF
:102900006F8F016841F400310160BFF34F8FBFF357
:102910006F8F0020A87500BF95F828008006FBD5B2
:102920004CF200070020C4F213073870387838786A
:1029300038787868FA2807D0FA20C1F6006000BF1E
:1029400078607968FA29FBD1B8687D2808D07D20A5
:10295000CEF2001000BF00BFB860B9687D29FBD17E
:1029600043F23240C3F22320E86042F22010288272
:102970000520A874FFF7CAFE1E200121012400F0E3
:10298000B8F878686FF39F20652828BF3C70FFF780
:10299000BDFE42F200004FF42541C4F20000068063
:1029A000BFF35F8F0472BFF35F8F018085F83F40F4
:1029B00095F8600040F0400085F8600000BF00BF5F
:1029C00095F96000B0F1FF3FFADC002085F858006F
:1029D000402185F8601085F8600000BF00BF00BF8F
:1029E00095F960000028FBD495F8620040F04000A3
:1029F00085F8620000BF00BF95F96200B0F1FF3FAB
:102A0000FADC002085F85A00C02085F8620095F8AD
:102A1000620000F0BF0085F8620000BF00BF00BF89
:102A200095F962000028FBD44FF42540A8F8000077
:102A3000BDE8F0814FF47A7000F00AF812E700BFA9
:102A4000006CDC0200127A000080000000366E018B
:102A50007047D4D4D4D4D4D4B0B542F22404C8201E
:102A6000C4F2200401210025257100F042F82570F0
:102A7000207808B12FF005C0207840F002002070C7
:102A800020788007FCD4002004F8020C00BF00BFAF
:102A900014F8020C08B12FF005C84FF0030E002007
:102AA00004F11C0100BF00BF11F8102002F07F02EA
:102AB00001F8102000BF00BF11F91020002AFBD43C
:102AC00001300FF00FC8012000F0AEF84EF64C4177
:102AD0000120C4F2010100220A70BDE8B04000F0FC
:102AE0007CB87047D4D4D4D400BE00BF00BF00BFB0
:102AF000FEE740F6FC6241F20023C2F20022C0F27F
:102B00007A03484312689A420FD344F23F21C0F23D
:102B10000F0111444DF68362C4F21B32A1FB021275
:102B2000910CA0FB0101C9B11BE04CF60021C3F6DA
:102B30009A31B1FBF2F148F63812C0F241029042EC
:102B400005D24FF47A725043B0FBF1F006E0B0FBCF
:102B5000F1F0904205D24FF47A71484328B100F069
:102B600007B84FF0FF3000F003B87047D4D4D4D486
:102B700001380028FCD17047F0B581B04CF2001547
:102B800040F69867C4F200050024C2F200272868C6
:102B9000296A01EA000600BF26FA04F0C00704D043
:102BA00057F8241009B1204688470134152CF3D179
:102BB0002E6100BF00BF00BF286A3042FCD101B0C7
:102BC000F0BD45F2AC00C0F20020008820B14CF20C
:102BD0000031C4F2000108607047EFF31081012258
:102BE00082F3108840F6F062C2F2002232F8103010
:102BF00023B132F81030013B22F8103032F81020A7
:102C00007AB94EF2FA3245F2AE0CC4F20102C0F2C9
:102C1000002C13883CF8100043F4254323EA0000FD
:102C2000108081F31088704710B5EFF310810122F6
:102C300082F3108840F6F062C2F2002232F81030BF
:102C400083B94EF2FA3E45F2AE0CC4F2010EC0F268
:102C5000002CBEF800403CF81030234343F42543D9
:102C6000AEF8003032F81030013322F8103081F322
:102C7000108810BDD4D4D4D400F006F8FFF789FA38
:102C8000FEE700BE7047D4D470B54EF6005540F252
:102C90000120CEF20005C0F20E004EF2000668617F
:102CA000CEF20106BFF34F8FBFF36F8F2968C1F3D8
:102CB000035001285FEA1F9211F00F0F5FEA0F9196
:102CC0001142316811D102280FD241F00400306066
:102CD0004EF20800BFF34F8FCEF20000BFF36F8FAC
:102CE000016841F48031016002E021F004003060AD
:102CF000BFF34F8FBFF36F8F4FF4700040F20001AE
:102D0000C5F888000020C0F20021A9600024FFF768
:102D1000FBF9FFF751FD4EF2FA304EF6B022C4F245
:102D20000100C4F201024AF20251018014704FF412
:102D3000254101800120FFF7E7F940F20000C2F2CF
:102D4000002080F30A883068800721D5A868B0F198
:102D5000007F1DD130694FF40071C0F3C300726968
:102D600001FA00F3C2F3C30081400020DA08CB0867
:102D70000146064642F005C0E6E802010FF005C034
:102D80004FF0005243F005C0E2E802010FF005C029
:102D9000002000F095F8FFF7B9FCFFF75DFE032077
:102DA000FFF742FF4FF00E0E40F63050C4F24000E5
:102DB00020F8044B0FF005C04EF210140320C4F2AB
:102DC0000104FFF70AFF0320FFF72EFF44F204007F
:102DD0000021C4F22000016041608160C1600320D5
:102DE000FFF7FBFED4F8C802800714D42078A0B106
:102DF0000120FFF719FF00BF94F9000010F1410F07
:102E0000FADC0020207000BF20783F28FCD8012089
:102E1000FFF7E3FE01E0D4F8C802D4F8C802400787
:102E200015D42079A8B10120FFF7FEFE00BF00BF36
:102E300094F9040010F1410FFADC0020207100BF6A
:102E400020793F28FCD80120FFF7C7FE01E0D4F825
:102E5000C8020220FFF758F9012000F031F841F2D2
:102E60005414C2F20024204601F05CFC204601F01C
:102E700047FCBFF34F8FBFF36F8F0020C5F85002A0
:102E800045F20A1045F20A11C0F20020C0F20021FA
:102E9000BFF34F8F081ABFF36F8F8410012C08DB2C
:102EA00045F20A15C0F2002555F8040B8047013C95
:102EB000FAD1FFF786FE0020BDE87040FFF711BE93
:102EC000F0B581B044F6D8650446C0F200252E68FE
:102ED00076B16868071D00BF7879844204D157E94C
:102EE0000101091A01F0F7FB013E07F10C07F3D1CC
:102EF000AE6896B1E86800F1080500BF00BF00BFEA
:102F00006879844205D155E902022968121A01F054
:102F1000E6FB013E05F11005F2D101B0F0BD01461E
:102F20004FF0FF3241F8082F0022C0E90311C0E939
:102F300000217047002101617047D4D4D4D4D4D487
:102F400080B5D1F800C01CF1010207D000F10802E1
:102F50009646526813686345FAD903E0D0F810E04A
:102F6000DEF804204A609160C1F808E0CEF8041051
:102F7000086101680131016080BDD0E90123016968
:102F8000936042685A604A68824201D182684A600E
:102F900000220261086801380860704770B5002897
:102FA0004BD00446C06BC0B30E46216CA0FB0101A0
:102FB00099BBFFF73AFAD4E90F010025226801FB1B
:102FC00000230138A56300FB0120C4E90123E06070
:102FD000FF2084F8440084F8450004F110004EB14D
:102FE000FFF79DFF04F12400FFF799FFFFF74BFA6D
:102FF000012070BD01680029F8D001F088F8002890
:10300000F4D04EF604504FF08051CEF20000016033
:10301000BFF34F8FBFF36F8FE8E744F6A73044F656
:10302000415244F69D43C0F20020C0F20022C0F29B
:1030300000234FF4B671FFF757FD44F6A73044F66E
:10304000415244F68A43C0F20020C0F20022C0F28E
:10305000002340F23711FFF747FD10B582B043B3AC
:10306000B8B11C4601B9A2B901B192B1482301938C
:10307000019B482B2DD1002954EA0282019BC4E90F
:103080000F01012120462260FFF788FF204602B091
:1030900010BD44F6A73044F6F22244F61143C0F2C4
:1030A0000020C0F20022C0F200234FF4D871FFF7D5
:1030B0001BFD44F6A73044F6F22244F65C13C0F23E
:1030C0000020C0F20022C0F200234FF4C271FFF7CB
:1030D0000BFD44F6A73044F6F22244F6C323C0F2B7
:1030E0000020C0F20022C0F200234FF4CB71FFF7A2
:1030F000FBFCB0B582B060B10D46814209D81446E0
:10310000002100222346FFF7A8FFA563204602B056
:10311000B0BD44F6A73044F6623244F66A13C0F2FA
:103120000020C0F20022C0F200234FF45E71FFF7CE
:10313000DBFCD4D4D4D4D4D42DE9F04F83B0002810
:10314000029200F09D8004461D461646894619B934
:10315000206C002840F0C480022D03D1E06B0128D0
:1031600040F0AE8001F0BFF810B9002E40F098801A
:10317000FFF75BF9022DA06B5BD0E16B884258D35F
:1031800001206F464FF0000B02AE00BF00BF00BF32
:103190000299002968D0C00702D0384601F03FF8F4
:1031A000FFF771F900F049FCFFF73FF994F844008C
:1031B000FF2808BF84F844B094F84500FF2808BFF2
:1031C00084F845B0FFF75FF93846314601F034F82E
:1031D00000284CD1FFF729F9D4F838A0D4F83C8066
:1031E000FFF751F9C24517D1029904F1100000F020
:1031F00031FF204600F0B4F800F07AFC88B94EF6B2
:1032000004504FF08051CEF200000160BFF34F8FA9
:10321000BFF36F8F05E000BF204600F0A1F800F07B
:1032200067FCFFF702F9A06BE16B88424FF00000EA
:10323000AED2204649462A4600F062F854F8240FE0
:1032400070B1204600F063FF50B14EF604504FF0CD
:103250008051CEF200000160BFF34F8FBFF36F8F3C
:10326000FFF711F9012008E0FFF70DF904E020460F
:1032700000F076F800F03CFC002003B0BDE8F08FD1
:1032800044F6A73044F6D00244F68A43C0F2002048
:10329000C0F20022C0F2002340F2B631FFF724FC56
:1032A00044F6A73044F6D00244F6E203C0F2002010
:1032B000C0F20022C0F2002340F2BB31FFF714FC41
:1032C00044F6A73044F6D00244F67213C0F2002050
:1032D000C0F20022C0F200234FF46E71FFF704FC2D
:1032E00044F6A73044F6D00244F6CB53C0F2002097
:1032F000C0F20022C0F2002340F2B731FFF7F4FB26
:1033000070B5866B036C04462BB31546B2B1E0680A
:103310001A4601F0E4F92168E268206C121AE260B2
:103320008A4203D24042A1680844E060022D5FEA6D
:103330001F90002E5FEA0080361A0CE060681A4683
:1033400001F0CDF9D4E90101226C1044606088429B
:1033500001D320686060701CA06370BDD4D4D4D445
:10336000F0B581B00446FFF760F894F94560012E8E
:103370000EDB04F1240500BF286848B1284600F0A0
:10338000C6FE08B100F0A8FF70B2013E0128F3DCD0
:10339000FF2684F84560FFF776F8FFF746F894F9C2
:1033A0004470012F10DB04F1100500BF00BF00BF07
:1033B000286848B1284600F0AAFE08B100F08CFF4A
:1033C00078B2013F0128F3DC84F8446001B0BDE825
:1033D000F040FFF758B8D4D42DE9F04F83B000285F
:1033E000029200F0AA8004461646894619B9206C5C
:1033F000002840F0C28000F076FF10B9002E40F0A7
:10340000AC80FFF712F8D4F838A0BAF1000F29D039
:10341000226C52B1D4E902011144E160814201D32E
:103420002168E160484601F05AF954F8100F00286D
:10343000AAF10100A0620ED0204600F068FE50B153
:103440004EF604504FF08051CEF200000160BFF301
:103450004F8FBFF36F8F0124FFF715F8204603B09D
:10346000BDE8F08F04F1240801206F464FF0000BF7
:1034700002AE00BF00BF00BF0299002959D0C007AB
:1034800002D0384600F0CBFEFEF7FDFF00F0D5FA83
:10349000FEF7CBFF94F84400FF2808BF84F844B03F
:1034A00094F84500FF2808BF84F845B0FEF7EBFF0D
:1034B0003846314600F0C0FE70B12046FFF750FF9D
:1034C00000F016FBFEF7B1FFA56BFEF7DCFF95B32E
:1034D00026E000BF00BF00BFFEF7A7FFA56BFEF709
:1034E000D2FF2DB12046FFF73BFF00F001FB17E0B4
:1034F0000299404600F0AEFD2046FFF731FF00F094
:10350000F7FA68B94EF604504FF08051CEF2000041
:103510000160BFF34F8FBFF36F8F00BF00BF00BFCD
:10352000FEF783FFD4F838A00020BAF1000FA3D033
:103530006EE7002490E7002490E744F6A73044F6B5
:10354000863244F63513C0F20020C0F20022C0F2E9
:10355000002340F2E951FFF7C7FA44F6A73044F6DA
:10356000863244F6E203C0F20020C0F20022C0F22C
:10357000002340F2F251FFF7B7FA44F6A73044F6C1
:10358000863244F61C43C0F20020C0F20022C0F292
:10359000002340F2ED51FFF7A7FAD4D4D4D4D4D409
:1035A0002DE9F04F83B00028029100F0908004468E
:1035B000006C002840F09B800D4600F094FE10B98E
:1035C000002D40F0A480FEF730FFA06BD0B154F87E
:1035D000101F0138A06271B1204600F098FD50B173
:1035E0004EF604504FF08051CEF200000160BFF360
:1035F0004F8FBFF36F8F0124FEF745FF204603B0C6
:10360000BDE8F08F4EF6045904F1240801216E46FE
:103610004FF0000B02AFCEF200094FF0805A00BF0E
:10362000029800284FD0C80702D0304600F0F7FDBE
:10363000FEF729FF00F001FAFEF7F7FE94F84400C8
:10364000FF2808BF84F844B094F84500FF2808BF5D
:1036500084F845B0FEF717FF3046394600F0ECFD20
:1036600070B12046FFF77CFE00F042FAFEF7DDFE67
:10367000A56BFEF708FF45B31EE000BF00BF00BF0B
:10368000FEF7D3FEA56BFEF7FEFE2DB12046FFF739
:1036900067FE00F02DFA0FE00299404600F0DAFCD8
:1036A0002046FFF75DFE00F023FA28B9C9F800A014
:1036B000BFF34F8FBFF36F8FFEF7B7FEA06B0021F4
:1036C0000028ADD083E7002496E7002496E744F66F
:1036D000A73044F6DE2244F63513C0F20020C0F2D3
:1036E0000022C0F2002340F28261FFF7FDF944F6A8
:1036F000A73044F6DE2244F67B53C0F20020C0F22D
:103700000022C0F2002340F28661FFF7EDF944F693
:10371000A73044F6DE2244F6E203C0F20020C0F2F5
:103720000022C0F2002340F28B61FFF7DDF9D4D410
:10373000B0B5F8B1C9B140F6007E4FF0000CC2F24E
:10374000002E0022002300BF0EEB02046568A84291
:103750000CD01BB92368002B54EA0C830832502A82
:10376000F2D1002B18BFC3E90010B0BD2346C3E956
:103770000010B0BD44F6A73044F27A7244F6E0433C
:10378000C0F20020C0F20022C0F2002340F6C9318E
:10379000FFF7AAF970B515460E460446FEF745FE3A
:1037A00094F84400FF2802D1002084F8440094F8E3
:1037B0004500FF2802D1002084F84500FEF763FE93
:1037C000A06B28B904F1240031462A4600F063FCBE
:1037D0002046BDE87040FFF7C3BDD4D4D4D4D4D4C0
:1037E0002DE9F04782B0DDF82CA0BAF1000F00F00F
:1037F000E4800C9C002C00F0F08081466020019059
:103800000198602840F0F9800E460198602120461A
:10381000984615460A9F00F05EFFC4F830A07EB1BE
:1038200004F134000F2100BF16F8012B00F8012B22
:103830001AB10029A1F10101F6D1002084F843005A
:10384000052F80F0EA800AEB8500251D0438E76229
:1038500020F007062846FFF76DFB04F11800FFF77C
:1038600069FBC7F10500A061216B30464A4643461B
:1038700024616462FEF77AFD2060FEF7D6FD40F613
:10388000747040F6507AC2F20020C2F2002A40F66C
:1038900058790168C2F2002901310160DAF800109C
:1038A00061B1D9F80000002844D1DAF80000E16ADB
:1038B000C06A884298BFCAF800403BE0CAF800409E
:1038C0000068012836D140F680760527C2F200262E
:1038D0003046FFF724FB013F06F11406F8D141F210
:1038E0002C08C2F200284046FFF719FB41F24006BF
:1038F000C2F200263046FFF712FB41F20000C2F28E
:103900000020FFF70CFB40F65C70C2F20020FFF7CE
:1039100006FB40F6E870C2F20020FFF700FB41F220
:10392000200041F22401C2F20020C2F20021C0F8BE
:1039300000800E6040F65470C2F200200168013130
:10394000016040F6E471E06AC2F200210A68904228
:1039500088BF086000EB800040F68071C2F2002151
:1039600001EB80004068A0608268E260556085607D
:10397000E06A00EB800001EB8002626151F82020D8
:10398000013241F82020FEF77EFDD9F8000080B119
:10399000DAF80000E16AC06A88420AD24EF60450A2
:1039A0004FF08051CEF200000160BFF34F8FBFF3A4
:1039B0006F8F204602B0BDE8F08744F6E63044F64B
:1039C000D23244F66003C0F20020C0F20022C0F2FE
:1039D000002340F2F141FFF787F844F6E63044F661
:1039E000D23244F63723C0F20020C0F20022C0F2E7
:1039F000002340F2F241FFF777F844F6E63044F650
:103A0000D23244F62163C0F20020C0F20022C0F29C
:103A1000002340F2FA41FFF767F844F6E63044F637
:103A2000522244F6C913C0F20020C0F20022C0F2B4
:103A3000002340F26471FFF757F840F67870C2F245
:103A4000002001680131016070472DE9F04381B029
:103A500040F67C7241F22003C2F2002240F650741C
:103A6000C2F20023C2F20024156841F22402C2F21D
:103A70000022D3F8008006460F46D2F80090226854
:103A8000101DFFF77AFA701C16D1AFB140F6E8703E
:103A9000C2F20020D0E90012236801319A609368D5
:103AA0002768FB60276804375F60236804339360EE
:103AB00022680160506117E02068AD1945602068F8
:103AC00000F1040105D3484601B0BDE8F043FFF71B
:103AD00037BA4046FFF734FA41F21400C2F2002030
:103AE00001688D4238BF056001B0BDE8F083D4D4D1
:103AF0002DE9F047FEF799FC40F67870C2F20020FD
:103B00000168002900F0B280016801390160006895
:103B100028B10024FEF7B7FC2046BDE8F08740F648
:103B20007470C2F2002000680028F2D041F2000058
:103B300040F6FC7AC2F2002040F65079C2F2002A28
:103B4000C2F200290168002967D040F6E47E40F601
:103B500080730021C2F2002EC2F200234FF0010C4C
:103B6000C768FC6804F11802D4E90775A66ABD604D
:103B7000E7696F607568954201D1226A7260A1623F
:103B80003268013A3260261DD4E9022567699560E2
:103B9000A2686A607A68B24201D1E2687A606161C3
:103BA0003A68013A3A60E76ADEF80020974207EB8C
:103BB000870288BFCEF8007003EB82025268A260D1
:103BC0009568E5606E609660E26A02EB820203EB44
:103BD0008205656153F82250013543F82250E26AAC
:103BE000D9F80040E46AA24288BFCAF800C002685F
:103BF0000AB12FF04BC841F22000C2F20020016848
:103C0000096819B10068C068006801E04FF0FF3032
:103C100041F21401C2F20021086041F21C08C2F214
:103C20000028D8F800606EB1012400BF00BF00BFBB
:103C300000F02EF908B1CAF80040013EF8D100208A
:103C4000C8F80000DAF8000000283FF462AFD9F8A5
:103C500000004EF60450CEF200004FF080510124D7
:103C60000160BFF34F8FBFF36F8F53E744F6E63029
:103C700044F6EF1244F6FB43C0F20020C0F20022EB
:103C8000C0F2002340F68B71FEF72EFF80B580B1A5
:103C900040F67871C2F200210A6801320A600968B0
:103CA000012912D10021FFF7D0FEFFF721FF00B15B
:103CB00080BD4EF604504FF08051CEF200000160FE
:103CC000BFF34F8FBFF36F8F80BD44F6E63044F6ED
:103CD000924244F61E33C0F20020C0F20022C0F22D
:103CE000002340F68E11FEF7FFFED4D4D4D4D4D4F2
:103CF00080B540F67870C2F20020006830B140F61E
:103D0000FC700121C2F20020016080BD40F6FC7011
:103D100040F6E47CC2F20020C2F2002C002140F602
:103D200080730160C2F20023DCF8001001EB810215
:103D300053F8220003EB820248B900BF00BF00BF66
:103D4000C1B152F8140D013908B92FF007C85068F5
:103D500002F1080E43685360734501D1D368536084
:103D600040F65072D868C2F200221060CCF8001001
:103D7000106880BD44F6E63044F6450244F6BD5373
:103D8000C0F20020C0F20022C0F2002341F2FA315A
:103D9000FEF7AAFEB0B58AB044F2494004A9C4F2C5
:103DA0004C50069005A803AA00248DF81C40CDE9CC
:103DB0000444FEF713FADDE90320019044F21130C8
:103DC00006A9C0F200200023059D00940295FFF78C
:103DD00007FD41F21800C2F20020056000F0B1FAC0
:103DE000012811D0013025D144F6E63044F6E742EF
:103DF00044F64533C0F20020C0F20022C0F2002396
:103E000040F6A961FEF770FE41F214010120C2F2F2
:103E1000002180F310884FF0FF320A6040F658719D
:103E200040F67C72C2F20021C2F2002208601460E7
:103E3000FEF7BAFA45F2B800C0F2002000680AB0F6
:103E4000B0BDD4D4D4D4D4D470B540F67074C2F21A
:103E500000242068D8B140F65C7540F67476C2F252
:103E60000025C2F2002600BFFEF7DFFAE868C0684E
:103E70000430FFF782F8306801383060206801387C
:103E80002060FEF700FB206808B12FF013C870BD5A
:103E90002DE9F04F81B040F67870C2F20020006842
:103EA00040B141F21C00C2F2002001680131016002
:103EB0000020B6E040F67C7041F2140CC2F2002003
:103EC000C2F2002C016811F1010BC0F800B022D33E
:103ED00041F22000C2F2002001680968002940F088
:103EE000A38041F224030168C2F200231F68076027
:103EF000196041F22801C2F200210B6801330B6006
:103F00000168096819B10068C068006801E04FF0F5
:103F1000FF30CCF80000DCF80000834501D200201F
:103F200077E041F2200A4FF00009C2F2002ADAF8E5
:103F300000000068002867D040F6E47E40F68074F8
:103F400040F65078C2F2002EC2F20024C2F20028DD
:103F5000002000BF00BF00BFDAF80050ED68EE6837
:103F6000374657F8045FAB4551D3D6E9021375695C
:103F70008B60B16859606968B94201D1F1686960C4
:103F8000C6F81490296801392960B56A85B1D6E967
:103F9000071306F118028B60F16959606968914254
:103FA00001D1316A6960C6F8289029680139296011
:103FB000F56ADEF800108D4205EB850188BFCEF86A
:103FC000005004EB81014968B1608A68F260576073
:103FD0008F60F16A01EB810104EB8102726154F898
:103FE0002120013244F82120F16AD8F80020D26A59
:103FF000DAF80030914288BF0120196809B12FF02A
:1040000055C84FF0FF3502E04FF0FF350020CCF8E7
:10401000005040F6FC71C2F200210968002918BF67
:10402000012001B0BDE8F08F44F6E63044F694324A
:1040300044F2CF73C0F20020C0F20022C0F200238D
:1040400041F25F21FEF750FD40F67C70C2F2002085
:104050000068704710B570B10C4640F65071C2F25E
:10406000002109681831FEF76BFF01212046BDE8E9
:104070001040FFF7EABC44F6E63044F6C14244F68D
:104080003933C0F20020C0F20022C0F200234FF406
:10409000A451FEF729FD10B548B340F6507CD0F886
:1040A00004E0C2F2002C002ADCF80030C3F81CE067
:1040B000DEF80830DCF800402362DCF8004004F150
:1040C00018045C60DCF8003003F11803CEF8083007
:1040D000DCF80030986218BF4FF0FF3103680133FD
:1040E000036008461146BDE81040FFF7AEBC44F639
:1040F000E63044F6FE1244F63933C0F20020C0F236
:104100000022C0F2002341F2BE41FEF7EDFC80B573
:10411000C068C068002872D0D0E9073100F1180CDF
:10412000826A9960C3694B605168614501D1016A37
:1041300051600021816211680139116040F6787187
:10414000C2F20021096891B141F2000EC2F2002EC4
:10415000DEE90023C36199680162C1F804C0C3F8B5
:1041600008C0C0F828E0511CCEF8001035E0D0E9B6
:10417000023100F1040C4269996083684B60516818
:10418000614501D1C16851600021416140F6E4738D
:104190001168C2F2002301391160C26A19688A42AB
:1041A00088BF1A6002EB820140F68072C2F20022E0
:1041B00002EB8101496881608B68C360C3F804C069
:1041C000C1F808C0C16A01EB810102EB81034361C0
:1041D00052F82130013342F8213040F65071C06A64
:1041E000C2F200210968C96A884206D940F6FC710A
:1041F0000120C2F20021086080BD002080BD44F68D
:10420000E63044F61E2244F64113C0F20020C0F20C
:104210000022C0F2002341F2F541FEF765FC41F2B5
:104220002801C2F200210968016040F67C71C2F2E7
:10423000002109684160704770B568B30D46D9B375
:104240000446FEF7F2F840F67C7EC2F2002EDEF85D
:10425000003029684A1C16D041F2280CD4E900022B
:10426000C2F2002CDCF80060864201D093420CD2EE
:104270009A1A914209D9881A2860DCF80000206057
:10428000DEF800006060002402E0012400202860C5
:10429000FEF7F9F8204670BD44F6E63044F6754264
:1042A00044F6BF13C0F20020C0F20022C0F2002387
:1042B00041F2A551FEF718FC44F6E63044F675428B
:1042C00044F66723C0F20020C0F20022C0F20023AF
:1042D00041F2A651FEF708FC40F6FC700121C2F243
:1042E00000200160704740F65870C2F2002000685C
:1042F00050B140F67870C2F20020006800284FF0FC
:10430000000008BF0220704701207047D4D4D4D4E5
:1043100040F680744EF60455C2F20024CEF2000539
:104320004FF0805600BF00BFFFF78EFD20680228C7
:1043300004D32E60BFF34F8FBFF36F8FFEF7FDF8EE
:10434000F2E780B586B000F03AF841F25400C2F2CC
:104350000020006818B30020CDE9040005A804A9D6
:1043600003AAFDF749FF0DF10C0E0320009044F263
:10437000394044F65451C0F200209EE80450C0F287
:1043800000210023CDE901CEFFF72AFA41F25801BE
:10439000C2F20021086010B1012006B080BD44F6D1
:1043A0007D0044F6945244F67523C0F20020C0F21A
:1043B0000022C0F200234FF4A371FEF795FB70B505
:1043C00082B0FEF732F841F25406C2F2002630689D
:1043D00068BB41F26804C2F200242046FEF79FFD4C
:1043E00041F27C05C2F200252846FEF798FD41F215
:1043F0005C0041F26001C2F20020C2F2002141F2F1
:10440000D80241F2900304600D60C2F20022C2F2B1
:1044100000230A200C2100250095FEF71EFE3060C7
:1044200028B144F6CB01C0F20021FFF781F902B0B8
:10443000BDE87040FEF727B884B041F25C0841F255
:104440005405C2F2002801ACC2F200254FF0000B67
:10445000EA4600BF00BF00BFD8F80000D0F80090C7
:10446000B9F1000F04D0C068066802E000BF00BFC9
:104470000026FFF7E2FA204600F0A6F8019919B1EC
:10448000FFF736FB30E000BF0746B9F1000F08D058
:10449000BE4206D8FFF72CFB3046394600F0C1F883
:1044A00022E0B9F1000F01D0002208E041F26000E3
:1044B000C2F200200068006800285FEA1F922868A6
:1044C000F11BFFF767F9FFF713FB68B94EF60450CD
:1044D0004FF08051CEF200000160BFF34F8FBFF369
:1044E0006F8F00BF00BF00BFCDF80CB0CDE901BB9E
:1044F000286800222146FEF76FFF08B92FF055C04B
:1045000001980028F4D4039E706910B1301DFEF7A5
:1045100034FD504600F058F8019901390829E7D8D0
:104520000746DFE801F005051E251E05051E2500CE
:1045300096F82400029BB1693A4640F0010086F8E3
:1045400024001944304600F0A6F808B92FF031C015
:1045500096F8240041071BD400F0FA0086F82400E6
:104560001DE096F8240000F0FE0086F82400BFE766
:1045700096F824100298B06141F0010186F82410E9
:1045800088B1C11930463A463B4600F084F8AFE79F
:104590000298B169014430463A4600F065F8316A44
:1045A00030468847A4E744F67D0044F6265244F698
:1045B0003A63C0F20020C0F20022C0F200234FF4A0
:1045C0008261FEF791FAD4D4F0B581B00446FFF7CA
:1045D0003BFD41F264060546C2F20026316888427E
:1045E00010D241F25C07C2F2002700BF00BF00BF3B
:1045F0003868016841B1C0684FF0FF31006800F0D1
:1046000010F8F5E7002007E041F26001C2F2002156
:104610000A68086001203A6020603560284601B0D1
:10462000F0BD70B541F25C020646C2F200220D46B2
:104630001268D268D468201DFEF79FFC94F824000D
:10464000410704D400F0FA0084F8240004E0204676
:1046500031462A4600F008F8216A2046BDE870403D
:104660000847D4D4D4D4D4D470B504468069154650
:104670000E460144204600BF334600F00CF848B116
:10468000A069216A064420468847A0692A46811904
:104690002046F1E770BD8C4601469445006141F823
:1046A00004CF08D941F25C009A42C2F200200AD23B
:1046B0009C4508D30DE08069D21A824209D241F2AA
:1046C0006000C2F2002080B50068FEF739FC0020CF
:1046D00080BD012070470A46002100F009B810B5DE
:1046E000002322B1CC5C013AC4540133F9E710BD78
:1046F00003461AB103F8011B013AFAE77047D4D414
:104700000249401A02490860704700BF08000000D3
:1047100050110022034613F8012B002AFBD1181A6E
:104720000138704710B505490446054AFFF7D7FF21
:10473000044805492044FFF7CEFF10BD40000002A9
:10474000000000000000000000000000008835406C
:104750000087354000823540080009000C000A043B
:1047600003030006070A09047578437269746963D4
:10477000616C4E657374696E670076517565756519
:10478000416464546F526567697374727900626141
:10479000642070776D002E2E2F72612F6673702F3C
:1047A0007372632F726D5F6672656572746F735F8B
:1047B000706F72742F706F72742E630076506F7208
:1047C00074456E746572437269746963616C002824
:1047D00020282028202820707844656C6179656441
:1047E0005461736B4C69737420292D3E75784E7536
:1047F0006D6265724F664974656D73203D3D20287A
:10480000205542617365547970655F7420292030AA
:104810002029203F20282028204261736554797088
:10482000655F74202920312029203A202820282063
:1048300042617365547970655F74202920302029A6
:104840002029202900765461736B5377697463685B
:10485000436F6E74657874006261642063616E00FA
:10486000707578537461636B42756666657220215A
:104870003D202828766F69642A293029002E2E2FA2
:1048800072612F6177732F4672656552544F532FB3
:104890004672656552544F532F536F757263652F7F
:1048A00074696D6572732E6300303132333435367E
:1048B0003738394142434445460075635356434EA9
:1048C000756D626572203C3D203300546D7251005D
:1048D00078517565756547656E6572696353656E78
:1048E00064002128202820785461736B4765745335
:1048F00063686564756C65725374617465282920FA
:104900003D3D202820282042617365547970655F01
:1049100074202920302029202920262620282078AC
:104920005469636B73546F5761697420213D203063
:104930002029202900282070785175657565202967
:10494000007078556E626C6F636B6564544342000F
:10495000626164206F75747075747300707853743D
:10496000617469635175657565007848616E646C42
:104970006500212820282078436F7079506F736973
:1049800074696F6E203D3D202820282042617365A8
:10499000547970655F74202920322029202920262F
:1049A00026202820707851756575652D3E75784CE8
:1049B000656E67746820213D203120292029007010
:1049C0007854696D654F75740075785072696F72AF
:1049D000697479203C202835290052413850312013
:1049E0007265736F75726365732075700D0A007858
:1049F0005461736B526573756D65416C6C007654D0
:104A000061736B506C6163654F6E4576656E744C77
:104A10006973745265737472696374656400785461
:104A200061736B52656D6F766546726F6D45766525
:104A30006E744C6973740070785461736B42756660
:104A400066657220213D202828766F69642A293006
:104A50002900707276496E697469616C6973654E7C
:104A600065775461736B0070785469636B73546F2E
:104A700057616974007852657475726E0028282831
:104A80005343425F54797065202A292028283078C2
:104A90004530303045303030554C29202B2030788F
:104AA00030443030554C2920292D3E494353522063
:104AB0002620283078314646554C202929203D3D76
:104AC0002030007853697A65203D3D2073697A650E
:104AD0006F66282051756575655F742029007851CF
:104AE0007565756553656D6170686F726554616B4E
:104AF000650078517565756547656E6572696343D4
:104B000072656174655374617469630076506F7285
:104B10007453564348616E646C65725F43007578E8
:104B20005363686564756C657253757370656E6404
:104B30006564203D3D2031550070784576656E7482
:104B40004C697374007852657475726E20213D2033
:104B500028202D312029004E657720546872656128
:104B60006400785175657565437265617465436F5E
:104B7000756E74696E6753656D6170686F726553A9
:104B80007461746963007851756575655265636514
:104B900069766500785461736B496E6372656D6503
:104BA0006E745469636B002E2E2F72612F617773C0
:104BB0002F4672656552544F532F467265655254A5
:104BC0004F532F536F757263652F71756575652E21
:104BD00063007072764372656174655374617469C1
:104BE000635461736B002E2E2F72612F6177732FC8
:104BF0004672656552544F532F4672656552544F45
:104C0000532F536F757263652F7461736B732E63CB
:104C10000070784E657751756575650021282028EC
:104C200020282070764275666665722029203D3DF9
:104C3000202828766F69642A2930292029202626F1
:104C400020282028207078517565756520292D3E13
:104C500075784974656D53697A6520213D20282057
:104C60005542617365547970655F74202920305511
:104C70002029202900785461736B436865636B4673
:104C80006F7254696D654F757400707851756575F4
:104C90006500765461736B44656C61790078526588
:104CA0007475726E20213D20282028202820426122
:104CB0007365547970655F7420292030202920297C
:104CC00000765461736B506C6163654F6E45766519
:104CD0006E744C6973740063616E20627573790041
:104CE00078517565756500765461736B53746172A4
:104CF000745363686564756C657200757853636896
:104D00006564756C657253757370656E6465642057
:104D1000213D20305500756E6B6E6F776E20636F8E
:104D20006D6D616E640070727650726F636573733F
:104D30005265636569766564436F6D6D616E64731A
:104D40000078517565756547656E65726963526572
:104D500073657400546D7220537663006261642041
:104D600070726F746F6275660076506F72744578FA
:104D70006974437269746963616C00707851756518
:104D800075652D3E75784974656D53697A65203D6A
:104D90003D2030007854696D6572437265617465B9
:104DA00054696D65725461736B0063616E20666453
:104DB00020756E737570706F7274656400757854C9
:104DC0006F705072696F72697479002128202820F1
:104DD00070764974656D546F5175657565203D3DFC
:104DE000202828766F69642A293029202920262640
:104DF000202820707851756575652D3E7578497449
:104E0000656D53697A6520213D20282055426173E4
:104E100065547970655F7420292030552029202938
:104E2000007853697A65203D3D2073697A656F6625
:104E300028205443425F7420290028207078546948
:104E40006D65722D3E7854696D6572506572696F3B
:104E500064496E5469636B73203E203020290062E0
:104E600061642064616300D4524120743D3030306D
:104E700030206164633D303030302F3030303020AE
:104E8000696E3D30300D0A00000000000000010096
:104E900008020000000001000902000000000100FB
:104EA0000A020000000001000B02000004000000E4
:104EB0008C4E000200000000020403040404D4D459
:104EC0000000006800000068000000800000008012
:104ED000000000220000002209000000F04E000245
:104EE000150000005C4F000203000000C04E0002ED
:104EF00000000068000000680001000D000000686C
:104F0000000000680001000D00000080000000802B
:104F1000000100080000008000000080000100087F
:104F2000000000000000000001000005000000205B
:104F30000000002001000004000000220000002208
:104F4000000000032C040022541100220000000382
:104F500054110022541100220000000300000068D8
:104F600000000068000000900001090D00000068CA
:104F7000000000680000000800010E0D000000683D
:104F800000000068000000270001020D000000681A
:104F900000000068400000020001010D00000080D8
:104FA000000000800000009000010908000000805F
:104FB000000000800000000800010E0800000080D2
:104FC00000000080000000270001020800000080AF
:104FD0000000008040000002000101080000000005
:104FE0000000000000000090010109050000000021
:104FF000000000000000000801000E050000000095
:105000000000000000000027010002050000000071
:105010000000000040000002010001050000002027
:1050200000000020000000900101090400000020A1
:10503000000000200000000801000E040000002015
:1050400000000020000000270100020400000020F2
:1050500000000020400000020100010400000022C6
:10506000000000220000009000010903000000225F
:10507000000000220000000800000E0300000022D3
:1050800000000022000000270000020300000022B0
:105090000000002240000002000001035411002221
:1050A0005411002240000002000001030000010032
:1050B00002000800100020000400000000000606A6
:1050C000362E362E30004275696C7420776974680C
:1050D0002052656E6573617320416476616E63650D
:1050E0006420466C657869626C6520536F667477DE
:1050F000617265205061636B6167652076657273CC
:0A510000696F6E20362E362E300047
:0200000402C92F
:04F04000FFFFFFFFD0
:04F04400EFFFFFFFDC
:04F0C000FFFFFFFD52
:04F0C400FFFFFFFF4C
:04F1200000000000EB
:04F1240000000000E7
:0400000502002C7950
:00000001FF
