S0100000504F435F524138502E73726563B8
S315020000000004002291140002911300029B140002C4
S315020000109B1400029B1400029B1400029B14000214
S31502000020000000000000000000000000A90A000213
S315020000309B14000200000000C10A0002290B000204
S3150200004088B040F61424EFF31080C2F20024012196
S3150200005081F31088216839B940F614520021C4F29E
S315020000604002117040211170216840F60009C4F265
S3150200007040090131216010211022C0F20141C0F273
S31502000080015280F3108801F57C70C9F84803C9F85B
S315020000904C1302F57C73C9F82432C9F82022C9F838
S315020000A0040240F20040C1F20100C9F80812C9F880
S315020000B0F40000F11001C9F8F010C9F8A40140F2E9
S315020000C00040C9F8A811C0F20160C9F84000C9F899
S315020000D04400C9F84800C9F84C00502040F20041DB
S315020000E0C0F20170C9F80001C0F20131C9F8040179
S315020000F0C9F85410C9F85010C9F84411C9F82812A1
S315020001001020C9F82000C9F82400C9F83000C9F83F
S3150200011028010420C9F8CC00C9F88001C9F89C025C
S31502000120C9F824014FF40041C9F80410C9F81C109B
S31502000130C9F8381040F60041C1F20131C9F8381247
S31502000140C9F83C12C9F81C11C9F8400140F2004036
S3150200015040F60041C1F20160C1F60101C9F8D010B2
S31502000160C9F8D410C9F8D810C9F8DC10C9F8E810D3
S31502000170C9F8E410C9F85812C9F85C12C9F8601235
S31502000180C9F86412C9F89810C9F85412C9F83C01A2
S315020001901030C9F838010520C9F8E0010121EFF352
S315020001A0108081F31088216811B12168013921601C
S315020001B0216839B940F614520021C4F24002117086
S315020001C0802111704FF2BF2780F3108848F2007524
S315020001D048F204280120CFF6FC77C4F23505C4F2B2
S315020001E0350801F02DF943F2040043F2FF52C4F23E
S315020001F02000CDF67B6201681140016041684FF62E
S31502000200FF7221F0406141608168CBF6D77221F41A
S3150200021040118160C1681140C1600068012001F08F
S31502000220E8F801204FF47A7101F06FF80020C5F862
S3150200023008014FF48071C5F8141148F21072C5F81E
S3150200024010214FF08053C5F80C311126C5F808610C
S31502000250A86069612A61EB60AE60C8F80400C8F85C
S31502000260101043F21021C0F22001C8F80C10C8F891
S315020002700830C8F804604FF0140E43F2AA11522255
S31502000280C0F2002100BF00BF3B4600BF00BF00BF57
S31502000290013305D2D5F84861B600F9D585F80421AF
S315020002A001300A5C0FF011C04CF200114EF200024E
S315020002B0C4F23501C4F225024FF0000A3D2081F84E
S315020002C000A081F802A0887281F808A04FF4E060CD
S315020002D0088248200870107842F2000648F20008A8
S315020002E0C4F2380600F07F0010701078C4F23308AA
S315020002F040F040001070107840F080001070907846
S3150200030000F08F0030309070262050741074012057
S3150200031010713020507100201178C4F2380001F0BB
S31502000320BF01117000F0ACFA304600F0A9FA42F2B1
S3150200033000104DF28F0CC4F232004EF6470640F220
S3150200034006134FF425410160022240F8F82CC0F84A
S315020003502CA0C0F2030CC0F864C0C0F20106C66449
S315020003604FF223460665C0F206134363016040F866
S31502000370FC2C42F600224FF48053C4F232024FF4B0
S31502000380837EC2F8001240F8F83CC2F82CA2C2F8EA
S3150200039064C2C2F84C62C2F834E2C2F8001240F8F3
S315020003A0FC3C11604FF4806340F8F83CC2F82CA084
S315020003B0C2F864C047F61126D664C2F834E011606A
S315020003C040F8FC3CD8F8000040F00100C8F80000F4
S315020003D0384600BF00BF00BF013006D248F2000116
S315020003E0C4F233014968C907F6D048F2000143F264
S315020003F00002C4F23301C4F223024FF0021040F2AB
S31502000400000A88604FF02010C1F840024FF4807055
S31502000410C1F800064FF4E060C1F81006C4F2250ADE
S31502000420906844F2000640F480309060002010800C
S3150200043050684FF47A7120F0004050605068C4F260
S31502000440350640F001005060BAF8000040F48060C2
S31502000450AAF80000012000F058FFBAF8000020F0C8
S315020004604000AAF80000BAF8000020F02000AAF81E
S315020004700000BAF8000040F00100AAF80000BAF83D
S31502000480000040F01000AAF80000306840F00100B9
S3150200049030604FF2BF20CFF6FC7000BF00BF00BF36
S315020004A0013002D23168C907FAD140F22C4143F633
S315020004B0FA78C2F200214FF0010B6FF03F0ACFF635
S315020004C0FE7800BF00BF00BF086801300860EFF386
S315020004D010818BF3108822683AB940F61452002331
S315020004E0C4F240021370402313702268A4460132FC
S315020004F0226081F31088042141F001E043F2FE52AA
S3150200050000F00F000021C0F2002200BF00BF00BFB2
S3150200051032F8023B20FA01F606F0010601310AEA38
S315020005209304DBB24C4454F8237007EA08073744B5
S31502000530043744F823700FF015C8EFF310808BF3DD
S315020005401088DCF8001021B1DCF800100139CCF873
S315020005500010DCF8001039B940F614510022C4F23A
S3150200056040010A7080220A7080F31088042040F04D
S3150200057001E043F2F6510020C0F20021002200BF42
S3150200058031F8023B0AEA9307DBB24F4457F82330AD
S315020005900BFA00F701309B0748BF3A430FF011C030
S315020005A040F230404FF47A71C2F20020027048F2F3
S315020005B00000C4F23300C0F820BC012000F0A5FE02
S315020005C04AF2000140F23242C4F23301C2F2002280
S315020005D040F22C4447F65F1708681080C2F20024E6
S315020005E040F23442C2F2002248682188CFF6FE77F2
S315020005F010804FF47F6000EA011043F20001C4F25A
S31502000600230148F204264CF20013C4F23506088090
S3150200061039462068C4F2350301310DD2DA789206E2
S31502000620FAD51871384600BF013005D293F9031086
S31502000630B1F1FF3FF8DC18794EF200032068C4F2EC
S315020006402503597A01F0EF01597262215970394630
S31502000650013121D293F90920B2F1FF3FF8DCA02142
S315020006609974394600BF00BF013111D25A7A520637
S31502000670FAD5597AC9060BD49874384600BF00BF1A
S31502000680013005D2597A4906FAD500BF00BF00BF2C
S31502000690587840F00800587000222068C4F23802E8
S315020006A092F87010C90710D140F204610023C4F217
S315020006B03801C0F28C430B604FF080534B6000232D
S315020006C08B60087382F870B0206842F20001C4F2AF
S315020006D0380191F87010C90713D142F20461002261
S315020006E0C4F23801C0F684420A604FF080524A6072
S315020006F000228A60087342F20000C4F2380080F8D1
S3150200070070B0B0684FF47A7120F01000B060B06833
S3150200071040F02000B060012000F0F7FD4FF2BF2448
S31502000720B068CFF6FC7420F02000B060204600BF0F
S31502000730013004D2716C8900FAD555203070A86C4C
S3150200074040F22C4CC001C2F2002C48BF2878A86C9B
S31502000750B0F1FF3F0CDC2878214600BF00BF00BF86
S31502000760013105D2AA6C9200FAD5287100BF00BFEA
S3150200077043F20860EE46C0F200207146CCC8CCC1F6
S3150200078090E8CC00CCC1DCF8000043F28507C0F348
S315020007900331C0F20027C0F30322795C8DF80510FD
S315020007A0B95C8DF8061040F23241C2F20021C0F364
S315020007B0031200F00F000988BA5C8DF80720385C36
S315020007C00A0BC1F303238DF80800B85CC1F30312C8
S315020007D08DF80E00F85C40F234438DF80F00C2F239
S315020007E0002301F00F00B95C1B888DF81010385CED
S315020007F01A0B8DF81100B95CC3F303228DF813109E
S31502000800C3F30311B85C03F00F028DF8140040F233
S315020008103040C2F20020795C8DF81510BA5C00787F
S315020008208DF81620010900F00F00795C385C8DF80E
S315020008301B108DF81C005220714600BF00BF00BF7E
S31502000840224600BF00BF00BF013205D2D5F84831AB
S315020008509B00F9D585F8040111F8010F08B12FF0B4
S3150200086011C84FF4FA7001F01DFE40F22C4140F619
S315020008701424C2F20021C2F2002425E6D4D4D4D430
S315020008804FF2BF218269CFF6FC7122F00402826127
S315020008900A4600BF00BF00BF01323ED2C3695B07F2
S315020008A0FAD48269012363F3010282610A4600BF18
S315020008B0013232D2C369DB07FAD0426822F004025F
S315020008C042600A4600BF00BF013226D283685B0738
S315020008D0FAD44268012363F3010242600A4600BF6A
S315020008E001321AD28368DB07FAD040F6050240F6D7
S315020008F00523C0F21462C0F203230260C0F800317D
S31502000900826922F003028261426822F00302426097
S31502000910013102D2C269D207FAD17047022818BF42
S31502000920704740F2384043F24C61C2F20020C0F2F6
S31502000930002100F01ABAFFF783BB7047FFF7FDBF2D
S3150200094000BE7047D4D4D4D4B0B540F240444FF080
S31502000950FF31C2F20024206801F02EFA012803D0EA
S3150200096020680021FFF7ECFF40F24440C2F200206B
S31502000970017801B1B0BD01210170FFF7DFFF40F23E
S315020009804845C2F2002500BF286801382860F1D028
S31502000990206800210022002300F0DAFF0128F3D0AC
S315020009A020680021FFF7CCFFEEE780B540F2444213
S315020009B040F24840C2F20022C2F200200021117029
S315020009C040F24C420160C2F200224FF480700121D3
S315020009D000F09BFF40F24041C2F20021086018B9C4
S315020009E000200021FFF7ACFF00F020F801F0DEFD49
S315020009F0002080BD40F2944C40F2F443C2F2002C37
S31502000A00C2F20023C0F800C00B608020106070475D
S31502000A1040F2F46C40F25473C2F2002CC2F200238C
S31502000A20C0F800C00B6080201060704780B584B0AB
S31502000A3040F2484043F22863C2F2002040F6541CBA
S31502000A4040F6804EC0F2002301684FF48062013105
S31502000A5001600120009040F6952043F22731C0F252
S31502000A600020C0F20021C2F2002CC2F2002ECDE913
S31502000A7001EC01F0C1FA40F6B411C2F2002108609D
S31502000A8008B104B080BD0020002104B0BDE880405A
S31502000A90FFF756BF10B50446FFF756FF2046BDE8DE
S31502000AA01040FFF748BFD4D41EF0040F0CBFEFF37B
S31502000AB00880EFF309800149084700004F0B000246
S31502000AC00F4B1968EFF309821EF0100F08BF22EDD3
S31502000AD0108A22E9F04FEFF30B8342F8043D0A60D5
S31502000AE04FF0100080F31188BFF34F8FBFF36F8F63
S31502000AF001F00AFD4FF0000080F3118800F002B801
S31502000B00780A0022074801680A6802CA81F30B883C
S31502000B10B2E8F04F1EF0100F08BFB2EC108A82F353
S31502000B2009887047780A002210B51020EFF3118465
S31502000B3080F3118801F0B8FD30B14EF604504FF043
S31502000B408051CEF20000016084F3118810BD8069E5
S31502000B5010F8020C022801D1FFF7D4BF042838BFCF
S31502000B60704780B542F67A7043F2DC2243F296036E
S31502000B70C0F20020C0F20022C0F200234FF47E71C0
S31502000B8000F0BEFB283140F8481D40F6B1314FF067
S31502000B90807CC0F2002122F00102C1630264C0F827
S31502000BA044C06FF00201C0E909137047D4D4D4D40B
S31502000BB000BE00BF00BF00BFFEE7D4D4D4D4D4D455
S31502000BC04EF62250F021CEF20000017000F016F827
S31502000BD04EF63470CEF20000016841F040410160E9
S31502000BE062B6BFF36F8FEFF3148C2CF0040C8CF308
S31502000BF01488BFF36F8F02DF00BEFDE740F62420A4
S31502000C0044F6D351C2F20020C1F262010068A0FB91
S31502000C1001014FF0FF3000EB91110020B0EB116F94
S31502000C2018BF70474EF21002F023CEF20002516056
S31502000C304EF62351CEF200010B7090600720106031
S31502000C407047EFF31180102181F3118840F6B81135
S31502000C50C2F200210A68002A02F101020A6018BFE4
S31502000C60704740F6BC11C2F2002108604EF60450ED
S31502000C70CEF200000068C00500D1704780B542F68A
S31502000C807A7042F6A07243F24D23C0F20020C0F2FF
S31502000C900022C0F2002340F2A44100F031FB40F6EC
S31502000CA0B810C2F20020016859B10139016018BFBB
S31502000CB0704740F6BC10C2F20020006880F311882B
S31502000CC0704780B542F67A7043F2135242F6547375
S31502000CD0C0F20020C0F20022C0F2002340F2AD4171
S31502000CE000F00EFB80B598B34EF6902EC4F2010EBC
S31502000CF09EF800100A0722D04EF2FA324AF2025C3D
S31502000D00C4F20102CFF6FF7C00201388A2F800C0CD
S31502000D108EF8000043F425401080BFF34F8F30BF9A
S31502000D20BFF36F8F62B6BFF36F8F72B61088A2F8E9
S31502000D3000C08EF8001040F42540108080BDBFF33D
S31502000D404F8F30BFBFF36F8F62B6BFF36F8F72B62E
S31502000D5080BD80B572B601F07CFA0120FFF7C2FFB2
S31502000D6062B6BDE8804001F0CFBA80B545F25422A2
S31502000D70C5F24F020260084600F002F8002080BD6C
S31502000D8070B5044600F060F840F6142CEFF31081BB
S31502000D90C2F2002C012080F31088DCF8000038B97A
S31502000DA040F614500022C4F2400002704022027043
S31502000DB0DCF800000130CCF8000081F310882088AE
S31502000DC028B340F6000E0021C4F2400E00BF00BF59
S31502000DD0606800EBC10250F831309288D8034FEABE
S31502000DE01220D2B20BD50EEB801555F8226026F4EE
S31502000DF0803645F8226023F4803645F822600EEBF1
S31502000E008010013140F8223020888142E0D301204F
S31502000E10EFF3108180F31088DCF8000020B1DCF8D3
S31502000E2000000138CCF80000DCF8000038B940F6C2
S31502000E3014500022C4F2400002708022027081F334
S31502000E40108870BDD4D4D4D42DE9F04F81B00446B5
S31502000E500088002862D04EF64C4B0025C4F2010BE6
S31502000E604FF0010A00BF00BF42F2400643F2586843
S31502000E700027C4F22006C0F2002800BF00BF00BF50
S31502000E80606838F8021B00EBC50082888A423DD1B1
S31502000E9000689BF8001000F0B8500AFA07F9B0F1A2
S31502000EA0807F09EA010017D158B9012000F0C8FA7B
S31502000EB09BF8000040EA09008BF80000012000F0D0
S31502000EC098FA96F90000002820D4307840F0800085
S31502000ED017E000BF00BF00BF58B1012000F0B0FA12
S31502000EE09BF8000020EA09008BF80000012000F0C0
S31502000EF080FA96F90000B0F1FF3F07DC307800F087
S31502000F007F003070C820012100F0FFF90137023658
S31502000F10032FB5D1208801358542A5D301B0BDE89E
S31502000F20F08FD4D44EF22401C4F2010188780988E4
S31502000F3001F00F02A2F1080103293BD8DFE801F014
S31502000F40022C101E40F20041C2F2002151F820008C
S31502000F504AF6AB21CAF6AA21A0FB0101480830E0F5
S31502000F6040F20041C2F2002151F820004AF6AB21BC
S31502000F70CAF6AA21A0FB0101C80822E040F20041FC
S31502000F80C2F2002151F820004AF6AB21CAF6AA2184
S31502000F90A0FB0101080914E040F20041C2F200215F
S31502000FA051F820004AF6AB21CAF6AA21A0FB01019C
S31502000FB0880806E040F20041C2F2002151F8200002
S31502000FC0D04040F62421C2F2002108607047D4D4F2
S31502000FD02DE9F041A0A04EF2FA38C4F201084AF215
S31502000FE0015190ED001F40F20040CFF6FF71C2F2B0
S31502000FF000200231A8F800104CF600214EF60146F8
S315020010004EF60047C3F69A314FF40042C0E9042176
S3150200101044F2553148F200424EF2140580ED001FAB
S31502001020C4F20106C4F20107C1F2DE31C1F2D7727F
S31502001030C4F20105C0E90712FFF774FF4FF65060CC
S315020010400A21CFF6FF703954092085F88E003878C8
S3150200105018B93078800700F0F980387858B901203D
S315020010603870C820012100F050F900BF00BF00BF50
S3150200107038780128FCD10020307038704AF20156C7
S31502001080002085F82200A87795F828000007FBD5EE
S315020010904EF614504FF60211C5F8981040F251411F
S315020010A02987CEF20000BFF34F8FBFF36F8F02681E
S315020010B04EF2000122F4003202600022C0F83C2205
S315020010C0CEF20101BFF34F8FBFF36F8F0A6822F48E
S315020010D040520A60BFF34F8FBFF36F8F2A7802F038
S315020010E0F80201322A7000BF2A78D206FCD40A68B6
S315020010F042F440520A60BFF34F8FBFF36F8F01680D
S31502001100890312D4BFF34F8FBFF36F8F0021C0F84C
S315020011103C12BFF34F8FBFF36F8F016841F400316A
S315020011200160BFF34F8FBFF36F8F0020A87500BF1A
S3150200113095F828008006FBD54CF200070020C4F281
S31502001140130738703878387838787868FA2807D0EC
S31502001150FA20C1F6006000BF78607968FA29FBD1EF
S31502001160B8687D2808D07D20CEF2001000BF00BFEF
S31502001170B860B9687D29FBD143F23240C3F223201D
S31502001180E86042F2201028820520A874FFF7CAFE02
S315020011901E200121012400F0B8F878686FF39F2021
S315020011A0652828BF3C70FFF7BDFE42F200004FF4EF
S315020011B02541C4F200000680BFF35F8F0472BFF3BD
S315020011C05F8F018085F83F4095F8600040F040004F
S315020011D085F8600000BF00BF95F96000B0F1FF3FDF
S315020011E0FADC002085F85800402185F8601085F861
S315020011F0600000BF00BF00BF95F960000028FBD465
S3150200120095F8620040F0400085F8620000BF00BF1A
S3150200121095F96200B0F1FF3FFADC002085F85A002A
S31502001220C02085F8620095F8620000F0BF0085F8DC
S31502001230620000BF00BF00BF95F962000028FBD420
S315020012404FF42540A8F80000BDE8F0814FF47A700B
S3150200125000F00AF812E700BF006CDC0200127A0006
S315020012600080000000366E017047D4D4D4D4D4D4A2
S31502001270B0B542F22404C820C4F22004012100259C
S31502001280257100F042F82570207808B12FF005C0CC
S31502001290207840F00200207020788007FCD40020DD
S315020012A004F8020C00BF00BF14F8020C08B12FF0BC
S315020012B005C84FF0030E002004F11C0100BF00BF59
S315020012C011F8102002F07F0201F8102000BF00BFC3
S315020012D011F91020002AFBD401300FF00FC80120AB
S315020012E000F0AEF84EF64C410120C4F20101002294
S315020012F00A70BDE8B04000F07CB87047D4D4D4D4AC
S3150200130000BE00BF00BF00BFFEE740F6242241F246
S315020013100023C2F20022C0F27A03484312689A42BC
S315020013200FD344F23F21C0F20F0111444DF68362FE
S31502001330C4F21B32A1FB0212910CA0FB0101C9B13E
S315020013401BE04CF60021C3F69A31B1FBF2F148F6E6
S315020013503812C0F24102904205D24FF47A725043DB
S31502001360B0FBF1F006E0B0FBF1F0904205D24FF48B
S315020013707A71484328B100F007B84FF0FF3000F009
S3150200138003B87047D4D4D4D401380028FCD17047AE
S31502001390F0B581B04CF2001540F6C017C4F2000554
S315020013A00024C2F200272868296A01EA000600BF63
S315020013B026FA04F0C00704D057F8241009B12046D3
S315020013C088470134152CF3D12E6100BF00BF00BF40
S315020013D0286A3042FCD101B0F0BD43F64C00C0F29F
S315020013E00020008820B14CF20031C4F200010860EE
S315020013F07047EFF31081012282F3108840F618221B
S31502001400C2F2002232F8103023B132F81030013B1A
S3150200141022F8103032F810207AB94EF2FA3243F638
S315020014204E0CC4F20102C0F2002C13883CF81000E4
S3150200143043F4254323EA0000108081F310887047A5
S3150200144010B5EFF31081012282F3108840F61822BC
S31502001450C2F2002232F8103083B94EF2FA3E43F657
S315020014604E0CC4F2010EC0F2002CBEF800403CF84D
S315020014701030234343F42543AEF8003032F81030DF
S31502001480013322F8103081F3108810BDD4D4D4D49D
S3150200149000F006F8FFF789FAFEE700BE7047D4D4DB
S315020014A070B54EF6005540F20120CEF20005C0F2AC
S315020014B00E004EF200066861CEF20106BFF34F8FB0
S315020014C0BFF36F8F2968C1F3035001285FEA1F92A9
S315020014D011F00F0F5FEA0F911142316811D1022804
S315020014E00FD241F0040030604EF20800BFF34F8F76
S315020014F0CEF20000BFF36F8F016841F480310160C4
S3150200150002E021F004003060BFF34F8FBFF36F8F0C
S315020015104FF4700040F20001C5F888000020C0F2C6
S315020015200021A9600024FFF7F9F9FFF751FD4EF2F9
S31502001530FA304EF6B022C4F20100C4F201024AF2B7
S315020015400251018014704FF4254101800120FFF7FA
S31502001550E5F940F20000C2F2002080F30A88306802
S31502001560800721D5A868B0F1007F1DD130694FF4FC
S315020015700071C0F3C300726901FA00F3C2F3C3003B
S3150200158081400020DA08CB080146064642F005C033
S31502001590E6E802010FF005C04FF0005243F005C025
S315020015A0E2E802010FF005C0002000F095F8FFF70F
S315020015B0B9FCFFF75DFE0320FFF742FF4FF00E0E68
S315020015C040F63050C4F2400020F8044B0FF005C03C
S315020015D04EF210140320C4F20104FFF70AFF03209F
S315020015E0FFF72EFF44F204000021C4F2200001603E
S315020015F041608160C1600320FFF7FBFED4F8C80298
S31502001600800714D42078A0B10120FFF719FF00BF8C
S3150200161094F9000010F1410FFADC0020207000BF9F
S3150200162020783F28FCD80120FFF7E3FE01E0D4F83A
S31502001630C802D4F8C802400715D42079A8B10120FF
S31502001640FFF7FEFE00BF00BF94F9040010F1410F40
S31502001650FADC0020207100BF20793F28FCD8012047
S31502001660FFF7C7FE01E0D4F8C8020220FFF756F9D9
S31502001670012000F031F840F67C44C2F200242046F4
S3150200168001F054FC204601F047FCBFF34F8FBFF335
S315020016906F8F0020C5F8500243F6AA0043F6AA014E
S315020016A0C0F20020C0F20021BFF34F8F081ABFF329
S315020016B06F8F8410012C08DB43F6AA05C0F20025C1
S315020016C055F8040B8047013CFAD1FFF786FE00204D
S315020016D0BDE87040FFF711BEF0B581B043F2786500
S315020016E00446C0F200252E6876B16868071D00BF61
S315020016F07879844204D157E90101091A01F0F7FB0E
S31502001700013E07F10C07F3D1AE6896B1E86800F125
S31502001710080500BF00BF00BF6879844205D155E9BC
S3150200172002022968121A01F0E6FB013E05F11005D4
S31502001730F2D101B0F0BD01464FF0FF3241F8082F59
S315020017400022C0E90311C0E90021704700210161AE
S315020017507047D4D4D4D4D4D480B5D1F800C01CF107
S31502001760010207D000F108029646526813686345E3
S31502001770FAD903E0D0F810E0DEF804204A6091605E
S31502001780C1F808E0CEF80410086101680131016071
S3150200179080BDD0E901230169936042685A604A68B4
S315020017A0824201D182684A600022026108680138D9
S315020017B00860704770B500284BD00446C06BC0B3B2
S315020017C00E46216CA0FB010199BBFFF73AFAD4E958
S315020017D00F010025226801FB00230138A56300FBE7
S315020017E00120C4E90123E060FF2084F8440084F864
S315020017F0450004F110004EB1FFF79DFF04F12400ED
S31502001800FFF799FFFFF74BFA012070BD0168002927
S31502001810F8D001F088F80028F4D04EF604504FF0C4
S315020018208051CEF200000160BFF34F8FBFF36F8F7E
S31502001830E8E743F2773043F2F84243F26D43C0F2EF
S315020018400020C0F20022C0F200234FF4B671FFF767
S3150200185057FD43F2773043F2F84243F25A43C0F25D
S315020018600020C0F20022C0F2002340F23711FFF737
S3150200187047FD10B582B043B3B8B11C4601B9A2B94F
S3150200188001B192B148230193019B482B2DD1002926
S3150200189054EA0282019BC4E90F010121204622601B
S315020018A0FFF788FF204602B010BD43F2773043F2BD
S315020018B0C22243F2E133C0F20020C0F20022C0F29B
S315020018C000234FF4D871FFF71BFD43F2773043F242
S315020018D0C22243F22C13C0F20020C0F20022C0F250
S315020018E000234FF4C271FFF70BFD43F2773043F248
S315020018F0C22243F29323C0F20020C0F20022C0F2B9
S3150200190000234FF4CB71FFF7FBFCB0B582B060B198
S315020019100D46814209D81446002100222346FFF7CC
S31502001920A8FFA563204602B0B0BD43F2773043F26A
S31502001930323243F23A13C0F20020C0F20022C0F261
S3150200194000234FF45E71FFF7DBFCD4D4D4D4D4D495
S315020019502DE9F04F83B00028029200F09D800446E4
S315020019601D461646894619B9206C002840F0C480E7
S31502001970022D03D1E06B012840F0AE8001F0BFF8E2
S3150200198010B9002E40F09880FFF75BF9022DA06B8C
S315020019905BD0E16B884258D301206F464FF0000BB3
S315020019A002AE00BF00BF00BF0299002968D0C0077F
S315020019B002D0384601F03FF8FFF771F900F049FC12
S315020019C0FFF73FF994F84400FF2808BF84F844B0B3
S315020019D094F84500FF2808BF84F845B0FFF75FF981
S315020019E03846314601F034F800284CD1FFF729F980
S315020019F0D4F838A0D4F83C80FFF751F9C24517D184
S31502001A00029904F1100000F031FF204600F0B4F80C
S31502001A1000F07AFC88B94EF604504FF08051CEF2AF
S31502001A2000000160BFF34F8FBFF36F8F05E000BF69
S31502001A30204600F0A1F800F067FCFFF702F9A06B60
S31502001A40E16B88424FF00000AED2204649462A4654
S31502001A5000F062F854F8240F70B1204600F063FFDC
S31502001A6050B14EF604504FF08051CEF200000160A4
S31502001A70BFF34F8FBFF36F8FFFF711F9012008E015
S31502001A80FFF70DF904E0204600F076F800F03CFC82
S31502001A90002003B0BDE8F08F43F2773043F2AC0288
S31502001AA043F25A43C0F20020C0F20022C0F20023E1
S31502001AB040F2B631FFF724FC43F2773043F2AC0230
S31502001AC043F2BE03C0F20020C0F20022C0F200239D
S31502001AD040F2BB31FFF714FC43F2773043F2AC021B
S31502001AE043F24213C0F20020C0F20022C0F20023E9
S31502001AF04FF46E71FFF704FC43F2773043F2AC0207
S31502001B0043F26253C0F20020C0F20022C0F2002368
S31502001B1040F2B731FFF7F4FB70B5866B036C0446EF
S31502001B202BB31546B2B1E0681A4601F0E4F9216812
S31502001B30E268206C121AE2608A4203D24042A1682D
S31502001B400844E060022D5FEA1F90002E5FEA0080E3
S31502001B50361A0CE060681A4601F0CDF9D4E90101A3
S31502001B60226C10446060884201D320686060701C59
S31502001B70A06370BDD4D4D4D4F0B581B00446FFF7C7
S31502001B8060F894F94560012E0EDB04F1240500BFCE
S31502001B90286848B1284600F0C6FE08B100F0A8FF42
S31502001BA070B2013E0128F3DCFF2684F84560FFF798
S31502001BB076F8FFF746F894F94470012F10DB04F12A
S31502001BC0100500BF00BF00BF286848B1284600F0D4
S31502001BD0AAFE08B100F08CFF78B2013F0128F3DCBF
S31502001BE084F8446001B0BDE8F040FFF758B8D4D499
S31502001BF02DE9F04F83B00028029200F0AA80044635
S31502001C001646894619B9206C002840F0C28000F0B9
S31502001C1076FF10B9002E40F0AC80FFF712F8D4F828
S31502001C2038A0BAF1000F29D0226C52B1D4E90201D0
S31502001C301144E160814201D32168E160484601F026
S31502001C405AF954F8100F0028AAF10100A0620ED02A
S31502001C50204600F068FE50B14EF604504FF0805117
S31502001C60CEF200000160BFF34F8FBFF36F8F0124E6
S31502001C70FFF715F8204603B0BDE8F08F04F12408FB
S31502001C8001206F464FF0000B02AE00BF00BF00BF3F
S31502001C900299002959D0C00702D0384600F0CBFE7F
S31502001CA0FEF7FDFF00F0D5FAFEF7CBFF94F84400ED
S31502001CB0FF2808BF84F844B094F84500FF2808BFFF
S31502001CC084F845B0FEF7EBFF3846314600F0C0FE19
S31502001CD070B12046FFF750FF00F016FBFEF7B1FF8A
S31502001CE0A56BFEF7DCFF95B326E000BF00BF00BF81
S31502001CF0FEF7A7FFA56BFEF7D2FF2DB12046FFF731
S31502001D003BFF00F001FB17E00299404600F0AEFDF2
S31502001D102046FFF731FF00F0F7FA68B94EF6045095
S31502001D204FF08051CEF200000160BFF34F8FBFF338
S31502001D306F8F00BF00BF00BFFEF783FFD4F838A045
S31502001D400020BAF1000FA3D06EE7002490E700242A
S31502001D5090E743F2773043F2563243F21113C0F260
S31502001D600020C0F20022C0F2002340F2E951FFF740
S31502001D70C7FA43F2773043F2563243F2BE03C0F259
S31502001D800020C0F20022C0F2002340F2F251FFF717
S31502001D90B7FA43F2773043F2563243F2EC33C0F2EB
S31502001DA00020C0F20022C0F2002340F2ED51FFF7FC
S31502001DB0A7FAD4D4D4D4D4D42DE9F04F83B00028D2
S31502001DC0029100F090800446006C002840F09B804F
S31502001DD00D4600F094FE10B9002D40F0A480FEF7E7
S31502001DE030FFA06BD0B154F8101F0138A06271B158
S31502001DF0204600F098FD50B14EF604504FF0805147
S31502001E00CEF200000160BFF34F8FBFF36F8F012444
S31502001E10FEF745FF204603B0BDE8F08F4EF60459A3
S31502001E2004F1240801216E464FF0000B02AFCEF2F8
S31502001E3000094FF0805A00BF029800284FD0C80709
S31502001E4002D0304600F0F7FDFEF729FF00F001FA56
S31502001E50FEF7F7FE94F84400FF2808BF84F844B062
S31502001E6094F84500FF2808BF84F845B0FEF717FF2F
S31502001E703046394600F0ECFD70B12046FFF77CFE95
S31502001E8000F042FAFEF7DDFEA56BFEF708FF45B34A
S31502001E901EE000BF00BF00BFFEF7D3FEA56BFEF734
S31502001EA0FEFE2DB12046FFF767FE00F02DFA0FE089
S31502001EB00299404600F0DAFC2046FFF75DFE00F08C
S31502001EC023FA28B9C9F800A0BFF34F8FBFF36F8F6B
S31502001ED0FEF7B7FEA06B00210028ADD083E70024F1
S31502001EE096E7002496E743F2773043F2AE2243F2B6
S31502001EF01113C0F20020C0F20022C0F2002340F209
S31502001F008261FFF7FDF943F2773043F2AE2243F2E4
S31502001F102553C0F20020C0F20022C0F2002340F294
S31502001F208661FFF7EDF943F2773043F2AE2243F2D0
S31502001F30BE03C0F20020C0F20022C0F2002340F22B
S31502001F408B61FFF7DDF9D4D4B0B5F8B1C9B140F66B
S31502001F50282E4FF0000CC2F2002E0022002300BFF2
S31502001F600EEB02046568A8420CD01BB92368002B4D
S31502001F7054EA0C830832502AF2D1002B18BFC3E967
S31502001F800010B0BD2346C3E90010B0BD43F277305E
S31502001F9042F6667243F2A743C0F20020C0F2002264
S31502001FA0C0F2002340F6C931FFF7AAF970B515460B
S31502001FB00E460446FEF745FE94F84400FF2802D179
S31502001FC0002084F8440094F84500FF2802D100203E
S31502001FD084F84500FEF763FEA06B28B904F12400DD
S31502001FE031462A4600F063FC2046BDE87040FFF702
S31502001FF0C3BDD4D4D4D4D4D42DE9F04782B0DDF80D
S315020020002CA0BAF1000F00F0E4800C9C002C00F02A
S31502002010F0808146602001900198602840F0F980A6
S315020020200E46019860212046984615460A9F00F002
S315020020305EFFC4F830A07EB104F134000F2100BF68
S3150200204016F8012B00F8012B1AB10029A1F10101A2
S31502002050F6D1002084F84300052F80F0EA800AEBCF
S315020020608500251D0438E76220F007062846FFF79B
S315020020706DFB04F11800FFF769FBC7F10500A061CB
S31502002080216B30464A46434624616462FEF77AFD76
S315020020902060FEF7D6FD40F69C2040F6782AC2F272
S315020020A00020C2F2002A40F680290168C2F2002905
S315020020B001310160DAF8001061B1D9F80000002898
S315020020C044D1DAF80000E16AC06A884298BFCAF8C9
S315020020D000403BE0CAF800400068012836D140F6CD
S315020020E0A8260527C2F200263046FFF724FB013F49
S315020020F006F11406F8D140F65438C2F200284046DA
S31502002100FFF719FB40F66836C2F200263046FFF7A3
S3150200211012FB40F62830C2F20020FFF70CFB40F615
S315020021208420C2F20020FFF706FB40F61030C2F20E
S315020021300020FFF700FB40F6483040F64C31C2F271
S315020021400020C2F20021C0F800800E6040F67C201A
S31502002150C2F2002001680131016040F60C31E06AEA
S31502002160C2F200210A68904288BF086000EB800034
S3150200217040F6A821C2F2002101EB80004068A0606F
S315020021808268E26055608560E06A00EB800001EBE0
S315020021908002626151F82020013241F82020FEF7C8
S315020021A07EFDD9F8000080B1DAF80000E16AC06A63
S315020021B088420AD24EF604504FF08051CEF2000009
S315020021C00160BFF34F8FBFF36F8F204602B0BDE8A9
S315020021D0F08743F2B63043F2A23243F23C03C0F236
S315020021E00020C0F20022C0F2002340F2F141FFF7C4
S315020021F087F843F2B63043F2A23243F20723C0F223
S315020022000020C0F20022C0F2002340F2F241FFF7A2
S3150200221077F843F2B63043F2A23243F2B853C0F231
S315020022200020C0F20022C0F2002340F2FA41FFF77A
S3150200223067F843F2B63043F2222243F29913C0F210
S315020022400020C0F20022C0F2002340F26471FFF7C0
S3150200225057F840F6A020C2F2002001680131016061
S3150200226070472DE9F04381B040F6A42240F6483388
S31502002270C2F2002240F67824C2F20023C2F20024FF
S31502002280156840F64C32C2F20022D3F800800646A8
S315020022900F46D2F800902268101DFFF77AFA701CDA
S315020022A016D1AFB140F61030C2F20020D0E90012CA
S315020022B0236801319A6093682768FB6027680437B0
S315020022C05F6023680433936022680160506117E0FF
S315020022D02068AD194560206800F1040105D348461F
S315020022E001B0BDE8F043FFF737BA4046FFF734FACC
S315020022F040F63C30C2F2002001688D4238BF0560CC
S3150200230001B0BDE8F083D4D42DE9F047FEF799FC7D
S3150200231040F6A020C2F200200168002900F0B28037
S31502002320016801390160006828B10024FEF7B7FC94
S315020023302046BDE8F08740F69C20C2F200200068E5
S315020023400028F2D040F6283040F6243AC2F20020A5
S3150200235040F67829C2F2002AC2F200290168002951
S3150200236067D040F60C3E40F6A8230021C2F2002EAA
S31502002370C2F200234FF0010CC768FC6804F1180290
S31502002380D4E90775A66ABD60E7696F60756895420C
S3150200239001D1226A7260A1623268013A3260261D58
S315020023A0D4E9022567699560A2686A607A68B242D2
S315020023B001D1E2687A6061613A68013A3A60E76A95
S315020023C0DEF80020974207EB870288BFCEF800703E
S315020023D003EB82025268A2609568E5606E609660C1
S315020023E0E26A02EB820203EB8205656153F8225030
S315020023F0013543F82250E26AD9F80040E46AA24263
S3150200240088BFCAF800C002680AB12FF04BC840F66E
S315020024104830C2F200200168096819B10068C06834
S31502002420006801E04FF0FF3040F63C31C2F2002175
S31502002430086040F64438C2F20028D8F800606EB14F
S31502002440012400BF00BF00BF00F02EF908B1CAF890
S315020024500040013EF8D10020C8F80000DAF800007A
S3150200246000283FF462AFD9F800004EF60450CEF2CF
S3150200247000004FF0805101240160BFF34F8FBFF37C
S315020024806F8F53E743F2B63043F2BF1243F2C243B1
S31502002490C0F20020C0F20022C0F2002340F68B7187
S315020024A0FEF72EFF80B580B140F6A021C2F20021D0
S315020024B00A6801320A600968012912D10021FFF770
S315020024C0D0FEFFF721FF00B180BD4EF604504FF05B
S315020024D08051CEF200000160BFF34F8FBFF36F8FC2
S315020024E080BD43F2B63043F2624243F2EE23C0F2BB
S315020024F00020C0F20022C0F2002340F68E11FEF741
S31502002500FFFED4D4D4D4D4D480B540F6A020C2F2EF
S315020025100020006830B140F624300121C2F20020CA
S31502002520016080BD40F6243040F60C3CC2F2002029
S31502002530C2F2002C002140F6A8230160C2F2002359
S31502002540DCF8001001EB810253F8220003EB820251
S3150200255048B900BF00BF00BFC1B152F8140D01391E
S3150200256008B92FF007C8506802F1080E4368536095
S31502002570734501D1D368536040F67822D868C2F217
S3150200258000221060CCF80010106880BD43F2B6300D
S3150200259043F2290243F25453C0F20020C0F2002251
S315020025A0C0F2002341F2FA31FEF7AAFEB0B58AB0B4
S315020025B044F2494004A9C4F24C50069005A803AA65
S315020025C000248DF81C40CDE90444FEF713FADDE938
S315020025D00320019042F6293006A9C0F2002000230A
S315020025E0059D00940295FFF707FD40F64030C2F2C2
S315020025F00020056000F0B1FA012811D0013025D182
S3150200260043F2B63043F2AE4243F21533C0F2002033
S31502002610C0F20022C0F2002340F6A961FEF770FE66
S3150200262040F63C310120C2F2002180F310884FF0BF
S31502002630FF320A6040F6802140F6A422C2F200214F
S31502002640C2F2002208601460FEF7BAFA43F6580096
S31502002650C0F2002000680AB0B0BDD4D4D4D4D4D419
S3150200266070B540F69824C2F200242068D8B140F62C
S31502002670842540F69C26C2F20025C2F2002600BF3F
S31502002680FEF7DFFAE868C0680430FFF782F83068C0
S3150200269001383060206801382060FEF700FB2068B0
S315020026A008B12FF013C870BD2DE9F04F81B040F686
S315020026B0A020C2F20020006840B140F64430C2F2C7
S315020026C000200168013101600020B6E040F6A42036
S315020026D040F63C3CC2F20020C2F2002C016811F125
S315020026E0010BC0F800B022D340F64830C2F20020F7
S315020026F001680968002940F0A38040F64C3301685E
S31502002700C2F200231F680760196040F65031C2F218
S3150200271000210B6801330B600168096819B1006872
S31502002720C068006801E04FF0FF30CCF80000DCF82A
S315020027300000834501D2002077E040F6483A4FF088
S315020027400009C2F2002ADAF800000068002867D001
S3150200275040F60C3E40F6A82440F67828C2F2002E37
S31502002760C2F20024C2F20028002000BF00BF00BF50
S31502002770DAF80050ED68EE68374657F8045FAB4565
S3150200278051D3D6E9021375698B60B16859606968DD
S31502002790B94201D1F1686960C6F814902968013915
S315020027A02960B56A85B1D6E9071306F118028B606E
S315020027B0F16959606968914201D1316A6960C6F866
S315020027C02890296801392960F56ADEF800108D42E1
S315020027D005EB850188BFCEF8005004EB81014968FC
S315020027E0B1608A68F26057608F60F16A01EB81011D
S315020027F004EB8102726154F82120013244F821204F
S31502002800F16AD8F80020D26ADAF80030914288BF1D
S315020028100120196809B12FF055C84FF0FF3502E0C3
S315020028204FF0FF350020CCF8005040F62431C2F2BA
S3150200283000210968002918BF012001B0BDE8F08F08
S3150200284043F2B63043F2643242F6B373C0F200206A
S31502002850C0F20022C0F2002341F25F21FEF750FDD2
S3150200286040F6A420C2F200200068704710B570B18D
S315020028700C4640F67821C2F2002109681831FEF7AB
S315020028806BFF01212046BDE81040FFF7EABC43F288
S31502002890B63043F2914243F20933C0F20020C0F24D
S315020028A00022C0F200234FF4A451FEF729FD10B511
S315020028B048B340F6782CD0F804E0C2F2002C002A85
S315020028C0DCF80030C3F81CE0DEF80830DCF8004023
S315020028D02362DCF8004004F118045C60DCF8003086
S315020028E003F11803CEF80830DCF80030986218BFFE
S315020028F04FF0FF3103680133036008461146BDE815
S315020029001040FFF7AEBC43F2B63043F2CE1243F2AA
S315020029100933C0F20020C0F20022C0F2002341F2C5
S31502002920BE41FEF7EDFC80B5C068C068002872D0D3
S31502002930D0E9073100F1180C826A9960C3694B60CD
S315020029405168614501D1016A5160002181621168B5
S315020029500139116040F6A021C2F20021096891B145
S3150200296040F6283EC2F2002EDEE90023C3619968D2
S315020029700162C1F804C0C3F808C0C0F828E0511CBF
S31502002980CEF8001035E0D0E9023100F1040C4269BC
S31502002990996083684B605168614501D1C168516095
S315020029A00021416140F60C331168C2F2002301395D
S315020029B01160C26A19688A4288BF1A6002EB8201F4
S315020029C040F6A822C2F2002202EB81014968816028
S315020029D08B68C360C3F804C0C1F808C0C16A01EBC2
S315020029E0810102EB8103436152F82130013342F83F
S315020029F0213040F67821C06AC2F200210968C96A0C
S31502002A00884206D940F624310120C2F2002108602C
S31502002A1080BD002080BD43F2B63043F2EE1243F28F
S31502002A201D13C0F20020C0F20022C0F2002341F2C0
S31502002A30F541FEF765FC40F65031C2F20021096805
S31502002A40016040F6A421C2F2002109684160704784
S31502002A5070B568B30D46D9B30446FEF7F2F840F6F0
S31502002A60A42EC2F2002EDEF8003029684A1C16D0C7
S31502002A7040F6503CD4E90002C2F2002CDCF80060B9
S31502002A80864201D093420CD29A1A914209D9881AE7
S31502002A902860DCF800002060DEF800006060002498
S31502002AA002E0012400202860FEF7F9F8204670BDF6
S31502002AB043F2B63043F2454243F28F13C0F200208E
S31502002AC0C0F20022C0F2002341F2A551FEF718FC23
S31502002AD043F2B63043F2454243F23723C0F20020B6
S31502002AE0C0F20022C0F2002341F2A651FEF708FC12
S31502002AF040F624300121C2F200200160704740F600
S31502002B008020C2F20020006850B140F6A020C2F236
S31502002B100020006800284FF0000008BF022070471E
S31502002B2001207047D4D4D4D440F6A8244EF60455D6
S31502002B30C2F20024CEF200054FF0805600BF00BF5D
S31502002B40FFF78EFD2068022804D32E60BFF34F8F55
S31502002B50BFF36F8FFEF7FDF8F2E780B586B000F09F
S31502002B603AF840F67C30C2F20020006818B3002022
S31502002B70CDE9040005A804A903AAFDF749FF0DF152
S31502002B800C0E0320009042F6514043F20B51C0F264
S31502002B9000209EE80450C0F200210023CDE901CEB8
S31502002BA0FFF72AFA40F68031C2F20021086010B11E
S31502002BB0012006B080BD43F2590043F23E5243F271
S31502002BC04523C0F20020C0F20022C0F200234FF4D7
S31502002BD0A371FEF795FB70B582B0FEF732F840F6A8
S31502002BE07C36C2F20026306868BB40F69034C2F2E8
S31502002BF000242046FEF79FFD40F6A435C2F20025CA
S31502002C002846FEF798FD40F6843040F68831C2F237
S31502002C100020C2F2002140F6004240F6B8330460BA
S31502002C200D60C2F20022C2F200230A200C21002506
S31502002C300095FEF71EFE306028B143F2A701C0F2EE
S31502002C400021FFF781F902B0BDE87040FEF727B810
S31502002C5084B040F6843840F67C35C2F2002801ACD6
S31502002C60C2F200254FF0000BEA4600BF00BF00BFCC
S31502002C70D8F80000D0F80090B9F1000F04D0C0686F
S31502002C80066802E000BF00BF0026FFF7E2FA204610
S31502002C9000F0A6F8019919B1FFF736FB30E000BF44
S31502002CA00746B9F1000F08D0BE4206D8FFF72CFB43
S31502002CB03046394600F0C1F822E0B9F1000F01D0E2
S31502002CC0002208E040F68830C2F200200068006860
S31502002CD000285FEA1F922868F11BFFF767F9FFF7E2
S31502002CE013FB68B94EF604504FF08051CEF2000045
S31502002CF00160BFF34F8FBFF36F8F00BF00BF00BFEE
S31502002D00CDF80CB0CDE901BB286800222146FEF7BA
S31502002D106FFF08B92FF055C001980028F4D4039E1E
S31502002D20706910B1301DFEF734FD504600F058F8B8
S31502002D30019901390829E7D80746DFE801F00505B8
S31502002D401E251E05051E250096F82400029BB16964
S31502002D503A4640F0010086F824001944304600F055
S31502002D60A6F808B92FF031C096F8240041071BD403
S31502002D7000F0FA0086F824001DE096F8240000F020
S31502002D80FE0086F82400BFE796F824100298B06188
S31502002D9041F0010186F8241088B1C11930463A463D
S31502002DA03B4600F084F8AFE70298B1690144304629
S31502002DB03A4600F065F8316A30468847A4E743F29E
S31502002DC0590043F2DD4243F2D153C0F20020C0F271
S31502002DD00022C0F200234FF48261FEF791FAD4D4A6
S31502002DE0F0B581B00446FFF73BFD40F68C3605464A
S31502002DF0C2F200263168884210D240F68437C2F207
S31502002E00002700BF00BF00BF3868016841B1C06833
S31502002E104FF0FF31006800F010F8F5E7002007E0F8
S31502002E2040F68831C2F200210A68086001203A6041
S31502002E3020603560284601B0F0BD70B540F6843298
S31502002E400646C2F200220D461268D268D468201DD8
S31502002E50FEF79FFC94F82400410704D400F0FA0020
S31502002E6084F8240004E0204631462A4600F008F899
S31502002E70216A2046BDE870400847D4D4D4D4D4D4BD
S31502002E8070B50446806915460E460144204600BFC9
S31502002E90334600F00CF848B1A069216A0644204680
S31502002EA08847A0692A4681192046F1E770BD8C46FB
S31502002EB001469445006141F804CF08D940F68430B2
S31502002EC09A42C2F200200AD29C4508D30DE08069DC
S31502002ED0D21A824209D240F68830C2F2002080B568
S31502002EE00068FEF739FC002080BD012070470A46C3
S31502002EF0002100F009B810B5002322B1CC5C013ADA
S31502002F00C4540133F9E710BD03461AB103F8011B95
S31502002F10013AFAE77047D4D40249401A02490860D6
S31502002F20704700BF08000000780C002210B5054962
S31502002F300446054AFFF7DFFF044805492044FFF728
S31502002F40D6FF10BD40000002000000000000000095
S31502002F50000000007578437269746963616C4E659E
S31502002F607374696E6700765175657565416464545C
S31502002F706F5265676973747279002E2E2F72612FF4
S31502002F806673702F7372632F726D5F6672656572F8
S31502002F90746F735F706F72742F706F72742E63002A
S31502002FA076506F7274456E746572437269746963A2
S31502002FB0616C002820282028202820707844656C1F
S31502002FC0617965645461736B4C69737420292D3E73
S31502002FD075784E756D6265724F664974656D7320BC
S31502002FE03D3D2028205542617365547970655F74B2
S31502002FF0202920302029203F2028202820426173C2
S3150200300065547970655F74202920312029203A2081
S315020030102820282042617365547970655F742029DF
S31502003020203020292029202900765461736B53779A
S3150200303069746368436F6E7465787400707578534B
S315020030407461636B42756666657220213D2028288D
S31502003050766F69642A293029002E2E2F72612F611C
S3150200306077732F4672656552544F532F46726565C4
S3150200307052544F532F536F757263652F74696D6582
S3150200308072732E6300303132333435363738394174
S3150200309042434445460075635356434E756D626519
S315020030A072203C3D203300546D7251007851756593
S315020030B0756547656E6572696353656E640021289E
S315020030C0202820785461736B47657453636865647E
S315020030D0756C657253746174652829203D3D2028FC
S315020030E020282042617365547970655F7420292017
S315020030F03020292029202626202820785469636B2F
S3150200310073546F5761697420213D2030202920298C
S3150200311000282070785175657565202900707855EC
S315020031206E626C6F636B65645443420070785374CD
S31502003130617469635175657565007848616E646C82
S315020031406500212820282078436F7079506F7369B3
S3150200315074696F6E203D3D202820282042617365E8
S31502003160547970655F74202920322029202920266F
S3150200317026202820707851756575652D3E75784C28
S31502003180656E67746820213D203120292029007050
S315020031907854696D654F75740075785072696F72EF
S315020031A0697479203C202835290052413850312053
S315020031B07265736F75726365732075700D0A007898
S315020031C05461736B526573756D65416C6C00765410
S315020031D061736B506C6163654F6E4576656E744CB8
S315020031E069737452657374726963746564007854A2
S315020031F061736B52656D6F766546726F6D45766566
S315020032006E744C6973740070785461736B427566A0
S3150200321066657220213D202828766F69642A293046
S315020032202900707276496E697469616C6973654EBC
S3150200323065775461736B0070785469636B73546F6E
S3150200324057616974007852657475726E0028282871
S315020032505343425F54797065202A29202828307802
S315020032604530303045303030554C29202B203078CF
S3150200327030443030554C2920292D3E4943535220A3
S315020032802620283078314646554C202929203D3DB6
S315020032902030007853697A65203D3D2073697A654E
S315020032A06F66282051756575655F7420290078510F
S315020032B07565756553656D6170686F726554616B8E
S315020032C0650078517565756547656E657269634314
S315020032D072656174655374617469630076506F72C6
S315020032E07453564348616E646C65725F4300757829
S315020032F05363686564756C657253757370656E6445
S315020033006564203D3D2031550070784576656E74C2
S315020033104C697374007852657475726E20213D2073
S3150200332028202D312029004E657720546872656168
S315020033306400785175657565437265617465436F9E
S31502003340756E74696E6753656D6170686F726553E9
S315020033507461746963007851756575655265636554
S3150200336069766500785461736B496E6372656D6543
S315020033706E745469636B002E2E2F72612F61777300
S315020033802F4672656552544F532F467265655254E5
S315020033904F532F536F757263652F71756575652E61
S315020033A06300707276437265617465537461746901
S315020033B0635461736B002E2E2F72612F6177732F08
S315020033C04672656552544F532F4672656552544F85
S315020033D0532F536F757263652F7461736B732E630C
S315020033E00070784E6577517565756500212820282D
S315020033F020282070764275666665722029203D3D3A
S31502003400202828766F69642A293029202920262631
S3150200341020282028207078517565756520292D3E53
S3150200342075784974656D53697A6520213D20282097
S315020034305542617365547970655F74202920305551
S315020034402029202900785461736B436865636B46B3
S315020034506F7254696D654F75740070785175657534
S315020034606500765461736B44656C617900785265C8
S315020034707475726E20213D20282028202820426162
S315020034807365547970655F742029203020292029BC
S3150200349000765461736B506C6163654F6E45766559
S315020034A06E744C697374007851756575650076544F
S315020034B061736B53746172745363686564756C658A
S315020034C0720075785363686564756C6572537573BB
S315020034D070656E64656420213D20305500707276F9
S315020034E050726F636573735265636569766564438B
S315020034F06F6D6D616E6473007851756575654765AC
S315020035006E65726963526573657400546D722053F9
S3150200351076630076506F7274457869744372697483
S315020035206963616C00707851756575652D3E7578B5
S315020035304974656D53697A65203D3D2030007854A3
S31502003540696D657243726561746554696D6572541D
S3150200355061736B007578546F705072696F7269741B
S315020035607900212820282070764974656D546F51A0
S3150200357075657565203D3D202828766F69642A2980
S315020035803029202920262620282070785175657535
S31502003590652D3E75784974656D53697A6520213DBE
S315020035A02028205542617365547970655F7420291D
S315020035B020305520292029007853697A65203D3D1F
S315020035C02073697A656F6628205443425F74202906
S315020035D0002820707854696D65722D3E7854696DA5
S315020035E06572506572696F64496E5469636B7320C4
S315020035F03E2030202900080009000C000A040303BB
S315020036000006070A0904D4D4524120743D303030F2
S3150200361030206164633D303030302F30303030201E
S31502003620696E3D30300D0A00000000000000010006
S31502003630080200000000010009020000000001006B
S315020036400A020000000001000B0200000400000054
S315020036502C36000200000000020403040404D4D441
S315020036600000006800000068000000800000008082
S31502003670000000220000002209000000903600022D
S3150200368015000000FC36000203000000603600024E
S3150200369000000068000000680001000D00000068DC
S315020036A0000000680001000D00000080000000809C
S315020036B000010008000000800000008000010008F0
S315020036C000000000000000000100000500000020CC
S315020036D00000002001000004000000220000002279
S315020036E0000000032C0400227C0C002200000003D0
S315020036F07C0C00227C0C0022000000030000006803
S3150200370000000068000000900001090D000000683A
S31502003710000000680000000800010E0D00000068AD
S3150200372000000068000000270001020D000000688A
S3150200373000000068400000020001010D0000008048
S3150200374000000080000000900001090800000080CF
S31502003750000000800000000800010E080000008042
S31502003760000000800000002700010208000000801F
S315020037700000008040000002000101080000000075
S315020037800000000000000090010109050000000091
S31502003790000000000000000801000E050000000005
S315020037A000000000000000270100020500000000E2
S315020037B00000000040000002010001050000002098
S315020037C00000002000000090010109040000002012
S315020037D0000000200000000801000E040000002086
S315020037E00000002000000027010002040000002063
S315020037F00000002040000002010001040000002237
S3150200380000000022000000900001090300000022CF
S31502003810000000220000000800000E030000002243
S315020038200000002200000027000002030000002220
S315020038300000002240000002000001037C0C00226E
S315020038407C0C00224000000200000103000001007F
S315020038500200080010002000040000000000060616
S31502003860362E362E30004275696C7420776974687C
S315020038702052656E6573617320416476616E63657D
S315020038806420466C657869626C6520536F6674774E
S31502003890617265205061636B61676520766572733C
S30F020038A0696F6E20362E362E3000B8
S30902C9F040FFFFFFFFFF
S30902C9F044EFFFFFFF0B
S30902C9F0C0FFFFFFFD81
S30902C9F0C4FFFFFFFF7B
S30902C9F120000000001A
S30902C9F1240000000016
S7050200149153
