S0100000504F435F524138502E73726563B8
S3150200000020040022F92D0002F92C0002032E000220
S31502000010032E0002032E0002032E0002032E00020C
S315020000200000000000000000000000001124000291
S31502000030032E00020000000029240002912400027F
S3060200004002B5
S3150200004810B548F2000440F64053C4F23304C0F235
S31502000058030301210122206840F001002060201DCF
S3150200006802F0CAF84FF00210A0604FF02010C4F850
S3150200007840024FF48070C4F800064FF4E060C4F8FA
S31502000088100610BD80B548F620400121C4F233009F
S31502000098016001204FF47A7102F0E7FD4AF200008E
S315020000A840F2D052C4F23300C2F200220168118033
S315020000B840F2D2514068C2F20021088080BD10B5D4
S315020000C801F0A5FE00F099F945F210004FF4E1316E
S315020000D8C0F2002000220468204601F0B4FF45F26F
S315020000E814004FF4E131C0F200200022006801F04A
S315020000F8AAFF45F218004FF49641C0F200200222E8
S31502000108006801F0A0FF44F63E312046C0F2002105
S3150200011801F0D6FF02F023F800F058FA0024C4F2E0
S315020001283804204600F00CF904F5005000F008F9EE
S3150200013840F2D85042F20014C2F200204DF28F016A
S31502000148C4F232044EF64702C0F203010160C0F25D
S31502000158010201210123204601F015FF04F5306052
S315020001680C214FF22342002301F00DFF04F5106023
S315020001780A2147F61122002301F005FFFFF760FF67
S3150200018800F064F902F018F800F081F901F070FC49
S3150200019802F062F844F6CB310220C0F20021BDE833
S315020001A8104001F03DBD70B584B040F2CC5440F227
S315020001B8DC50C2F20024C2F200202568D0F8F00012
S315020001C8002805F101008DF80F5020600AD100F0D1
S315020001D80F0000F071F920884FF47F6101EA0010E0
S315020001E800F048F90024C4F2380400F0CDF940F2D0
S315020001F8D451C2F200210870FFF744FFEDB2284637
S3150200020801F0BDFF5020294600F001FA0DF10F0258
S3150200021840F223110123204600250095012600F00D
S31502000228B7F860B140F2DC500DF10F03C2F20020BC
S31502000238002140F22312CDE9006501F05CFB04F5CA
S3150200024800500DF10F0240F22131012300950124DD
S3150200025800F09EF868B140F2DC500DF10F03C2F2CD
S315020002680020012140F221320026CDE9004601F0A4
S3150200027842FB01F04EFF40F2DC50C2F2002001F0D0
S31502000288DBFA01F045FD04B070BDD4D4D4D4D4D47D
S31502000298FFF715FF48F21F580024C5F2EB18192676
S315020002A8002700BF00BF00BFA7FB0801C80800FB64
S315020002B8064501F0C8FF01F017FC0DB9FFF773FFF9
S315020002C81420013703F09EFD013CEDE770B50446A4
S315020002D840F640558069C0F2030504F11C0620F079
S315020002E80400A0610421002230462B4601F084FF57
S315020002F820B3A069012161F30100A0610122304601
S315020003082B4601F079FFC8B1606804F1080620F0AF
S31502000318040060600421002230462B4601F06CFF7F
S3150200032860B1606801230121012263F30100606064
S3150200033830462B46BDE8704001F05EBF002070BD16
S31502000348B0B50546FFF7C2FFF8B140F6050040F61C
S315020003580521C0F21460C0F203212860C5F8001115
S31502000368A86940F6405320F00300A861D5F804C0F6
S3150200037805F11C00C0F20303012100222CF003043C
S315020003886C60BDE8B04001F037BFB0BDD4D4D4D458
S315020003984FF0000CBCEBD12F2DD162B380B5A3F17F
S315020003A8090E1EF1080F24D390F870C05FEACC7CC0
S315020003B81DD1DDF808C08904C0F804161907C0F86B
S315020003C80816BCF1000F18BF4FF0040CC0F80CC693
S315020003D800F5C26143F001E012F8013B01F8013B66
S315020003E80FF007C04FF0010C80F870C001E04FF023
S315020003F8000CBDE880406046704780B5012002F0D7
S31502000408CFFC43F2040043F2FF52C4F22000CDF6B9
S315020004187B6201681140016041684FF6FF7221F064
S31502000428406141608168CBF6D77221F44011816040
S31502000438C1681140C1600068012002F08AFC0120EF
S315020004484FF47A71BDE8804002F00FBC43F2040013
S31502000458C4F22300416841F480314160002120F84A
S31502000468041C016821F000410160016841F00101A4
S315020004780160704740F2D65143F20002C2F20021EF
S31502000488C4F223026FF31F3008801080704744F2CB
S31502000498000040F64053C4F23500C0F203030121BE
S315020004A80022D0F800C04CF0010CC0F800C001F0E0
S315020004B8A3BED4D4D4D4D4D440F2D55240F60C7CBC
S315020004C8C2F20022C2F2002C00F00F011170EFF303
S315020004D81080012282F31088DCF800203AB940F62F
S315020004E814520023C4F240021370402313702DE9FC
S315020004F8F041DCF800204FF0040E0132CCF800205F
S3150200050880F3108844F6E87340F6000443F6FA7559
S315020005180022C0F200236FF03F08C4F24004CFF66F
S31502000528FE7500BF00BF00BF33F8026BF7B208EAD8
S31502000538960606EB870621FA02F707F0010701324B
S31502000548305928403844043030510FF013C801217D
S31502000558EFF3108081F31088DCF8001021B1DCF883
S3150200056800100139CCF80010DCF8001039B940F651
S3150200057814510022C4F240010A7080220A7080F3E4
S315020005881088BDE8F081D4D470B54FF0040E44F655
S31502000598E07140F600030020C0F200216FF03F0C24
S315020005A8C4F240030122002431F8025BEEB20CEADF
S315020005B8950505EB860502FA00F60130ED58AD07FA
S315020005C848BF34430FF011C0E0B270BD4EF20000CE
S315020005D8C4F22500017801F07F010170017841F02B
S315020005E840010170017841F080010170817801F0C3
S315020005F88F01303181702621417401740121017104
S3150200060830214171017801F0BF01017070472DE96F
S31502000618F0414EF201040746C4F2250448F2A068E6
S31502000628C0F2010804F10805207A0E46802101224B
S3150200063800F0EF002072622020702846434601F03F
S31502000648EFFDA0B178006074402101222846434696
S3150200065801F0E6FD68B1207AC0060AD440210122DB
S31502000668284643466674012601F0DAFD02E00026B2
S3150200067804E00026207840F0080020703046BDE8E5
S31502000688F081D4D4D4D4D4D42DE9F04182B0002850
S315020006984FF0FF3400F0C9810E46002900F0C581EB
S315020006A81546002A00F1C18101680746A9B1002D45
S315020006B800F0BB8130460124082200F8012B00BF56
S315020006C8A5420CD001F07F02C90918BF803204F195
S315020006D8010400F8012BF3D103E0002401E04FF0F6
S315020006E8FF347868A8B1AC4280F09D81102131555B
S315020006F80134311900BF00BFA54200F0948100F011
S315020007087F02C00918BF803204F1010401F8012BE7
S31502000718F2D1002C00F18981B86840F24C480028D1
S31502000728C2F2002800F0CD80F968A9B14046082235
S3150200073800F8012B002200BF01F07F03C90918BF88
S31502000748803302F1010200F8013BF5D13969501CE8
S31502000758C1B1BE2A03D919E03969D1B100201022E4
S3150200076808F80020013008EB000200BF00BF00BFF6
S3150200077801F07F03C90918BF803300F1010002F8AE
S31502000788013BF5D17969C9B1BF2807D94FF0FF30C6
S3150200079814E07969002900F06E810020182208F811
S315020007A80020013008EB000201F07F03C90918BFD7
S315020007B8803300F1010002F8013BF5D1B96989B12C
S315020007C8BF2824D8202208F80020013008EB0002AE
S315020007D801F07F03C90918BF803300F1010002F84E
S315020007E8013BF5D1F969A1B1BF2810D8282208F82A
S315020007F80020013008EB000201F07F03C90918BF87
S31502000808803300F1010002F8013BF5D101E04FF017
S31502000818FF30396AB9B1BF2813D8302208F8002048
S31502000828013008EB000200BFC0280AD001F07F039E
S31502000838C90918BF803300F1010002F8013BF3D160
S3150200084801E04FF0FF30796AC9B1BF2815D83822BE
S3150200085808F80020013008EB000200BF00BF00BF05
S31502000868C0280AD001F07F03C90918BF803300F1F6
S31502000878010002F8013BF3D101E04FF0FF30B96AFB
S3150200088879B1BF2805D8BF284FF0400108F80010F3
S3150200089802D14FF0FF3004E008EB000102300122DA
S315020008A84A7007F12C02092101F050F9032300903E
S315020008B830462946224600F0FBF80446002800F195
S315020008C8B280F86BE8B1414608203A6C01F8010B90
S315020008D8012000BF00BF00BF02F07F03D20918BF84
S315020008E8803300F1010001F8013BF5D104230090A1
S315020008F830462946224600F0DBF80446002800F175
S315020009089280786CE0B141460820BA6C01F8010B76
S31502000918012000BF00BF00BF02F07F03D20918BF43
S31502000928803300F1010001F8013BF5D1052300905F
S3150200093830462946224600F0BBF80446002872D4FF
S31502000948F86C80B3404608213A6D00F8021B002174
S3150200095802F07F03D20918BF803300F8013C00F188
S31502000968010001F10101F3D1BE2910D87A6D0231D5
S31502000978102300F8013C00BF02F07F03D20918BF1A
S31502000988803301F1010100F8013BF5D101E04FF096
S31502000998FF310623009130462946224600F088F8A0
S315020009A8044600283FD4B86D68B10021384600F0E5
S315020009B8AFF80723009030462946224600F078F819
S315020009C8044600282FD4786F68B10121384600F012
S315020009D89FF80823009030462946224600F068F818
S315020009E8044600281FD4D7F89400F0B1D7F8981017
S315020009F8F9B14046082200F8012B002200BF00BFC9
S31502000A0801F07F03C90918BF803302F1010200F819
S31502000A18013BF5D1D7F89C10501CF9B1BE2A0CD966
S31502000A284FF0FF301AE04FF0FF34204602B0BDE81F
S31502000A38F081D7F89C10002081B1102208F8002016
S31502000A48013008EB000200BF01F07F03C90918BF95
S31502000A58803300F1010002F8013BF5D107F1A0024B
S31502000A68032101F073F809230090304629462246ED
S31502000A7800F01EF8DAE7B96909B10020A2E6F969B9
S31502000A8809B10020B2E6396A09B10020C5E6796AD9
S31502000A9809B10020DBE6B86A28B1402088F80000D0
S31502000AA800204146FAE60020FBE6D4D4D4D4D4D4B6
S31502000AB8B0B5049D4FF0FF34002D1CD48A421AD2D9
S31502000AC8DB00541C023383542A4600BF00BF00BF12
S31502000AD8A1420ED002F07F03D20918BF8033035514
S31502000AE804F10104F4D1002C03D425B1491B8C422C
S31502000AF803DD4FF0FF342046B0BD40F24C4120449E
S31502000B08C2F200212A4603F0A6FE2C44F3E7D4D407
S31502000B182DE9F0478A4600294FF07801044608BFB6
S31502000B285C2140584FF080024FF07C0140F24C495C
S31502000B3804BF642260214FF088034FF08C06C2F28C
S31502000B480029224404BF6C23702667584946E35C91
S31502000B5854F80680082601F8026B002600BF00BF7B
S31502000B6800F07F05C00918BF803501F8015C01F164
S31502000B78010106F10106F3D1BE2E10D8102001F8A4
S31502000B88010CB01C00BF00BF07F07F06FF0918BFA3
S31502000B98803600F1010001F8016BF5D101E04FF052
S31502000BA8FF30032100F0E8FFBF2805D8BF284FF021
S31502000BB8200109F8001002D14FF0FF3007E009EBD7
S31502000BC80001B8F1000F5FEA0F9202304A70BAF1DB
S31502000BD8000F08BFBDE8F087BF2807D8D4F89010E1
S31502000BE8BF284FF0280209F8002003D14FF0FF3042
S31502000BF8BDE8F08709EB000200295FEA0F9102308F
S31502000C085170BDE8F087D4D42DE9F04F87B000299A
S31502000C184FF0FF3800F1E5810746002800F0E18130
S31502000C289346002A00F0DD818A46C821584603F019
S31502000C380EFEBAF1000F4FF000080497CDF814A083
S31502000C4800F0CF814FF00009DDF810E009F101004C
S31502000C580EEB090109F102034A1C0025002400BF14
S31502000C6811F9016B06F07F07002E07FA04F745EA29
S31502000C78070511D5152C00F2B2810734824500F119
S31502000C88010009F1010902F1010203F1010300F071
S31502000C98A681E5E700BF00BF05F007014FEAD50CBC
S31502000CA80229069024D1A5F11804372C20D85045DC
S31502000CB880F2958182455AEAC0800024C0F101017A
S31502000CC8002000BF00BF00BF12F9015B05F07F06D6
S31502000CD8002D06FA04F640EA060032D5152C00F273
S31502000CE87E8101330734CD18022D00F07881EBE7B7
S31502000CF841B104A800F076FA002800F07081DDE917
S31502000D0805A9FBE0504580F26A8182455AEAC0800D
S31502000D180023411E002000BF12F9017B07F07F065F
S31502000D28002F06FA03F640EA060040F1B080152BBA
S31502000D3800F2558109F101090733494500F04F814F
S31502000D48EAE7BAEB0301C0F24A818142C0F0478161
S31502000D580EEB0301CDE90010ACF1030103EB000928
S31502000D680529CDF80880CDF8189000F2CB80DFE887
S31502000D7801F003B1A1A89CBB01284FF00101CBF8F1
S31502000D880810C0F2BB800022824252EAC08C80F26E
S31502000D9826810099541C1144002501F1010E0023F5
S31502000DA811F9016B06F07F07002E07FA03F745EAE9
S31502000DB807050BD5152B00F21281013207330134D0
S31502000DC80EF1010E944500F00A81E9E74FEAD50CC7
S31502000DD8531C05F00701BCF1090F029308BF02294B
S31502000DE804D089B1684600F0FDF905E0102268468C
S31502000DF80BF12C0100F0EDFE002800F0F080DDE991
S31502000E0801028242C0DB79E0834280F2E880A04296
S31502000E1850EAC4800023411E00201EF9014B04F04B
S31502000E287F05002C05FA03F540EA050008D5152BBF
S31502000E3800F2D58001320733914200F0D080ECE708
S31502000E48ACF10101023207290292D8D8DFE801F093
S31502000E5804160A0D07191C10CBF80C00CFE7CBF8BD
S31502000E681C00CCE7CBF81400C9E7CBF81800C6E794
S31502000E7800285FEA0F90CBF82800C0E7CBF81000ED
S31502000E88BDE7CBF82000BAE7CBF82400B7E7BCF1F8
S31502000E98010F09F10209CDF8189000F09D80BCF106
S31502000EA8020F2BD1CBF8040028E000220120CBF850
S31502000EB858001DE00120CBF8440068460BF14801B2
S31502000EC80EE00120CBF84C0068460BF150010BF1FD
S31502000ED8540206E00120CBF83C0068460BF14001BB
S31502000EE803AA00F0A9F807E00120CBF87400012252
S31502000EF86846594600F0D8F8002870D0D145FFF662
S31502000F08A3AE72E001284FF00101CBF89410F5DB8D
S31502000F180022824252EAC08C61DA0099541C1144BA
S31502000F28002501F1010E002311F9016B06F07F0776
S31502000F38002E07FA03F745EA070509D5152B4ED8F9
S31502000F480132073301340EF1010E944547D0EBE71F
S31502000F584FEAD50C531C05F00701BCF1030F0293A7
S31502000F6808BF022904D079B1684600F03BF905E0CA
S31502000F78282268460BF1A00100F02BFE78B3DDE9C2
S31502000F8801028242C5DBB9E7834228DAA04250EA67
S31502000F98C4800023411E00201EF9014B04F07F0580
S31502000FA8002C05FA03F540EA050006D5152B16D8D6
S31502000FB801320733914212D0EEE7BCF1020F02F179
S31502000FC80201029105D0BCF1010FD8D1CBF89800E5
S31502000FD8D5E7CBF89C00D2E7CBF800008EE74FF0B6
S31502000FE8FF38404607B0BDE8F08F4FF00008F8E733
S31502000FF8B0B5D0E901324FF0000E9A4252EAC38CDC
S315020010086FF0060300BF00BF94450FD00568541C55
S3150200101884600733AA5602F07F05002A05FA03F50B
S315020010284EEA050E04D5152B2246EDD90020B0BD91
S315020010380120C1F800E0B0BD2DE9F04383B00D46AA
S315020010480021064629601160D0E90101814224DAAD
S31502001058914602AF0DF1040830463946FFF7C8FF3C
S31502001068E8B1029C304614F0070105D000F0BAF840
S31502001078A8B10EE000BF00BF4146FFF7B9FF70B145
S31502001088E1082846012902D00229484601D10199D8
S315020010980160D6E901018142DEDB012000E0002081
S315020010A803B0BDE8F083D4D42DE9F04F85B00446E9
S315020010B8D0E90103834280F28C8015460E460DF173
S315020010C80C0A4FF00009EB4620465146FFF790FFFF
S315020010D8002800F083800398C70800F00701032F51
S315020010E808BF022908D0204691B300F07BF80028F1
S315020010F800F0748068E000BF204604A9CDE9009993
S31502001108FFF776FF002869D0D4E90107B84265DB04
S31502001118DDF81080C01B404560D3B8F1090F5AD2DA
S31502001128B8F1000F05D020684246C119584603F0A7
S3150200113892FB08EB0700A060DDB106F18000594674
S31502001148424603F088FB86F888803DE000BF00BF70
S3150200115802A9FFF74DFF002840D09DB1781E04284A
S3150200116832D8DFE800F0031F311822000298B06770
S315020011782AE006F164005946424603F06CFB86F8FB
S315020011886C8021E0042F1AD0022F15D0012F1BD113
S315020011980298F06518E0029800285FEA0F90C6F8F0
S315020011A88C0011E00298F0670EE0029800285FEAC8
S315020011B80F90C6F8900007E00298306604E002989D
S315020011C800285FEA0F903067D4E901018142FFF6F1
S315020011D87BAF012003E008EB0700A060002005B002
S315020011E8BDE8F08F10B582B0044601294FF0000021
S315020011F801900BD0022903D0052916D1042006E056
S3150200120801A92046FFF7F4FE10B909E0082001906B
S31502001218D4E90110814203DB019A091A914201D2EB
S31502001228002002E01044A060012002B010BDD4D410
S315020012382DE9F04383B0DDF828904FF0FF34B9F179
S31502001248C00F00F28280DDF82C80B8F1000F00F0A2
S315020012587C80002B5FEA1F97B9F1000F5FEA0F94B3
S3150200126827424FF0FF3470D109F10A070C9EBE429D
S315020012786BDB01278DF806708DF807008DF80810CC
S315020012888DF8092000204FF6FF750DF10601082793
S3150200129841F221028DF80A908DF80B0000BF00BFBB
S315020012A80E5C47F001E085EA062500BF00BF00BFD5
S315020012B82C462EB26D00002E48BF82EA44050FF076
S315020012C809C801300628EBD1A8B24FEA1027EBB1BC
S315020012D8B9F1000F1AD00020082241F2210100BFFD
S315020012E81F5C42F001E085EA072500BF00BF00BF88
S315020012F82F462EB26D00002E48BF81EA47050FF031
S3150200130809C801304845EBD1A8B2070ABDF80A1048
S31502001318B9F1000F45F6A520A8F80000DDF8060089
S31502001328C8F80200A8F8061008D008F108001946FD
S315020013384A4603F090FA09F1080000E0082008EB93
S315020013480001841C08F800504F70204603B0BDE81F
S31502001358F083D4D4D4D4D4D42DE9F041002800F0B3
S31502001368A48002780A2A00F28E80DFE802F02D06AF
S31502001378181E113135228115390000235A2908BF52
S315020013880223A5294FF0000208BF012303708DE04E
S315020013988170C172052187E001720A2184E0012960
S315020013A874D10121417203217EE0417081720421C8
S315020013B87AE08288817342EA0122828093B2C12B43
S315020013C84FF00003C38068D3A5295FEA1F916BE03B
S315020013D8C1700173062167E081804173072163E0CA
S315020013E890F808C000F109084FF6FF740023082692
S315020013F841F2210500BF00BF18F8037046F001E06C
S3150200140884EA072400BF00BF27B26200002F48BF44
S3150200141885EA440214460FF009C80133062BEBD1BC
S3150200142883884CEA012CDBB100F10F08002108225F
S3150200143841F2210500BF00BF18F8017042F001E031
S3150200144884EA072400BF00BF27B26600002F48BF00
S3150200145885EA440634460FF009C801319942EBD1B0
S31502001468A1B200230370C3808C455FEA1F921DE078
S31502001478C2888388561C0244B5B2C6809D42D1737F
S3150200148813D3092110E0002202700FE0A5295FEAB2
S315020014981F9101700022C28008E04FF6FF710A42CE
S315020014A84FF0080151EA1191017000221046BDE879
S315020014B8F081D4D4D4D4D4D42DE9F04182B0002812
S315020014C800F09C810446FFF747FF002800F096814A
S315020014D8607820B194F8EC10884240F08F8104F5C8
S315020014E82375C821284604F5E2760127C4F8F07068
S315020014F803F0ADF9A18804F10F003246FFF784FB29
S3150200150810B3E0780221C4F88C020020C4E9C8703E
S315020015184FF00C0EC4F8281344F6D561C0F2002128
S3150200152804F54B700131622200F8012B11F8012BE8
S315020015380FF007C0002084F838032046294602B077
S31502001548BDE8F04100F0A5B9306800B9E078D4F8F2
S31502001558C811C4E9A3014A1E052A00F28480DFE8FD
S3150200156802F00303320F9D55D4F8E8200120002A21
S31502001578C4F89402E1D0D4F8D00029469047DCE7B3
S31502001588D4F8080228B1D4F80C12B1F5805FC0F07D
S31502001598AD8004F5487301200421022207C34FF0E7
S315020015A8070E44F6D871C0F2002104F54B700131DA
S315020015B8622200BF00BF00BF00F8012B11F8012B01
S315020015C80FF007C08EE0D4F8000220B1D4F8041256
S315020015D81029C0F0908004F54873012003210222E5
S315020015E807C34FF00B0E44F6B421C0F2002104F5EE
S315020015F84B700131622200BF00F8012B11F8012B52
S315020016080FF007C0002084F8370396E7D4F81C02C7
S3150200161880B1D4F8201201290CD894F83032A3F1FB
S315020016280900C0B2F82805D3D4F82422B2F5006F0F
S31502001638C0F0818004F5487301200621022207C3FF
S315020016484FF0070E44F6BC11C0F2002104F54B70A8
S315020016580131622200BF00BF00F8012B11F8012BED
S315020016680FF007C03EE00120C4E9C801C4F8280308
S315020016784FF00F0E44F68F61C0F2002104F54B704D
S315020016880131752200BF00BF00F8012B11F8012BAA
S315020016980FF007C0002084F83B034EE7D4F8100287
S315020016A840B1D4F81412032904D8D4F81822B2F592
S315020016B87A7F29D904F5487301200521022207C336
S315020016C84FF0070E44F6F201C0F2002104F54B7002
S315020016D80131622200BF00BF00F8012B11F8012B6D
S315020016E80FF007C0002084F8330326E7D4F8DC207D
S315020016F822B9042014E0D4F8D82082B1D4F8D00054
S315020017089047D4F8C8010BE0D4F8E030ABB3D4F86C
S31502001718D00098470028D4F8C80101D02EE003204B
S3150200172801210022C4F82013C4F82403C4F828238C
S3150200173884F82C2301E7D4F83472002F35D094F8B4
S31502001748ED00800731D401200621C4E9C8014FF013
S31502001758120EC4F8280344F62371C0F2002104F5D8
S315020017684B700131632200F8012B11F8012B0FF09F
S3150200177807C0002084F83E03DFE605200121022285
S31502001788C4E9C8104FF0070EC4F8282344F6F2013C
S31502001798C0F2002104F54B700131622200F8012BD8
S315020017A811F8012B0FF007C09CE7D4F8E46046B3A2
S315020017B804F50A78D4F8D000CDE900374346B04795
S315020017C80028D4F8C8011DD10121C4E9C810204651
S315020017D829460022C4F8282384F82C2300F059F855
S315020017E894F8201294F83002D4F82422D4F8343229
S315020017F8CDE900032046434600F07DF802B0BDE875
S31502001808F081062001210222C4E9C8104FF0080E11
S31502001818C4F8282344F65061C0F2002104F54B703F
S315020018280131632200F8012B11F8012B0FF007C0D2
S31502001838002084F8340380E6B0B548B30446D0F8ED
S31502001848F00028B304F52670BC2104F5237502F0CE
S31502001858FEFFD4F8F400D4F8E820411C0123B1F1C4
S31502001868004F4FF0004151EA9091C4F8F4104FF03E
S315020018780201C4F88C02C4E9A4131AB1D4F8D00040
S315020018882946904720462946BDE8B04000F001B8EF
S31502001898B0BDB0B584B00446D0F8D40048B30D46FE
S315020018A840F20C51C2F20021C0222846FEF7ECFE95
S315020018B800281ED494F8ECC094F8ED102A7840F269
S315020018C80C5380B20090C2F20023604604F1F80578
S315020018D84FF0CA0ECDE9015EFFF7AAFC002808D42C
S315020018E8D4E9341382B20846294604B0BDE8B040AA
S315020018F8184704B0B0BD2DE9F04F81B000283ED09C
S315020019080A9E0446A6F1090010F1080F37D31D46B0
S31502001918ABB3D4F8F00090B30F4604F52470C42193
S315020019289046DDF82CA004F5237902F090FFD4F84E
S31502001938F400C4F88C02411C3246B1F1004F4FF054
S31502001948004151EA909104F54370C4F8F41029460F
S315020019584FF0010BC4E9C0B7C4F8088302F07BFF55
S31502001968BAF1000F5FEA0F9084F814634946C4E996
S31502001978C60B204601B0BDE8F04FFFF78ABF01B09B
S31502001988BDE8F08FD4D4D4D49AB170B545F2140018
S315020019981446C0F200200D46066800BF00BF00BF0D
S315020019A815F8011B304600F07AFB013CF8D1BDE878
S315020019B8704070470846FEF77FBD0846FEF75ABDD7
S315020019C80846114600F005BB80B582B00020002902
S315020019D8C4F23800059900F500509C4604BF002061
S315020019E8C4F2380000295FEA0F9E1146049B62463C
S315020019F8CDF800E0FEF7CCFC013802B080BD70B528
S31502001A0840F2D25C40F2CC50C2F2002C40F2D45ED4
S31502001A18C2F2002040F2D052C2F2002EBCF80030C8
S31502001A2840F2D55CC2F20022C2F2002C06689EF889
S31502001A38000040F2D65E1588C2F2002E9CF80020FD
S31502001A48C1E9053001F11C00BEF800404FF0020C56
S31502001A584FF0010E80E8141044F25210C1F828E043
S31502001A68C1E90365C5F23800C8623120088670BD2F
S31502001A7810B540F2DC544FF42171C2F2002404F18D
S31502001A88D00002F0E4FE41F6911041F6BD11C0F213
S31502001A980020C0F2002141F6C31241F6C91341F6ED
S31502001AA8D11C41F6072EC4F8D400C4F8D81040F267
S31502001AB80230A4F8EC004FF00040C4F8F400D0213C
S31502001AC82046C0F20022C0F20023C0F2002CC0F267
S31502001AD8002EC4F8DC20C4F8E030C4F8E4C0C4F828
S31502001AE8E8E002F0B4FE10BDF0B581B045F214008C
S31502001AF840F2DC56C0F20020C2F200260468D6F88C
S31502001B08F070204600F0F8FA00280FD440F2DC55AF
S31502001B18C2F2002500BF00BFC1B22846FFF7CCFCBF
S31502001B28204600F0E9FAB0F1FF3FF5DC67B9D6F8CE
S31502001B38F00048B144F6FB510220C0F2002101B080
S31502001B48BDE8F04000F06CB801B0F0BD70B51446BF
S31502001B58127806465AB120460D4602F097FE03460B
S31502001B68304629462246BDE8704000F005B83046A0
S31502001B7870BDD4D4D4D4D4D470B5012B044626DB94
S31502001B88BF2C22D840F24C40C900C2F200201E46A1
S31502001B9802310155194600BFBF2C16D001F07F034A
S31502001BA80519C90904F1010418BF80336B70F3D112
S31502001BB8C6F1C0018C4208DA204411460130324689
S31502001BC802F049FE3019441C01E04FF0FF3420466A
S31502001BD870BDF0B581B00D46694616460446FFF754
S31502001BE807FA38B1D4E90110814203DB009F091ACA
S31502001BF8B94202D2002001B0F0BD711E8F4257EAE7
S31502001C08B186012E05DB216832460144284602F0D8
S31502001C1822FE0020A855A0683844A0600120EAE701
S31502001C28002974D00A78002A71D040F20003C2F261
S31502001C3800231B7898426AD8032806D844F67D53AF
S31502001C48C0F2002313F800C001E04FF03F0C10B5B4
S31502001C5894B040F2CC508DF800C0C2F20020013197
S31502001C68036844F60D204FEA137EC0F20020C3F340
S31502001C78036410F80EC010F804E0C3F303548DF899
S31502001C8802C0C3F3034C8DF803E0045DC3F3033EBD
S31502001C988DF8044010F80C40C3F3032C8DF8054068
S31502001CA810F80E408DF8064010F80C408DF80740E3
S31502001CB8C3F3031403F00F034FF0200C045D8DF8F1
S31502001CC801C0C05C0B238DF8090068460D308DF8FB
S31502001CD808408DF80AC000BF00F8022C11F8012B43
S31502001CE801301AB14B2B03F10103F5D345F2100269
S31502001CF840F60D21C0F2002220F8021C00210170D4
S31502001D081068694600F0DCF914B0BDE81040704767
S31502001D1810B588B044F6F07C6946C0F2002C0A4633
S31502001D28BCE81940A2E819409CE8194082E8194023
S31502001D3840F2CC5040F2D05CC2F20020C2F2002C33
S31502001D48026844F60D20C2F30333C0F20020C2F340
S31502001D580324C35C8DF80530BCF8003010F804E0A3
S31502001D68C2F3031402F00F0C1A0B045D8DF806E099
S31502001D788DF8074010F80C4010F802C0C3F303228E
S31502001D888DF80EC040F2D25CC2F2002C10F802E0C6
S31502001D988DF80840C3F30314BCF8002003F00F0CB7
S31502001DA8045D8DF80FE0130B8DF8104010F80C4007
S31502001DB810F803C0C2F303238DF813C040F2D45CB3
S31502001DC8C2F2002C10F803E08DF81140C2F3031496
S31502001DD89CF8003002F00F0C045D8DF814E01A0925
S31502001DE803F00F038DF8154010F80C40825CC05CB6
S31502001DF88DF81B2045F21002C0F200228DF81C0055
S31502001E088DF81640106800F05BF908B010BD40F670
S31502001E180C7CEFF31082C2F2002C012080F31088AA
S31502001E28DCF80000002840F60400C4F2400005D1A0
S31502001E38002380F81035402380F8103580B5DCF889
S31502001E48003040F200410133CCF800301023C0F2D2
S31502001E580161C0F2014382F3108803F57C7EC0F863
S31502001E6844E3C0F8483301F17F42C0F8202203F167
S31502001E788072C0F81C2240F20042C1F20102C0F888
S31502001E8800E2C0F80432C0F8F02002F11003C0F8EC
S31502001E98EC30C0F8A021C0F8A431C16301644164E2
S31502001EA88164502140F20042C0F20171C0F8FC1070
S31502001EB8C0F20132C0F800110265C264C0F84021BE
S31502001EC8C0F824221021C1610162C162C0F824113E
S31502001ED80421C0F8C810C0F87C11C0F89812C0F8DE
S31502001EE820114FF4004202608261426340F60042CA
S31502001EF8C1F20132C0F83422C0F83822C0F81821DB
S31502001F08C0F83C1140F2004140F60042C1F20161BC
S31502001F18C1F60102C0F8CC20C0F8D020C0F8D420FF
S31502001F28C0F8D820C0F8E420C0F8E020C0F854224F
S31502001F38C0F85822C0F85C22C0F86022C0F8942083
S31502001F48C0F85022C0F838111031C0F834110521F2
S31502001F58C0F8DC110121EFF3108281F31088DCF856
S31502001F68001021B1DCF800100139CCF80010DCF8B9
S31502001F78001029B9002180F81015802180F8101563
S31502001F8882F3108880BD10B542F2040C0124C4F213
S31502001F98320C4FF4254EC0F800E004FA01F1CCF8F1
S31502001FA804100024C4624DF28F04C0F2030444668E
S31502001FB8C26433B15208026540F20612C0F2061232
S31502001FC801E04FF483724263C0F800E0CCF80010D7
S31502001FD810BD4FF0FF32B1F57A7F98BF032830D88B
S31502001FE840F2D853C2F200231B6853B3594344F64E
S31502001FF8D352C1F26202A1FB021242F20011C4F2EA
S315020020083201B3EB921F88BF930950B1022804D05C
S31502002018012809D101F150000EE042F60041C4F24E
S31502002028320101F14C0007E042F6004001F5106169
S31502002038C4F23200A0F5DA704FF425420A60002293
S3150200204803601046704780B50723012A08BF052397
S31502002058002A45F6401C08BF032301FA03F3C0F21F
S31502002068737C4FF0000EC0F808E00CEB530C4FF4EB
S3150200207880719C45416107D3BCFBF3F10139FF2905
S3150200208828BFFF214FEA012E0EEB025141F0100143
S3150200209801614FF08051C1601121816080BDB0B5E8
S315020020A840F640530C4605464830C0F203034FF04B
S315020020B80051012200F0A0F800B12C71B0BDD4D4B1
S315020020C82DE9F0410F78AFB140F64056044600F1CB
S315020020D848084D1CC0F203064FF000510122404643
S315020020E8334600F089F800B1277115F8017B0FB164
S315020020F82FF00FC0BDE8F081816CC90148BF017895
S31502002108816CB1F1FF3FC4BF4FF0FF3070470078D2
S31502002118704710B545F218004FF47A71C0F20020E4
S315020021280468E06820F01000E060E06840F02000F3
S31502002138E060012000F099FDE06840F6405320F087
S315020021482000E06004F14800C0F203034FF000519A
S31502002158012200F051F808B15520207110BD4CF249
S3150200216800100021C4F235003D220170817082728E
S3150200217801724FF4E061018248210170704770B51F
S315020021884CF2031448F2A065C4F23504C0F2010504
S3150200219806462021012220462B4600F041F848B186
S315020021A88021012220462B46667000F039F808B1D4
S315020021B8607870BD002070BD10B500244FF47A71A6
S315020021C8C4F22504208840F480602080012000F0B3
S315020021D84CFD208820F040002080208820F0200036
S315020021E82080208840F001002080208840F01000DE
S315020021F8208010BDD4D4D4D403F1010C00BF00BF93
S31502002208BCF1010C06D003680B425FEA0F9392EA0F
S31502002218030FF5D1BCF1000F5FEA0F907047D4D4D3
S3150200222803F1010C00BF00BFBCF1010C06D0037814
S315020022380B425FEA0F9392EA030FF5D1BCF1000F46
S315020022485FEA0F90704742F200200021C4F2200094
S315020022580170FF210170704742F20020C4F220008B
S31502002268817941F080018171017A01F07F01017261
S3150200227843F22331418000210170FF21017070472A
S31502002288022818BF704740F6301045F24001C2F2E4
S315020022980020C0F2002100F018BAFDF7F9BF704716
S315020022A8FFF7FDBF00BE7047B0B540F638144FF0D1
S315020022B8FF31C2F20024206801F02EFA012803D069
S315020022C820680021FFF7EEFF40F63C10C2F200201C
S315020022D8017801B1B0BD01210170FFF7E1FF40F6B7
S315020022E84015C2F2002500BF286801382860F1D0DF
S315020022F8206800210022002300F0DAFF0128F3D02B
S3150200230820680021FFF7CEFFEEE780B540F63C12C3
S3150200231840F64010C2F20022C2F2002000211170DB
S3150200232840F644120160C2F200224FF48070012185
S3150200233800F09BFF40F63811C2F20021086018B976
S3150200234800200021FFF7AEFF00F020F801F0DEFDC5
S31502002358002080BD40F68C1C40F6EC13C2F2002C1D
S31502002368C2F20023C0F800C00B60802010607047DC
S3150200237840F6EC3C40F64C43C2F2002CC2F2002373
S31502002388C0F800C00B6080201060704780B584B02A
S3150200239840F6401045F21C03C2F2002040F64C6C8F
S315020023A841F2781EC0F2002301684FF480620131BF
S315020023B801600120009042F2FD3044F6C341C0F2AA
S315020023C80020C0F20021C2F2002CC2F2002ECDE992
S315020023D801EC01F0C1FA40F6AC61C2F200210860D4
S315020023E808B104B080BD0020002104B0BDE88040D9
S315020023F8FFF758BF10B50446FFF756FF2046BDE85B
S315020024081040FFF74ABFD4D41EF0040F0CBFEFF3F7
S315020024180880EFF30980014908470000B724000243
S315020024280F4B1968EFF309821EF0100F08BF22ED51
S31502002438108A22E9F04FEFF30B8342F8043D0A6053
S315020024484FF0100080F31188BFF34F8FBFF36F8FE1
S3150200245801F00AFD4FF0000080F3118800F002B87F
S31502002468700F0022074801680A6802CA81F30B88BE
S31502002478B2E8F04F1EF0100F08BFB2EC108A82F3D2
S3150200248809887047700F002210B51020EFF31184E7
S3150200249880F3118801F0B8FD30B14EF604504FF0C2
S315020024A88051CEF20000016084F3118810BD806964
S315020024B810F8020C022801D1FFF7D4BF042838BF4E
S315020024C8704780B544F6FA0044F6784244F61E236D
S315020024D8C0F20020C0F20022C0F200234FF47E713F
S315020024E800F0BEFB283140F8481D42F219514FF060
S315020024F8807CC0F2002122F00102C1630264C0F8A6
S3150200250844C06FF00201C0E909137047D4D4D4D489
S3150200251800BE00BF00BF00BFFEE7D4D4D4D4D4D4D3
S315020025284EF62250F021CEF20000017000F016F8A5
S315020025384EF63470CEF20000016841F04041016067
S3150200254862B6BFF36F8FEFF3148C2CF0040C8CF386
S315020025581488BFF36F8F02DF00BEFDE740F61C70DA
S3150200256844F6D351C2F20020C1F262010068A0FB10
S3150200257801014FF0FF3000EB91110020B0EB116F13
S3150200258818BF70474EF21002F023CEF200025160D5
S315020025984EF62351CEF200010B70906007201060B0
S315020025A87047EFF31180102181F3118840F6B0616C
S315020025B8C2F200210A68002A02F101020A6018BF63
S315020025C8704740F6B461C2F2002108604EF6045024
S315020025D8CEF200000068C00500D1704780B544F607
S315020025E8FA0044F6201244F6E933C0F20020C0F29B
S315020025F80022C0F2002340F2A44100F031FB40F66B
S31502002608B060C2F20020016859B10139016018BFF1
S31502002618704740F6B460C2F20020006880F3118861
S31502002628704780B544F6FA0044F6E26244F6CC03F3
S31502002638C0F20020C0F20022C0F2002340F2AD41EF
S3150200264800F00EFB80B598B34EF6902EC4F2010E3A
S315020026589EF800100A0722D04EF2FA324AF2025CBB
S31502002668C4F20102CFF6FF7C00201388A2F800C04C
S315020026788EF8000043F425401080BFF34F8F30BF19
S31502002688BFF36F8F62B6BFF36F8F72B61088A2F868
S3150200269800C08EF8001040F42540108080BDBFF3BC
S315020026A84F8F30BFBFF36F8F62B6BFF36F8F72B6AD
S315020026B880BD80B572B601F07CFA0120FFF7C2FF31
S315020026C862B6BDE8804001F0CFBA80B545F2542221
S315020026D8C5F24F020260084600F002F8002080BDEB
S315020026E870B5044600F060F840F60C7CEFF31081F2
S315020026F8C2F2002C012080F31088DCF8000038B9F9
S3150200270840F614500022C4F24000027040220270C1
S31502002718DCF800000130CCF8000081F3108820882C
S3150200272828B340F6000E0021C4F2400E00BF00BFD7
S31502002738606800EBC10250F831309288D8034FEA3C
S315020027481220D2B20BD50EEB801555F8226026F46C
S31502002758803645F8226023F4803645F822600EEB6F
S315020027688010013140F8223020888142E0D30120CE
S31502002778EFF3108180F31088DCF8000020B1DCF852
S3150200278800000138CCF80000DCF8000038B940F641
S3150200279814500022C4F2400002708022027081F3B3
S315020027A8108870BDD4D4D4D42DE9F04F81B0044634
S315020027B80088002862D04EF64C4B0025C4F2010B65
S315020027C84FF0010A00BF00BF42F2400645F24C082C
S315020027D80027C4F22006C0F2002800BF00BF00BFCF
S315020027E8606838F8021B00EBC50082888A423DD130
S315020027F800689BF8001000F0B8500AFA07F9B0F121
S31502002808807F09EA010017D158B9012000F0C8FAF9
S315020028189BF8000040EA09008BF80000012000F04E
S3150200282898FA96F90000002820D4307840F0800003
S3150200283817E000BF00BF00BF58B1012000F0B0FA90
S315020028489BF8000020EA09008BF80000012000F03E
S3150200285880FA96F90000B0F1FF3F07DC307800F005
S315020028687F003070C820012100F0FFF901370236D7
S31502002878032FB5D1208801358542A5D301B0BDE81D
S31502002888F08FD4D44EF22401C4F201018878098863
S3150200289801F00F02A2F1080103293BD8DFE801F093
S315020028A8022C101E40F22041C2F2002151F82000EB
S315020028B84AF6AB21CAF6AA21A0FB0101480830E074
S315020028C840F22041C2F2002151F820004AF6AB211B
S315020028D8CAF6AA21A0FB0101C80822E040F220415B
S315020028E8C2F2002151F820004AF6AB21CAF6AA2103
S315020028F8A0FB0101080914E040F22041C2F20021BE
S3150200290851F820004AF6AB21CAF6AA21A0FB01011A
S31502002918880806E040F22041C2F2002151F8200060
S31502002928D04040F61C71C2F2002108607047D4D428
S315020029382DE9F041A0A04EF2FA38C4F201084AF293
S31502002948015190ED001F40F22040CFF6FF71C2F20E
S3150200295800200231A8F800104CF600214EF6014676
S315020029684EF60047C3F69A314FF40042C0E90421F5
S3150200297844F2553148F200424EF2140580ED001F2A
S31502002988C4F20106C4F20107C1F2DE31C1F2D772FE
S31502002998C4F20105C0E90712FFF774FF4FF650604B
S315020029A80A21CFF6FF703954092085F88E00387847
S315020029B818B93078800700F0F980387858B90120BC
S315020029C83870C820012100F050F900BF00BF00BFCF
S315020029D838780128FCD10020307038704AF2015646
S315020029E8002085F82200A87795F828000007FBD56D
S315020029F84EF614504FF60211C5F8981040F251419E
S31502002A082987CEF20000BFF34F8FBFF36F8F02689C
S31502002A184EF2000122F4003202600022C0F83C2283
S31502002A28CEF20101BFF34F8FBFF36F8F0A6822F40C
S31502002A3840520A60BFF34F8FBFF36F8F2A7802F0B6
S31502002A48F80201322A7000BF2A78D206FCD40A6834
S31502002A5842F440520A60BFF34F8FBFF36F8F01688B
S31502002A68890312D4BFF34F8FBFF36F8F0021C0F8CB
S31502002A783C12BFF34F8FBFF36F8F016841F40031E9
S31502002A880160BFF34F8FBFF36F8F0020A87500BF99
S31502002A9895F828008006FBD54CF200070020C4F200
S31502002AA8130738703878387838787868FA2807D06B
S31502002AB8FA20C1F6006000BF78607968FA29FBD16E
S31502002AC8B8687D2808D07D20CEF2001000BF00BF6E
S31502002AD8B860B9687D29FBD143F23240C3F223209C
S31502002AE8E86042F2201028820520A874FFF7CAFE81
S31502002AF81E200121012400F0B8F878686FF39F20A0
S31502002B08652828BF3C70FFF7BDFE42F200004FF46D
S31502002B182541C4F200000680BFF35F8F0472BFF33B
S31502002B285F8F018085F83F4095F8600040F04000CD
S31502002B3885F8600000BF00BF95F96000B0F1FF3F5D
S31502002B48FADC002085F85800402185F8601085F8DF
S31502002B58600000BF00BF00BF95F960000028FBD4E3
S31502002B6895F8620040F0400085F8620000BF00BF99
S31502002B7895F96200B0F1FF3FFADC002085F85A00A9
S31502002B88C02085F8620095F8620000F0BF0085F85B
S31502002B98620000BF00BF00BF95F962000028FBD49F
S31502002BA84FF42540A8F80000BDE8F0814FF47A708A
S31502002BB800F00AF812E700BF006CDC0200127A0085
S31502002BC80080000000366E017047D4D4D4D4D4D421
S31502002BD8B0B542F22404C820C4F22004012100251B
S31502002BE8257100F042F82570207808B12FF005C04B
S31502002BF8207840F00200207020788007FCD400205C
S31502002C0804F8020C00BF00BF14F8020C08B12FF03A
S31502002C1805C84FF0030E002004F11C0100BF00BFD7
S31502002C2811F8102002F07F0201F8102000BF00BF41
S31502002C3811F91020002AFBD401300FF00FC8012029
S31502002C4800F0AEF84EF64C410120C4F20101002212
S31502002C580A70BDE8B04000F07CB87047D4D4D4D42A
S31502002C6800BE00BF00BF00BFFEE740F61C7241F27D
S31502002C780023C2F20022C0F27A03484312689A423B
S31502002C880FD344F23F21C0F20F0111444DF683627D
S31502002C98C4F21B32A1FB0212910CA0FB0101C9B1BD
S31502002CA81BE04CF60021C3F69A31B1FBF2F148F665
S31502002CB83812C0F24102904205D24FF47A7250435A
S31502002CC8B0FBF1F006E0B0FBF1F0904205D24FF40A
S31502002CD87A71484328B100F007B84FF0FF3000F088
S31502002CE803B87047D4D4D4D401380028FCD170472D
S31502002CF8F0B581B04CF2001540F6B867C4F200058B
S31502002D080024C2F200272868296A01EA000600BFE1
S31502002D1826FA04F0C00704D057F8241009B1204651
S31502002D2888470134152CF3D12E6100BF00BF00BFBE
S31502002D38286A3042FCD101B0F0BD45F24020C0F20B
S31502002D480020008820B14CF20031C4F2000108606C
S31502002D587047EFF31081012282F3108840F6107251
S31502002D68C2F2002232F8103023B132F81030013B99
S31502002D7822F8103032F810207AB94EF2FA3245F2B9
S31502002D88422CC4F20102C0F2002C13883CF810004F
S31502002D9843F4254323EA0000108081F31088704724
S31502002DA810B5EFF31081012282F3108840F61072F3
S31502002DB8C2F2002232F8103083B94EF2FA3E45F2D8
S31502002DC8422CC4F2010EC0F2002CBEF800403CF8B8
S31502002DD81030234343F42543AEF8003032F810305E
S31502002DE8013322F8103081F3108810BDD4D4D4D41C
S31502002DF800F006F8FFF789FAFEE700BE7047D4D45A
S31502002E0870B54EF6005540F20120CEF20005C0F22A
S31502002E180E004EF200066861CEF20106BFF34F8F2E
S31502002E28BFF36F8F2968C1F3035001285FEA1F9227
S31502002E3811F00F0F5FEA0F911142316811D1022882
S31502002E480FD241F0040030604EF20800BFF34F8FF4
S31502002E58CEF20000BFF36F8F016841F48031016042
S31502002E6802E021F004003060BFF34F8FBFF36F8F8B
S31502002E784FF4700040F20001C5F888000020C0F245
S31502002E880021A9600024FFF7FBF9FFF751FD4EF276
S31502002E98FA304EF6B022C4F20100C4F201024AF236
S31502002EA80251018014704FF4254101800120FFF779
S31502002EB8E7F940F22000C2F2002080F30A8830685F
S31502002EC8800721D5A868B0F1007F1DD130694FF47B
S31502002ED80071C0F3C300726901FA00F3C2F3C300BA
S31502002EE881400020DA08CB080146064642F005C0B2
S31502002EF8E6E802010FF005C04FF0005243F005C0A4
S31502002F08E2E802010FF005C0002000F095F8FFF78D
S31502002F18B9FCFFF75DFE0320FFF742FF4FF00E0EE6
S31502002F2840F63050C4F2400020F8044B0FF005C0BA
S31502002F384EF210140320C4F20104FFF70AFF03201D
S31502002F48FFF72EFF44F204000021C4F220000160BC
S31502002F5841608160C1600320FFF7FBFED4F8C80216
S31502002F68800714D42078A0B10120FFF719FF00BF0B
S31502002F7894F9000010F1410FFADC0020207000BF1E
S31502002F8820783F28FCD80120FFF7E3FE01E0D4F8B9
S31502002F98C802D4F8C802400715D42079A8B101207E
S31502002FA8FFF7FEFE00BF00BF94F9040010F1410FBF
S31502002FB8FADC0020207100BF20793F28FCD80120C6
S31502002FC8FFF7C7FE01E0D4F8C8020220FFF758F956
S31502002FD8012000F031F841F27414C2F200242046AE
S31502002FE801F05CFC204601F047FCBFF34F8FBFF3AC
S31502002FF86F8F0020C5F8500245F29E2045F29E21A9
S31502003008C0F20020C0F20021BFF34F8F081ABFF3A7
S315020030186F8F8410012C08DB45F29E25C0F200252D
S3150200302855F8040B8047013CFAD1FFF786FE0020CB
S31502003038BDE87040FFF711BEF0B581B045F26C05E8
S315020030480446C0F200252E6876B16868071D00BFDF
S315020030587879844204D157E90101091A01F0F7FB8C
S31502003068013E07F10C07F3D1AE6896B1E86800F1A4
S31502003078080500BF00BF00BF6879844205D155E93B
S3150200308802022968121A01F0E6FB013E05F1100553
S31502003098F2D101B0F0BD01464FF0FF3241F8082FD8
S315020030A80022C0E90311C0E900217047002101612D
S315020030B87047D4D4D4D4D4D480B5D1F800C01CF186
S315020030C8010207D000F10802964652681368634562
S315020030D8FAD903E0D0F810E0DEF804204A609160DD
S315020030E8C1F808E0CEF804100861016801310160F0
S315020030F880BDD0E901230169936042685A604A6833
S31502003108824201D182684A60002202610868013857
S315020031180860704770B500284BD00446C06BC0B330
S315020031280E46216CA0FB010199BBFFF73AFAD4E9D6
S315020031380F010025226801FB00230138A56300FB65
S315020031480120C4E90123E060FF2084F8440084F8E2
S31502003158450004F110004EB1FFF79DFF04F124006B
S31502003168FFF799FFFFF74BFA012070BD01680029A6
S31502003178F8D001F088F80028F4D04EF604504FF043
S315020031888051CEF200000160BFF34F8FBFF36F8FFD
S31502003198E8E744F6135044F6BA6244F61663C0F2F8
S315020031A80020C0F20022C0F200234FF4B671FFF7E6
S315020031B857FD44F6135044F6BA6244F60363C0F266
S315020031C80020C0F20022C0F2002340F23711FFF7B6
S315020031D847FD10B582B043B3B8B11C4601B9A2B9CE
S315020031E801B192B148230193019B482B2DD10029A5
S315020031F854EA0282019BC4E90F010121204622609A
S31502003208FFF788FF204602B010BD44F6135044F675
S315020032185E4244F68253C0F20020C0F20022C0F297
S3150200322800234FF4D871FFF71BFD44F6135044F6FA
S315020032385E4244F6C023C0F20020C0F20022C0F269
S3150200324800234FF4C271FFF70BFD44F6135044F600
S315020032585E4244F62F43C0F20020C0F20022C0F2BA
S3150200326800234FF4CB71FFF7FBFCB0B582B060B117
S315020032780D46814209D81446002100222346FFF74B
S31502003288A8FFA563204602B0B0BD44F6135044F623
S31502003298CE4244F6CE23C0F20020C0F20022C0F28B
S315020032A800234FF45E71FFF7DBFCD4D4D4D4D4D414
S315020032B82DE9F04F83B00028029200F09D80044663
S315020032C81D461646894619B9206C002840F0C48066
S315020032D8022D03D1E06B012840F0AE8001F0BFF861
S315020032E810B9002E40F09880FFF75BF9022DA06B0B
S315020032F85BD0E16B884258D301206F464FF0000B32
S3150200330802AE00BF00BF00BF0299002968D0C007FD
S3150200331802D0384601F03FF8FFF771F900F049FC90
S31502003328FFF73FF994F84400FF2808BF84F844B031
S3150200333894F84500FF2808BF84F845B0FFF75FF9FF
S315020033483846314601F034F800284CD1FFF729F9FE
S31502003358D4F838A0D4F83C80FFF751F9C24517D102
S31502003368029904F1100000F031FF204600F0B4F88B
S3150200337800F07AFC88B94EF604504FF08051CEF22E
S3150200338800000160BFF34F8FBFF36F8F05E000BFE8
S31502003398204600F0A1F800F067FCFFF702F9A06BDF
S315020033A8E16B88424FF00000AED2204649462A46D3
S315020033B800F062F854F8240F70B1204600F063FF5B
S315020033C850B14EF604504FF08051CEF20000016023
S315020033D8BFF34F8FBFF36F8FFFF711F9012008E094
S315020033E8FFF70DF904E0204600F076F800F03CFC01
S315020033F8002003B0BDE8F08F44F6135044F6342299
S3150200340844F60363C0F20020C0F20022C0F2002391
S3150200341840F2B631FFF724FC44F6135044F6342240
S3150200342844F64623C0F20020C0F20022C0F200236E
S3150200343840F2BB31FFF714FC44F6135044F634222B
S3150200344844F6D623C0F20020C0F20022C0F20023BE
S315020034584FF46E71FFF704FC44F6135044F6342217
S3150200346844F64473C0F20020C0F20022C0F20023E0
S3150200347840F2B731FFF7F4FB70B5866B036C04466E
S315020034882BB31546B2B1E0681A4601F0E4F9216891
S31502003498E268206C121AE2608A4203D24042A168AC
S315020034A80844E060022D5FEA1F90002E5FEA008062
S315020034B8361A0CE060681A4601F0CDF9D4E9010122
S315020034C8226C10446060884201D320686060701CD8
S315020034D8A06370BDD4D4D4D4F0B581B00446FFF746
S315020034E860F894F94560012E0EDB04F1240500BF4D
S315020034F8286848B1284600F0C6FE08B100F0A8FFC1
S3150200350870B2013E0128F3DCFF2684F84560FFF716
S3150200351876F8FFF746F894F94470012F10DB04F1A8
S31502003528100500BF00BF00BF286848B1284600F052
S31502003538AAFE08B100F08CFF78B2013F0128F3DC3D
S3150200354884F8446001B0BDE8F040FFF758B8D4D417
S315020035582DE9F04F83B00028029200F0AA800446B3
S315020035681646894619B9206C002840F0C28000F038
S3150200357876FF10B9002E40F0AC80FFF712F8D4F8A7
S3150200358838A0BAF1000F29D0226C52B1D4E902014F
S315020035981144E160814201D32168E160484601F0A5
S315020035A85AF954F8100F0028AAF10100A0620ED0A9
S315020035B8204600F068FE50B14EF604504FF0805196
S315020035C8CEF200000160BFF34F8FBFF36F8F012465
S315020035D8FFF715F8204603B0BDE8F08F04F124087A
S315020035E801206F464FF0000B02AE00BF00BF00BFBE
S315020035F80299002959D0C00702D0384600F0CBFEFE
S31502003608FEF7FDFF00F0D5FAFEF7CBFF94F844006B
S31502003618FF2808BF84F844B094F84500FF2808BF7D
S3150200362884F845B0FEF7EBFF3846314600F0C0FE97
S3150200363870B12046FFF750FF00F016FBFEF7B1FF08
S31502003648A56BFEF7DCFF95B326E000BF00BF00BFFF
S31502003658FEF7A7FFA56BFEF7D2FF2DB12046FFF7AF
S315020036683BFF00F001FB17E00299404600F0AEFD71
S315020036782046FFF731FF00F0F7FA68B94EF6045014
S315020036884FF08051CEF200000160BFF34F8FBFF3B7
S315020036986F8F00BF00BF00BFFEF783FFD4F838A0C4
S315020036A80020BAF1000FA3D06EE7002490E70024A9
S315020036B890E744F6135044F6F24244F69923C0F2D0
S315020036C80020C0F20022C0F2002340F2E951FFF7BF
S315020036D8C7FA44F6135044F6F24244F64623C0F2B9
S315020036E80020C0F20022C0F2002340F2F251FFF796
S315020036F8B7FA44F6135044F6F24244F68D53C0F232
S315020037080020C0F20022C0F2002340F2ED51FFF77A
S31502003718A7FAD4D4D4D4D4D42DE9F04F83B0002850
S31502003728029100F090800446006C002840F09B80CD
S315020037380D4600F094FE10B9002D40F0A480FEF765
S3150200374830FFA06BD0B154F8101F0138A06271B1D6
S31502003758204600F098FD50B14EF604504FF08051C5
S31502003768CEF200000160BFF34F8FBFF36F8F0124C3
S31502003778FEF745FF204603B0BDE8F08F4EF6045922
S3150200378804F1240801216E464FF0000B02AFCEF277
S3150200379800094FF0805A00BF029800284FD0C80788
S315020037A802D0304600F0F7FDFEF729FF00F001FAD5
S315020037B8FEF7F7FE94F84400FF2808BF84F844B0E1
S315020037C894F84500FF2808BF84F845B0FEF717FFAE
S315020037D83046394600F0ECFD70B12046FFF77CFE14
S315020037E800F042FAFEF7DDFEA56BFEF708FF45B3C9
S315020037F81EE000BF00BF00BFFEF7D3FEA56BFEF7B3
S31502003808FEFE2DB12046FFF767FE00F02DFA0FE007
S315020038180299404600F0DAFC2046FFF75DFE00F00A
S3150200382823FA28B9C9F800A0BFF34F8FBFF36F8FE9
S31502003838FEF7B7FEA06B00210028ADD083E700246F
S3150200384896E7002496E744F6135044F64A4244F6AD
S315020038589923C0F20020C0F20022C0F2002340F2EF
S315020038688261FFF7FDF944F6135044F64A4244F6DC
S31502003878F463C0F20020C0F20022C0F2002340F234
S315020038888661FFF7EDF944F6135044F64A4244F6C8
S315020038984623C0F20020C0F20022C0F2002340F202
S315020038A88B61FFF7DDF9D4D4B0B5F8B1C9B140F6EA
S315020038B8207E4FF0000CC2F2002E0022002300BF29
S315020038C80EEB02046568A8420CD01BB92368002BCC
S315020038D854EA0C830832502AF2D1002B18BFC3E9E6
S315020038E80010B0BD2346C3E90010B0BD44F613501C
S315020038F844F6DE0244F65963C0F20020C0F2002202
S31502003908C0F2002340F6C931FFF7AAF970B5154689
S315020039180E460446FEF745FE94F84400FF2802D1F7
S31502003928002084F8440094F84500FF2802D10020BC
S3150200393884F84500FEF763FEA06B28B904F124005B
S3150200394831462A4600F063FC2046BDE87040FFF780
S31502003958C3BDD4D4D4D4D4D42DE9F04782B0DDF88B
S315020039682CA0BAF1000F00F0E4800C9C002C00F0A9
S31502003978F0808146602001900198602840F0F98025
S315020039880E46019860212046984615460A9F00F081
S315020039985EFFC4F830A07EB104F134000F2100BFE7
S315020039A816F8012B00F8012B1AB10029A1F1010121
S315020039B8F6D1002084F84300052F80F0EA800AEB4E
S315020039C88500251D0438E76220F007062846FFF71A
S315020039D86DFB04F11800FFF769FBC7F10500A0614A
S315020039E8216B30464A46434624616462FEF77AFDF5
S315020039F82060FEF7D6FD40F6947040F6707AC2F261
S31502003A080020C2F2002A40F678790168C2F200293B
S31502003A1801310160DAF8001061B1D9F80000002816
S31502003A2844D1DAF80000E16AC06A884298BFCAF847
S31502003A3800403BE0CAF800400068012836D140F64B
S31502003A48A0760527C2F200263046FFF724FB013F7F
S31502003A5806F11406F8D141F24C08C2F20028404693
S31502003A68FFF719FB41F26006C2F200263046FFF75D
S31502003A7812FB41F22000C2F20020FFF70CFB40F6CF
S31502003A887C70C2F20020FFF706FB41F20800C2F280
S31502003A980020FFF700FB41F2400041F24401C2F266
S31502003AA80020C2F20021C0F800800E6040F6747051
S31502003AB8C2F2002001680131016041F20401E06AA4
S31502003AC8C2F200210A68904288BF086000EB8000B3
S31502003AD840F6A071C2F2002101EB80004068A060A6
S31502003AE88268E26055608560E06A00EB800001EB5F
S31502003AF88002626151F82020013241F82020FEF747
S31502003B087EFDD9F8000080B1DAF80000E16AC06AE1
S31502003B1888420AD24EF604504FF08051CEF2000087
S31502003B280160BFF34F8FBFF36F8F204602B0BDE827
S31502003B38F08744F6525044F63E5244F6C413C0F295
S31502003B480020C0F20022C0F2002340F2F141FFF742
S31502003B5887F844F6525044F63E5244F69B33C0F276
S31502003B680020C0F20022C0F2002340F2F241FFF721
S31502003B7877F844F6525044F63E5244F69A73C0F227
S31502003B880020C0F20022C0F2002340F2FA41FFF7F9
S31502003B9867F844F6525044F6B63244F62D33C0F26C
S31502003BA80020C0F20022C0F2002340F26471FFF73F
S31502003BB857F840F69870C2F2002001680131016098
S31502003BC870472DE9F04381B040F69C7241F24003FA
S31502003BD8C2F2002240F67074C2F20023C2F2002436
S31502003BE8156841F24402C2F20022D3F80080064662
S31502003BF80F46D2F800902268101DFFF77AFA701C59
S31502003C0816D1AFB141F20800C2F20020D0E9001283
S31502003C18236801319A6093682768FB60276804372E
S31502003C285F6023680433936022680160506117E07D
S31502003C382068AD194560206800F1040105D348469D
S31502003C4801B0BDE8F043FFF737BA4046FFF734FA4A
S31502003C5841F23400C2F2002001688D4238BF056085
S31502003C6801B0BDE8F083D4D42DE9F047FEF799FCFC
S31502003C7840F69870C2F200200168002900F0B2806E
S31502003C88016801390160006828B10024FEF7B7FC13
S31502003C982046BDE8F08740F69470C2F2002000681C
S31502003CA80028F2D041F2200041F21C0AC2F200209A
S31502003CB840F67079C2F2002AC2F200290168002988
S31502003CC867D041F2040E40F6A0730021C2F2002E1C
S31502003CD8C2F200234FF0010CC768FC6804F118020F
S31502003CE8D4E90775A66ABD60E7696F60756895428B
S31502003CF801D1226A7260A1623268013A3260261DD7
S31502003D08D4E9022567699560A2686A607A68B24250
S31502003D1801D1E2687A6061613A68013A3A60E76A13
S31502003D28DEF80020974207EB870288BFCEF80070BC
S31502003D3803EB82025268A2609568E5606E6096603F
S31502003D48E26A02EB820203EB8205656153F82250AE
S31502003D58013543F82250E26AD9F80040E46AA242E1
S31502003D6888BFCAF800C002680AB12FF04BC841F2F0
S31502003D784000C2F200200168096819B10068C068EB
S31502003D88006801E04FF0FF3041F23401C2F200212F
S31502003D98086041F23C08C2F20028D8F800606EB109
S31502003DA8012400BF00BF00BF00F02EF908B1CAF80F
S31502003DB80040013EF8D10020C8F80000DAF80000F9
S31502003DC800283FF462AFD9F800004EF60450CEF24E
S31502003DD800004FF0805101240160BFF34F8FBFF3FB
S31502003DE86F8F53E744F6525044F6533244F67463DF
S31502003DF8C0F20020C0F20022C0F2002340F68B7106
S31502003E08FEF72EFF80B580B140F69871C2F2002106
S31502003E180A6801320A600968012912D10021FFF7EE
S31502003E28D0FEFFF721FF00B180BD4EF604504FF0D9
S31502003E388051CEF200000160BFF34F8FBFF36F8F40
S31502003E4880BD44F6525044F60B6244F68A43C0F2E9
S31502003E580020C0F20022C0F2002340F68E11FEF7BF
S31502003E68FFFED4D4D4D4D4D480B540F69870C2F226
S31502003E780020006830B141F21C000121C2F2002084
S31502003E88016080BD41F21C0041F2040CC2F200201E
S31502003E98C2F2002C002140F6A0730160C2F2002390
S31502003EA8DCF8001001EB810253F8220003EB8202D0
S31502003EB848B900BF00BF00BFC1B152F8140D01399D
S31502003EC808B92FF007C8506802F1080E4368536014
S31502003ED8734501D1D368536040F67072D868C2F24E
S31502003EE800221060CCF80010106880BD44F65250CB
S31502003EF844F6A91244F63673C0F20020C0F2002234
S31502003F08C0F2002341F2FA31FEF7AAFEB0B58AB032
S31502003F1844F2494004A9C4F24C50069005A803AAE3
S31502003F2800248DF81C40CDE90444FEF713FADDE9B6
S31502003F380320019044F2914006A9C0F20020002312
S31502003F48059D00940295FFF707FD41F23800C2F27B
S31502003F580020056000F0B1FA012811D0013025D100
S31502003F6844F6525044F6606244F6B143C0F2002069
S31502003F78C0F20022C0F2002340F6A961FEF770FEE5
S31502003F8841F234010120C2F2002180F310884FF079
S31502003F98FF320A6040F6787140F69C72C2F200213E
S31502003FA8C2F2002208601460FEF7BAFA45F24C2003
S31502003FB8C0F2002000680AB0B0BDD4D4D4D4D4D498
S31502003FC870B540F69074C2F200242068D8B140F663
S31502003FD87C7540F69476C2F20025C2F2002600BF2E
S31502003FE8FEF7DFFAE868C0680430FFF782F830683F
S31502003FF801383060206801382060FEF700FB20682F
S3150200400808B12FF013C870BD2DE9F04F81B040F604
S315020040189870C2F20020006840B141F23C00C2F238
S3150200402800200168013101600020B6E040F69C706C
S3150200403841F2340CC2F20020C2F2002C016811F1DE
S31502004048010BC0F800B022D341F24000C2F20020B0
S3150200405801680968002940F0A38041F24403016817
S31502004068C2F200231F680760196041F24801C2F2D2
S3150200407800210B6801330B600168096819B10068F1
S31502004088C068006801E04FF0FF30CCF80000DCF8A9
S315020040980000834501D2002077E041F2400A4FF042
S315020040A80009C2F2002ADAF800000068002867D080
S315020040B841F2040E40F6A07440F67078C2F2002E61
S315020040C8C2F20024C2F20028002000BF00BF00BFCF
S315020040D8DAF80050ED68EE68374657F8045FAB45E4
S315020040E851D3D6E9021375698B60B168596069685C
S315020040F8B94201D1F1686960C6F814902968013994
S315020041082960B56A85B1D6E9071306F118028B60EC
S31502004118F16959606968914201D1316A6960C6F8E4
S315020041282890296801392960F56ADEF800108D425F
S3150200413805EB850188BFCEF8005004EB810149687A
S31502004148B1608A68F26057608F60F16A01EB81019B
S3150200415804EB8102726154F82120013244F82120CD
S31502004168F16AD8F80020D26ADAF80030914288BF9C
S315020041780120196809B12FF055C84FF0FF3502E042
S315020041884FF0FF350020CCF8005041F21C01C2F274
S3150200419800210968002918BF012001B0BDE8F08F87
S315020041A844F6525044F6005244F63313C0F2002045
S315020041B8C0F20022C0F2002341F25F21FEF750FD51
S315020041C840F69C70C2F200200068704710B570B1C4
S315020041D80C4640F67071C2F2002109681831FEF7E2
S315020041E86BFF01212046BDE81040FFF7EABC44F602
S315020041F8525044F63A6244F6A543C0F20020C0F291
S315020042080022C0F200234FF4A451FEF729FD10B58F
S3150200421848B340F6707CD0F804E0C2F2002C002ABB
S31502004228DCF80030C3F81CE0DEF80830DCF80040A1
S315020042382362DCF8004004F118045C60DCF8003004
S3150200424803F11803CEF80830DCF80030986218BF7C
S315020042584FF0FF3103680133036008461146BDE893
S315020042681040FFF7AEBC44F6525044F6623244F6AA
S31502004278A543C0F20020C0F20022C0F2002341F298
S31502004288BE41FEF7EDFC80B5C068C068002872D052
S31502004298D0E9073100F1180C826A9960C3694B604C
S315020042A85168614501D1016A516000218162116834
S315020042B80139116040F69871C2F20021096891B17C
S315020042C841F2200EC2F2002EDEE90023C36199688C
S315020042D80162C1F804C0C3F808C0C0F828E0511C3E
S315020042E8CEF8001035E0D0E9023100F1040C42693B
S315020042F8996083684B605168614501D1C168516014
S315020043080021416141F204031168C2F20023013916
S315020043181160C26A19688A4288BF1A6002EB820172
S3150200432840F6A072C2F2002202EB8101496881605E
S315020043388B68C360C3F804C0C1F808C0C16A01EB40
S31502004348810102EB8103436152F82130013342F8BD
S31502004358213040F67071C06AC2F200210968C96A42
S31502004368884206D941F21C010120C2F200210860E6
S3150200437880BD002080BD44F6525044F6823244F68F
S31502004388A523C0F20020C0F20022C0F2002341F2A7
S31502004398F541FEF765FC41F24801C2F200210968BF
S315020043A8016040F69C71C2F20021096841607047BB
S315020043B870B568B30D46D9B30446FEF7F2F840F66F
S315020043C89C7EC2F2002EDEF8003029684A1C16D0FE
S315020043D841F2480CD4E90002C2F2002CDCF8006073
S315020043E8864201D093420CD29A1A914209D9881A66
S315020043F82860DCF800002060DEF800006060002417
S3150200440802E0012400202860FEF7F9F8204670BD74
S3150200441844F6525044F6E65244F62333C0F20020DC
S31502004428C0F20022C0F2002341F2A551FEF718FCA1
S3150200443844F6525044F6E65244F6D333C0F200200C
S31502004448C0F20022C0F2002341F2A651FEF708FC90
S3150200445841F21C000121C2F200200160704740F6B9
S315020044687870C2F20020006850B140F69870C2F225
S315020044780020006800284FF0000008BF022070479D
S3150200448801207047D4D4D4D440F6A0744EF604550D
S31502004498C2F20024CEF200054FF0805600BF00BFDC
S315020044A8FFF78EFD2068022804D32E60BFF34F8FD4
S315020044B8BFF36F8FFEF7FDF8F2E780B586B000F01E
S315020044C83AF841F27400C2F20020006818B30020DC
S315020044D8CDE9040005A804A903AAFDF749FF0DF1D1
S315020044E80C0E0320009044F2B95044F6CD61C0F296
S315020044F800209EE80450C0F200210023CDE901CE37
S31502004508FFF72AFA41F27801C2F20021086010B1D7
S31502004518012006B080BD44F6E11044F60D7244F659
S31502004528E133C0F20020C0F20022C0F200234FF4A9
S31502004538A371FEF795FB70B582B0FEF732F841F229
S315020045487406C2F20026306868BB41F28804C2F2D9
S3150200455800242046FEF79FFD41F29C05C2F2002583
S315020045682846FEF798FD41F27C0041F28001C2F22C
S315020045780020C2F2002141F2F80241F2B0030460BF
S315020045880D60C2F20022C2F200230A200C21002585
S315020045980095FEF71EFE306028B144F62F21C0F2C0
S315020045A80021FFF781F902B0BDE87040FEF727B88F
S315020045B884B041F27C0841F27405C2F2002801ACCB
S315020045C8C2F200254FF0000BEA4600BF00BF00BF4B
S315020045D8D8F80000D0F80090B9F1000F04D0C068EE
S315020045E8066802E000BF00BF0026FFF7E2FA20468F
S315020045F800F0A6F8019919B1FFF736FB30E000BFC3
S315020046080746B9F1000F08D0BE4206D8FFF72CFBC1
S315020046183046394600F0C1F822E0B9F1000F01D060
S31502004628002208E041F28000C2F200200068006819
S3150200463800285FEA1F922868F11BFFF767F9FFF760
S3150200464813FB68B94EF604504FF08051CEF20000C3
S315020046580160BFF34F8FBFF36F8F00BF00BF00BF6C
S31502004668CDF80CB0CDE901BB286800222146FEF739
S315020046786FFF08B92FF055C001980028F4D4039E9D
S31502004688706910B1301DFEF734FD504600F058F837
S31502004698019901390829E7D80746DFE801F0050537
S315020046A81E251E05051E250096F82400029BB169E3
S315020046B83A4640F0010086F824001944304600F0D4
S315020046C8A6F808B92FF031C096F8240041071BD482
S315020046D800F0FA0086F824001DE096F8240000F09F
S315020046E8FE0086F82400BFE796F824100298B06107
S315020046F841F0010186F8241088B1C11930463A46BC
S315020047083B4600F084F8AFE70298B16901443046A7
S315020047183A4600F065F8316A30468847A4E744F617
S31502004728E11044F69F6244F6B373C0F20020C0F269
S315020047380022C0F200234FF48261FEF791FAD4D424
S31502004748F0B581B00446FFF73BFD41F28406054603
S31502004758C2F200263168884210D241F27C07C2F2C0
S31502004768002700BF00BF00BF3868016841B1C068B2
S315020047784FF0FF31006800F010F8F5E7002007E077
S3150200478841F28001C2F200210A68086001203A60FB
S3150200479820603560284601B0F0BD70B541F27C0252
S315020047A80646C2F200220D461268D268D468201D57
S315020047B8FEF79FFC94F82400410704D400F0FA009F
S315020047C884F8240004E0204631462A4600F008F818
S315020047D8216A2046BDE870400847D4D4D4D4D4D43C
S315020047E870B50446806915460E460144204600BF48
S315020047F8334600F00CF848B1A069216A06442046FF
S315020048088847A0692A4681192046F1E770BD8C4679
S3150200481801469445006141F804CF08D941F27C006B
S315020048289A42C2F200200AD29C4508D30DE080695A
S31502004838D21A824209D241F28000C2F2002080B521
S315020048480068FEF739FC002080BD012070470A4641
S31502004858002100F009B810B5002322B1CC5C013A58
S31502004868C4540133F9E710BD03461AB103F8011B14
S31502004878013AFAE77047D4D40249401A0249086055
S31502004888704700BF0800000070110022034613F8A3
S31502004898012B002AFBD1181A0138704710B50549B1
S315020048A80446054AFFF7D7FF044805492044FFF79F
S315020048B8CEFF10BD4100000200000000000000000B
S315020048C8000000007578437269746963616C4E650D
S315020048D87374696E670076517565756541646454CB
S315020048E86F526567697374727900626164207077C2
S315020048F86D002E2E2F72612F6673702F7372632FBF
S31502004908726D5F6672656572746F735F706F7274CB
S315020049182F706F72742E630076506F7274456E74C0
S315020049286572437269746963616C002820282028BD
S31502004938202820707844656C617965645461736BCC
S315020049484C69737420292D3E75784E756D626572B1
S315020049584F664974656D73203D3D20282055426196
S315020049687365547970655F74202920302029203FA9
S31502004978202820282042617365547970655F742067
S315020049882920312029203A202820282042617365CF
S31502004998547970655F74202920302029202920291E
S315020049A800765461736B537769746368436F6E74E8
S315020049B8657874006261642063616E00707578536D
S315020049C87461636B42756666657220213D202828EC
S315020049D8766F69642A293029002E2E2F72612F617B
S315020049E877732F4672656552544F532F4672656523
S315020049F852544F532F536F757263652F74696D65E1
S31502004A0872732E63003031323334353637383941D2
S31502004A1842434445460075635356434E756D626577
S31502004A2872203C3D203300546D72510078517565F1
S31502004A38756547656E6572696353656E64002128FC
S31502004A48202820785461736B4765745363686564DC
S31502004A58756C657253746174652829203D3D20285A
S31502004A6820282042617365547970655F7420292075
S31502004A783020292029202626202820785469636B8D
S31502004A8873546F5761697420213D203020292029EB
S31502004A98002820707851756575652029007078554B
S31502004AA86E626C6F636B6564544342006261642094
S31502004AB86F75747075747300707853746174696372
S31502004AC85175657565007848616E646C65002128C4
S31502004AD820282078436F7079506F736974696F6EF6
S31502004AE8203D3D202820282042617365547970654F
S31502004AF85F742029203220292029202626202820D2
S31502004B08707851756575652D3E75784C656E677456
S31502004B186820213D20312029202900707854696DAA
S31502004B28654F75740075785072696F726974792069
S31502004B383C20283529005241385031207265736F5E
S31502004B4875726365732075700D0A00785461736B0C
S31502004B58526573756D65416C6C00765461736B5062
S31502004B686C6163654F6E4576656E744C69737452F3
S31502004B7865737472696374656400785461736B5201
S31502004B88656D6F766546726F6D4576656E744C69AE
S31502004B9873740070785461736B4275666665722029
S31502004BA8213D202828766F69642A293029007072E7
S31502004BB876496E697469616C6973654E6577546185
S31502004BC8736B0069776474206F6E0070785469633A
S31502004BD86B73546F57616974007852657475726E97
S31502004BE8002828285343425F54797065202A2920D1
S31502004BF8282830784530303045303030554C292019
S31502004C082B20307830443030554C2920292D3E4906
S31502004C18435352202620283078314646554C2029BF
S31502004C2829203D3D2030007853697A65203D3D2094
S31502004C3873697A656F66282051756575655F742094
S31502004C48290078517565756553656D6170686F726F
S31502004C586554616B650078517565756547656E655E
S31502004C68726963437265617465537461746963003A
S31502004C7876506F727453564348616E646C65725F00
S31502004C88430075785363686564756C65725375730A
S31502004C9870656E646564203D3D2031550070784527
S31502004CA876656E744C697374007852657475726EA3
S31502004CB820213D2028202D312029004E65772054B9
S31502004CC868726561640078517565756543726561D8
S31502004CD87465436F756E74696E6753656D61706846
S31502004CE86F72655374617469630078517565756589
S31502004CF85265636569766500785461736B496E63BC
S31502004D0872656D656E745469636B002E2E2F72611F
S31502004D182F6177732F4672656552544F532F467229
S31502004D28656552544F532F536F757263652F7175AC
S31502004D386575652E63007072764372656174655394
S31502004D4874617469635461736B002E2E2F72612F1E
S31502004D586177732F4672656552544F532F467265B3
S31502004D686552544F532F536F757263652F7461736F
S31502004D786B732E6300455749440070784E65775128
S31502004D8875657565002128202820282070764275C9
S31502004D98666665722029203D3D202828766F69645B
S31502004DA82A293029202920262620282028207078FA
S31502004DB8517565756520292D3E75784974656D535B
S31502004DC8697A6520213D2028205542617365547908
S31502004DD870655F74202920305520292029007854CF
S31502004DE861736B436865636B466F7254696D654F91
S31502004DF87574006C696E6B207570007078517565F4
S31502004E08756500765461736B44656C6179007852F6
S31502004E18657475726E20213D20282028202820429C
S31502004E28617365547970655F7420292030202920C2
S31502004E382900765461736B506C6163654F6E4576D3
S31502004E48656E744C6973740063616E20627573795A
S31502004E580078517565756500765461736B53746194
S31502004E6872745363686564756C657200757853630A
S31502004E78686564756C657253757370656E6465648E
S31502004E8820213D20305500756E6B6E6F776E20635C
S31502004E986F6D6D616E640070727650726F636573C2
S31502004EA8735265636569766564436F6D6D616E6499
S31502004EB8730078517565756547656E6572696352E3
S31502004EC86573657400546D7220537663006261647B
S31502004ED82070726F746F6275660076506F727445D1
S31502004EE8786974437269746963616C007078517584
S31502004EF86575652D3E75784974656D53697A6520C1
S31502004F083D3D2030007854696D657243726561745F
S31502004F186554696D65725461736B0063616E2066D0
S31502004F286420756E737570706F7274656400757837
S31502004F38546F705072696F7269747900212820283B
S31502004F482070764974656D546F5175657565203D97
S31502004F583D202828766F69642A29302920292026A7
S31502004F6826202820707851756575652D3E75784915
S31502004F7874656D53697A6520213D20282055426162
S31502004F887365547970655F7420292030552029206D
S31502004F9829007853697A65203D3D2073697A656FE1
S31502004FA86628205443425F742029002820707854CA
S31502004FB8696D65722D3E7854696D657250657269C0
S31502004FC86F64496E5469636B73203E203020290052
S31502004FD86261642064616300080009000C000A0427
S31502004FE803030006070A0904524120743D30303093
S31502004FF830206164633D303030302F30303030201D
S31502005008696E3D30300D0A0000883540008735400C
S31502005018008235400000000000000100080200007E
S315020050280000010009020000000001000A02000057
S31502005038000001000B0200000400000020500002DC
S3150200504800000000020403040404D4D4000000682B
S315020050580000006800000080000000802000002296
S3150200506820000022090000008450000215000000FA
S31502005078F0500002030000005450000200000068CD
S31502005088000000680001000D0000006800000068CA
S315020050980001000D000000800000008000010008E9
S315020050A800000080000000800001000800000000E7
S315020050B8000000000100000500000020000000209A
S315020050C80100000420000022200000220000000344
S315020050D84C040022741100220000000374110022FD
S315020050E87411002200000003000000680000006836
S315020050F8000000900001090D000000680000006829
S315020051080000000800010E0D00000068000000689B
S31502005118000000270001020D000000680000006878
S31502005128400000020001010D00000080000000801E
S3150200513800000090000109080000008000000080BD
S315020051480000000800010E08000000800000008030
S31502005158000000270001020800000080000000800D
S3150200516840000002000101080000000000000000E3
S31502005178000000900101090500000000000000007F
S315020051880000000801000E050000000000000000F3
S3150200519800000027010002050000000000000000D0
S315020051A84000000201000105000000200000002066
S315020051B80000009001010904000000200000002000
S315020051C80000000801000E04000000200000002074
S315020051D80000002701000204000000200000002051
S315020051E84000000201000104000000220000002223
S315020051F800000090000109030000002200000022BE
S315020052080000000800000E03000000220000002231
S31502005218000000270000020300000022010000220D
S3150200522840000002000001037411002274110022DA
S31502005238410000020000010300000100020008000C
S31502005248100020000400000000000606362E362E46
S3150200525830004275696C7420776974682052656EED
S315020052686573617320416476616E63656420466C7A
S31502005278657869626C6520536F667477617265201A
S315020052885061636B6167652076657273696F6E201C
S30B02005298362E362E300010
S30902C9F040FFFFFFFFFF
S30902C9F044EFFFFFFF0B
S30902C9F0C0FFFFFFFD81
S30902C9F0C4FFFFFFFF7B
S30902C9F120000000001A
S30902C9F1240000000016
S70502002DF9D2
