S0100000504F435F524138502E73726563B8
S3150200000020040022693600026133000273360002C0
S31502000010733600027336000273360002733600022C
S315020000200000000000000000000000009122000213
S315020000307336000200000000A9220002112300020A
S30902000040007E000234
S315020000801048134A016841F4700101604FF4802060
S31502000090BFF34F8FBFF36F8FE1EE100A0B490A4889
S315020000A007F0CEFE0B4800210B4A07F0D3FE0B48A1
S315020000B007F0E4FE07F0F4FE0020002102F069F8E2
S315020000C0FEE700BF88ED00E00000002240000002CB
S315020000D0040000004C040022340D000080110022AE
S315020000E02DE9F04182B000284FF0FF3400F0C981BB
S315020000F00E46002900F0C5811546002A00F1C1818D
S3150200010001680746A9B1002D00F0BB8130460124E3
S31502000110082200F8012B00BFA5420CD001F07F0295
S31502000120C90918BF803204F1010400F8012BF3D18A
S3150200013003E0002401E04FF0FF347868A8B1AC4236
S3150200014080F09D81102131550134311900BF00BF65
S31502000150A54200F0948100F07F02C00918BF8032E8
S3150200016004F1010401F8012BF2D1002C00F189817E
S31502000170B86840F24C480028C2F2002800F0CD8050
S31502000180F968A9B14046082200F8012B002200BFF7
S3150200019001F07F03C90918BF803302F1010200F89A
S315020001A0013BF5D13969501CC1B1BE2A03D919E008
S315020001B03969D1B10020102208F80020013008EB7D
S315020001C0000200BF00BF00BF01F07F03C90918BFCC
S315020001D0803300F1010002F8013BF5D17969C9B11A
S315020001E0BF2807D94FF0FF3014E07969002900F0E3
S315020001F06E810020182208F80020013008EB000268
S3150200020001F07F03C90918BF803300F1010002F82B
S31502000210013BF5D1B96989B1BF2824D8202208F853
S315020002200020013008EB000201F07F03C90918BF64
S31502000230803300F1010002F8013BF5D1F969A1B161
S31502000240BF2810D8282208F80020013008EB000247
S3150200025001F07F03C90918BF803300F1010002F8DB
S31502000260013BF5D101E04FF0FF30396AB9B1BF2841
S3150200027013D8302208F80020013008EB000200BF34
S31502000280C0280AD001F07F03C90918BF803300F1E4
S31502000290010002F8013BF3D101E04FF0FF30796A29
S315020002A0C9B1BF2815D8382208F80020013008EB5A
S315020002B0000200BF00BF00BFC0280AD001F07F03C2
S315020002C0C90918BF803300F1010002F8013BF3D1DE
S315020002D001E04FF0FF30B96A79B1BF2805D8BF28CF
S315020002E04FF0400108F8001002D14FF0FF3004E051
S315020002F008EB0001023001224A7007F12C020921A3
S3150200030001F04AFE0323009030462946224600F0B9
S31502000310FBF80446002800F1B280F86BE8B14146CA
S3150200032008203A6C01F8010B012000BF00BF00BF94
S3150200033002F07F03D20918BF803300F1010001F8F1
S31502000340013BF5D10423009030462946224600F0AF
S31502000350DBF80446002800F19280786CE0B1414651
S315020003600820BA6C01F8010B012000BF00BF00BFD4
S3150200037002F07F03D20918BF803300F1010001F8B1
S31502000380013BF5D10523009030462946224600F06E
S31502000390BBF80446002872D4F86C80B340460821A4
S315020003A03A6D00F8021B002102F07F03D20918BF42
S315020003B0803300F8013C00F1010001F10101F3D1A3
S315020003C0BE2910D87A6D0231102300F8013C00BF15
S315020003D002F07F03D20918BF803301F1010100F850
S315020003E0013BF5D101E04FF0FF3106230091304683
S315020003F02946224600F088F8044600283FD4B86D04
S3150200040068B10021384600F0AFF807230090304665
S315020004102946224600F078F8044600282FD4786F41
S3150200042068B10121384600F09FF808230090304653
S315020004302946224600F068F8044600281FD4D7F859
S315020004409400F0B1D7F89810F9B14046082200F8A6
S31502000450012B002200BF00BF01F07F03C90918BFAC
S31502000460803302F1010200F8013BF5D1D7F89C1066
S31502000470501CF9B1BE2A0CD94FF0FF301AE04FF0EA
S31502000480FF34204602B0BDE8F081D7F89C10002068
S3150200049081B1102208F80020013008EB000200BFEB
S315020004A001F07F03C90918BF803300F1010002F889
S315020004B0013BF5D107F1A002032101F06DFD0923ED
S315020004C0009030462946224600F01EF8DAE7B9695E
S315020004D009B10020A2E6F96909B10020B2E6396A3B
S315020004E009B10020C5E6796A09B10020DBE6B86ADF
S315020004F028B1402088F8000000204146FAE6002094
S31502000500FBE6D4D4D4D4D4D4B0B5049D4FF0FF3492
S31502000510002D1CD48A421AD2DB00541C02338354A7
S315020005202A4600BF00BF00BFA1420ED002F07F03E1
S31502000530D20918BF8033035504F10104F4D1002C0B
S3150200054003D425B1491B8C4203DD4FF0FF3420460C
S31502000550B0BD40F24C412044C2F200212A4607F0C7
S315020005606FFC2C44F3E7D4D42DE9F0478A460029E0
S315020005704FF07801044608BF5C2140584FF08002D4
S315020005804FF07C0140F24C4904BF642260214FF0D7
S3150200059088034FF08C06C2F20029224404BF6C2362
S315020005A0702667584946E35C54F80680082601F827
S315020005B0026B002600BF00BF00F07F05C00918BF0E
S315020005C0803501F8015C01F1010106F10106F3D162
S315020005D0BE2E10D8102001F8010CB01C00BF00BFBF
S315020005E007F07F06FF0918BF803600F1010001F807
S315020005F0016BF5D101E04FF0FF30032101F0E0FC81
S31502000600BF2805D8BF284FF0200109F8001002D1F3
S315020006104FF0FF3007E009EB0001B8F1000F5FEA87
S315020006200F9202304A70BAF1000F08BFBDE8F08798
S31502000630BF2807D8D4F89010BF284FF0280209F82F
S31502000640002003D14FF0FF30BDE8F08709EB00022E
S3150200065000295FEA0F9102305170BDE8F087D4D4C9
S315020006602DE9F04F87B000294FF0FF3800F1E58100
S315020006700746002800F0E1819346002A00F0DD815A
S315020006808A46C821584607F0A5FBBAF1000F4FF07B
S3150200069000080497CDF814A000F0CF814FF00009AE
S315020006A0DDF810E009F101000EEB090109F1020380
S315020006B04A1C0025002400BF11F9016B06F07F07D2
S315020006C0002E07FA04F745EA070511D5152C00F2A4
S315020006D0B2810734824500F1010009F1010902F1F4
S315020006E0010203F1010300F0A681E5E700BF00BFA6
S315020006F005F007014FEAD50C0229069024D1A5F18F
S315020007001804372C20D8504580F2958182455AEA42
S31502000710C0800024C0F10101002000BF00BF00BF5D
S3150200072012F9015B05F07F06002D06FA04F640EA8F
S31502000730060032D5152C00F27E8101330734CD181E
S31502000740022D00F07881EBE741B104A800F076FAB9
S31502000750002800F07081DDE905A9FBE0504580F232
S315020007606A8182455AEAC0800023411E002000BFEA
S3150200077012F9017B07F07F06002F06FA03F640EA1C
S31502000780060040F1B080152B00F2558109F10109EE
S315020007900733494500F04F81EAE7BAEB0301C0F29D
S315020007A04A818142C0F047810EEB0301CDE9001078
S315020007B0ACF1030103EB00090529CDF80880CDF859
S315020007C0189000F2CB80DFE801F003B1A1A89CBB30
S315020007D001284FF00101CBF80810C0F2BB800022BD
S315020007E0824252EAC08C80F226810099541C11443E
S315020007F0002501F1010E002311F9016B06F07F07B6
S31502000800002E07FA03F745EA07050BD5152B00F26A
S3150200081012810132073301340EF1010E944500F0C4
S315020008200A81E9E74FEAD50C531C05F00701BCF132
S31502000830090F029308BF022904D089B1684600F065
S31502000840FDF905E0102268460BF12C0101F0E5FBEB
S31502000850002800F0F080DDE901028242C0DB79E087
S31502000860834280F2E880A04250EAC4800023411EFF
S3150200087000201EF9014B04F07F05002C05FA03F552
S3150200088040EA050008D5152B00F2D5800132073360
S31502000890914200F0D080ECE7ACF101010232072967
S315020008A00292D8D8DFE801F004160A0D07191C10C7
S315020008B0CBF80C00CFE7CBF81C00CCE7CBF8140042
S315020008C0C9E7CBF81800C6E700285FEA0F90CBF815
S315020008D02800C0E7CBF81000BDE7CBF82000BAE746
S315020008E0CBF82400B7E7BCF1010F09F10209CDF8F4
S315020008F0189000F09D80BCF1020F2BD1CBF80400BA
S3150200090028E000220120CBF858001DE00120CBF898
S31502000910440068460BF148010EE00120CBF84C007A
S3150200092068460BF150010BF1540206E00120CBF8A8
S315020009303C0068460BF1400103AA00F0A9F807E063
S315020009400120CBF8740001226846594600F0D8F817
S31502000950002870D0D145FFF6A3AE72E001284FF011
S315020009600101CBF89410F5DB0022824252EAC08CD8
S3150200097061DA0099541C1144002501F1010E00238D
S3150200098011F9016B06F07F07002E07FA03F745EA15
S31502000990070509D5152B4ED80132073301340EF15E
S315020009A0010E944547D0EBE74FEAD50C531C05F0F0
S315020009B00701BCF1030F029308BF022904D079B1E3
S315020009C0684600F03BF905E0282268460BF1A001D3
S315020009D001F023FB78B3DDE901028242C5DBB9E708
S315020009E0834228DAA04250EAC4800023411E002036
S315020009F01EF9014B04F07F05002C05FA03F540EAC7
S31502000A00050006D5152B16D801320733914212D0AE
S31502000A10EEE7BCF1020F02F10201029105D0BCF130
S31502000A20010FD8D1CBF89800D5E7CBF89C00D2E7D6
S31502000A30CBF800008EE74FF0FF38404607B0BDE81E
S31502000A40F08F4FF00008F8E7B0B5D0E901324FF069
S31502000A50000E9A4252EAC38C6FF0060300BF00BF33
S31502000A6094450FD00568541C84600733AA5602F0D9
S31502000A707F05002A05FA03F54EEA050E04D5152B65
S31502000A802246EDD90020B0BD0120C1F800E0B0BD7C
S31502000A902DE9F04383B00D46002106462960116018
S31502000AA0D0E90101814224DA914602AF0DF1040830
S31502000AB030463946FFF7C8FFE8B1029C304614F0CB
S31502000AC0070105D000F0BAF8A8B10EE000BF00BFDA
S31502000AD04146FFF7B9FF70B1E1082846012902D065
S31502000AE00229484601D101990160D6E901018142F4
S31502000AF0DEDB012000E0002003B0BDE8F083D4D4A1
S31502000B002DE9F04F85B00446D0E90103834280F215
S31502000B108C8015460E460DF10C0A4FF00009EB4685
S31502000B2020465146FFF790FF002800F08380039885
S31502000B30C70800F00701032F08BF022908D0204684
S31502000B4091B300F07BF8002800F0748068E000BFE3
S31502000B50204604A9CDE90099FFF776FF002869D05F
S31502000B60D4E90107B84265DBDDF81080C01B4045B9
S31502000B7060D3B8F1090F5AD2B8F1000F05D0206838
S31502000B804246C119584607F05BF908EB0700A06018
S31502000B90DDB106F180005946424607F051F986F862
S31502000BA088803DE000BF00BF02A9FFF74DFF002885
S31502000BB040D09DB1781E042832D8DFE800F0031F2A
S31502000BC0311822000298B0672AE006F164005946FD
S31502000BD0424607F035F986F86C8021E0042F1AD0D8
S31502000BE0022F15D0012F1BD10298F06518E002984A
S31502000BF000285FEA0F90C6F88C0011E00298F067B1
S31502000C000EE0029800285FEA0F90C6F8900007E00F
S31502000C100298306604E0029800285FEA0F90306777
S31502000C20D4E901018142FFF67BAF012003E008EB24
S31502000C300700A060002005B0BDE8F08F10B582B0B5
S31502000C40044601294FF0000001900BD0022903D07F
S31502000C50052916D1042006E001A92046FFF7F4FE75
S31502000C6010B909E008200190D4E90110814203DBA2
S31502000C70019A091A914201D2002002E01044A060B2
S31502000C80012002B010BDD4D44FF6FF72F8B101298B
S31502000C901DDB70B54FF0000C082441F2210300BFA2
S31502000CA010F80C5044F001E082EA052200BF00BFB2
S31502000CB015B25600002D48BF83EA420632460FF0AF
S31502000CC009C80CF1010C8C45EAD1BDE8704090B21E
S31502000CD07047D4D4D4D4D4D42DE9F04383B0DDF80C
S31502000CE028904FF0FF34B9F1C00F00F28280DDF890
S31502000CF02C80B8F1000F00F07C80002B5FEA1F9772
S31502000D00B9F1000F5FEA0F9427424FF0FF3470D11A
S31502000D1009F10A070C9EBE426BDB01278DF80670AD
S31502000D208DF807008DF808108DF8092000204FF67F
S31502000D30FF750DF10601082741F221028DF80A908E
S31502000D408DF80B0000BF00BF0E5C47F001E085EA9C
S31502000D50062500BF00BF00BF2C462EB26D00002E36
S31502000D6048BF82EA44050FF009C801300628EBD1D4
S31502000D70A8B24FEA1027EBB1B9F1000F1AD0002042
S31502000D80082241F2210100BF1F5C42F001E085EA20
S31502000D90072500BF00BF00BF2F462EB26D00002EF2
S31502000DA048BF81EA47050FF009C801304845EBD133
S31502000DB0A8B2070ABDF80A10B9F1000F45F6A52038
S31502000DC0A8F80000DDF80600C8F80200A8F8061028
S31502000DD008D008F1080019464A4607F031F809F129
S31502000DE0080000E0082008EB0001841C08F8005007
S31502000DF04F70204603B0BDE8F08320B180B5D02104
S31502000E0006F0E8FF80BD70472DE9F041002800F0AA
S31502000E10A48002780A2A00F28E80DFE802F02D060C
S31502000E20181E113135228115390000235A2908BFAF
S31502000E300223A5294FF0000208BF012303708DE0AB
S31502000E408170C172052187E001720A2184E00129BD
S31502000E5074D10121417203217EE041708172042125
S31502000E607AE08288817342EA0122828093B2C12BA0
S31502000E704FF00003C38068D3A5295FEA1F916BE098
S31502000E80C1700173062167E081804173072163E027
S31502000E9090F808C000F109084FF6FF7400230826EF
S31502000EA041F2210500BF00BF18F8037046F001E0C9
S31502000EB084EA072400BF00BF27B26200002F48BFA2
S31502000EC085EA440214460FF009C80133062BEBD11A
S31502000ED083884CEA012CDBB100F10F0800210822BD
S31502000EE041F2210500BF00BF18F8017042F001E08F
S31502000EF084EA072400BF00BF27B26600002F48BF5E
S31502000F0085EA440634460FF009C801319942EBD10D
S31502000F10A1B200230370C3808C455FEA1F921DE0D5
S31502000F20C2888388561C0244B5B2C6809D42D173DC
S31502000F3013D3092110E0002202700FE0A5295FEA0F
S31502000F401F9101700022C28008E04FF6FF710A422B
S31502000F504FF0080151EA1191017000221046BDE8D6
S31502000F60F08128B32DE9F0410F464FF4557104463E
S31502000F701E46904606F02EFF36B104F1D0000ECE84
S31502000F800EC096E82E002EC0032084F8EC70B8F14D
S31502000F90000F4FF0D00108BF012084F8ED004FF09A
S31502000FA00040C4F8F400204606F014FFBDE8F081C4
S31502000FB07047D4D4D4D4D4D42DE9F04182B00028D9
S31502000FC000F09C810446FFF71FFF002800F096817F
S31502000FD0607820B194F8EC10884240F08F8104F5D5
S31502000FE02375C821284604F5E2760127C4F8F07075
S31502000FF006F0F0FEA18804F10F003246FFF730FB3F
S3150200100010B3E0780221C4F88C020020C4E9C8704B
S315020010104FF00C0EC4F8281349F27921C0F20021D0
S3150200102004F54B700131622200F8012B11F8012BF5
S315020010300FF007C0002084F838032046294602B084
S31502001040BDE8F04100F0A5B9306800B9E078D4F8FF
S31502001050C811C4E9A3014A1E052A00F28480DFE80A
S3150200106002F00303320F9D55D4F8E8200120002A2E
S31502001070C4F89402E1D0D4F8D00029469047DCE7C0
S31502001080D4F8080228B1D4F80C12B1F5805FC0F08A
S31502001090AD8004F5487301200421022207C34FF0F4
S315020010A0070E49F24F51C0F2002104F54B7001318F
S315020010B0622200BF00BF00BF00F8012B11F8012B0E
S315020010C00FF007C08EE0D4F8000220B1D4F8041263
S315020010D01029C0F0908004F54873012003210222F2
S315020010E007C34FF00B0E48F23B41C0F2002104F554
S315020010F04B700131622200BF00F8012B11F8012B5F
S315020011000FF007C0002084F8370396E7D4F81C02D4
S3150200111080B1D4F8201201290CD894F83032A3F108
S315020011200900C0B2F82805D3D4F82422B2F5006F1C
S31502001130C0F0818004F5487301200621022207C30C
S315020011404FF0070E48F25F01C0F2002104F54B7022
S315020011500131622200BF00BF00F8012B11F8012BFA
S315020011600FF007C03EE00120C4E9C801C4F8280315
S315020011704FF00F0E49F20711C0F2002104F54B7031
S315020011800131752200BF00BF00F8012B11F8012BB7
S315020011900FF007C0002084F83B034EE7D4F8100294
S315020011A040B1D4F81412032904D8D4F81822B2F59F
S315020011B07A7F29D904F5487301200521022207C343
S315020011C04FF0070E47F68071C0F2002104F54B700E
S315020011D00131622200BF00BF00F8012B11F8012B7A
S315020011E00FF007C0002084F8330326E7D4F8DC208A
S315020011F022B9042014E0D4F8D82082B1D4F8D00061
S315020012009047D4F8C8010BE0D4F8E030ABB3D4F879
S31502001210D00098470028D4F8C80101D02EE0032058
S3150200122001210022C4F82013C4F82403C4F8282399
S3150200123084F82C2301E7D4F83472002F35D094F8C1
S31502001240ED00800731D401200621C4E9C8014FF020
S31502001250120EC4F8280349F27331C0F2002104F5D4
S315020012604B700131632200F8012B11F8012B0FF0AC
S3150200127007C0002084F83E03DFE605200121022292
S31502001280C4E9C8104FF0070EC4F8282347F6807148
S31502001290C0F2002104F54B700131622200F8012BE5
S315020012A011F8012B0FF007C09CE7D4F8E46046B3AF
S315020012B004F50A78D4F8D000CDE900374346B047A2
S315020012C00028D4F8C8011DD10121C4E9C81020465E
S315020012D029460022C4F8282384F82C2300F059F862
S315020012E094F8201294F83002D4F82422D4F8343236
S315020012F0CDE900032046434600F07DF802B0BDE882
S31502001300F081062001210222C4E9C8104FF0080E1E
S31502001310C4F8282349F26D01C0F2002104F54B708E
S315020013200131632200F8012B11F8012B0FF007C0DF
S31502001330002084F8340380E6B0B548B30446D0F8FA
S31502001340F00028B304F52670BC2104F5237506F0D7
S3150200135041FDD4F8F400D4F8E820411C0123B1F190
S31502001360004F4FF0004151EA9091C4F8F4104FF04B
S315020013700201C4F88C02C4E9A4131AB1D4F8D0004D
S315020013802946904720462946BDE8B04000F001B8FC
S31502001390B0BDB0B584B00446D0F8D40048B30D460B
S315020013A040F21851C2F20021C0222846FEF798FEEA
S315020013B000281ED494F8ECC094F8ED102A7840F276
S315020013C0185380B20090C2F20023604604F1F80579
S315020013D04FF0CA0ECDE9015EFFF77EFC002808D465
S315020013E0D4E9341382B20846294604B0BDE8B040B7
S315020013F0184704B0B0BD2DE9F04F81B000283ED0A9
S315020014000A9E0446A6F1090010F1080F37D31D46BD
S31502001410ABB3D4F8F00090B30F4604F52470C421A0
S315020014209046DDF82CA004F5237906F0D3FCD4F817
S31502001430F400C4F88C02411C3246B1F1004F4FF061
S31502001440004151EA909104F54370C4F8F41029461C
S315020014504FF0010BC4E9C0B7C4F8088306F0F0FCEC
S31502001460BAF1000F5FEA0F9084F814634946C4E9A3
S31502001470C60B204601B0BDE8F04FFFF78ABF01B0A8
S31502001480BDE8F08FD4D4D4D4B0B542F017C048F238
S3150200149004724FF2BF2C0020C4F23502CFF6FC7C58
S315020014A00B5C644600BF00BF013403D2556CAD002D
S315020014B0FAD5137001300FF00DC8B0BD084600F022
S315020014C003B8D4D4D4D4D4D440F2155240F6107C06
S315020014D0C2F20022C2F2002C00F00F011170EFF3EB
S315020014E01080012282F31088DCF800203AB940F617
S315020014F014520023C4F240021370402313702DE9E4
S31502001500F041DCF800204FF0040E0132CCF8002046
S3150200151080F3108849F27C5340F6000443F6FA75CC
S315020015200022C0F200236FF03F08C4F24004CFF657
S31502001530FE7500BF00BF00BF33F8026BF7B208EAC0
S31502001540960606EB870621FA02F707F00107013233
S31502001550305928403844043030510FF013C8012165
S31502001560EFF3108081F31088DCF8001021B1DCF86B
S3150200157000100139CCF80010DCF8001039B940F639
S3150200158014510022C4F240010A7080220A7080F3CC
S315020015901088BDE8F08140F2165043F20002C2F212
S315020015A00020C4F223026FF31F31018011807047BD
S315020015B04FF0FF30B2F57A7F98BF032900D9704702
S315020015C040F2D853C2F200231B78002BF7D04DF21B
S315020015D08F00C0F2030002FB00F044F6D352C1F2C0
S315020015E06202A0FB020342F20012C4F232024FEA86
S315020015F0931051B1022904D0012909D102F15001F7
S315020016000EE042F60042C4F2320202F14C0107E059
S3150200161042F6004102F51062C4F23201A1F5DA7116
S315020016204FF42543136008600020704780B582B0EE
S3150200163000200029C4F23800059900F500509C46A6
S3150200164004BF0020C4F2380000295FEA0F9E11464B
S31502001650049B6246CDF800E000F006F8013802B0BD
S3150200166080BDD4D4D4D4D4D44FF0000CBCEBD12F4B
S315020016702DD162B380B5A3F1090E1EF1080F24D352
S3150200168090F870C05FEACC7C1DD1DDF808C08904F1
S31502001690C0F804161907C0F80816BCF1000F18BFE7
S315020016A04FF0040CC0F80CC600F5C26143F001E02D
S315020016B012F8013B01F8013B0FF007C04FF0010C95
S315020016C080F870C001E04FF0000CBDE88040604633
S315020016D0704770B540F2125C40F20C50C2F2002C18
S315020016E040F2145EC2F2002040F21052C2F2002E04
S315020016F0BCF8003040F2155CC2F20022C2F2002CA5
S3150200170006689EF8000040F2165E1588C2F2002EA8
S315020017109CF80020C1E9053001F11C00BEF800402A
S315020017204FF0020C4FF0010E80E8141044F25210F2
S31502001730C1F828E0C1E90365C5F23800C862312064
S31502001740088670BDD4D4D4D48CB0EFF310810120B6
S3150200175080F3108840F61070C2F2002002683AB98F
S3150200176040F614520023C4F2400213704023137051
S31502001770026840F60006C4F24006013202601022F8
S315020017801023C0F20142C0F2015381F3108802F520
S315020017907C71C6F84813C6F84C2303F57C77C6F865
S315020017A02472C6F82032C6F8041240F20041C1F291
S315020017B00101C6F80822C6F8F41001F11002C6F8B3
S315020017C0F020C6F8A41140F20041C6F8A821C0F2E2
S315020017D0016131647164B164F164502140F20042E6
S315020017E0C0F20171C6F80011C0F20132C6F8041146
S315020017F072653265C6F84421C6F828221021316284
S3150200180071623163C6F828110421C6F8CC10C6F8F5
S315020018108011C6F89C12C6F824114FF40042726079
S31502001820F261B26340F60042C1F20132C6F83822D2
S31502001830C6F83C22C6F81C21C6F8401140F2004107
S3150200184040F60042C1F20161C1F60102C6F8D0209B
S31502001850C6F8D420C6F8D820C6F8DC20C6F8E82098
S31502001860C6F8E420C6F85822C6F85C22C6F86022FA
S31502001870C6F86422C6F89820C6F85422C6F83C1167
S315020018801031C6F838110521C6F8E0110122EFF32E
S31502001890108182F31088026812B10268013A02606E
S315020018A0006838B940F614500022C4F240000270B3
S315020018B0802202704FF2BF2481F3108848F200752D
S315020018C048F204260120CFF6FC74C4F23505C4F2B0
S315020018D0350601F000FE43F2040043F2FF52C4F261
S315020018E02000CDF67B6201681140016041684FF627
S315020018F0FF7221F0406141608168CBF6D77221F414
S3150200190040118160C1681140C1600068012001F088
S31502001910BBFD01204FF47A7101F0D4FC0020C5F81A
S3150200192008014FF48071C5F8141148F21072C5F817
S3150200193010214FF08053C5F80C311127C5F80871F4
S31502001940A86069612A61EB60AF607060316143F241
S315020019501021C0F22001F160B36077604FF0140EDF
S3150200196048F2EB515222C0F2002100BF00BF00BF75
S31502001970234600BF00BF00BF013305D2D5F8487128
S31502001980BF00F9D585F8042101300A5C0FF011C0B9
S315020019904CF200114EF20009C4F23501C4F22509D7
S315020019A04FF000083D2081F8008081F8028088729D
S315020019B081F808804FF4E06008824820087099F8A0
S315020019C00000012742F2000648F2000A00F07F00FA
S315020019D089F8000099F80000C4F23806C4F2330A06
S315020019E040F0400089F8000099F8000040F08000BD
S315020019F089F8000099F8020000F08F00303089F86B
S31502001A000200262089F8110089F8100089F804706E
S31502001A10302089F8050099F800100020C4F2380039
S31502001A2001F0BF0189F8001000F01EFB304600F0FD
S31502001A301BFB40F2D8504DF28F03C2F2002040F257
S31502001A4006164FF425410222077042F20010C4F234
S31502001A5032004EF64707C0F20303C0F201070160E7
S31502001A6040F8F82CC0F82C804366C7644FF223472F
S31502001A700765C0F206164663016040F8FC2C42F682
S31502001A800022C4F232024FF48056C2F8001240F825
S31502001A90F86CC2F82C82C2F86432C2F84C724FF467
S31502001AA08377C2F83472C2F8001240F8FC6C1160F7
S31502001AB04FF4806640F8F86CC2F82C80536647F6FD
S31502001AC01123D3645763116040F8FC6CDAF8000006
S31502001AD040F00100CAF80000204600BF00BF00BF68
S31502001AE0013006D248F20001C4F233014968C9073F
S31502001AF0F6D048F2000143F20002C4F23301C4F206
S31502001B0023024FF00210002788604FF02010C1F820
S31502001B1040024FF48070C1F800064FF4E060C1F84D
S31502001B201006C4F22507906844F2000640F480309D
S31502001B3090600020108050684FF47A7120F00040C7
S31502001B4050605068C4F2350640F001005060388893
S31502001B5040F480603880012001F0B4FB388820F020
S31502001B6040003880388820F020003880388840F0DD
S31502001B7001003880388840F010003880306840F024
S31502001B8001003060204600BF013002D23168C90729
S31502001B90FAD140F2DC564FF42171C2F2002606F168
S31502001BA0D00006F017F941F2894006F1D40EC0F2D0
S31502001BB0002041F2BD4141F2975241F2B15341F246
S31502001BC02D6741F2D36CC0F20021C0F20022C0F2AE
S31502001BD00023C0F20027C0F2002C8EE88F1040F2DC
S31502001BE00230A6F8EC004FF00040C6F8F400D0210F
S31502001BF0304606F0EFF845F6294447F2A307CCF241
S31502001C008F24C0F63D276FF03F0A4FF0010B0020EC
S31502001C10029000BF00BF00BFA86CC00148BF287871
S31502001C20A86CB0F1FF3F04DC29783046FFF7C4F90F
S31502001C30F2E7029901FB04F0B84200F2A78140F2F2
S31502001C400C51D6F8F000C2F2002100280A688DF87D
S31502001C500F20904602F10100086016D100F00F0035
S31502001C60FFF732FC40F20C504FF47F61C2F20020C3
S31502001C70008801EA001040F21651C2F200210880E3
S31502001C8043F20001C4F223010880042049F2745190
S31502001C9040F001E040F600040020C0F200210022DC
S31502001CA0C4F2400400BF00BF31F8023B0AEA9307C0
S31502001CB0DBB2274457F823300BFA00F701309B07B3
S31502001CC048BF3A430FF011C040F214504FF47A71F4
S31502001CD0C2F20020027048F20000C4F23300C0F8DB
S31502001CE020BC012001F0EEFA4AF2000140F2105245
S31502001CF0C4F23301C2F2002247F65F1348F204240B
S31502001D0008681080486840F21251C2F20021CFF6EC
S31502001D10FE734CF2001247464FF2BF28088018465F
S31502001D20C4F23504C4F23502CFF6FC7800BF00BF18
S31502001D3001300DD2D1788906FAD51846177100BF3F
S31502001D40013005D292F90310B1F1FF3FF8DC1079A8
S31502001D5099F8090000F0EF0089F80900622089F875
S31502001D600100184600BF00BF013025D299F90910BB
S31502001D70B1F1FF3FF8DCA02089F81200184600BF37
S31502001D80013013D299F809104906F9D599F80900D4
S31502001D90C0060BD4184689F8127000BF00BF00BFF8
S31502001DA0013003D299F809104906F9D599F80100CC
S31502001DB040F0080089F801000020C4F2380090F8CB
S31502001DC07000C0071CD140F204600021C4F2380042
S31502001DD0C0F28C41002340F2231201604FF0805181
S31502001DE04160836007730020C4F23800002180F846
S31502001DF070B03046CDE900B30DF10F03FFF7FBFAE1
S31502001E0042F20000C4F2380090F87000C0071DD1FB
S31502001E1042F204600021C4F23800C0F68441002375
S31502001E2040F2213201604FF08051416083600773B6
S31502001E3042F20000C4F23800012180F870B0304648
S31502001E40CDE900B30DF10F03FFF7D5FAA0684FF401
S31502001E507A7120F01000A060A06840F02000A06017
S31502001E60012001F02FFAA06820F02000A060404671
S31502001E70013004D2616C8900FAD5552020703046B3
S31502001E80FFF75AFA49F284500DF1100CC0F2002005
S31502001E9061469CC89CC190E89C0040F20C50C2F27C
S31502001EA000209CC1006848F2B717C0F30331C0F2A4
S31502001EB00027C0F3032245F62944795CCCF28F242D
S31502001EC08DF81510B95C8DF8161040F21051C2F259
S31502001ED00021C0F3031200F00F000988BA5C8DF8E6
S31502001EE01720385C0A0BC1F303238DF81800B85C7F
S31502001EF0C1F303128DF81E00F85C40F212538DF8FE
S31502001F001F00C2F2002301F00F00B95C1B888DF896
S31502001F102010385C1A0B8DF82100B95CC3F303223A
S31502001F208DF82310C3F30311B85C03F00F028DF88A
S31502001F30240040F21450C2F20020795C8DF825107C
S31502001F40BA5C00788DF82620010900F00F00795C52
S31502001F50385C47F2A3078DF82B108DF82C0052201F
S31502001F606146C0F63D2700BF424600BF00BF00BF24
S31502001F70013205D2D5F848319B00F9D585F804011E
S31502001F8011F8010F08B12FF011C80299142001317E
S31502001F90029104F097F83FE670B5144612780646A9
S31502001FA05AB120460D4605F073FF034630462946D0
S31502001FB02246BDE8704000F003B8304670BDD4D466
S31502001FC070B5012B044626DBBF2C22D840F24C40CA
S31502001FD0C900C2F200201E4602310155194600BF51
S31502001FE0BF2C16D001F07F030519C90904F10104BB
S31502001FF018BF80336B70F3D1C6F1C0018C4208DA88
S31502002000204411460130324605F01AFF3019441CAD
S3150200201001E04FF0FF34204670BDF0B581B00D46A9
S31502002020694616460446FEF70FFD38B1D4E901109B
S31502002030814203DB009F091AB94202D2002001B095
S31502002040F0BD711E8F4257EAB186012E05DB21686B
S3150200205032460144284605F0F3FE0020A855A06842
S315020020603844A0600120EAE74FF2BF218269CFF629
S31502002070FC7122F0040282610A4600BF00BF00BF63
S3150200208001323ED2C3695B07FAD48269012363F344
S31502002090010282610A4600BF013232D2C369DB07FE
S315020020A0FAD0426822F0040242600A4600BF00BF2C
S315020020B0013226D283685B07FAD44268012363F3AE
S315020020C0010242600A4600BF01321AD28368DB0768
S315020020D0FAD040F6050240F60523C0F21462C0F2B9
S315020020E003230260C0F80031826922F00302826192
S315020020F0426822F003024260013102D2C269D2076B
S31502002100FAD17047022818BF704740F6301049F2DC
S31502002110D451C2F20020C0F2002100F053BAD4D446
S31502002120FFF712BB7047D4D4FFF7FCBF00BE70475F
S31502002130B0B540F638144FF0FF31C2F200242068E1
S3150200214002F0CAFA012803D020680021FFF7EEFF49
S3150200215040F63C10C2F20020017801B1B0BD012167
S315020021600170FFF7E1FF40F64015C2F2002500BFFD
S31502002170286801382860F1D0206800210022002357
S3150200218001F066FF0128F3D020680021FFF7CEFF99
S31502002190EEE780B540F63C1240F64010C2F200224D
S315020021A0C2F200200021117040F644120160C2F210
S315020021B000224FF48070012101F029FF40F6381108
S315020021C0C2F20021086018B900200021FFF7AEFF15
S315020021D000F020F804F0E8F9002080BD40F68C1CDF
S315020021E040F6EC13C2F2002CC2F20023C0F800C083
S315020021F00B6080201060704740F6EC3C40F64C4382
S31502002200C2F2002CC2F20023C0F800C00B6080208C
S315020022101060704780B584B040F6401049F2B05362
S31502002220C2F2002040F64C6C41F2881EC0F2002336
S3150200223001684FF48062013101600120009042F290
S315020022407D2048F63331C0F20020C0F20021C2F2EE
S31502002250002CC2F2002ECDE901EC03F0FDFB40F6A4
S31502002260AC61C2F20021086008B104B080BD002052
S31502002270002104B0BDE88040FFF758BF10B5044600
S31502002280FFF756FF2046BDE81040FFF749BFD4D4FA
S315020022901EF0040F0CBFEFF30880EFF3098001492B
S315020022A008470000372300020F4B1968EFF3098233
S315020022B01EF0100F08BF22ED108A22E9F04FEFF34D
S315020022C00B8342F8043D0A604FF0100080F3118838
S315020022D0BFF34F8FBFF36F8F04F03AF84FF0000051
S315020022E080F3118800F002B87C0F002207480168CB
S315020022F00A6802CA81F30B88B2E8F04F1EF0100F8B
S3150200230008BFB2EC108A82F3098870477C0F00225C
S3150200231010B51020EFF3118480F3118804F0DCF974
S3150200232030B14EF604504FF08051CEF200000160FB
S3150200233084F3118810BD806910F8020C022801D1BD
S31502002340FFF7D4BF042838BF704780B547F68870B8
S3150200235048F6172248F2C813C0F20020C0F2002243
S31502002360C0F200234FF47E7100F0A6FF283140F838
S31502002370481D42F299314FF0807CC0F2002122F0D2
S315020023800102C1630264C0F844C06FF00201C0E9F1
S3150200239009137047D4D4D4D400BE00BF00BF00BF17
S315020023A0FEE7D4D4D4D4D4D44EF62250F021CEF2C1
S315020023B00000017000F016F84EF63470CEF20000FE
S315020023C0016841F04041016062B6BFF36F8FEFF3DF
S315020023D0148C2CF0040C8CF31488BFF36F8F02DF7D
S315020023E000BEFDE740F6287044F6D351C2F2002043
S315020023F0C1F262010068A0FB01014FF0FF3000EB61
S3150200240091110020B0EB116F18BF70474EF2100207
S31502002410F023CEF2000251604EF62351CEF20001B5
S315020024200B70906007201060704700BE7047EFF394
S315020024301180102181F3118840F6B061C2F20021A9
S315020024400A68002A02F101020A6018BF704740F6C4
S31502002450B461C2F2002108604EF60450CEF20000CA
S315020024600068C00500D1704780B547F6887047F608
S31502002470AE7248F69D03C0F20020C0F20022C0F2FE
S31502002480002340F2A44100F017FF40F6B060C2F20A
S315020024900020016859B10139016018BF704740F642
S315020024A0B460C2F20020006880F31188704780B5DC
S315020024B047F6887049F2862247F6E463C0F20020A6
S315020024C0C0F20022C0F2002340F2AD4100F0F4FE59
S315020024D080B598B34EF6902EC4F2010E9EF8001007
S315020024E00A0722D04EF2FA324AF2025CC4F2010222
S315020024F0CFF6FF7C00201388A2F800C08EF80000F9
S3150200250043F425401080BFF34F8F30BFBFF36F8F68
S3150200251062B6BFF36F8F72B61088A2F800C08EF84B
S31502002520001040F42540108080BDBFF34F8F30BFAE
S31502002530BFF36F8F62B6BFF36F8F72B680BD80B581
S3150200254072B603F097FC0120FFF7C2FF62B6BDE840
S31502002550804003F0E9BC80B5EFF30380103840B247
S31502002560002806D44EF20041CEF20001405C0F284C
S3150200257017D94EF60C50CEF200000068400558BF3F
S3150200258080BD47F6887048F6007248F23F33C0F2C3
S315020025900020C0F20022C0F2002340F2216100F0C6
S315020025A08BFE47F6887048F6007249F2FC13C0F2B9
S315020025B00020C0F20022C0F2002340F20F6100F0B8
S315020025C07BFED4D480B545F25422C5F24F02026096
S315020025D0084600F021F9002080BD014600200022B5
S315020025E00A60704780B5084600F016F9002080BDE3
S315020025F070B586B001A8049003A814460D46ADF83E
S31502002600081001920126ADF80C6000F069F940F657
S315020026101070EFF31081C2F2002086F31088026870
S315020026203AB940F614520023C4F240021370402312
S31502002630137002680132026081F31088E10340F6EA
S3150200264000014FEA1522C4F2400101D4EBB20CE0BC
S3150200265001EB8216EBB256F8235025F4803546F884
S31502002660235024F4803546F8235001EB82110122CF
S3150200267041F82340EFF3108182F31088026812B109
S315020026800268013A0260006838B940F61450002226
S31502002690C4F2400002708022027081F3108800208A
S315020026A006B070BD04200023C4F24000CFF6FF73CB
S315020026B040EAD100C9B220F01B00006843EA10408C
S315020026C020FA01F1002001F001011170704780B576
S315020026D06FF00100002300EAD110C4F2400340F279
S315020026E00C0E012A43EA001C4FEA0013C4F2400E04
S315020026F0C8B24FF001015EF803204FF4803301FAAD
S3150200270000F103FA00F003D122EA0000014302E0DD
S3150200271022EA010101430020CCF80C1080BD6FF0C3
S315020027203F00CBB200EA910040F6000100EB8300C5
S31502002730C4F2400141580020C1F3400111707047B4
S3150200274010B5CBB2012098406FF0010E84B20EEAAA
S31502002750D110002A40F208024FF4803C4FEA0011E1
S31502002760C4F240024FF0000008BF0CFA03F45450C2
S3150200277010BD80B56FF0010040F2000C00EAD110E6
S31502002780C4F2400C010103EA020E62EA03025CF89B
S3150200279001004EEA000E002002EA0E024CF8012069
S315020027A080BD6FF0010000EAD11004210001C4F2DD
S315020027B0400109580020090C118070476FF0010092
S315020027C003EA020C00EAD11023EA02010C230201F9
S315020027D0C4F2400300204CEA0141995070476FF061
S315020027E00100042300EAD110C4F2400301010020D3
S315020027F05958118070476FF0010003EA020C00EA93
S31502002800D11023EA020108230201C4F24003002088
S315020028104CEA01419950704770B5044600F060F8E1
S3150200282040F6107CEFF31081C2F2002C012080F3F7
S315020028301088DCF8000038B940F614500022C4F2C1
S315020028404000027040220270DCF800000130CCF831
S31502002850000081F31088208828B340F6000E00217C
S31502002860C4F2400E00BF00BF606800EBC10250F820
S3150200287031309288D8034FEA1220D2B20BD50EEB32
S31502002880801555F8226026F4803645F8226023F436
S31502002890803645F822600EEB8010013140F8223076
S315020028A020888142E0D30120EFF3108180F3108863
S315020028B0DCF8000020B1DCF800000138CCF800009A
S315020028C0DCF8000038B940F614500022C4F2400089
S315020028D002708022027081F3108870BDD4D4D4D4E1
S315020028E02DE9F04F81B004460088002862D04EF6EA
S315020028F04C4B0025C4F2010B4FF0010A00BF00BF8A
S3150200290042F2400649F214680027C4F22006C0F2D9
S31502002910002800BF00BF00BF606838F8021B00EB4A
S31502002920C50082888A423DD100689BF8001000F0FB
S31502002930B8500AFA07F9B0F1807F09EA010017D107
S3150200294058B9012000F0C7FD9BF8000040EA0900D3
S315020029508BF80000012000F097FD96F90000002890
S3150200296020D4307840F0800017E000BF00BF00BFDF
S3150200297058B1012000F0AFFD9BF8000020EA0900E3
S315020029808BF80000012000F07FFD96F90000B0F1FF
S31502002990FF3F07DC307800F07F003070C82001214D
S315020029A000F090FC01370236032FB5D1208801359D
S315020029B08542A5D301B0BDE8F08FD4D4D4D4D4D403
S315020029C04EF2A001C4F201010A78D206FCD40870C4
S315020029D00878C006FCD4704740F2204205280868F1
S315020029E0C2F2002205D150614868D061886810623F
S315020029F07047906148685062886890627047D4D484
S31502002A004EF22401C4F201018878098801F00F020E
S31502002A10A2F1080103293BD8DFE801F0022C101EBF
S31502002A2040F22041C2F2002151F820004AF6AB21C1
S31502002A30CAF6AA21A0FB0101480830E040F2204173
S31502002A40C2F2002151F820004AF6AB21CAF6AA21A9
S31502002A50A0FB0101C80822E040F22041C2F2002197
S31502002A6051F820004AF6AB21CAF6AA21A0FB0101C1
S31502002A70080914E040F22041C2F2002151F8200078
S31502002A804AF6AB21CAF6AA21A0FB0101880806E094
S31502002A9040F22041C2F2002151F82000D04040F617
S31502002AA02871C2F200210860704710B54EF2200C60
S31502002AB04FF0030EC4F2010C030158BF4FF0010E92
S31502002AC0DCF80020032312F0006F4FF00702DCF857
S31502002AD0004004BF0F22012302EA1462C0F302641B
S31502002AE003FA02F20EFA04F3934204D2ACF804108B
S31502002AF0CCF8000010BDCCF80000ACF8041010BDF4
S31502002B004CF200000021C4F2130001700178017832
S31502002B10007870474CF20000C4F2130041686FF36C
S31502002B209F21652938BF7047012101707047D4D4AF
S31502002B302DE9F04F83B040F2204E0E468146C2F296
S31502002B40002E09014FF003011546C6F3026258BF73
S31502002B5001215EF8294091404EF2001342F2000034
S31502002B60C0F2F553C4F20000B4FBF1F729074FF0A7
S31502002B7003014AF201524FF0030A58BF012102979C
S31502002B809F4205F0070C274601940BD902800127C4
S31502002B90BFF35F8F07724FF42547BFF35F8F07803E
S31502002BA05EF829702B0B0122C5F302302CB202FA11
S31502002BB003F3002C48BF0AFA00F3300FC6F302747F
S31502002BC002FA00F04CF20008002EC4F2130848BFC5
S31502002BD00AFA04F04EF22604C4F20104B7FBF0FA34
S31502002BE0002088F8000098F8000098F8000098F88D
S31502002BF000005EF829002278B7FBF3FB44F23F2778
S31502002C005EF82220C0F20F07904201FA0CF0009003
S31502002C103DD21E20012100F055FB3046294684F89C
S31502002C200090FFF742FF4DF683600BEB0701C4F2FB
S31502002C301B30BBF5004FA1FB00124FEA9241D8F8B8
S31502002C40042098BF0021914208D001F1F05200BF42
S31502002C50C8F80420D8F804309942F9D10AEB0701E2
S31502002C60BAF5004FA1FB00014FEA9140D8F80810CF
S31502002C7098BF0020884247D000F1614100BF00BFE3
S31502002C80C8F80810D8F808209042F9D13CE04DF671
S31502002C9083600BEB0701C4F21B30BBF5004FA1FBAF
S31502002CA000124FEA9241D8F8042098BF00219142BF
S31502002CB008D001F1F05200BFC8F80420D8F8043059
S31502002CC09942F9D10AEB0701BAF5004FA1FB0001BF
S31502002CD04FEA9140D8F8081098BF0020884209D0E0
S31502002CE000F1614100BF00BFC8F80810D8F80820FB
S31502002CF09042F9D130462946FFF7D7FE1E20012120
S31502002D0000F0E0FA84F80090DDE90010B0FBF1F083
S31502002D10D8F804106FF39F21652902D3012188F8A0
S31502002D2000104EF2001140F62872C0F2F551C2F2BE
S31502002D3000220131029B10608B420FD242F2000147
S31502002D404AF20150C4F2000108800020BFF35F8FEF
S31502002D5008724FF42540BFF35F8F088003B0BDE8C9
S31502002D60F08F10B51E20012100F0ACFA40F6287053
S31502002D70C2F20020046846F20150C1F6CD508442E8
S31502002D801AD34EF2200040F6B862C4F20100C2F233
S31502002D900022818811800168C1F30362090E42EAAA
S31502002DA002131B0143EA013111448180FFF728FE19
S31502002DB01E20012100F086FA46F20050C1F6CD50DF
S31502002DC084425FEA9F9010BD10B504461E20012181
S31502002DD000F078FA8CB140F6B8604EF22401C2F2E5
S31502002DE00020C4F2010100880880FFF709FE1E20B8
S31502002DF00121BDE8104000F065BA10BDD4D4D4D488
S31502002E002DE9F041A0A04EF2FA38C4F201084AF2C6
S31502002E10015190ED001F40F22040CFF6FF71C2F241
S31502002E2000200231A8F800104CF600214EF60146A9
S31502002E304EF60047C3F69A314FF40042C0E9042128
S31502002E4044F2553148F200424EF2140580ED001F5D
S31502002E50C4F20106C4F20107C1F2DE31C1F2D77231
S31502002E60C4F20105C0E90712FFF7CAFD4FF650602A
S31502002E700A21CFF6FF703954092085F88E0038787A
S31502002E8018B93078800700F0F980387858B90120EF
S31502002E903870C820012100F015FA00BF00BF00BF3C
S31502002EA038780128FCD10020307038704AF2015679
S31502002EB0002085F82200A87795F828000007FBD5A0
S31502002EC04EF614504FF60211C5F8981040F25141D1
S31502002ED02987CEF20000BFF34F8FBFF36F8F0268D0
S31502002EE04EF2000122F4003202600022C0F83C22B7
S31502002EF0CEF20101BFF34F8FBFF36F8F0A6822F440
S31502002F0040520A60BFF34F8FBFF36F8F2A7802F0E9
S31502002F10F80201322A7000BF2A78D206FCD40A6867
S31502002F2042F440520A60BFF34F8FBFF36F8F0168BE
S31502002F30890312D4BFF34F8FBFF36F8F0021C0F8FE
S31502002F403C12BFF34F8FBFF36F8F016841F400311C
S31502002F500160BFF34F8FBFF36F8F0020A87500BFCC
S31502002F6095F828008006FBD54CF200070020C4F233
S31502002F70130738703878387838787868FA2807D09E
S31502002F80FA20C1F6006000BF78607968FA29FBD1A1
S31502002F90B8687D2808D07D20CEF2001000BF00BFA1
S31502002FA0B860B9687D29FBD143F23240C3F22320CF
S31502002FB0E86042F2201028820520A874FFF720FD5F
S31502002FC01E200121012400F07DF978686FF39F200D
S31502002FD0652828BF3C70FFF713FD42F200004FF44C
S31502002FE02541C4F200000680BFF35F8F0472BFF36F
S31502002FF05F8F018085F83F4095F8600040F0400001
S3150200300085F8600000BF00BF95F96000B0F1FF3F90
S31502003010FADC002085F85800402185F8601085F812
S31502003020600000BF00BF00BF95F960000028FBD416
S3150200303095F8620040F0400085F8620000BF00BFCC
S3150200304095F96200B0F1FF3FFADC002085F85A00DC
S31502003050C02085F8620095F8620000F0BF0085F88E
S31502003060620000BF00BF00BF95F962000028FBD4D2
S315020030704FF42540A8F80000BDE8F0814FF47A70BD
S3150200308000F00EF812E700BF006CDC0200127A00B4
S315020030900080000000366E014FF47A7100F012B91A
S315020030A07047D4D4D4D4D4D42DE9F04F81B04EF2A3
S315020030B0FA3143F20406C4F201018246C4F2200642
S315020030C04AF20350B1F8009008804FF0010B002538
S315020030D04FF480340127002004FA00F132680A42D4
S315020030E010D1EFF310888BF3108832680BFA00F0D8
S315020030F011433160316805431E20012100F0E2F8D8
S3150200310088F31088F8074FF001004FF00007E3D16B
S315020031104EF2750740F22041C4F20107C2F20021C5
S31502003120387800F00F0051F8200017F8081C01F05B
S315020031300F01022901D801220BE0CA1E052A06D276
S3150200314049F60801C0F2002151F8221003E00839BD
S31502003150102202FA01F1B0FBF1F04DF68361C4F2DE
S315020031601B31A0FB01016FF0010000EA5140012171
S3150200317000F0A8F8387840F04000387000BF00BF71
S3150200318097F90000B0F1FF3FFADC9AF8010007F860
S31502003190080C9AF8000040F0400038709AF80000D7
S315020031A0387000BF00BF00BF97F900000028FBD4AB
S315020031B000204FF0010A4FF48038012400BF00BFFF
S315020031C025FA00F1C90710D0EFF310878AF31088A9
S315020031D008FA00F0316821EA0000306030681E20EB
S315020031E0012100F06FF887F31088E0074FF0010025
S315020031F04FF00004E4D14EF2FA3149F42540C4F20C
S315020032000101088001B0BDE8F08F40F22041C2F210
S31502003210002151F820007047B0B542F22404C820BC
S31502003220C4F2200401210025257100F04BF8257017
S31502003230207808B12FF005C0207840F002002070F7
S3150200324020788007FCD4002004F8020C00BF00BFDF
S3150200325014F8020C08B12FF005C84FF0030E002037
S3150200326004F11C0100BF00BF11F8102002F07F021A
S3150200327001F8102000BF00BF11F91020002AFBD46C
S3150200328001300FF00FC8012000F025F94EF64C412F
S315020032900120C4F2010100220A70BDE8B04000F02C
S315020032A0F3B8D4D47047014600220020C0F2066269
S315020032B00A607047D4D4D4D400BE00BF00BF00BF9A
S315020032C0FEE7D4D440F6287241F20023C2F200226D
S315020032D0C0F27A03484312689A420FD344F23F215E
S315020032E0C0F20F0111444DF68362C4F21B32A1FBF8
S315020032F00212910CA0FB0101C9B11BE04CF60021A0
S31502003300C3F69A31B1FBF2F148F63812C0F2410225
S31502003310904205D24FF47A725043B0FBF1F006E0C8
S31502003320B0FBF1F0904205D24FF47A71484328B1CE
S3150200333000F006B84FF0FF3000F002B87047D4D460
S3150200334001380028FCD1704740F6BC630246C2F23F
S315020033500023002043F822107047D4D4D4D4D4D406
S31502003360F0B581B04CF2001540F6BC67C4F2000518
S315020033700024C2F200272868296A01EA000600BF73
S3150200338026FA04F0C00704D057F8241009B12046E3
S3150200339088470134152CF3D12E6100BF00BF00BF50
S315020033A0286A3042FCD101B0F0BDD4D400780021A5
S315020033B0C4F2020151F82000002818BF0820704705
S315020033C001780022C4F202020020012342F82130D1
S315020033D0704780B540F61471C2F20021086043F2CC
S315020033E0FF31C0F200211420FFF7AEFF4CF20011AC
S315020033F00020C4F200014FF480120A6080BD142836
S3150200340018BF704788200121C4F20200016040F60D
S315020034101470C2F20020006800B100477047942180
S315020034200020C4F2020101220A60704749F61C001C
S31502003430C0F20020008820B14CF20031C4F2000133
S3150200344008607047D4D4D4D470B50C468047D4B142
S31502003450C8B949F23460C0F2002084689CB1C068E1
S315020034604FF4602600F10805B5F80500B6EB002F0B
S3150200347005D155E902022968121A04F0E1FC013C61
S3150200348005F11005F0D170BDEFF31081012282F330
S31502003490108840F61C72C2F2002232F8103023B1B4
S315020034A032F81030013B22F8103032F810207AB987
S315020034B04EF2FA3249F61E0CC4F20102C0F2002C98
S315020034C013883CF8100043F4254323EA00001080D9
S315020034D081F31088704710B5EFF31081012282F351
S315020034E0108840F61C72C2F2002232F8103083B9FC
S315020034F04EF2FA3E49F61E0CC4F2010EC0F2002C40
S31502003500BEF800403CF81030234343F42543AEF89E
S31502003510003032F81030013322F8103081F310886F
S3150200352010BDD4D480B505487844026804F0A0FCE6
S3150200353001464FF0FF300C238B5080BD50630000D4
S3150200354070B543F600450446C4F2000500BF00BF4D
S3150200355095F8500008B12FF005C84FF08700A884EF
S315020035604FF0100028709CB10020FFF7B4FF4EF216
S3150200357053000126C4F2010006700020FFF784FF03
S3150200358085F8206000BF00BF95F850000007FBD405
S315020035900120A8700020687095F8500008B12FF03D
S315020035A005C842F20350C0F20500A4B14FF40C71F3
S315020035B0A5F8481000BF00BF95F85010C907FBD107
S315020035C06864012085F8400047F2A831A982A875EF
S315020035D01120287070BD6864012085F8400047F20A
S315020035E0A831A982A87500BF2878C007FCD195F832
S315020035F0500008B12FF009C00120287470BDD4D440
S3150200360043F600401021C4F20000017000BF00BF63
S315020036100178C907FCD190F8501009B12FF009C002
S31502003620012101747047D4D410B54EF25304C4F28A
S315020036300104207838B90020FFF74DFF01202070E1
S315020036400020FFF721FF43F60040C4F2000000BF4E
S3150200365090F8501009B12FF005C80021017411210C
S31502003660017010BDD4D4D4D400F006F8FEF791FD53
S31502003670FEE700BE7047D4D470B54EF6005540F250
S315020036800120CEF20005C0F20E004EF2000668617D
S31502003690CEF20106BFF34F8FBFF36F8F2968C1F3D6
S315020036A0035001285FEA1F9211F00F0F5FEA0F9194
S315020036B01142316811D102280FD241F00400306064
S315020036C04EF20800BFF34F8FCEF20000BFF36F8FAA
S315020036D0016841F48031016002E021F004003060AB
S315020036E0BFF34F8FBFF36F8F4FF4700040F20001AC
S315020036F0C5F888000020C0F20021A9600024FEF768
S3150200370001FDFFF77DFB4EF2FA304EF6B022C4F20F
S315020037100100C4F201024AF20251018014704FF410
S31502003720254101800120FEF7EDFC40F22000C2F2A5
S31502003730002080F30A883068800721D5A868B0F196
S31502003740007F1DD130694FF40071C0F3C300726966
S3150200375001FA00F3C2F3C30081400020DA08CB0865
S315020037600146064642F005C0E6E802010FF005C032
S315020037704FF0005243F005C0E2E802010FF005C027
S31502003780002000F099F8FFF73BF9FFF745FD03200B
S31502003790FFF7A1FE4FF00E0E40F63050C4F2400085
S315020037A020F8044B0FF005C04EF210140320C4F2A9
S315020037B00104FFF769FE0320FFF78DFE44F20400C1
S315020037C00021C4F22000016041608160C1600320D3
S315020037D0FFF75AFED4F8C802800714D42078A0B1A5
S315020037E00120FFF778FE00BF94F9000010F1410FA7
S315020037F0FADC0020207000BF20783F28FCD8012088
S31502003800FFF742FE01E0D4F8C802D4F8C802400726
S3150200381015D42079A8B10120FFF75DFE00BF00BFD5
S3150200382094F9040010F1410FFADC0020207100BF68
S3150200383020793F28FCD80120FFF726FE01E0D4F8C4
S31502003840C8020220FEF75EFC012000F035F841F2C4
S315020038508014C2F20024204604F030FB204604F015
S315020038600DFBBFF34F8FBFF36F8F0020C5F85002D9
S3150200387049F6800049F68001C0F20020C0F200211C
S31502003880BFF34F8F081ABFF36F8F8410012C08DB2A
S3150200389049F68005C0F2002555F8040B8047013C25
S315020038A0FAD1FFF7C3FD0020BDE87040FFF7FABC6E
S315020038B07047D4D4D4D4D4D4F0B581B049F23465A7
S315020038C00446C0F200252E6876B16868071D00BF5F
S315020038D07879844204D157E90101091A04F07AFA87
S315020038E0013E07F10C07F3D1AE6896B1E86800F124
S315020038F0080500BF00BF00BF6879844205D155E9BB
S3150200390002022968121A04F09BFA013E05F110051B
S31502003910F2D101B0F0BDD4D410B582B070B1044674
S31502003920182001900198182817D12046002140F846
S31502003930041B00F04FFA204602B010BD48F6911063
S3150200394048F6E30248F60163C0F20020C0F2002204
S31502003950C0F200235D21FFF7AFFC48F6911048F64E
S31502003960E30248F6FB03C0F20020C0F20022C0F2D6
S3150200397000236521FFF7A0FC2DE9F041B2F1807F1B
S315020039804BD21446002A57D098460F46054603F0F6
S315020039908DFAB8F1000F01D000285CD002F06AFA65
S315020039A0284639462E6800F067F83743F843204226
S315020039B003D12868A04328602AE0B8F1000F26D078
S315020039C0281D44F0A061424603F00DF802F0ACFA5D
S315020039D050B94EF604504FF08051CEF2000001600D
S315020039E0BFF34F8FBFF36F8F03F073FA0646800162
S315020039F00AD4FEF71CFD2E68F043204202D126EAC5
S31502003A0004002860FEF741FD26F07F4702E02F689A
S31502003A1002F08AFA3846BDE8F08148F6911048F27B
S31502003A20006248F25B53C0F20020C0F20022C0F2EC
S31502003A300023C521FFF740FC48F6911048F20062C8
S31502003A4048F29353C0F20020C0F20022C0F20023D3
S31502003A50C621FFF731FC48F6911048F2006248F29F
S31502003A605223C0F20020C0F20022C0F20023C92174
S31502003A70FFF722FCD4D4D4D42DE9F04198B30D46F5
S31502003A80B1F1807F3FD2044600F10C0802F0F2F950
S31502003A9027692068474540EA050020601DD00025B9
S31502003AA03846D7E9003723F07F4221685E0101EAF2
S31502003AB002060DD436B141F00071DB0148BF154351
S31502003AC003F0A6F84745EBD105E000BF00BF00BFF3
S31502003AD09642F0D0F6E72068A843206002F024FA66
S31502003AE02068BDE8F08148F6911048F2A52248F612
S31502003AF03E33C0F20020C0F20022C0F2002340F2A0
S31502003B003221FFF7D9FB48F6911048F2A52248F276
S31502003B106E63C0F20020C0F20022C0F2002340F21F
S31502003B203321FFF7C9FB2DE9F04381B000286ED09F
S31502003B300D46B1F1807F7AD2002D00F088800446CE
S31502003B401F469046DDF8209003F0B0F9B9F1000F58
S31502003B5002D0002800F08B8002F08CF9266816EA63
S31502003B6005005FEA1F91A8425FEA0F90002F51EA13
S31502003B70008000283FD0B9F1000F42D04146B8F18B
S31502003B80000F18BF4FF08071002F04F1040018BF18
S31502003B9041F0806129434A4602F025FF02F0C4F94A
S31502003BA050B94EF604504FF08051CEF2000001603B
S31502003BB0BFF34F8FBFF36F8F03F08BF90646800179
S31502003BC016D4FEF734FC266816EA05005FEA0F9162
S31502003BD0A8425FEA1F90002F51EA0080B8F1000F59
S31502003BE018BF002802D026EA05002060FEF74DFC29
S31502003BF026F07F4607E0B8F1000F02D026EA05005C
S31502003C00206002F091F9304601B0BDE8F08348F633
S31502003C10911048F6BF4248F63E33C0F20020C0F289
S31502003C200022C0F2002340F24711FFF745FB48F697
S31502003C30911048F6BF4248F25B53C0F20020C0F230
S31502003C400022C0F200234FF4A471FFF735FB48F6B9
S31502003C50911048F6BF4248F29353C0F20020C0F2D8
S31502003C600022C0F2002340F24911FFF725FB48F675
S31502003C70911048F6BF4248F25223C0F20020C0F229
S31502003C800022C0F200234FF4A671FFF715FB70B5B0
S31502003C9070B10D46B1F1807F1AD20446FEF7C7FB1A
S31502003CA0266826EA05002060FEF7EFFB304670BD67
S31502003CB048F6911049F2312248F63E33C0F200200E
S31502003CC0C0F20022C0F200234FF4F171FFF7F4FABA
S31502003CD048F6911049F2312249F25443C0F20020CB
S31502003CE0C0F20022C0F2002340F2E311FFF7E4FA29
S31502003CF01021EFF3118281F31188006882F3118893
S31502003D007047D4D4D4D4D4D4B0B540B3044602F068
S31502003D10B1F8606878B104F10C0500BF00BF00BFBE
S31502003D202069A8420BD04FF0007102F071FF606863
S31502003D3008B12FF00BC8BDE8B04002F0F5B848F65E
S31502003D40911048F6C31248F2A263C0F20020C0F2F4
S31502003D500022C0F2002340F29A21FFF7ADFA48F69C
S31502003D60911048F6C31248F61F73C0F20020C0F243
S31502003D700022C0F2002340F28E21FFF79DFA80B5A1
S31502003D8020B199B1024601200A6080BD48F6911021
S31502003D9049F2C80248F61F73C0F20020C0F20022A0
S31502003DA0C0F2002340F2C221FFF786FA48F69110CC
S31502003DB049F2C80248F26703C0F20020C0F20022AC
S31502003DC0C0F2002340F2C321FFF776FAFFF754BE92
S31502003DD0FFF75DBF01464FF0FF3241F8082F002280
S31502003DE0C0E90311C0E90021704700210161704753
S31502003DF042684A6093688B60596091600861016805
S31502003E00013101607047D4D480B5D1F800C01CF1ED
S31502003E10010207D000F1080296465268136863450C
S31502003E20FAD903E0D0F810E0DEF804204A60916087
S31502003E30C1F808E0CEF8041008610168013101609A
S31502003E4080BDD0E901230169936042685A604A68DD
S31502003E50824201D182684A60002202610868013802
S31502003E600860704770B500284BD00446C06BC0B3DB
S31502003E700E46216CA0FB010199BBFEF7D8FAD4E9E4
S31502003E800F010025226801FB00230138A56300FB10
S31502003E900120C4E90123E060FF2084F8440084F88D
S31502003EA0450004F110004EB1FFF794FF04F124001F
S31502003EB0FFF790FFFEF7E9FA012070BD01680029BD
S31502003EC0F8D002F01DFE0028F4D04EF604504FF052
S31502003ED08051CEF200000160BFF34F8FBFF36F8FA8
S31502003EE0E8E748F6044049F2462248F6AA73C0F2C9
S31502003EF00020C0F20022C0F200234FF4B671FFF791
S31502003F00DBF948F6044049F2462248F67973C0F2D4
S31502003F100020C0F20022C0F2002340F23711FFF760
S31502003F20CBF910B582B043B3B8B11C4601B9A2B9F8
S31502003F3001B192B148230193019B482B2DD100294F
S31502003F4054EA0282019BC4E90F0101212046226044
S31502003F50FFF788FF204602B010BD48F6044048F637
S31502003F60D51248F61463C0F20020C0F20022C0F255
S31502003F7000234FF4D871FFF79FF948F6044048F63C
S31502003F80D51248F24743C0F20020C0F20022C0F226
S31502003F9000234FF4C271FFF78FF948F6044048F642
S31502003FA0D51248F61B13C0F20020C0F20022C0F25E
S31502003FB000234FF4CB71FFF77FF980B538B1B2B168
S31502003FC0034609B1186808600120136080BD48F6EF
S31502003FD0044048F2E07248F67973C0F20020C0F25B
S31502003FE00022C0F2002340F2C711FFF765F948F636
S31502003FF0044048F2E07248F62B73C0F20020C0F289
S315020040000022C0F200234FF4E471FFF755F9B0B570
S3150200401082B060B10D46814209D8144600210022C1
S315020040202346FFF77EFFA563204602B0B0BD48F6E1
S31502004030044048F64A3248F25543C0F20020C0F224
S315020040400022C0F200234FF45E71FFF735F9D4D493
S315020040502DE9F04F83B00028029200F09D800446BD
S315020040601D461646894619B9206C002840F0C480C0
S31502004070022D03D1E06B012840F0AE8002F016FF5C
S3150200408010B9002E40F09880FEF7D1F9022DA06BF0
S315020040905BD0E16B884258D301206F464FF0000B8C
S315020040A002AE00BF00BF00BF0299002968D0C00758
S315020040B002D0384602F05AFEFEF7E7F901F0DAFEC0
S315020040C0FEF7B5F994F84400FF2808BF84F844B017
S315020040D094F84500FF2808BF84F845B0FEF7D5F9E5
S315020040E03846314602F04FFE00284CD1FEF79FF9C2
S315020040F0D4F838A0D4F83C80FEF7C7F9C24517D1E8
S31502004100029904F1100002F04DFC204600F0B4F8CA
S3150200411001F00AFF88B94EF604504FF08051CEF2F4
S3150200412000000160BFF34F8FBFF36F8F05E000BF42
S31502004130204600F0A1F801F0F7FEFEF778F9A06B31
S31502004140E16B88424FF00000AED2204649462A462D
S3150200415000F062F854F8240F70B1204602F0D0FC49
S3150200416050B14EF604504FF08051CEF2000001607D
S31502004170BFF34F8FBFF36F8FFEF787F9012008E079
S31502004180FEF783F904E0204600F076F801F0CCFE53
S31502004190002003B0BDE8F08F48F6044048F2B8228A
S315020041A048F67973C0F20020C0F20022C0F2002362
S315020041B040F2B631FFF780F848F6044048F2B822DA
S315020041C048F25223C0F20020C0F20022C0F20023BD
S315020041D040F2BB31FFF770F848F6044048F2B822C5
S315020041E048F25D43C0F20020C0F20022C0F2002372
S315020041F04FF46E71FFF760F848F6044048F2B822B1
S3150200420049F28A43C0F20020C0F20022C0F2002323
S3150200421040F2B731FFF750F870B5866B036C04466F
S315020042202BB31546B2B1E0681A4603F009FE2168BF
S31502004230E268206C121AE2608A4203D24042A16806
S315020042400844E060022D5FEA1F90002E5FEA0080BC
S31502004250361A0CE060681A4603F0F2FDD4E9010151
S31502004260226C10446060884201D320686060701C32
S31502004270A06370BDD4D4D4D4F0B581B00446FEF7A1
S31502004280D6F894F94560012E0EDB04F1240500BF31
S31502004290286848B1284602F033FC08B102F0C3FD93
S315020042A070B2013E0128F3DCFF2684F84560FEF772
S315020042B0ECF8FEF7BCF894F94470012F10DB04F118
S315020042C0100500BF00BF00BF286848B1284602F0AB
S315020042D017FC08B102F0A7FD78B2013F0128F3DC12
S315020042E084F8446001B0BDE8F040FEF7CEB82DE98F
S315020042F0F047002849D005461E4690460F4611B99A
S31502004300286C002861D1022E02D1E86B01284CD11B
S31502004310FEF721F9EFF31189102080F31188022E9E
S31502004320A86B04D0E96B884201D3002029E095F9F5
S315020043304540A86B2846394632465FFA84FAFFF7AB
S315020043406BFFBAF1FF0F0BD002F0B1FAA04217D9F8
S31502004350BAF17F0F49D00AF1010085F845000FE056
S3150200436055F8240F60B1284602F0CAFB0146012027
S31502004370B8F1000F18BF002903D0C8F8000000E00A
S31502004380012089F31188BDE8F08748F6044048F217
S31502004390CA2248F67973C0F20020C0F20022C0F2A7
S315020043A000234FF49261FEF787FF48F6044048F275
S315020043B0CA2248F25D43C0F20020C0F20022C0F2D7
S315020043C0002340F29241FEF777FF48F6044048F296
S315020043D0CA2249F28A43C0F20020C0F20022C0F289
S315020043E0002340F29141FEF767FF48F6044048F287
S315020043F0CA2248F6D343C0F20020C0F20022C0F21D
S31502004400002340F21E51FEF757FF2DE9F041002826
S315020044103CD00546006C002848D12868884610B969
S31502004420A868002852D1FEF796F81020EFF31186FD
S3150200443080F31188A86BE96B884210D295F9454042
S315020044400130A863E7B2FF2F0BD002F030FAA04288
S3150200445017D97F2F4AD0781C85F8450011E0002035
S3150200446010E055F8240F60B1284602F049FB0146D8
S315020044700120B8F1000F18BF002903D0C8F80000C8
S3150200448000E0012086F31188BDE8F08148F6044079
S3150200449048F2E32248F67973C0F20020C0F2002205
S315020044A0C0F200234FF4A861FEF706FF48F6044067
S315020044B048F2E32249F29823C0F20020C0F2002219
S315020044C0C0F2002340F24451FEF7F6FE48F60440DD
S315020044D048F2E32249F21713C0F20020C0F200228A
S315020044E0C0F2002340F24951FEF7E6FE48F60440C8
S315020044F048F2E32248F6D343C0F20020C0F200227B
S31502004500C0F2002340F2CB51FEF7D6FED4D4D4D467
S315020045102DE9F04F83B00028029200F0AA800446EB
S315020045201646894619B9206C002840F0C28002F06E
S31502004530BDFC10B9002E40F0AC80FDF778FFD4F830
S3150200454038A0BAF1000F29D0226C52B1D4E9020187
S315020045501144E160814201D32168E160484603F0DB
S315020045606FFC54F8100F0028AAF10100A0620ED0C9
S31502004570204602F0C5FA50B14EF604504FF0805173
S31502004580CEF200000160BFF34F8FBFF36F8F01249D
S31502004590FDF77BFF204603B0BDE8F08F04F1240847
S315020045A001206F464FF0000B02AE00BF00BF00BFF6
S315020045B00299002959D0C00702D0384602F0D6FB2C
S315020045C0FDF763FF01F056FCFDF731FF94F8440056
S315020045D0FF2808BF84F844B094F84500FF2808BFB6
S315020045E084F845B0FDF751FF3846314602F0CBFB61
S315020045F070B12046FFF740FE01F096FCFDF717FF6B
S31502004600A56BFDF742FF95B326E000BF00BF00BFD2
S31502004610FDF70DFFA56BFDF738FF2DB12046FFF71D
S315020046202BFE01F081FC17E00299404602F0BAF92E
S315020046302046FFF721FE01F077FC68B94EF60450DA
S315020046404FF08051CEF200000160BFF34F8FBFF3EF
S315020046506F8F00BF00BF00BFFDF7E9FED4F838A098
S315020046600020BAF1000FA3D06EE7002490E70024E1
S3150200467090E748F6044048F66E3248F2CD33C0F26F
S315020046800020C0F20022C0F2002340F2E951FEF7F8
S3150200469013FE48F6044048F66E3248F25223C0F240
S315020046A00020C0F20022C0F2002340F2F251FEF7CF
S315020046B003FE48F6044048F66E3248F61F63C0F21F
S315020046C00020C0F20022C0F2002340F2ED51FEF7B4
S315020046D0F3FDD4D4D4D4D4D42DE9F04F83B000283A
S315020046E0029100F090800446006C002840F09B8006
S315020046F00D4602F0DBFB10B9002D40F0A480FDF759
S3150200470096FEA06BD0B154F8101F0138A06271B1A9
S31502004710204602F0F5F950B14EF604504FF08051A2
S31502004720CEF200000160BFF34F8FBFF36F8F0124FB
S31502004730FDF7ABFE204603B0BDE8F08F4EF60459F6
S3150200474004F1240801216E464FF0000B02AFCEF2AF
S3150200475000094FF0805A00BF029800284FD0C807C0
S3150200476002D0304602F002FBFDF78FFE01F082FB1B
S31502004770FDF75DFE94F84400FF2808BF84F844B0B4
S3150200478094F84500FF2808BF84F845B0FDF77DFE82
S315020047903046394602F0F7FA70B12046FFF76CFD53
S315020047A001F0C2FBFDF743FEA56BFDF76EFE45B3B6
S315020047B01EE000BF00BF00BFFDF739FEA56BFDF787
S315020047C064FE2DB12046FFF757FD01F0ADFB0FE069
S315020047D00299404602F0E6F82046FFF74DFD01F049
S315020047E0A3FB28B9C9F800A0BFF34F8FBFF36F8FA1
S315020047F0FDF71DFEA06B00210028ADD083E7002443
S3150200480096E7002496E748F6044048F6361248F240
S31502004810CD33C0F20020C0F20022C0F2002340F2E3
S315020048208261FEF749FD48F6044048F6361249F21F
S315020048309823C0F20020C0F20022C0F2002340F208
S315020048408661FEF739FD48F6044048F6361248F20C
S315020048505223C0F20020C0F20022C0F2002340F22E
S315020048608B61FEF729FDD4D42DE9F04F83B00028E1
S31502004870029200F0A18004461646894619B9206CB8
S31502004880002840F0B98002F011FB10B9002E40F06A
S31502004890A380FDF7CCFDA06B38B3226CE5684AB164
S315020048A0A068A918E160814201D32168E160484607
S315020048B003F0C6FA54F8240F44F8185C70B1204687
S315020048C002F01EF950B14EF604504FF08051CEF26E
S315020048D000000160BFF34F8FBFF36F8F0124FDF716
S315020048E0D4FD204603B0BDE8F08F04F12408012070
S315020048F06F464FF0000B02AE0299002958D0C0074E
S3150200490002D0384602F032FAFDF7BFFD01F0B2FAE4
S31502004910FDF78DFD94F84400FF2808BF84F844B0E3
S3150200492094F84500FF2808BF84F845B0FDF7ADFDB1
S315020049303846314602F027FA70B12046FFF79CFC52
S3150200494001F0F2FAFDF773FDA56BFDF79EFD8DB33F
S3150200495026E000BF00BF00BFFDF769FDD4F838A00E
S31502004960FDF793FDBAF1000F05D02046FFF784FC50
S3150200497001F0DAFA14E00299404602F013F82046F2
S31502004980FFF77AFC01F0D0FA50B94EF604504FF018
S315020049908051CEF200000160BFF34F8FBFF36F8FDD
S315020049A0FDF745FDA06B00284FF00000A4D074E788
S315020049B0002494E7002494E748F6044049F2592279
S315020049C048F2CD33C0F20020C0F20022C0F200232A
S315020049D040F26171FEF770FC48F6044049F2592232
S315020049E048F25223C0F20020C0F20022C0F2002395
S315020049F040F26A71FEF760FC48F6044049F2592219
S31502004A0048F61F63C0F20020C0F20022C0F2002363
S31502004A1040F26571FEF750FC2DE9F047002849D0B7
S31502004A20054690460E4611B9286C002852D1FDF76C
S31502004A3092FD1020EFF3118980F31188AC6B14B349
S31502004A4095F944702A6C5FFA87FA52B1D5E90201E8
S31502004A501144E960814201D32968E960304603F0D6
S31502004A60EFF9BAF1FF0FA4F10100A8630DD001F02E
S31502004A701EFFB84219D9BAF17F0F3BD00AF10100E5
S31502004A8085F8440011E0002010E055F8100F60B1DF
S31502004A90284602F035F801460120B8F1000F18BF8A
S31502004AA0002903D0C8F8000000E0012089F311882C
S31502004AB0BDE8F08748F6044049F2E30248F6797306
S31502004AC0C0F20020C0F20022C0F2002340F2FD71C3
S31502004AD0FEF7F2FB48F6044049F2E30248F2FE739F
S31502004AE0C0F20020C0F20022C0F2002340F2FE71A2
S31502004AF0FEF7E2FB48F6044049F2E30247F6F663A4
S31502004B00C0F20020C0F20022C0F2002340F64401A7
S31502004B10FEF7D2FBF0B581B010B304460D46006C29
S31502004B2071B370B3FDF717FD1020EFF3118680F312
S31502004B301188A06B78B1226CE7684AB1A068B918EF
S31502004B40E160814201D32168E160284603F078F9E9
S31502004B500120E76000E0002086F3118801B0F0BD75
S31502004B6048F6044048F63D5248F67973C0F20020F2
S31502004B70C0F20022C0F2002340F66101FEF79CFB60
S31502004B8078B948F6044048F63D5248F68173C0F2B9
S31502004B900020C0F20022C0F2002340F66301FEF7B5
S31502004BA08BFB48F6044048F63D5248F2FE73C0F2CB
S31502004BB00020C0F20022C0F2002340F66201FEF796
S31502004BC07BFB10B538B10446FDF731FCA46BFDF74B
S31502004BD05CFC204610BD48F6044048F62F4249F2D6
S31502004BE07603C0F20020C0F20022C0F2002340F693
S31502004BF09B01FEF761FB10B548B10446FDF717FCB1
S31502004C00A06BE16B0C1AFDF740FC204610BD48F67E
S31502004C10044048F64F5248F67973C0F20020C0F2BB
S31502004C200022C0F200234FF40B61FEF745FB08B1E8
S31502004C30806B704780B548F6044048F6C12248F6B4
S31502004C407973C0F20020C0F20022C0F2002340F6BF
S31502004C50C501FEF731FBD4D4A0B140F62C7C00216D
S31502004C60C2F2002C00BF00BF0CEBC1035A6882429D
S31502004C7003D001310A29F7D1704700204CF83100E0
S31502004C805860704780B548F6044048F6786248F6A0
S31502004C907973C0F20020C0F20022C0F2002340F66F
S31502004CA0D401FEF709FBD4D4A0B140F62C7C002136
S31502004CB0C2F2002C00BF00BF0CEBC1035A6882424D
S31502004CC003D001310A29F7D1704700204CF8310090
S31502004CD05860704780B548F6044048F6856249F246
S31502004CE07603C0F20020C0F20022C0F2002340F692
S31502004CF01D41FEF7E1FA006C7047C06B704720B1A8
S31502004D00806B00285FEA1F90704780B548F6044022
S31502004D1048F2F52248F67973C0F20020C0F200226A
S31502004D20C0F2002340F65221FEF7C6FA28B1816B83
S31502004D30C06B81425FEA1F90704780B548F6044017
S31502004D4049F2E04248F67973C0F20020C0F200222E
S31502004D50C0F2002340F67F21FEF7AEFAD4D4D4D4B3
S31502004D60B0B5F8B1C9B140F62C7E4FF0000CC2F2D4
S31502004D70002E0022002300BF0EEB02046568A84243
S31502004D800CD01BB92368002B54EA0C830832502A34
S31502004D90F2D1002B18BFC3E90010B0BD2346C3E908
S31502004DA00010B0BD48F6044047F6187249F2760381
S31502004DB0C0F20020C0F20022C0F2002340F6C93140
S31502004DC0FEF77AFAD4D4D4D498B140F62C720021E4
S31502004DD0C2F2002200BF00BF02EBC1035B6883423E
S31502004DE004D001310A29F7D10020704752F8310068
S31502004DF0704780B548F6044049F2761249F27603C6
S31502004E00C0F20020C0F20022C0F2002340F6FB31BD
S31502004E10FEF752FA70B515460E460446FDF707FB35
S31502004E2094F84400FF2802D1002084F8440094F844
S31502004E304500FF2802D1002084F84500FDF725FB36
S31502004E40A06B28B904F1240031462A4601F01CFE63
S31502004E502046BDE87040FFF70FBAD4D42DE9F041E1
S31502004E6082B09BB3089F002F40D00D460646814272
S31502004E704CD81C46022A06D0012A09D1042E65D92D
S31502004E804FF0030806E0002E70D04FF0060801E04E
S31502004E904FF00208242001900198242846D1552279
S31502004EA020463146012D98BF012502F08DFF2021B3
S31502004EB0384602F08FFFBC610020C7E902653862FE
S31502004EC087F81C80384602B0BDE8F08148F27B00C4
S31502004ED048F2D93248F64A13C0F20020C0F2002244
S31502004EE0C0F200234FF4DE71FEF7E6F948F27B00CA
S31502004EF048F2D93248F26B33C0F20020C0F20022E7
S31502004F00C0F2002340F2BD11FEF7D6F948F27B004B
S31502004F1048F2D93249F28513C0F20020C0F20022CB
S31502004F20C0F200234FF4DF71FEF7C6F948F27B00A8
S31502004F3048F2D93248F66653C0F20020C0F2002287
S31502004F40C0F200234FF4F271FEF7B6F948F27B0085
S31502004F5048F2D93248F69B63C0F20020C0F2002222
S31502004F60C0F200234FF4E871FEF7A6F948F27B007F
S31502004F7048F2D93248F63A73C0F20020C0F2002253
S31502004F80C0F200234FF4EB71FEF796F980B558B1E3
S31502004F90D1B14AB3037F9B0701D4002080BD836948
S31502004FA00B601060012080BD48F27B0048F64F027C
S31502004FB048F21063C0F20020C0F20022C0F20023C1
S31502004FC04FF40571FEF778F948F27B0048F64F0276
S31502004FD048F64643C0F20020C0F20022C0F2002387
S31502004FE040F21521FEF768F948F27B0048F64F02B7
S31502004FF048F20873C0F20020C0F20022C0F2002379
S3150200500040F21621FEF758F980B5C8B1017F89072B
S3150200501012D4013008BF80BD48F27B0048F6EF1279
S3150200502049F28633C0F20020C0F20022C0F2002309
S3150200503040F24321FEF740F9242102F0CBFE80BD67
S3150200504048F27B0048F6EF1248F21063C0F20020E5
S31502005050C0F20022C0F2002340F23321FEF72CF9FF
S315020050602DE9F04381B020B30446FDF7E0F920694B
S3150200507008B1002517E060690025A0B9D4E90268E5
S315020050805522A76994F81C903846314602F09CFED8
S315020050902021204602F09EFE25620125C4E902680F
S315020050A0A76184F81C90FDF7F0F9284601B0BDE827
S315020050B0F08348F27B0048F6DF2248F21063C0F222
S315020050C00020C0F20022C0F2002340F25E21FEF769
S315020050D0F3F82DE9F04730B304461020EFF31186BA
S315020050E080F31188206908B1002517E06069002560
S315020050F0A0B9D4E902895522A76994F81CA03846BA
S31502005100414602F061FE2021204602F063FE25623E
S315020051100125C4E90289A76184F81CA086F31188D7
S315020051202846BDE8F08748F27B0048F2D91248F2D9
S315020051301063C0F20020C0F20022C0F200234FF436
S315020051402771FEF7B9F850B18268012998BF01218B
S31502005150914202D2C160012070470020704780B59B
S3150200516048F27B0048F2A85248F21063C0F20020CF
S31502005170C0F20022C0F200234FF43671FEF79CF80B
S3150200518080B580B1D0F808C0D0F800E00268436864
S3150200519001688E45F8D102EB0C00D94308446045FC
S315020051A028BF881880BD48F27B0048F6885248F22C
S315020051B01063C0F20020C0F20022C0F2002340F2C7
S315020051C0FA21FEF779F840B1416882681144006815
S315020051D0081A811A50EA3180704780B548F27B007E
S315020051E049F27D0248F21063C0F20020C0F20022AA
S315020051F0C0F2002340F21E31FEF75EF8D4D4D4D4B6
S315020052002DE9F04F85B00029049300F0A3800446EF
S31502005210002800F0AF809146227FA068D207A0F155
S31502005220010203D1914559EA32860AE019F1040FC7
S3150200523080F0B08009F10406964202D90022049257
S3150200524046E0002B44D00DF108080191404601F0DA
S3150200525068FD4FF0000B0DF1100A00BF00BF00BF42
S31502005260FDF7E5F8A06800BF236821686268276831
S31502005270BB42F9D10B18D2439F18874228BF571851
S31502005280B7421CD2216A002002F048F96069002860
S3150200529050D101F0FCFD6061FDF7F7F8206A0021AC
S315020052A000220023049D009501F078FE40465146F7
S315020052B0C4F814B001F067FD18B92FF02FC8FDF736
S315020052C0E4F80FB101990FE0A068019900BF00BF91
S315020052D02368256862682768BB42F9D12B18D24336
S315020052E09F18874228BF571920464A463B460096D2
S315020052F000F060F80546C8B16068D4E902120844B5
S315020053002368C01A411A50EA318090420ED300F047
S31502005310B1FD206940B12069216A002200230026DE
S31502005320009601F0A3FE266100F0FEFD284605B0B8
S31502005330BDE8F08F48F27B0048F2AA4248F21F63AA
S31502005340C0F20020C0F20022C0F2002340F2753102
S31502005350FDF7B2FF48F27B0048F2AA4249F25753E0
S31502005360C0F20020C0F20022C0F2002340F2353122
S31502005370FDF7A2FF48F27B0048F2AA4248F2106308
S31502005380C0F20020C0F20022C0F2002340F2363101
S31502005390FDF792FF48F27B0048F2AA4248F66243C2
S315020053A0C0F20020C0F20022C0F2002340F24531D2
S315020053B0FDF782FF70B582B00546D0F804C0007FC3
S315020053C014460E46C00703D19C4254EA33840AE0CF
S315020053D00698019483420FD301A904222846634604
S315020053E000F0F6FA84463CB1284631462246634628
S315020053F000F0EEFA686000E00024204602B070BDBC
S315020054002DE9F04182B000293ED0044600284BD057
S3150200541094F81CC09846A0682568276866682368C1
S315020054209D42F9D13B18F6430CF001053344834201
S3150200543002EB850028BFF31900902046FFF7BAFF5A
S315020054400646E8B16068D4E9021208442368C01A25
S31502005450411A50EA3180904212D31020EFF311879D
S3150200546080F31188206948B12069216A002200234D
S315020054700025CDE9005801F0BDFE256187F31188AC
S31502005480304602B0BDE8F08148F27B0048F2F312E2
S3150200549049F25753C0F20020C0F20022C0F20023A4
S315020054A040F2BA31FDF708FF48F27B0048F2F312E8
S315020054B048F21063C0F20020C0F20022C0F20023BC
S315020054C040F2BB31FDF7F8FE2DE9F04381B0002929
S315020054D064D00446002871D0207F89461F46904634
S315020054E0C10703D1400703D4002502E0042500E0EA
S315020054F0E56877B1FCF79BFF6068A16808442268FB
S31502005500801A411A50EA3186AE420BD9FCF7BDFF2A
S3150200551025E06068A16808442268801A411A50EAA8
S3150200552031861CE0216A0020002601F0F7FF20697F
S31502005530002853D101F0ABFC2061FCF7A6FF206ADC
