S0100000504F435F524138502E73726563B8
S3150200000020040022211F0002191C00022B1F0002DD
S315020000102B1F00022B1F00022B1F00022B1F0002A8
S31502000020000000000000000000000000490B000272
S315020000302B1F000200000000610B0002C90B000228
S30902000040006700024B
S315020000801048134A016841F4700101604FF4802060
S31502000090BFF34F8FBFF36F8FE1EE100A0B490A4889
S315020000A006F04EFB0B4800210B4A06F053FB0B48A9
S315020000B006F064FB06F06CFB0020002100F0C5FC94
S315020000C0FEE700BF88ED00E00000002240000002CB
S315020000D0040000004C0400225C080000A80C002268
S315020000E088B040F63824EFF31080C2F200240121D2
S315020000F081F31088216839B940F614520021C4F2FE
S315020001004002117040211170216840F60009C4F2C4
S3150200011040090131216010211022C0F20141C0F2D2
S31502000120015280F3108801F57C70C9F84803C9F8BA
S315020001304C1302F57C73C9F82432C9F82022C9F897
S31502000140040240F20040C1F20100C9F80812C9F8DF
S31502000150F40000F11001C9F8F010C9F8A40140F248
S315020001600040C9F8A811C0F20160C9F84000C9F8F8
S315020001704400C9F84800C9F84C00502040F200413A
S31502000180C0F20170C9F80001C0F20131C9F80401D8
S31502000190C9F85410C9F85010C9F84411C9F8281200
S315020001A01020C9F82000C9F82400C9F83000C9F89F
S315020001B028010420C9F8CC00C9F88001C9F89C02BC
S315020001C0C9F824014FF40041C9F80410C9F81C10FB
S315020001D0C9F8381040F60041C1F20131C9F83812A7
S315020001E0C9F83C12C9F81C11C9F8400140F2004096
S315020001F040F60041C1F20160C1F60101C9F8D01012
S31502000200C9F8D410C9F8D810C9F8DC10C9F8E81032
S31502000210C9F8E410C9F85812C9F85C12C9F8601294
S31502000220C9F86412C9F89810C9F85412C9F83C0101
S315020002301030C9F838010520C9F8E0010121EFF3B1
S31502000240108081F31088216811B12168013921607B
S31502000250216839B940F614520021C4F240021170E5
S31502000260802111704FF2BF2780F3108848F2007583
S3150200027048F204280120CFF6FC77C4F23505C4F211
S31502000280350801F084FD43F2040043F2FF52C4F242
S315020002902000CDF67B6201681140016041684FF68D
S315020002A0FF7221F0406141608168CBF6D77221F47A
S315020002B040118160C1681140C1600068012001F0EF
S315020002C03FFD01204FF47A7101F058FC0020C5F879
S315020002D008014FF48071C5F8141148F21072C5F87E
S315020002E010214FF08053C5F80C311126C5F808616C
S315020002F0A86069612A61EB60AE60C8F80400C8F8BC
S31502000300101043F21021C0F22001C8F80C10C8F8F0
S315020003100830C8F804604FF0140E46F6BF61522248
S31502000320C0F2002100BF00BF3B4600BF00BF00BFB6
S31502000330013305D2D5F84861B600F9D585F804210E
S3150200034001300A5C0FF011C04CF200114EF20002AD
S31502000350C4F23501C4F225024FF0000A3D2081F8AD
S3150200036000A081F802A0887281F808A04FF4E0602C
S31502000370088248200870107842F2000648F2000807
S31502000380C4F2380600F07F0010701078C4F2330809
S3150200039040F040001070107840F0800010709078A5
S315020003A000F08F00303090702620507410740120B7
S315020003B010713020507100201178C4F2380001F01B
S315020003C0BF01117000F0ACFA304600F0A9FA42F211
S315020003D000104DF28F0CC4F232004EF6470640F280
S315020003E006134FF425410160022240F8F82CC0F8AA
S315020003F02CA0C0F2030CC0F864C0C0F20106C664A9
S315020004004FF223460665C0F206134363016040F8C5
S31502000410FC2C42F600224FF48053C4F232024FF40F
S31502000420837EC2F8001240F8F83CC2F82CA2C2F849
S3150200043064C2C2F84C62C2F834E2C2F8001240F852
S31502000440FC3C11604FF4806340F8F83CC2F82CA0E3
S31502000450C2F864C047F61126D664C2F834E01160C9
S3150200046040F8FC3CD8F8000040F00100C8F8000053
S31502000470384600BF00BF00BF013006D248F2000175
S31502000480C4F233014968C907F6D048F2000143F2C3
S315020004900002C4F23301C4F223024FF0021040F20A
S315020004A0000A88604FF02010C1F840024FF48070B5
S315020004B0C1F800064FF4E060C1F81006C4F2250A3E
S315020004C0906844F2000640F480309060002010806C
S315020004D050684FF47A7120F0004050605068C4F2C0
S315020004E0350640F001005060BAF8000040F4806022
S315020004F0AAF80000012001F041FBBAF8000020F042
S315020005004000AAF80000BAF8000020F02000AAF87D
S315020005100000BAF8000040F00100AAF80000BAF89C
S31502000520000040F01000AAF80000306840F0010018
S3150200053030604FF2BF20CFF6FC7000BF00BF00BF95
S31502000540013002D23168C907FAD140F24C4143F672
S31502000550FA78C2F200214FF0010B6FF03F0ACFF694
S31502000560FE7800BF00BF00BF086801300860EFF3E5
S3150200057010818BF3108822683AB940F61452002390
S31502000580C4F240021370402313702268A44601325B
S31502000590226081F31088042141F001E047F60A62E5
S315020005A000F00F000021C0F2002200BF00BF00BF12
S315020005B032F8023B20FA01F606F0010601310AEA98
S315020005C09304DBB24C4454F8237007EA0807374415
S315020005D0043744F823700FF015C8EFF310808BF33D
S315020005E01088DCF8001021B1DCF800100139CCF8D3
S315020005F00010DCF8001039B940F614510022C4F29A
S3150200060040010A7080220A7080F31088042040F0AC
S3150200061001E047F602610020C0F20021002200BF7D
S3150200062031F8023B0AEA9307DBB24F4457F823300C
S315020006300BFA00F701309B0748BF3A430FF011C08F
S3150200064040F250404FF47A71C2F20020027048F232
S315020006500000C4F23300C0F820BC012001F08EFA7B
S315020006604AF2000140F25242C4F23301C2F20022BF
S3150200067040F24C4447F65F1708681080C2F2002425
S3150200068040F25442C2F2002248682188CFF6FE7731
S3150200069010804FF47F6000EA011043F20001C4F2B9
S315020006A0230148F204264CF20013C4F235060880F0
S315020006B039462068C4F2350301310DD2DA78920642
S315020006C0FAD51871384600BF013005D293F90310E6
S315020006D0B1F1FF3FF8DC18794EF200032068C4F24C
S315020006E02503597A01F0EF01597262215970394690
S315020006F0013121D293F90920B2F1FF3FF8DCA021A2
S315020007009974394600BF00BF013111D25A7A520696
S31502000710FAD5597AC9060BD49874384600BF00BF79
S31502000720013005D2597A4906FAD500BF00BF00BF8B
S31502000730587840F00800587000222068C4F2380247
S3150200074092F87010C90710D140F204610023C4F276
S315020007503801C0F28C430B604FF080534B6000238C
S315020007608B60087382F870B0206842F20001C4F20E
S31502000770380191F87010C90713D142F204610022C0
S31502000780C4F23801C0F684420A604FF080524A60D1
S3150200079000228A60087342F20000C4F2380080F830
S315020007A070B0B0684FF47A7120F01000B060B06893
S315020007B040F02000B060012001F0E0F94FF2BF24C2
S315020007C0B068CFF6FC7420F02000B060204600BF6F
S315020007D0013004D2716C8900FAD555203070A86CAC
S315020007E040F24C4CC001C2F2002C48BF2878A86CDB
S315020007F0B0F1FF3F0CDC2878214600BF00BF00BFE6
S31502000800013105D2AA6C9200FAD5287100BF00BF49
S3150200081047F61460EE46C0F200207146CCC8CCC141
S3150200082090E8CC00CCC1DCF8000046F69727C0F36E
S315020008300331C0F20027C0F30322795C8DF805105C
S31502000840B95C8DF8061040F25241C2F20021C0F3A3
S31502000850031200F00F000988BA5C8DF80720385C95
S315020008600A0BC1F303238DF80800B85CC1F3031227
S315020008708DF80E00F85C40F254438DF80F00C2F278
S31502000880002301F00F00B95C1B888DF81010385C4C
S315020008901A0B8DF81100B95CC3F303228DF81310FD
S315020008A0C3F30311B85C03F00F028DF8140040F293
S315020008B05040C2F20020795C8DF81510BA5C0078BF
S315020008C08DF81620010900F00F00795C385C8DF86E
S315020008D01B108DF81C005220714600BF00BF00BFDE
S315020008E0224600BF00BF00BF013205D2D5F848310B
S315020008F09B00F9D585F8040111F8010F08B12FF014
S3150200090011C84FF4FA7004F039F840F24C4140F63F
S315020009103824C2F20021C2F2002425E6D4D4D4D46B
S315020009204FF2BF218269CFF6FC7122F00402826186
S315020009300A4600BF00BF00BF01323ED2C3695B0751
S31502000940FAD48269012363F3010282610A4600BF77
S31502000950013232D2C369DB07FAD0426822F00402BE
S3150200096042600A4600BF00BF013226D283685B0797
S31502000970FAD44268012363F3010242600A4600BFC9
S3150200098001321AD28368DB07FAD040F6050240F636
S315020009900523C0F21462C0F203230260C0F80031DC
S315020009A0826922F003028261426822F003024260F7
S315020009B0013102D2C269D207FAD17047022818BFA2
S315020009C0704740F2584047F66461C2F20020C0F216
S315020009D0002100F053BAD4D4FFF782BB7047D4D4B7
S315020009E0FFF7FCBF00BE7047B0B540F260444FF05F
S315020009F0FF31C2F20024206802F0CAFA012803D0AD
S31502000A0020680021FFF7EEFF40F26440C2F20020A8
S31502000A10017801B1B0BD01210170FFF7E1FF40F29B
S31502000A206845C2F2002500BF286801382860F1D067
S31502000A30206800210022002301F066FF0128F3D07E
S31502000A4020680021FFF7CEFFEEE780B540F2644250
S31502000A5040F26840C2F20022C2F200200021117068
S31502000A6040F26C420160C2F200224FF48070012112
S31502000A7001F029FF40F26041C2F20021086018B974
S31502000A8000200021FFF7AEFF00F020F804F0E8F99D
S31502000A90002080BD40F2B44C40F21453C2F2002C46
S31502000AA0C2F20023C0F800C00B60802010607047BD
S31502000AB040F2147C40F27473C2F2002CC2F200239C
S31502000AC0C0F800C00B6080201060704780B584B00B
S31502000AD040F2684047F64063C2F2002040F6741CBA
S31502000AE040F6B04EC0F2002301684FF48062013135
S31502000AF001600120009040F6353047F20141C0F214
S31502000B000020C0F20021C2F2002CC2F2002ECDE972
S31502000B1001EC03F0FDFB40F6D411C2F2002108609D
S31502000B2008B104B080BD0020002104B0BDE88040B9
S31502000B30FFF758BF10B50446FFF756FF2046BDE83B
S31502000B401040FFF749BFD4D41EF0040F0CBFEFF3D9
S31502000B500880EFF30980014908470000EF0B000205
S31502000B600F4B1968EFF309821EF0100F08BF22ED32
S31502000B70108A22E9F04FEFF30B8342F8043D0A6034
S31502000B804FF0100080F31188BFF34F8FBFF36F8FC2
S31502000B9004F03AF84FF0000080F3118800F002B832
S31502000BA0A40A0022074801680A6802CA81F30B8870
S31502000BB0B2E8F04F1EF0100F08BFB2EC108A82F3B3
S31502000BC009887047A40A002210B51020EFF3118499
S31502000BD080F3118804F0DCF930B14EF604504FF080
S31502000BE08051CEF20000016084F3118810BD806945
S31502000BF010F8020C022801D1FFF7D4BF042838BF2F
S31502000C00704780B546F6700047F2EB2246F6A823F7
S31502000C10C0F20020C0F20022C0F200234FF47E711F
S31502000C2000F0A6FF283140F8481D40F651414FF02A
S31502000C30807CC0F2002122F00102C1630264C0F886
S31502000C4044C06FF00201C0E909137047D4D4D4D46A
S31502000C5000BE00BF00BF00BFFEE7D4D4D4D4D4D4B4
S31502000C604EF62250F021CEF20000017000F016F886
S31502000C704EF63470CEF20000016841F04041016048
S31502000C8062B6BFF36F8FEFF3148C2CF0040C8CF367
S31502000C901488BFF36F8F02DF00BEFDE740F65020D7
S31502000CA044F6D351C2F20020C1F262010068A0FBF1
S31502000CB001014FF0FF3000EB91110020B0EB116FF4
S31502000CC018BF70474EF21002F023CEF200025160B6
S31502000CD04EF62351CEF200010B7090600720106091
S31502000CE0704700BE7047EFF31180102181F311881F
S31502000CF040F6D811C2F200210A68002A02F1010266
S31502000D000A6018BF704740F6DC11C2F20021086083
S31502000D104EF60450CEF200000068C00500D17047BE
S31502000D2080B546F6700046F6960247F27113C0F297
S31502000D300020C0F20022C0F2002340F2A44100F0DB
S31502000D4017FF40F6D810C2F20020016859B10139E6
S31502000D50016018BF704740F6DC10C2F2002000683E
S31502000D6080F31188704780B546F6700047F62E323A
S31502000D7046F2D473C0F20020C0F20022C0F2002371
S31502000D8040F2AD4100F0F4FE80B598B34EF6902ED7
S31502000D90C4F2010E9EF800100A0722D04EF2FA3271
S31502000DA04AF2025CC4F20102CFF6FF7C00201388ED
S31502000DB0A2F800C08EF8000043F425401080BFF36D
S31502000DC04F8F30BFBFF36F8F62B6BFF36F8F72B6AE
S31502000DD01088A2F800C08EF8001040F4254010805A
S31502000DE080BDBFF34F8F30BFBFF36F8F62B6BFF3C5
S31502000DF06F8F72B680BD80B572B603F097FC012084
S31502000E00FFF7C2FF62B6BDE8804003F0E9BC80B5D9
S31502000E10EFF30380103840B2002806D44EF20041A8
S31502000E20CEF20001405C0F2817D94EF60C50CEF2D6
S31502000E3000000068400558BF80BD46F6700047F2C4
S31502000E40CE7246F61F43C0F20020C0F20022C0F264
S31502000E50002340F2216100F08BFE46F6700047F255
S31502000E60CE7247F6B123C0F20020C0F20022C0F2D1
S31502000E70002340F20F6100F07BFED4D480B545F228
S31502000E805422C5F24F020260084600F021F9002002
S31502000E9080BD0146002000220A60704780B50846E0
S31502000EA000F016F9002080BD70B586B001A8049046
S31502000EB003A814460D46ADF8081001920126ADF8B6
S31502000EC00C6000F069F940F63820EFF31081C2F2A7
S31502000ED0002086F3108802683AB940F614520023BD
S31502000EE0C4F240021370402313700268013202609A
S31502000EF081F31088E10340F600014FEA1522C4F29D
S31502000F00400101D4EBB20CE001EB8216EBB256F8CB
S31502000F10235025F4803546F8235024F4803546F8CC
S31502000F20235001EB8211012241F82340EFF3108195
S31502000F3082F31088026812B10268013A0260006800
S31502000F4038B940F614500022C4F2400002708022E2
S31502000F50027081F31088002006B070BD04200023C1
S31502000F60C4F24000CFF6FF7340EAD100C9B220F0C6
S31502000F701B00006843EA104020FA01F1002001F04C
S31502000F8001011170704780B56FF00100002300EA7D
S31502000F90D110C4F2400340F20C0E012A43EA001CAF
S31502000FA04FEA0013C4F2400EC8B24FF001015EF8D8
S31502000FB003204FF4803301FA00F103FA00F003D163
S31502000FC022EA0000014302E022EA01010143002075
S31502000FD0CCF80C1080BD6FF03F00CBB200EA910056
S31502000FE040F6000100EB8300C4F2400141580020A4
S31502000FF0C1F340011170704710B5CBB20120984081
S315020010006FF0010E84B20EEAD110002A40F20802F5
S315020010104FF4803C4FEA0011C4F240024FF0000048
S3150200102008BF0CFA03F4545010BD80B56FF00100EE
S3150200103040F2000C00EAD110C4F2400C010103EAAE
S31502001040020E62EA03025CF801004EEA000E00207C
S3150200105002EA0E024CF8012080BD6FF0010000EAA0
S31502001060D11004210001C4F2400109580020090CE4
S31502001070118070476FF0010003EA020C00EAD110FA
S3150200108023EA02010C230201C4F2400300204CEAC7
S315020010900141995070476FF00100042300EAD11014
S315020010A0C4F24003010100205958118070476FF0C5
S315020010B0010003EA020C00EAD11023EA0201082326
S315020010C00201C4F2400300204CEA014199507047E4
S315020010D070B5044600F060F840F6382CEFF3108144
S315020010E0C2F2002C012080F31088DCF8000038B927
S315020010F040F614500022C4F24000027040220270F0
S31502001100DCF800000130CCF8000081F3108820885A
S3150200111028B340F6000E0021C4F2400E00BF00BF05
S31502001120606800EBC10250F831309288D8034FEA6A
S315020011301220D2B20BD50EEB801555F8226026F49A
S31502001140803645F8226023F4803645F822600EEB9D
S315020011508010013140F8223020888142E0D30120FC
S31502001160EFF3108180F31088DCF8000020B1DCF880
S3150200117000000138CCF80000DCF8000038B940F66F
S3150200118014500022C4F2400002708022027081F3E1
S31502001190108870BDD4D4D4D42DE9F04F81B0044662
S315020011A00088002862D04EF64C4B0025C4F2010B93
S315020011B04FF0010A00BF00BF42F2400647F6A4689C
S315020011C00027C4F22006C0F2002800BF00BF00BFFD
S315020011D0606838F8021B00EBC50082888A423DD15E
S315020011E000689BF8001000F0B8500AFA07F9B0F14F
S315020011F0807F09EA010017D158B9012000F0C7FD26
S315020012009BF8000040EA09008BF80000012000F07C
S3150200121097FD96F90000002820D4307840F080002F
S3150200122017E000BF00BF00BF58B1012000F0AFFDBC
S315020012309BF8000020EA09008BF80000012000F06C
S315020012407FFD96F90000B0F1FF3F07DC307800F031
S315020012507F003070C820012100F090FC0137023671
S31502001260032FB5D1208801358542A5D301B0BDE84B
S31502001270F08FD4D4D4D4D4D44EF2A001C4F2010156
S315020012800A78D206FCD408700878C006FCD47047E7
S3150200129040F2204205280868C2F2002205D15061B8
S315020012A04868D061886810627047906148685062E9
S315020012B0886890627047D4D44EF22401C4F20101C8
S315020012C08878098801F00F02A2F1080103293BD8A8
S315020012D0DFE801F0022C101E40F22041C2F200218A
S315020012E051F820004AF6AB21CAF6AA21A0FB010159
S315020012F0480830E040F22041C2F2002151F82000B5
S315020013004AF6AB21CAF6AA21A0FB0101C80822E0CF
S3150200131040F22041C2F2002151F820004AF6AB21E8
S31502001320CAF6AA21A0FB0101080914E040F22041F5
S31502001330C2F2002151F820004AF6AB21CAF6AA21D0
S31502001340A0FB0101880806E040F22041C2F200211A
S3150200135051F82000D04040F65021C2F20021086028
S31502001360704710B54EF2200C4FF0030EC4F2010C7A
S31502001370030158BF4FF0010EDCF80020032312F0E0
S31502001380006F4FF00702DCF8004004BF0F22012372
S3150200139002EA1462C0F3026403FA02F20EFA04F3DA
S315020013A0934204D2ACF80410CCF8000010BDCCF87D
S315020013B00000ACF8041010BD4CF200000021C4F28B
S315020013C01300017001780178007870474CF2000032
S315020013D0C4F2130041686FF39F21652938BF704735
S315020013E0012101707047D4D42DE9F04F83B040F249
S315020013F0204E0E468146C2F2002E09014FF003012D
S315020014001546C6F3026258BF01215EF82940914093
S315020014104EF2001342F20000C0F2F553C4F200008D
S31502001420B4FBF1F729074FF003014AF201524FF0DC
S31502001430030A58BF012102979F4205F0070C27466F
S3150200144001940BD902800127BFF35F8F07724FF415
S315020014502547BFF35F8F07805EF829702B0B0122A9
S31502001460C5F302302CB202FA03F3002C48BF0AFA83
S3150200147000F3300FC6F3027402FA00F04CF20008D1
S31502001480002EC4F2130848BF0AFA04F04EF22604EC
S31502001490C4F20104B7FBF0FA002088F8000098F8BD
S315020014A0000098F8000098F800005EF829002278FB
S315020014B0B7FBF3FB44F23F275EF82220C0F20F0788
S315020014C0904201FA0CF000903DD21E20012100F05C
S315020014D055FB3046294684F80090FFF742FF4DF649
S315020014E083600BEB0701C4F21B30BBF5004FA1FB77
S315020014F000124FEA9241D8F8042098BF0021914287
S3150200150008D001F1F05200BFC8F80420D8F8043020
S315020015109942F9D10AEB0701BAF5004FA1FB000186
S315020015204FEA9140D8F8081098BF0020884247D069
S3150200153000F1614100BF00BFC8F80810D8F80820C2
S315020015409042F9D13CE04DF683600BEB0701C4F201
S315020015501B30BBF5004FA1FB00124FEA9241D8F8AF
S31502001560042098BF0021914208D001F1F05200BF39
S31502001570C8F80420D8F804309942F9D10AEB0701D9
S31502001580BAF5004FA1FB00014FEA9140D8F80810C6
S3150200159098BF0020884209D000F1614100BF00BF18
S315020015A0C8F80810D8F808209042F9D130462946E2
S315020015B0FFF7D7FE1E20012100F0E0FA84F8009022
S315020015C0DDE90010B0FBF1F0D8F804106FF39F21AB
S315020015D0652902D3012188F800104EF2001140F667
S315020015E05022C0F2F551C2F200220131029B106074
S315020015F08B420FD242F200014AF20150C4F20001BC
S3150200160008800020BFF35F8F08724FF42540BFF3B6
S315020016105F8F088003B0BDE8F08F10B51E20012150
S3150200162000F0ACFA40F65020C2F20020046846F2FE
S315020016300150C1F6CD5084421AD34EF2200040F634
S31502001640E012C4F20100C2F2002281881180016810
S31502001650C1F30362090E42EA02131B0143EA013196
S3150200166011448180FFF728FE1E20012100F086FA30
S3150200167046F20050C1F6CD5084425FEA9F9010BDFB
S3150200168010B504461E20012100F078FA8CB140F60E
S31502001690E0104EF22401C2F20020C4F201010088D9
S315020016A00880FFF709FE1E200121BDE8104000F068
S315020016B065BA10BDD4D4D4D42DE9F041A0A04EF21F
S315020016C0FA38C4F201084AF2015190ED001F40F2C5
S315020016D02040CFF6FF71C2F200200231A8F80010B6
S315020016E04CF600214EF601464EF60047C3F69A31F5
S315020016F04FF40042C0E9042144F2553148F2004257
S315020017004EF2140580ED001FC4F20106C4F2010771
S31502001710C1F2DE31C1F2D772C4F20105C0E9071285
S31502001720FFF7CAFD4FF650600A21CFF6FF70395413
S31502001730092085F88E00387818B93078800700F0CD
S31502001740F980387858B901203870C820012100F094
S3150200175015FA00BF00BF00BF38780128FCD100206F
S31502001760307038704AF20156002085F82200A877B8
S3150200177095F828000007FBD54EF614504FF60211D5
S31502001780C5F8981040F251412987CEF20000BFF306
S315020017904F8FBFF36F8F02684EF2000122F40032C0
S315020017A002600022C0F83C22CEF20101BFF34F8F45
S315020017B0BFF36F8F0A6822F440520A60BFF34F8F5D
S315020017C0BFF36F8F2A7802F0F80201322A7000BF47
S315020017D02A78D206FCD40A6842F440520A60BFF361
S315020017E04F8FBFF36F8F0168890312D4BFF34F8FF8
S315020017F0BFF36F8F0021C0F83C12BFF34F8FBFF3C8
S315020018006F8F016841F400310160BFF34F8FBFF360
S315020018106F8F0020A87500BF95F828008006FBD5BB
S315020018204CF200070020C4F2130738703878387873
S3150200183038787868FA2807D0FA20C1F6006000BF27
S3150200184078607968FA29FBD1B8687D2808D07D20AE
S31502001850CEF2001000BF00BFB860B9687D29FBD187
S3150200186043F23240C3F22320E86042F2201028827B
S315020018700520A874FFF720FD1E200121012400F097
S315020018807DF978686FF39F20652828BF3C70FFF7C3
S3150200189013FD42F200004FF42541C4F20000068017
S315020018A0BFF35F8F0472BFF35F8F018085F83F40FD
S315020018B095F8600040F0400085F8600000BF00BF68
S315020018C095F96000B0F1FF3FFADC002085F8580078
S315020018D0402185F8601085F8600000BF00BF00BF98
S315020018E095F960000028FBD495F8620040F04000AC
S315020018F085F8620000BF00BF95F96200B0F1FF3FB4
S31502001900FADC002085F85A00C02085F8620095F8B6
S31502001910620000F0BF0085F8620000BF00BF00BF92
S3150200192095F962000028FBD44FF42540A8F8000080
S31502001930BDE8F0814FF47A7000F00EF812E700BFAE
S31502001940006CDC0200127A000080000000366E0194
S315020019504FF47A7100F012B97047D4D4D4D4D4D4E7
S315020019602DE9F04F81B04EF2FA3143F20406C4F289
S3150200197001018246C4F220064AF20350B1F80090F1
S3150200198008804FF0010B00254FF480340127002018
S3150200199004FA00F132680A4210D1EFF310888BF391
S315020019A0108832680BFA00F0114331603168054342
S315020019B01E20012100F0E2F888F31088F8074FF0A4
S315020019C001004FF00007E3D14EF2750740F22041C5
S315020019D0C4F20107C2F20021387800F00F0051F874
S315020019E0200017F8081C01F00F01022901D8012274
S315020019F00BE0CA1E052A06D248F29801C0F200215F
S31502001A0051F8221003E00839102202FA01F1B0FB64
S31502001A10F1F04DF68361C4F21B31A0FB01016FF0B8
S31502001A20010000EA5140012100F0A8F8387840F0A0
S31502001A304000387000BF00BF97F90000B0F1FF3FC9
S31502001A40FADC9AF8010007F8080C9AF8000040F050
S31502001A50400038709AF80000387000BF00BF00BF1F
S31502001A6097F900000028FBD400204FF0010A4FF43A
S31502001A708038012400BF00BF25FA00F1C90710D043
S31502001A80EFF310878AF3108808FA00F0316821EA2A
S31502001A900000306030681E20012100F06FF887F3E5
S31502001AA01088E0074FF001004FF00004E4D14EF237
S31502001AB0FA3149F42540C4F20101088001B0BDE8BB
S31502001AC0F08F40F22041C2F2002151F82000704707
S31502001AD0B0B542F22404C820C4F220040121002534
S31502001AE0257100F04BF82570207808B12FF005C05B
S31502001AF0207840F00200207020788007FCD4002075
S31502001B0004F8020C00BF00BF14F8020C08B12FF053
S31502001B1005C84FF0030E002004F11C0100BF00BFF0
S31502001B2011F8102002F07F0201F8102000BF00BF5A
S31502001B3011F91020002AFBD401300FF00FC8012042
S31502001B4000F025F94EF64C410120C4F201010022B3
S31502001B500A70BDE8B04000F0F3B8D4D4704701462D
S31502001B6000220020C0F206620A607047D4D4D4D4A0
S31502001B7000BE00BF00BF00BFFEE7D4D440F650222D
S31502001B8041F20023C2F20022C0F27A0348431268ED
S31502001B909A420FD344F23F21C0F20F0111444DF68F
S31502001BA08362C4F21B32A1FB0212910CA0FB01015B
S31502001BB0C9B11BE04CF60021C3F69A31B1FBF2F132
S31502001BC048F63812C0F24102904205D24FF47A72B8
S31502001BD05043B0FBF1F006E0B0FBF1F0904205D2C3
S31502001BE04FF47A71484328B100F006B84FF0FF303F
S31502001BF000F002B87047D4D401380028FCD17047EF
S31502001C0040F6E4130246C2F20023002043F82210F3
S31502001C107047D4D4D4D4D4D4F0B581B04CF20015E4
S31502001C2040F6E417C4F200050024C2F20027286831
S31502001C30296A01EA000600BF26FA04F0C00704D0AA
S31502001C4057F8241009B1204688470134152CF3D1E0
S31502001C502E6100BF00BF00BF286A3042FCD101B02E
S31502001C60F0BDD4D400780021C4F2020151F820005C
S31502001C70002818BF0820704701780022C4F2020229
S31502001C800020012342F82130704780B540F63C21FE
S31502001C90C2F20021086041F6B741C0F200211420C9
S31502001CA0FFF7AEFF4CF200110020C4F200014FF420
S31502001CB080120A6080BD142818BF7047882001214F
S31502001CC0C4F20200016040F63C20C2F20020006825
S31502001CD000B10047704794210020C4F2020101229C
S31502001CE00A60704748F2AC00C0F20020008820B1BA
S31502001CF04CF20031C4F2000108607047D4D4D4D447
S31502001D0070B50C468047D4B1C8B947F6C460C0F274
S31502001D10002084689CB1C0684FF4602600F1080573
S31502001D20B5F80500B6EB002F05D155E90202296880
S31502001D30121A04F005FD013C05F11005F0D170BD43
S31502001D40EFF31081012282F3108840F64422C2F298
S31502001D50002232F8103023B132F81030013B22F85B
S31502001D60103032F810207AB94EF2FA3248F2AE0C3E
S31502001D70C4F20102C0F2002C13883CF8100043F4AE
S31502001D80254323EA0000108081F31088704710B5BE
S31502001D90EFF31081012282F3108840F64422C2F248
S31502001DA0002232F8103083B94EF2FA3E48F2AE0CF7
S31502001DB0C4F2010EC0F2002CBEF800403CF810300E
S31502001DC0234343F42543AEF8003032F81030013392
S31502001DD022F8103081F3108810BDD4D480B505489E
S31502001DE07844026804F0C4FC01464FF0FF300C232D
S31502001DF08B5080BD2863000070B543F6004504464B
S31502001E00C4F2000500BF00BF95F8500008B12FF0DC
S31502001E1005C84FF08700A8844FF0100028709CB1C7
S31502001E200020FFF7B4FF4EF253000126C4F2010070
S31502001E3006700020FFF784FF85F8206000BF00BF10
S31502001E4095F850000007FBD40120A87000206870A6
S31502001E5095F8500008B12FF005C842F20350C0F2BF
S31502001E600500A4B14FF40C71A5F8481000BF00BFDD
S31502001E7095F85010C907FBD16864012085F8400027
S31502001E8047F2A831A982A8751120287070BD68642E
S31502001E90012085F8400047F2A831A982A87500BF43
S31502001EA02878C007FCD195F8500008B12FF009C078
S31502001EB00120287470BDD4D443F600401021C4F228
S31502001EC00000017000BF00BF0178C907FCD190F87D
S31502001ED0501009B12FF009C0012101747047D4D402
S31502001EE010B54EF25304C4F20104207838B900202A
S31502001EF0FFF74DFF012020700020FFF721FF43F678
S31502001F000040C4F2000000BF90F8501009B12FF053
S31502001F1005C8002101741121017010BDD4D4D4D496
S31502001F2000F006F8FEF791FDFEE700BE7047D4D436
S31502001F3070B54EF6005540F20120CEF20005C0F211
S31502001F400E004EF200066861CEF20106BFF34F8F15
S31502001F50BFF36F8F2968C1F3035001285FEA1F920E
S31502001F6011F00F0F5FEA0F911142316811D1022869
S31502001F700FD241F0040030604EF20800BFF34F8FDB
S31502001F80CEF20000BFF36F8F016841F48031016029
S31502001F9002E021F004003060BFF34F8FBFF36F8F72
S31502001FA04FF4700040F20001C5F888000020C0F22C
S31502001FB00021A9600024FEF701FDFFF77DFB4EF22A
S31502001FC0FA304EF6B022C4F20100C4F201024AF21D
S31502001FD00251018014704FF4254101800120FEF761
S31502001FE0EDFC40F22000C2F2002080F30A8830683D
S31502001FF0800721D5A868B0F1007F1DD130694FF462
S315020020000071C0F3C300726901FA00F3C2F3C300A0
S3150200201081400020DA08CB080146064642F005C098
S31502002020E6E802010FF005C04FF0005243F005C08A
S31502002030E2E802010FF005C0002000F099F8FFF770
S315020020403BF9FFF745FD0320FFF7A1FE4FF00E0E09
S3150200205040F63050C4F2400020F8044B0FF005C0A1
S315020020604EF210140320C4F20104FFF769FE0320A6
S31502002070FFF78DFE44F204000021C4F22000016045
S3150200208041608160C1600320FFF75AFED4F8C8029E
S31502002090800714D42078A0B10120FFF778FE00BF94
S315020020A094F9000010F1410FFADC0020207000BF05
S315020020B020783F28FCD80120FFF742FE01E0D4F841
S315020020C0C802D4F8C802400715D42079A8B1012065
S315020020D0FFF75DFE00BF00BF94F9040010F1410F47
S315020020E0FADC0020207100BF20793F28FCD80120AD
S315020020F0FFF726FE01E0D4F8C8020220FEF75EFCD6
S31502002100012000F035F840F6A844C2F20024204629
S3150200211004F04CFB204604F031FBBFF34F8FBFF3B4
S315020021206F8F0020C5F8500248F2101048F21011C5
S31502002130C0F20020C0F20021BFF34F8F081ABFF38E
S315020021406F8F8410012C08DB48F21015C0F20025AF
S3150200215055F8040B8047013CFAD1FFF7C3FD002076
S31502002160BDE87040FFF7FABC7047D4D4D4D4D4D4B7
S31502002170F0B581B047F6C4650446C0F200252E6864
S3150200218076B16868071D00BF7879844204D157E9A1
S315020021900101091A04F07AFA013E07F10C07F3D19C
S315020021A0AE6896B1E86800F1080500BF00BF00BF3F
S315020021B06879844205D155E902022968121A04F0A7
S315020021C0BFFA013E05F11005F2D101B0F0BDD4D43B
S315020021D010B582B070B104461820019001981828F3
S315020021E017D12046002140F8041B00F04FFA204682
S315020021F002B010BD47F2652047F2B71247F2CF632D
S31502002200C0F20020C0F20022C0F200235D21FFF7D7
S31502002210AFFC47F2652047F2B71247F2CF13C0F27E
S315020022200020C0F20022C0F200236521FFF7A0FCC5
S315020022302DE9F041B2F1807F4BD21446002A57D0E5
S3150200224098460F46054603F08DFAB8F1000F01D005
S3150200225000285CD002F06AFA284639462E6800F059
S3150200226067F83743F843204203D12868A043286021
S315020022702AE0B8F1000F26D0281D44F0A06142469C
S3150200228003F00DF802F0ACFA50B94EF604504FF0D6
S315020022908051CEF200000160BFF34F8FBFF36F8F04
S315020022A003F073FA064680010AD4FEF71CFD2E6877
S315020022B0F043204202D126EA04002860FEF741FDDF
S315020022C026F07F4702E02F6802F08AFA3846BDE818
S315020022D0F08147F2652046F6D46246F62F63C0F2D5
S315020022E00020C0F20022C0F20023C521FFF740FC05
S315020022F047F2652046F6D46246F66763C0F20020CE
S31502002300C0F20022C0F20023C621FFF731FC47F2D9
S31502002310652046F6D46246F63233C0F20020C0F299
S315020023200022C0F20023C921FFF722FCD4D4D4D460
S315020023302DE9F04198B30D46B1F1807F3FD20446B4
S3150200234000F10C0802F0F2F927692068474540EAD5
S31502002350050020601DD000253846D7E9003723F056
S315020023607F4221685E0101EA02060DD436B141F0D0
S315020023700071DB0148BF154303F0A6F84745EBD1D0
S3150200238005E000BF00BF00BF9642F0D0F6E7206826
S31502002390A843206002F024FA2068BDE8F08147F2E3
S315020023A0652046F6853247F20C43C0F20020C0F2A1
S315020023B00022C0F2002340F23221FFF7D9FB47F296
S315020023C0652046F6853246F64273C0F20020C0F218
S315020023D00022C0F2002340F23321FFF7C9FB2DE9A8
S315020023E0F04381B000286ED00D46B1F1807F7AD2DB
S315020023F0002D00F0888004461F469046DDF82090A6
S3150200240003F0B0F9B9F1000F02D0002800F08B807A
S3150200241002F08CF9266816EA05005FEA1F91A842C7
S315020024205FEA0F90002F51EA008000283FD0B9F1F1
S31502002430000F42D04146B8F1000F18BF4FF080712D
S31502002440002F04F1040018BF41F0806129434A4677
S3150200245002F025FF02F0C4F950B94EF604504FF0CF
S315020024608051CEF200000160BFF34F8FBFF36F8F32
S3150200247003F08BF90646800116D4FEF734FC266873
S3150200248016EA05005FEA0F91A8425FEA1F90002F45
S3150200249051EA0080B8F1000F18BF002802D026EAE0
S315020024A005002060FEF74DFC26F07F4607E0B8F1F6
S315020024B0000F02D026EA0500206002F091F93046AC
S315020024C001B0BDE8F08347F2652047F28D5247F22C
S315020024D00C43C0F20020C0F20022C0F2002340F2F8
S315020024E04711FFF745FB47F2652047F28D5246F644
S315020024F02F63C0F20020C0F20022C0F200234FF484
S31502002500A471FFF735FB47F2652047F28D5246F676
S315020025106763C0F20020C0F20022C0F2002340F23C
S315020025204911FFF725FB47F2652047F28D5246F621
S315020025303233C0F20020C0F20022C0F200234FF470
S31502002540A671FFF715FB70B570B10D46B1F1807F2C
S315020025501AD20446FEF7C7FB266826EA0500206063
S31502002560FEF7EFFB304670BD47F2652047F6E622DE
S3150200257047F20C43C0F20020C0F20022C0F2002350
S315020025804FF4F171FFF7F4FA47F2652047F6E622B7
S3150200259047F6E943C0F20020C0F20022C0F200234F
S315020025A040F2E311FFF7E4FA1021EFF3118281F30F
S315020025B01188006882F311887047D4D4D4D4D4D455
S315020025C0B0B540B3044602F0B1F8606878B104F1E0
S315020025D00C0500BF00BF00BF2069A8420BD04FF018
S315020025E0007102F071FF606808B12FF00BC8BDE8F8
S315020025F0B04002F0F5B847F2652047F2972246F658
S315020026007673C0F20020C0F20022C0F2002340F22C
S315020026109A21FFF7ADFA47F2652047F2972247F271
S31502002620ED73C0F20020C0F20022C0F2002340F295
S315020026308E21FFF79DFA80B520B199B1024601209D
S315020026400A6080BD47F2652047F68D1247F2ED73A8
S31502002650C0F20020C0F20022C0F2002340F2C221E2
S31502002660FFF786FA47F2652047F68D1246F64713BC
S31502002670C0F20020C0F20022C0F2002340F2C321C1
S31502002680FFF776FAFFF754BEFFF75DBF01464FF03C
S31502002690FF3241F8082F0022C0E90311C0E90021E8
S315020026A0704700210161704742684A6093688B60F7
S315020026B05960916008610168013101607047D4D4A4
S315020026C080B5D1F800C01CF1010207D000F1080262
S315020026D09646526813686345FAD903E0D0F810E0CB
S315020026E0DEF804204A609160C1F808E0CEF80410D2
S315020026F0086101680131016080BDD0E901230169E9
S31502002700936042685A604A68824201D182684A608E
S3150200271000220261086801380860704770B5002817
S315020027204BD00446C06BC0B30E46216CA0FB010120
S3150200273099BBFEF7D8FAD4E90F010025226801FBFE
S3150200274000230138A56300FB0120C4E90123E060F0
S31502002750FF2084F8440084F8450004F110004EB1CD
S31502002760FFF794FF04F12400FFF790FFFEF7E9FA62
S31502002770012070BD01680029F8D002F01DFE002874
S31502002780F4D04EF604504FF08051CEF200000160B4
S31502002790BFF34F8FBFF36F8FE8E747F2D24047F69A
S315020027A0FB2247F67803C0F20020C0F20022C0F2F4
S315020027B000234FF4B671FFF7DBF947F2D24047F632
S315020027C0FB2247F64703C0F20020C0F20022C0F205
S315020027D0002340F23711FFF7CBF910B582B043B3AD
S315020027E0B8B11C4601B9A2B901B192B1482301930D
S315020027F0019B482B2DD1002954EA0282019BC4E990
S315020028000F01012120462260FFF788FF204602B011
S3150200281010BD47F2D24047F2A92247F2E263C0F264
S315020028200020C0F20022C0F200234FF4D871FFF755
S315020028309FF947F2D24047F2A92246F61B53C0F24D
S315020028400020C0F20022C0F200234FF4C271FFF74B
S315020028508FF947F2D24047F2A92247F2EF13C0F2AC
S315020028600020C0F20022C0F200234FF4CB71FFF722
S315020028707FF980B538B1B2B1034609B1186808606C
S315020028800120136080BD47F2D24047F2B40247F6F8
S315020028904703C0F20020C0F20022C0F2002340F239
S315020028A0C711FFF765F947F2D24047F2B40247F281
S315020028B0F973C0F20020C0F20022C0F200234FF4E6
S315020028C0E471FFF755F9B0B582B060B10D468142A9
S315020028D009D81446002100222346FFF77EFFA5638E
S315020028E0204602B0B0BD47F2D24047F2184246F641
S315020028F02953C0F20020C0F20022C0F200234FF496
S315020029005E71FFF735F9D4D42DE9F04F83B0002874
S31502002910029200F09D8004461D461646894619B964
S31502002920206C002840F0C480022D03D1E06B012800
S3150200293040F0AE8002F016FF10B9002E40F09880EB
S31502002940FEF7D1F9022DA06B5BD0E16B884258D31A
S3150200295001206F464FF0000B02AE00BF00BF00BF62
S315020029600299002968D0C00702D0384602F05AFE02
S31502002970FEF7E7F901F0DAFEFEF7B5F994F844003E
S31502002980FF2808BF84F844B094F84500FF2808BF22
S3150200299084F845B0FEF7D5F93846314602F04FFEC7
S315020029A000284CD1FEF79FF9D4F838A0D4F83C8021
S315020029B0FEF7C7F9C24517D1029904F1100002F0D9
S315020029C04DFC204600F0B4F801F00AFF88B94EF635
S315020029D004504FF08051CEF200000160BFF34F8FDA
S315020029E0BFF36F8F05E000BF204600F0A1F801F0AB
S315020029F0F7FEFEF778F9A06BE16B88424FF0000014
S31502002A00AED2204649462A4600F062F854F8240F10
S31502002A1070B1204602F0D0FC50B14EF604504FF091
S31502002A208051CEF200000160BFF34F8FBFF36F8F6C
S31502002A30FEF787F9012008E0FEF783F904E0204655
S31502002A4000F076F801F0CCFE002003B0BDE8F08F6E
S31502002A5047F2D24046F6983247F64703C0F20020C4
S31502002A60C0F20022C0F2002340F2B631FFF780F82E
S31502002A7047F2D24046F6983246F63233C0F200208A
S31502002A80C0F20022C0F2002340F2BB31FFF770F819
S31502002A9047F2D24046F6983246F63153C0F200204B
S31502002AA0C0F20022C0F200234FF46E71FFF760F805
S31502002AB047F2D24046F6983247F61F53C0F200203C
S31502002AC0C0F20022C0F2002340F2B731FFF750F8FD
S31502002AD070B5866B036C04462BB31546B2B1E0683B
S31502002AE01A4603F02DFE2168E268206C121AE26093
S31502002AF08A4203D24042A1680844E060022D5FEA9E
S31502002B001F90002E5FEA0080361A0CE060681A46B3
S31502002B1003F016FED4E90101226C1044606088427B
S31502002B2001D320686060701CA06370BDD4D4D4D475
S31502002B30F0B581B00446FEF7D6F894F94560012E49
S31502002B400EDB04F1240500BF286848B1284602F0CE
S31502002B5033FC08B102F0C3FD70B2013E0128F3DC7A
S31502002B60FF2684F84560FEF7ECF8FEF7BCF894F908
S31502002B704470012F10DB04F1100500BF00BF00BF37
S31502002B80286848B1284602F017FC08B102F0A7FDF2
S31502002B9078B2013F0128F3DC84F8446001B0BDE855
S31502002BA0F040FEF7CEB82DE9F047002849D0054699
S31502002BB01E4690460F4611B9286C002861D1022E96
S31502002BC002D1E86B01284CD1FEF721F9EFF3118906
S31502002BD0102080F31188022EA86B04D0E96B88427C
S31502002BE001D3002029E095F94540A86B28463946CD
S31502002BF032465FFA84FAFFF76BFFBAF1FF0F0BD08A
S31502002C0002F0B1FAA04217D9BAF17F0F49D00AF100
S31502002C10010085F845000FE055F8240F60B12846FB
S31502002C2002F0CAFB01460120B8F1000F18BF0029C5
S31502002C3003D0C8F8000000E0012089F31188BDE83E
S31502002C40F08747F2D24046F6AA3247F64703C0F269
S31502002C500020C0F20022C0F200234FF49261FEF778
S31502002C6087FF47F2D24046F6AA3246F63153C0F201
S31502002C700020C0F20022C0F2002340F29241FEF789
S31502002C8077FF47F2D24046F6AA3247F61F53C0F202
S31502002C900020C0F20022C0F2002340F29141FEF76A
S31502002CA067FF47F2D24046F6AA3247F2A153C0F274
S31502002CB00020C0F20022C0F2002340F21E51FEF7AD
S31502002CC057FF2DE9F04100283CD00546006C00284C
S31502002CD048D12868884610B9A868002852D1FEF75C
S31502002CE096F81020EFF3118680F31188A86BE96B32
S31502002CF0884210D295F945400130A863E7B2FF2F0A
S31502002D000BD002F030FAA04217D97F2F4AD0781C96
S31502002D1085F8450011E0002010E055F8240F60B157
S31502002D20284602F049FB01460120B8F1000F18BF00
S31502002D30002903D0C8F8000000E0012086F31188BC
S31502002D40BDE8F08147F2D24046F6C33247F6470362
S31502002D50C0F20020C0F20022C0F200234FF4A861A4
S31502002D60FEF706FF47F2D24046F6C33247F6403335
S31502002D70C0F20020C0F20022C0F2002340F2445109
S31502002D80FEF7F6FE47F2D24046F6C33247F6CC13BA
S31502002D90C0F20020C0F20022C0F2002340F24951E4
S31502002DA0FEF7E6FE47F2D24046F6C33247F2A15399
S31502002DB0C0F20020C0F20022C0F2002340F2CB5142
S31502002DC0FEF7D6FED4D4D4D42DE9F04F83B0002832
S31502002DD0029200F0AA8004461646894619B9206C6A
S31502002DE0002840F0C28002F0BDFC10B9002E40F06F
S31502002DF0AC80FDF778FFD4F838A0BAF1000F29D0DD
S31502002E00226C52B1D4E902011144E160814201D33C
S31502002E102168E160484603F093FC54F8100F00283D
S31502002E20AAF10100A0620ED0204602F0C5FA50B106
S31502002E304EF604504FF08051CEF200000160BFF30F
S31502002E404F8FBFF36F8F0124FDF77BFF204603B040
S31502002E50BDE8F08F04F1240801206F464FF0000B05
S31502002E6002AE00BF00BF00BF0299002959D0C007B9
S31502002E7002D0384602F0D6FBFDF763FF01F056FC9E
S31502002E80FDF731FF94F84400FF2808BF84F844B0E8
S31502002E9094F84500FF2808BF84F845B0FDF751FFB6
S31502002EA03846314602F0CBFB70B12046FFF740FEB2
S31502002EB001F096FCFDF717FFA56BFDF742FF95B3F0
S31502002EC026E000BF00BF00BFFDF70DFFA56BFDF7B3
S31502002ED038FF2DB12046FFF72BFE01F081FC17E0EB
S31502002EE00299404602F0BAF92046FFF721FE01F0A8
S31502002EF077FC68B94EF604504FF08051CEF20000CE
S31502002F000160BFF34F8FBFF36F8F00BF00BF00BFDB
S31502002F10FDF7E9FED4F838A00020BAF1000FA3D0DD
S31502002F206EE7002490E7002490E747F2D24047F28A
S31502002F303C4246F6AD43C0F20020C0F20022C0F287
S31502002F40002340F2E951FEF713FE47F2D24047F260
S31502002F503C4246F63233C0F20020C0F20022C0F2F2
S31502002F60002340F2F251FEF703FE47F2D24047F247
S31502002F703C4247F2ED63C0F20020C0F20022C0F2EA
S31502002F80002340F2ED51FEF7F3FDD4D4D4D4D4D4C9
S31502002F902DE9F04F83B00028029100F0908004469C
S31502002FA0006C002840F09B800D4602F0DBFB10B956
S31502002FB0002D40F0A480FDF796FEA06BD0B154F828
S31502002FC0101F0138A06271B1204602F0F5F950B126
S31502002FD04EF604504FF08051CEF200000160BFF36E
S31502002FE04F8FBFF36F8F0124FDF7ABFE204603B070
S31502002FF0BDE8F08F4EF6045904F1240801216E460D
S315020030004FF0000B02AFCEF200094FF0805A00BF1C
S31502003010029800284FD0C80702D0304602F002FBC1
S31502003020FDF78FFE01F082FBFDF75DFE94F844008A
S31502003030FF2808BF84F844B094F84500FF2808BF6B
S3150200304084F845B0FDF77DFE3046394602F0F7FAC0
S3150200305070B12046FFF76CFD01F0C2FBFDF743FE9F
S31502003060A56BFDF76EFE45B31EE000BF00BF00BFB5
S31502003070FDF739FEA56BFDF764FE2DB12046FFF77D
S3150200308057FD01F0ADFB0FE00299404602F0E6F86B
S315020030902046FFF74DFD01F0A3FB28B9C9F800A0B1
S315020030A0BFF34F8FBFF36F8FFDF71DFEA06B00219D
S315020030B00028ADD083E7002496E7002496E747F27E
S315020030C0D24047F20A2246F6AD43C0F20020C0F2D1
S315020030D00022C0F2002340F28261FEF749FD47F268
S315020030E0D24047F20A2247F64033C0F20020C0F22D
S315020030F00022C0F2002340F28661FEF739FD47F254
S31502003100D24047F20A2246F63233C0F20020C0F21B
S315020031100022C0F2002340F28B61FEF729FDD4D4CF
S315020031202DE9F04F83B00028029200F0A1800446F8
S315020031301646894619B9206C002840F0B98002F07B
S3150200314011FB10B9002E40F0A380FDF7CCFDA06B59
S3150200315038B3226CE5684AB1A068A918E1608142D9
S3150200316001D32168E160484603F0EAFA54F8240FD5
S3150200317044F8185C70B1204602F01EF950B14EF6C2
S3150200318004504FF08051CEF200000160BFF34F8F22
S31502003190BFF36F8F0124FDF7D4FD204603B0BDE8CF
S315020031A0F08F04F1240801206F464FF0000B02AEA7
S315020031B00299002958D0C00702D0384602F032FAE6
S315020031C0FDF7BFFD01F0B2FAFDF78DFD94F844005C
S315020031D0FF2808BF84F844B094F84500FF2808BFCA
S315020031E084F845B0FDF7ADFD3846314602F027FAC0
S315020031F070B12046FFF79CFC01F0F2FAFDF773FD71
S31502003200A56BFDF79EFD8DB326E000BF00BF00BF94
S31502003210FDF769FDD4F838A0FDF793FDBAF1000F6A
S3150200322005D02046FFF784FC01F0DAFA14E0029991
S31502003230404602F013F82046FFF77AFC01F0D0FA76
S3150200324050B94EF604504FF08051CEF200000160A4
S31502003250BFF34F8FBFF36F8FFDF745FDA06B0028BD
S315020032604FF00000A4D074E7002494E7002494E70A
S3150200327047F2D24047F60E3246F6AD43C0F2002080
S31502003280C0F20022C0F2002340F26171FEF770FC28
S3150200329047F2D24047F60E3246F63233C0F20020EB
S315020032A0C0F20022C0F2002340F26A71FEF760FC0F
S315020032B047F2D24047F60E3247F2ED63C0F20020E3
S315020032C0C0F20022C0F2002340F26571FEF750FC04
S315020032D02DE9F047002849D0054690460E4611B919
S315020032E0286C002852D1FDF792FD1020EFF31189C8
S315020032F080F31188AC6B14B395F944702A6C5FFAAB
S3150200330087FA52B1D5E902011144E960814201D33B
S315020033102968E960304603F013FABAF1FF0FA4F107
S315020033200100A8630DD001F01EFFB84219D9BAF107
S315020033307F0F3BD00AF1010085F8440011E000201E
S3150200334010E055F8100F60B1284602F035F8014634
S315020033500120B8F1000F18BF002903D0C8F80000F9
S3150200336000E0012089F31188BDE8F08747F2D240D8
S3150200337047F6A81247F64703C0F20020C0F2002221
S31502003380C0F2002340F2FD71FEF7F2FB47F2D24093
S3150200339047F6A81247F2D203C0F20020C0F200227A
S315020033A0C0F2002340F2FE71FEF7E2FB47F2D24082
S315020033B047F6A81246F2E673C0F20020C0F20022D7
S315020033C0C0F2002340F64401FEF7D2FBF0B581B00D
S315020033D010B304460D46006C71B370B3FDF717FDCA
S315020033E01020EFF3118680F31188A06B78B1226C5E
S315020033F0E7684AB1A068B918E160814201D3216841
S31502003400E160284603F09CF90120E76000E0002015
S3150200341086F3118801B0F0BD47F2D24047F20B6243
S3150200342047F64703C0F20020C0F20022C0F2002392
S3150200343040F66101FEF79CFB78B947F2D24047F2AB
S315020034400B6247F64F03C0F20020C0F20022C0F220
S31502003450002340F66301FEF78BFB47F2D24047F2A8
S315020034600B6247F2D203C0F20020C0F20022C0F281
S31502003470002340F66201FEF77BFB10B538B1044625
S31502003480FDF731FCA46BFDF75CFC204610BD47F24C
S31502003490D24047F2FD4247F63B13C0F20020C0F28B
S315020034A00022C0F2002340F69B01FEF761FB10B535
S315020034B048B10446FDF717FCA06BE16B0C1AFDF749
S315020034C040FC204610BD47F2D24047F21D6247F645
S315020034D04703C0F20020C0F20022C0F200234FF4DC
S315020034E00B61FEF745FB08B1806B704780B547F26A
S315020034F0D24047F2953247F64703C0F20020C0F2A7
S315020035000022C0F2002340F6C501FEF731FBD4D4F7
S31502003510A0B140F6542C0021C2F2002C00BF00BF1D
S315020035200CEBC1035A68824203D001310A29F7D152
S31502003530704700204CF831005860704780B547F25A
S31502003540D24047F2467247F64703C0F20020C0F265
S315020035500022C0F2002340F6D401FEF709FBD4D4C0
S31502003560A0B140F6542C0021C2F2002C00BF00BFCD
S315020035700CEBC1035A68824203D001310A29F7D102
S31502003580704700204CF831005860704780B547F20A
S31502003590D24047F2537247F63B13C0F20020C0F204
S315020035A00022C0F2002340F61D41FEF7E1FA006C4C
S315020035B07047C06B704720B1806B00285FEA1F908E
S315020035C0704780B547F2D24046F6D53247F64703F2
S315020035D0C0F20020C0F20022C0F2002340F65221BF
S315020035E0FEF7C6FA28B1816BC06B81425FEA1F9073
S315020035F0704780B547F2D24047F6755247F6470301
S31502003600C0F20020C0F20022C0F2002340F67F2161
S31502003610FEF7AEFAD4D4D4D4B0B5F8B1C9B140F6F7
S31502003620542E4FF0000CC2F2002E0022002300BFDF
S315020036300EEB02046568A8420CD01BB92368002B66
S3150200364054EA0C830832502AF2D1002B18BFC3E980
S315020036500010B0BD2346C3E90010B0BD47F2D24008
S3150200366046F6080247F63B13C0F20020C0F20022DB
S31502003670C0F2002340F6C931FEF77AFAD4D4D4D484
S3150200368098B140F654220021C2F2002200BF00BFC8
S3150200369002EBC1035B68834204D001310A29F7D1E8
S315020036A00020704752F83100704780B547F2D24089
S315020036B047F62B2247F63B13C0F20020C0F2002247
S315020036C0C0F2002340F6FB31FEF752FA70B51546FA
S315020036D00E460446FDF707FB94F84400FF2802D184
S315020036E0002084F8440094F84500FF2802D1002007
S315020036F084F84500FDF725FBA06B28B904F12400E8
S3150200370031462A4601F01CFE2046BDE87040FFF70E
S315020037100FBAD4D42DE9F04182B09BB3089F002F93
S3150200372040D00D46064681424CD81C46022A06D097
S31502003730012A09D1042E65D94FF0030806E0002EAE
S3150200374070D04FF0060801E04FF0020824200190E5
S315020037500198242846D1552220463146012D98BF8C
S31502003760012502F08DFF2021384602F08FFFBC6151
S315020037700020C7E90265386287F81C80384602B025
S31502003780BDE8F08146F65B1046F6B94247F21E23C3
S31502003790C0F20020C0F20022C0F200234FF4DE7114
S315020037A0FEF7E6F946F65B1046F6B94246F64B4395
S315020037B0C0F20020C0F20022C0F2002340F2BD1186
S315020037C0FEF7D6F946F65B1046F6B94247F63A23B5
S315020037D0C0F20020C0F20022C0F200234FF4DF71D3
S315020037E0FEF7C6F946F65B1046F6B94247F234636F
S315020037F0C0F20020C0F20022C0F200234FF4F271A0
S31502003800FEF7B6F946F65B1046F6B94247F2697319
S31502003810C0F20020C0F20022C0F200234FF4E87189
S31502003820FEF7A6F946F65B1046F6B94247F60803D6
S31502003830C0F20020C0F20022C0F200234FF4EB7166
S31502003840FEF796F980B558B1D1B14AB3037F9B070B
S3150200385001D4002080BD83690B601060012080BD09
S3150200386046F65B1047F2231246F6E463C0F20020E6
S31502003870C0F20022C0F200234FF40571FEF778F978
S3150200388046F65B1047F2231247F21453C0F20020A9
S31502003890C0F20022C0F2002340F21521FEF768F9B9
S315020038A046F65B1047F2231246F6DC73C0F200209E
S315020038B0C0F20022C0F2002340F21621FEF758F9A8
S315020038C080B5C8B1017F890712D4013008BF80BD17
S315020038D046F65B1047F2C32247F61B43C0F20020AE
S315020038E0C0F20022C0F2002340F24321FEF740F963
S315020038F0242102F0CBFE80BD46F65B1047F2C322BE
S3150200390046F6E463C0F20020C0F20022C0F20023B1
S3150200391040F23321FEF72CF92DE9F04381B020B3B2
S315020039200446FDF7E0F9206908B1002517E0606951
S315020039300025A0B9D4E902685522A76994F81C901B
S315020039403846314602F09CFE2021204602F09EFEB9
S3150200395025620125C4E90268A76184F81C90FDF777
S31502003960F0F9284601B0BDE8F08346F65B1047F24F
S31502003970B33246F6E463C0F20020C0F20022C0F27F
S31502003980002340F25E21FEF7F3F82DE9F04730B34B
S3150200399004461020EFF3118680F31188206908B1DE
S315020039A0002517E060690025A0B9D4E902895522ED
S315020039B0A76994F81CA03846414602F061FE202110
S315020039C0204602F063FE25620125C4E90289A76149
S315020039D084F81CA086F311882846BDE8F08746F6CF
S315020039E05B1046F6B92246F6E463C0F20020C0F246
S315020039F00022C0F200234FF42771FEF7B9F850B146
S31502003A008268012998BF0121914202D2C160012038
S31502003A1070470020704780B546F65B1046F67C621A
S31502003A2046F6E463C0F20020C0F20022C0F2002390
S31502003A304FF43671FEF79CF880B580B1D0F808C015
S31502003A40D0F800E00268436801688E45F8D102EBBF
S31502003A500C00D9430844604528BF881880BD46F645
S31502003A605B1047F2566246F6E463C0F20020C0F2EB
S31502003A700022C0F2002340F2FA21FEF779F840B1A3
S31502003A804168826811440068081A811A50EA318036
S31502003A90704780B546F65B1047F6421246F6E46377
S31502003AA0C0F20020C0F20022C0F2002340F21E3112
S31502003AB0FEF75EF8D4D4D4D42DE9F04F85B00029B0
S31502003AC0049300F0A3800446002800F0AF809146DC
S31502003AD0227FA068D207A0F1010203D1914559EADB
S31502003AE032860AE019F1040F80F0B08009F104066B
S31502003AF0964202D90022049246E0002B44D00DF1F0
S31502003B0008080191404601F068FD4FF0000B0DF1E7
S31502003B10100A00BF00BF00BFFDF7E5F8A06800BFAE
S31502003B202368216862682768BB42F9D10B18D24321
S31502003B309F18874228BF5718B7421CD2216A002015
S31502003B4002F048F96069002850D101F0FCFD60617D
S31502003B50FDF7F7F8206A002100220023049D009554
S31502003B6001F078FE40465146C4F814B001F067FDF4
S31502003B7018B92FF02FC8FDF7E4F80FB101990FE03D
S31502003B80A068019900BF00BF23682568626827689C
S31502003B90BB42F9D12B18D2439F18874228BF571927
S31502003BA020464A463B46009600F060F80546C8B1F4
S31502003BB06068D4E9021208442368C01A411A50EA1E
S31502003BC0318090420ED300F0B1FD206940B12069E8
S31502003BD0216A002200230026009601F0A3FE266138
S31502003BE000F0FEFD284605B0BDE8F08F46F65B10F4
S31502003BF046F67E5246F6F363C0F20020C0F2002279
S31502003C00C0F2002340F27531FDF7B2FF46F65B10B3
S31502003C1046F67E5247F6E453C0F20020C0F2002276
S31502003C20C0F2002340F23531FDF7A2FF46F65B10E3
S31502003C3046F67E5246F6E463C0F20020C0F2002247
S31502003C40C0F2002340F23631FDF792FF46F65B10D2
S31502003C5046F67E5247F23053C0F20020C0F20022EE
S31502003C60C0F2002340F24531FDF782FF70B582B003
S31502003C700546D0F804C0007F14460E46C00703D19D
S31502003C809C4254EA33840AE00698019483420FD395
S31502003C9001A904222846634600F0F6FA84463CB19E
S31502003CA0284631462246634600F0EEFA686000E096
S31502003CB00024204602B070BD2DE9F04182B00029F1
S31502003CC03ED0044600284BD094F81CC09846A06803
S31502003CD025682768666823689D42F9D13B18F64332
S31502003CE00CF001053344834202EB850028BFF31929
S31502003CF000902046FFF7BAFF0646E8B16068D4E9AD
S31502003D00021208442368C01A411A50EA31809042CE
S31502003D1012D31020EFF3118780F31188206948B17E
S31502003D202069216A002200230025CDE9005801F00E
S31502003D30BDFE256187F31188304602B0BDE8F081E9
S31502003D4046F65B1046F6D32247F6E453C0F200204D
S31502003D50C0F20022C0F2002340F2BA31FDF708FF9A
S31502003D6046F65B1046F6D32246F6E463C0F200201E
S31502003D70C0F20022C0F2002340F2BB31FDF7F8FE8A
S31502003D802DE9F04381B0002964D00446002871D0A1
S31502003D90207F89461F469046C10703D1400703D4B8
S31502003DA0002502E0042500E0E56877B1FCF79BFFF9
S31502003DB06068A16808442268801A411A50EA31866E
S31502003DC0AE420BD9FCF7BDFF25E06068A168084446
S31502003DD02268801A411A50EA31861CE0216A0020C4
S31502003DE0002601F0F7FF2069002853D101F0ABFC51
S31502003DF02061FCF7A6FF206A00210022002300971B
S31502003E0001F028FD2661A068616801442268891ACA
S31502003E10081A51EA3086AE4217D92046494642462A
S31502003E20334600F047F880B1054600F07FFC606932
S31502003E3040B16069216A002200230026009601F043
S31502003E4071FD666100F0CCFC00E00025284601B059
S31502003E50BDE8F08346F65B1046F6A90247F24A43EE
S31502003E60C0F20020C0F20022C0F2002340F2274135
S31502003E70FDF77EFE46F65B1046F6A90246F6E463B9
S31502003E80C0F20020C0F20022C0F200234FF4856186
S31502003E90FDF76EFE46F65B1046F6A90247F69C0350
S31502003EA0C0F20020C0F20022C0F2002340F25341C9
S31502003EB0FDF75EFE2DE9F04182B004460568007FFB
S31502003EC01F4616468846C0070DD001A90422204681
S31502003ED02B4600F054F801990546B142A7F10407B2
S31502003EE088BF00210E46BE4256EA378636B12046C4
S31502003EF0414632462B4600F042F82060304602B078
S31502003F00BDE8F08180B582B0C8B1017FC90713D080
S31502003F10426881680A440368D21A8A4238BF00217D
S31502003F20531A052B06D3036801A9042200F027F8C9
S31502003F30019802E08A4212D1002002B080BD46F604
S31502003F405B1046F6905246F6E463C0F20020C0F2D9
S31502003F500022C0F2002340F29941FDF709FE46F61F
S31502003F605B1046F6905247F25253C0F20020C0F25E
S31502003F700022C0F2002340F2AE41FDF7F9FD2DE921
S31502003F80F04104468068C71A1646974257EA3282BB
S31502003F901D461344834214D88846A06941194046F7
S31502003FA002F0CEFBBE4205D908EB0700A169F21B5F
S31502003FB002F0C6FBA819A168411A50EA3180BDE891
S31502003FC0F08146F65B1047F6E40247F2C353C0F2AD
S31502003FD00020C0F20022C0F2002340F20361FDF786
S31502003FE0C7FD2DE9F04182B089B3044600283ED0D0
S31502003FF01D46207F6368A7683B4426689B1B00F02A
S315020040000100DF1B53EA3783B3EB800F1AD9204630
S31502004010FFF750FFB0B106461020EFF3118780F389
S315020040201188606958B16069216A002200234FF045
S315020040300008CDE9008501F039FDC4F8148087F344
S31502004040118800E00026304602B0BDE8F08146F64F
S315020040505B1046F6EF3247F24A43C0F20020C0F246
S315020040600022C0F2002340F2C741FDF781FD46F669
S315020040705B1046F6EF3246F6E463C0F20020C0F269
S315020040800022C0F200234FF49961FDF771FD28B1B9
S315020040900168406888425FEA1F90704780B546F61D
S315020040A05B1046F6996246F6E463C0F20020C0F25F
S315020040B00022C0F2002340F23B51FDF759FDD4D451
S315020040C010B5C8B190F81CC0D0F808E000BF00BF18
S315020040D00168036842680468A142F9D103EB0E0045
S315020040E0D14308440CF00102704528BFC818B0EB52
S315020040F0820F5FEA8F9010BD46F65B1047F6D0023C
S3150200410046F6E463C0F20020C0F20022C0F20023A9
S3150200411040F25751FDF72CFD70B582B0C8B1044686
S315020041201020EFF3118680F311882069002558B11B
S315020041302069D4F820C000220023CDE9005161464F
S3150200414001F0B4FC2561012586F31188284602B0E8
S3150200415070BD46F65B1046F6EC2246F6E463C0F204
S315020041600020C0F20022C0F2002340F27F51FDF788
S31502004170FFFC70B582B0C8B104461020EFF3118679
S3150200418080F311886069002558B16069D4F820C0AF
S3150200419000220023CDE90051614601F087FC6561EA
S315020041A0012586F31188284602B070BD46F65B10DB
S315020041B047F6612246F6E463C0F20020C0F200220E
S315020041C0C0F2002340F2A651FDF7D2FC08B1006A04
S315020041D0704780B546F65B1047F2534246F6E463F3
S315020041E0C0F20020C0F20022C0F2002340F2696150
S315020041F0FDF7BEFC80B538B10269AAB942691ABB9D
S3150200420091BB0021016280BD46F65B1047F648422B
S3150200421046F6E463C0F20020C0F20022C0F2002398
S315020042204FF4CF61FDF7A4FC46F65B1047F6484211
S3150200423047F69C03C0F20020C0F20022C0F200231F
S3150200424040F27B61FDF794FC46F65B1047F6484266
S3150200425046F6F363C0F20020C0F20022C0F2002349
S3150200426040F27C61FDF784FC46F65B1047F6484255
S3150200427047F24113C0F20020C0F20022C0F200232E
S3150200428040F27F61FDF774FC2DE9F0410446806837
S31502004290C71A1646974257EA32821D46134483428C
S315020042A016D8A0698846284402F04AFABE4208D9BE
S315020042B0A068F21B82421BD8A06908EB070102F034
S315020042C03FFAA819A168411A50EA3180BDE8F08187
S315020042D046F65B1046F61C0246F6F273C0F2002062
S315020042E0C0F20022C0F2002340F2D351FDF740FC97
S315020042F046F65B1046F61C0247F65933C0F200201A
S31502004300C0F20022C0F2002340F2DB51FDF730FC7E
S315020043102DE9F04782B0DDF82CA0BAF1000F00F0CB
S31502004320E4800C9C002C00F0F08081466020019015
S315020043300198602840F0F9800E46019860212046D7
S31502004340984615460A9F02F0A1F9C4F830A07EB13C
S3150200435004F134000F2100BF16F8012B00F8012BDF
S315020043601AB10029A1F10101F6D1002084F8430017
S31502004370052F80F0EA800AEB8500251D0438E762E6
S3150200438020F007062846FEF78CF904F11800FEF71E
S3150200439088F9C7F10500A061216B30464A464346BB
S315020043A024616462FCF73EFC2060FCF79CFC40F64C
S315020043B0C82040F6A42AC2F20020C2F2002A40F621
S315020043C0AC290168C2F2002901310160DAF8001055
S315020043D061B1D9F80000002844D1DAF80000E16A98
S315020043E0C06A884298BFCAF800403BE0CAF800405B
S315020043F00068012836D140F6D4260527C2F20026E7
S315020044003046FEF743F9013F06F11406F8D140F6AD
S315020044108038C2F200284046FEF738F940F6943654
S31502004420C2F200263046FEF731F940F65430C2F2A7
S315020044300020FEF72BF940F6B020C2F20020FEF76C
S3150200444025F940F63C30C2F20020FEF71FF940F68D
S31502004450743040F67831C2F20020C2F20021C0F870
S3150200446000800E6040F6A820C2F2002001680131E9
S31502004470016040F63831E06AC2F200210A689042D1
S3150200448088BF086000EB800040F6D421C2F200210A
S3150200449001EB80004068A0608268E260556085603A
S315020044A0E06A00EB800001EB8002626151F8202095
S315020044B0013241F82020FCF744FCD9F8000080B113
S315020044C0DAF80000E16AC06A88420AD24EF604505F
S315020044D04FF08051CEF200000160BFF34F8FBFF361
S315020044E06F8F204602B0BDE8F08747F2736047F24D
S315020044F0F75246F6B113C0F20020C0F20022C0F213
S31502004500002340F2F141FDF733FB47F2736047F2B5
S31502004510F75247F28403C0F20020C0F20022C0F232
S31502004520002340F2F241FDF723FB47F2736047F2A4
S31502004530F75247F6A653C0F20020C0F20022C0F29C
S31502004540002340F2FA41FDF713FB47F2736047F28C
S315020045509F0246F6AE63C0F20020C0F20022C0F20D
S31502004560002340F26471FDF703FBF0B581B0044607
S31502004570FCF7B9FB40F6A426C2F2002604B9346859
S31502004580251D2846FEF7B9F8A06A18B104F11800ED
S31502004590FEF7B3F840F6A82040F6AC27C2F2002098
S315020045A0C2F200270168013101603068396881B1C1
S315020045B084420ED140F6B0202946C2F20020FEF710
S315020045C073F840F6C420C2F200200168013101608E
S315020045D018E040F6C820C2F20020016801390160E5
S315020045E040F67430C2F200200168096819B1006809
S315020045F0C068006801E04FF0FF3040F66831C2F251
S3150200460000210860FCF79DFB386898B13068844247
S3150200461010D140F6CC20C2F20020006860B94EF6F6
S3150200462004504FF08051CEF200000160BFF34F8F6D
S31502004630BFF36F8F01B0F0BD47F2736047F29E621F
S3150200464046F66043C0F20020C0F20022C0F2002308
S3150200465040F61411FDF78CFA10B5B8B3002945D00F
S3150200466040F6CC23C2F200231A6801321A6040F6E1
S31502004670D022C2F2002212681B68012B46D10368BF
S31502004680194401609A4206D299424FF000040DD2B3
S31502004690914206D80AE0994203D3914201D80024F6
S315020046A004E0881A002100F049F8012400F098F885
S315020046B050B94EF604504FF08051CEF20000016020
S315020046C0BFF34F8FBFF36F8F204610BD47F2736063
S315020046D047F6862247F28243C0F20020C0F2002249
S315020046E0C0F2002340F62F11FDF742FA47F273603B
S315020046F047F6862246F63203C0F20020C0F20022B6
S31502004700C0F200234FF41361FDF732FA47F27360E9
S3150200471047F6862247F2FD23C0F20020C0F20022AD
S31502004720C0F2002340F63811FDF722FA40F6CC20FB
S31502004730C2F2002001680131016070472DE9F043A1
S3150200474081B040F6D02240F67433C2F2002240F61F
S31502004750A424C2F20023C2F20024156840F678327D
S31502004760C2F20022D3F8008006460F46D2F8009025
S315020047702268101DFDF7C1FF701C16D1AFB140F6BD
S315020047803C30C2F20020D0E90012236801319A605F
S3150200479093682768FB60276804375F6023680433E1
S315020047A0936022680160506117E02068AD19456088
S315020047B0206800F1040105D3484601B0BDE8F04384
S315020047C0FDF77EBF4046FDF77BFF40F66830C2F23A
S315020047D0002001688D4238BF056001B0BDE8F08354
S315020047E02DE9F047FCF77FFA40F6CC20C2F2002012
S315020047F00168002900F0B280016801390160006891
S3150200480028B10024FCF79DFA2046BDE8F08740F661
S31502004810C820C2F2002000680028F2D040F65430C8
S3150200482040F6503AC2F2002040F6A429C2F2002A0B
S31502004830C2F200290168002967D040F6383E40F6E8
S31502004840D4230021C2F2002EC2F200234FF0010C43
S31502004850C768FC6804F11802D4E90775A66ABD6048
S31502004860E7696F607568954201D1226A7260A1623A
S315020048703268013A3260261DD4E9022567699560DD
S31502004880A2686A607A68B24201D1E2687A606161BE
S315020048903A68013A3A60E76ADEF80020974207EB87
S315020048A0870288BFCEF8007003EB82025268A260CC
S315020048B09568E5606E609660E26A02EB820203EB3F
S315020048C08205656153F82250013543F82250E26AA7
S315020048D0D9F80040E46AA24288BFCAF800C002685A
S315020048E00AB12FF04BC840F67430C2F200200168BC
S315020048F0096819B10068C068006801E04FF0FF302E
S3150200490040F66831C2F20021086040F67038C2F201
S315020049100028D8F800606EB1012400BF00BF00BFB6
S3150200492000F036FB08B1CAF80040013EF8D100207B
S31502004930C8F80000DAF8000000283FF462AFD9F8A0
S3150200494000004EF60450CEF200004FF080510124D2
S315020049500160BFF34F8FBFF36F8F53E747F2736068
S3150200496047F2260247F67213C0F20020C0F2002276
S31502004970C0F2002340F68B71FDF7FAF880B580B1DC
S3150200498040F6CC21C2F200210A6801320A600968A7
S31502004990012912D10021FFF7D1FEFFF721FF00B155
S315020049A080BD4EF604504FF08051CEF200000160F9
S315020049B0BFF34F8FBFF36F8F80BD47F2736047F629
S315020049C0680247F2FD23C0F20020C0F20022C0F2C4
S315020049D0002340F68E11FDF7CBF810B50446FCF71E
S315020049E082F924B940F6A420C2F200200468E46ADF
S315020049F0FCF7A7F9204610BD10B50446FCF707FAE6
S31502004A00EFF31181102080F3118824B940F6A42017
S31502004A10C2F200200468E06A81F3118810BDF0B585
S31502004A2081B0052965D20D460446FCF75CF924B926
S31502004A3040F6A420C2F200200468E06AA84253D0DD
S31502004A4040F6A4218542C2F200210A6807D994429F
S31502004A5009D00968C96A8D425FEA8F9604E09442DA
S31502004A605FEA0F9600E00126A169E562002902D4F9
S31502004A70C5F10501A16100EB800040F6D427C2F220
S31502004A800027616907EB8000814221D1251D284656
S31502004A90FDF733FE40F63831E06AC2F200210A68B9
S31502004AA0904288BF086000EB800007EB80004068F8
S31502004AB0A0608168E1604D608560E06A00EB80007D
S31502004AC007EB8001616157F82010013147F8201089
S31502004AD056B94EF604504FF08051CEF200000160F6
S31502004AE0BFF34F8FBFF36F8F01B0BDE8F040FCF705
S31502004AF028B947F2736046F68E1247F29173C0F2F6
S31502004B000020C0F20022C0F2002340F6DA21FDF7AF
S31502004B102FF8F0B581B00446FCF7E5F840F6A42775
S31502004B20C2F2002704B93C68261D3046FDF7E5FDB2
S31502004B30A06A18B104F11800FDF7DFFD40F63C3516
S31502004B403146C2F200252846FDF7AEFD94F85C0018
S31502004B50012802D1002084F85C00FCF7F2F840F646
S31502004B60AC26C2F200263068A8B1FCF7BCF840F6C3
S31502004B707430C2F200200168096819B10068C06881
S31502004B80006801E04FF0FF3040F66831C2F20021C2
S31502004B900860FCF7D6F8386884421DD1306888B1BF
S31502004BA040F6CC20C2F200200068E0B94EF604506E
S31502004BB04FF08051CEF200000160BFF34F8FBFF37A
S31502004BC06F8F09E040F6C8202968C2F2002000680B
S31502004BD0814203D10020386001B0F0BD01B0BDE8CA
S31502004BE0F04000F011B847F2736047F6193246F604
S31502004BF06043C0F20020C0F20022C0F2002340F659
S31502004C00A841FCF7B5FFD4D480B540F6CC20C2F259
S31502004C100020006830B140F650300121C2F2002077
S31502004C20016080BD40F6503040F6383CC2F20020AA
S31502004C30C2F2002C002140F6D4230160C2F2002306
S31502004C40DCF8001001EB810253F8220003EB82022A
S31502004C5048B900BF00BF00BFC1B152F8140D0139F7
S31502004C6008B92FF007C8506802F1080E436853606E
S31502004C70734501D1D368536040F6A422D868C2F2C4
S31502004C8000221060CCF80010106880BD47F27360F5
S31502004C9046F6341247F68943C0F20020C0F20022DB
S31502004CA0C0F2002341F2FA31FCF762FF70B5002828
S31502004CB051D040F6A4260446C2F200263068844249
S31502004CC008BF70BDFCF70FF840F63C316069C2F2CE
S31502004CD0002188423BD1A06AC8BB94F85C00012837
S31502004CE035D0251D2846FDF708FD40F63831E06A25
S31502004CF0C2F200210A68904288BF086000EB800079
S31502004D0040F6D421C2F2002101EB80004068A06087
S31502004D108268E26055608560E06A00EB800001EB24
S31502004D208002626151F82020013241F82020306869
S31502004D30E16AC06A88420AD24EF604504FF08051A8
S31502004D40CEF200000160BFF34F8FBFF36F8FBDE855
S31502004D507040FBF7F6BF47F2736047F61D0247F253
S31502004D601833C0F20020C0F20022C0F200234FF432
S31502004D705261FCF7FDFEF0B581B0002860D0044612
S31502004D80FCF745F840F63C311020EFF3118780F32B
S31502004D901188C2F200216069884213D1A06A88B9DB
S31502004DA094F85C0001280DD040F6CC20C2F2002017
S31502004DB0006868B140F6543004F11801C2F20020CE
S31502004DC0FDF772FC002587F31188284601B0F0BD75
S31502004DD040F6A420E16AC2F200200068C06A81425D
S31502004DE006D940F650300125C2F20020056000E0E7
S31502004DF00025261D3046FDF780FC40F63831E06A74
S31502004E00C2F200210A68904288BF086000EB800067
S31502004E1040F6D421C2F2002101EB80004068A06076
S31502004E208268E26056608660E06A00EB800001EB11
S31502004E308002626151F82020013241F82020C2E747
S31502004E4047F2736047F6764247F21833C0F2002003
S31502004E50C0F20022C0F2002340F65E51FCF788FE43
S31502004E60B0B58AB044F2494004A9C4F24C50069047
S31502004E7005A803AA00248DF81C40CDE90444FBF7DB
S31502004E8009FEDDE90320019045F6E96006A9C0F2B4
S31502004E9000200023059D00940295FFF739FA40F69B
S31502004EA06C30C2F20020056001F038F8012811D0FA
S31502004EB0013025D147F2736047F65E1247F2C633D8
S31502004EC0C0F20020C0F20022C0F2002340F6A9611F
S31502004ED0FCF74EFE40F668310120C2F2002180F353
S31502004EE010884FF0FF320A6040F6AC2140F6D0221D
S31502004EF0C2F20021C2F2002208601460FBF7B0FE83
S31502004F0048F2B800C0F2002000680AB0B0BD80B511
S31502004F1001F01EFAFFF729FB40F66C30C2F20020C0
S31502004F200068FFF722FB00F00FF8012080F31088DB
S31502004F3040F6AC200021C2F200200160BDE88040AC
S31502004F40FBF7CFBED4D4D4D470B540F6C424C2F293
S31502004F5000242068D8B140F6B02540F6C826C2F231
S31502004F600025C2F2002600BFFBF7BDFEE868C06856
S31502004F700430FDF7C2FB3068013830602068013822
S31502004F802060FBF7DEFE206808B12FF013C870BD63
S31502004F902DE9F04F81B040F6CC20C2F20020006825
S31502004FA040B140F67030C2F2002001680131016062
S31502004FB00020B6E040F6D02040F6683CC2F200205F
S31502004FC0C2F2002C016811F1010BC0F800B022D325
S31502004FD040F67430C2F2002001680968002940F0E8
S31502004FE0A38040F678330168C2F200231F68076087
S31502004FF0196040F67C31C2F200210B6801330B6066
S315020050000168096819B10068C068006801E04FF0DC
S31502005010FF30CCF80000DCF80000834501D2002006
S3150200502077E040F6743A4FF00009C2F2002ADAF845
S3150200503000000068002867D040F6383E40F6D424C7
S3150200504040F6A428C2F2002EC2F20024C2F20028C0
S31502005050002000BF00BF00BFDAF80050ED68EE681E
S31502005060374657F8045FAB4551D3D6E90213756943
S315020050708B60B16859606968B94201D1F1686960AB
S31502005080C6F81490296801392960B56A85B1D6E94E
S31502005090071306F118028B60F1695960696891423B
S315020050A001D1316A6960C6F82890296801392960F8
S315020050B0F56ADEF800108D4205EB850188BFCEF851
S315020050C0005004EB81014968B1608A68F26057605A
S315020050D08F60F16A01EB810104EB8102726154F87F
S315020050E02120013244F82120F16AD8F80020D26A40
S315020050F0DAF80030914288BF0120196809B12FF011
S3150200510055C84FF0FF3502E04FF0FF350020CCF8CE
S31502005110005040F65031C2F200210968002918BF3A
S31502005120012001B0BDE8F08F47F2736047F2954265
S3150200513046F6BE03C0F20020C0F20022C0F20023EF
S3150200514041F25F21FCF714FD40F6D020C2F20020A6
S315020051500068704780B5FBF75AFE40F6D020C2F2CF
S315020051600020006880BD40F6C820C2F20020006818
S31502005170704728B940F6A420C2F20020006808B1A0
S315020051803430704780B547F2736047F68E3247F285
S31502005190AA63C0F20020C0F20022C0F2002341F24C
S315020051A05501FCF7E5FC80B571B1EAB1034620B9B9
S315020051B040F6A420C2F2002003680120D3F830C0D2
S315020051C0C1F800C0136080BD47F2736046F6B45260
S315020051D047F62903C0F20020C0F20022C0F20023E3
S315020051E041F2F401FCF7C4FC47F2736046F6B4528E
S315020051F047F22633C0F20020C0F20022C0F200239A
S3150200520041F2F501FCF7B4FC10B540F6CC21C2F22E
S3150200521000210A6892B90446086801300860FBF763
S3150200522062FD40F67030C2F200200168214401603E
S31502005230FBF787FDBDE81040FFF7D2BA47F273606D
S3150200524046F69F1246F6DA43C0F20020C0F200226A
S31502005250C0F2002341F2CA11FCF78AFC10B570B104
S315020052600C4640F6A421C2F2002109681831FDF766
S3150200527027FA01212046BDE81040FFF75FBA47F240
S31502005280736047F6FB0247F24233C0F20020C0F2D7
S315020052900022C0F200234FF4A451FCF769FC80B54A
S315020052A070B340F6CC23C2F200231B68C3B340F6A8
S315020052B0A42E41F00041C2F2002EDEF800C0CCF866
S315020052C018104168DEF80030D961D1F808C0DEF85E
S315020052D00030C3F820C0DEF800301833CCF80430B2
S315020052E0DEF8003018338B60DEF800108862012188
S315020052F00368013303601046BDE88040FFF71EBA1B
S3150200530047F2736046F60E3247F24233C0F200208D
S31502005310C0F20022C0F2002341F29E41FCF728FCB3
S3150200532047F2736046F60E3247F69C33C0F200200F
S31502005330C0F20022C0F2002341F2A241FCF718FC9F
S3150200534010B548B340F6A42CD0F804E0C2F2002C03
S31502005350002ADCF80030C3F81CE0DEF80830DCF87E
S3150200536000402362DCF8004004F118045C60DCF8BB
S31502005370003003F11803CEF80830DCF800309862EA
S3150200538018BF4FF0FF310368013303600846114628
S31502005390BDE81040FFF7D2B947F2736047F2350213
S315020053A047F24233C0F20020C0F20022C0F20023CC
S315020053B041F2BE41FCF7DCFB80B5C068C06800283C
S315020053C072D0D0E9073100F1180C826A9960C3697C
S315020053D04B605168614501D1016A516000218162C9
S315020053E011680139116040F6CC21C2F20021096828
S315020053F091B140F6543EC2F2002EDEE90023C361AB
S3150200540099680162C1F804C0C3F808C0C0F828E070
S31502005410511CCEF8001035E0D0E9023100F1040C3F
S315020054204269996083684B605168614501D1C168E0
S3150200543051600021416140F638331168C2F20023FF
S3150200544001391160C26A19688A4288BF1A6002EB82
S31502005450820140F6D422C2F2002202EB810149689F
S3150200546081608B68C360C3F804C0C1F808C0C16A12
S3150200547001EB810102EB8103436152F821300133D2
S3150200548042F8213040F6A421C06AC2F2002109681E
S31502005490C96A884206D940F650310120C2F200217B
S315020054A0086080BD002080BD47F2736047F2550256
S315020054B046F60553C0F20020C0F20022C0F20023D5
S315020054C041F2F541FCF754FB80B540F6CC22C2F21C
S315020054D000221268002A60D0C26841F00041002A08
S315020054E001606AD0D0E901CE0369CCF808E04168D0
S315020054F0CEF804105968814201D1816859604FF093
S31502005500000CC0F810C0186802F1040E01381860C9
S31502005510D2E9021053698860916841605868704503
S3150200552001D1D0685860C2F814C0186801381860F2
S3150200553040F63833D16AC2F200231868814288BF26
