:020000040200F8
:100000002004002279380002713500028338000292
:1000100083380002833800028338000283380002EC
:10002000000000000000000000000000A124000209
:100030008338000200000000B924000221250002DC
:04004000008000023A
:100080001048134A016841F4700101604FF4802068
:10009000BFF34F8FBFF36F8FE1EE100A0B490A4891
:1000A00007F0CEFF0B4800210B4A07F0D3FF0B48A7
:1000B00007F0E4FF07F0F4FF0020002102F071F9DF
:1000C000FEE700BF88ED00E00000002240000002D3
:1000D000040000004C040022340D000080110022B6
:1000E00003F1010C00BF00BFBCF1010C06D0036896
:1000F0000B425FEA0F9392EA030FF5D1BCF1000FB8
:100100005FEA0F907047D4D403F1010C00BF00BF29
:10011000BCF1010C06D003780B425FEA0F9392EA20
:10012000030FF5D1BCF1000F5FEA0F907047D4D4F4
:1001300080B5012003F0D7FA43F2040043F2FF52E6
:10014000C4F22000CDF67B62016811400160416875
:100150004FF6FF7221F0406141608168CBF6D772A3
:1001600021F440118160C1681140C1600068012024
:1001700003F092FA01204FF47A71BDE8804003F059
:10018000A9B9D4D440F6107CEFF31082C2F2002C4F
:10019000012080F31088DCF80000002840F60400FD
:1001A000C4F2400005D1002380F81035402380F8C8
:1001B000103580B5DCF8003040F200410133CCF856
:1001C00000301023C0F20161C0F2014382F31088B5
:1001D00003F57C7EC0F844E3C0F8483301F17F4268
:1001E000C0F8202203F18072C0F81C2240F20042C5
:1001F000C1F20102C0F800E2C0F80432C0F8F020F9
:1002000002F11003C0F8EC30C0F8A021C0F8A4310E
:10021000C163016441648164502140F20042C0F234
:100220000171C0F8FC10C0F20132C0F80011026583
:10023000C264C0F84021C0F824221021C1610162CB
:10024000C162C0F824110421C0F8C810C0F87C11A4
:10025000C0F89812C0F820114FF400420260826189
:10026000426340F60042C1F20132C0F83422C0F8C5
:100270003822C0F81821C0F83C1140F2004140F685
:100280000042C1F20161C1F60102C0F8CC20C0F801
:10029000D020C0F8D420C0F8D820C0F8E420C0F89E
:1002A000E020C0F85422C0F85822C0F85C22C0F800
:1002B0006022C0F89420C0F85022C0F838111031E4
:1002C000C0F834110521C0F8DC110121EFF31082D0
:1002D00081F31088DCF8001021B1DCF8001001393E
:1002E000CCF80010DCF8001029B9002180F81015B6
:1002F000802180F8101582F3108880BD0722012923
:1003000008BF0522002945F6401108BF032290408E
:10031000C0F2737101EB5001814201D2002005E06F
:10032000B1FBF0F00138FF2828BFFF20C0B27047B2
:1003300080B50723012A08BF0523002A45F6401C83
:1003400008BF032301FA03F3C0F2737C4FF0000EE1
:10035000C0F808E00CEB530C4FF480719C454161F0
:1003600007D3BCFBF3F10139FF2928BFFF214FEA76
:10037000012E0EEB025141F0100101614FF080514E
:10038000C1601121816080BDB0B540F640530C467C
:1003900005464830C0F203034FF000510122FFF739
:1003A0009FFE00B12C71B0BD2DE9F0410F78AFB1C7
:1003B00040F64056044600F148084D1CC0F20306C2
:1003C0004FF00051012240463346FFF789FE00B14D
:1003D000277115F8017B0FB12FF00FC0BDE8F08138
:1003E000816CC90148BF0178816CB1F1FF3FC4BF86
:1003F0004FF0FF3070470078704710B548F2EC00BE
:100400004FF47A71C0F200200468E06820F0100018
:10041000E060E06840F02000E060012003F05AF85E
:10042000E06840F6405320F02000E06004F148000E
:10043000C0F203034FF000510122FFF751FE08B153
:100440005520207110BDD4D44CF200100021C4F20C
:1004500035003D2201708170827201724FF4E061BB
:10046000018248210170704770B54CF2031448F2C4
:10047000A065C4F23504C0F2010506462021012220
:1004800020462B46FFF740FE48B18021012220463E
:100490002B466670FFF738FE08B1607870BD00200B
:1004A00070BDD4D44EF20000C4F22500017801F0F2
:1004B0007F010170017841F040010170017841F045
:1004C00080010170817801F08F0130318170262127
:1004D000417401740121017130214171017801F0F1
:1004E000BF01017070472DE9F0414EF2010407464B
:1004F000C4F2250448F2A068C0F2010804F108051E
:10050000207A0E468021012200F0EF002072622046
:10051000207028464346FFF7F7FDA0B178006074CD
:100520004021012228464346FFF7EEFD68B1207ABC
:10053000C0060AD44021012228464346667401269B
:10054000FFF7E2FD02E0002604E00026207840F0FC
:10055000080020703046BDE8F081D4D470B5044660
:1005600040F640558069C0F2030504F11C0620F0F6
:100570000400A0610421002230462B46FFF7B0FDA5
:1005800020B3A069012161F30100A061012230467E
:100590002B46FFF7A5FDC8B1606804F1080620F0FE
:1005A000040060600421002230462B46FFF798FDCE
:1005B00060B1606801230121012263F301006060E2
:1005C00030462B46BDE87040FFF78ABD002070BD65
:1005D000B0B50546FFF7C2FFF8B140F6050040F69A
:1005E0000521C0F21460C0F203212860C5F8001193
:1005F000A86940F6405320F00300A861D5F804C074
:1006000005F11C00C0F20303012100222CF00304B9
:100610006C60BDE8B040FFF763BDB0BDD4D4D4D4A6
:100620004FF0000CBCEBD12F2DD162B380B5A3F1FC
:10063000090E1EF1080F24D390F870C05FEACC7C3D
:100640001DD1DDF808C08904C0F804161907C0F8E8
:100650000816BCF1000F18BF4FF0040CC0F80CC610
:1006600000F5C26143F001E012F8013B01F8013BE3
:100670000FF007C04FF0010C80F870C001E04FF0A0
:10068000000CBDE8804060467047D4D410B542F2FB
:10069000040C0124C4F2320C4FF4254EC0F800E0E3
:1006A00004FA01F1CCF804100024C4624DF28F0466
:1006B000C0F203044466C26433B15208026540F2DA
:1006C0000612C0F2061201E04FF483724263C0F8D2
:1006D00000E0CCF8001010BD4FF0FF32B1F57A7F8A
:1006E00098BF032830D840F25843C2F200231B6859
:1006F00053B3594344F6D352C1F26202A1FB021232
:1007000042F20011C4F23201B3EB921F88BF930989
:1007100050B1022804D0012809D101F150000EE0A7
:1007200042F60041C4F2320101F14C0007E042F60A
:10073000004001F51061C4F23200A0F5DA704FF408
:1007400025420A60002203601046704710B548F247
:10075000000440F64053C4F23304C0F20303012105
:100760000122206840F001002060201DFFF7B8FC46
:100770004FF00210A0604FF02010C4F840024FF478
:100780008070C4F800064FF4E060C4F8100610BD95
:1007900080B548F620400121C4F2330001600120F9
:1007A0004FF47A7102F096FE4AF2000040F2504295
:1007B000C4F23300C2F200220168118040F25241BB
:1007C0004068C2F20021088080BDD4D443F2040006
:1007D000C4F22300416841F480314160002120F8D7
:1007E000041C016821F000410160016841F0010131
:1007F0000160704740F2564143F20002C2F200210C
:10080000C4F223026FF31F30088010807047D4D4E5
:1008100040F2554240F6107CC2F20022C2F2002C97
:1008200000F00F011170EFF31080012282F31088A5
:10083000DCF800203AB940F614520023C4F240021A
:100840001370402313702DE9F041DCF800204FF0C5
:10085000040E0132CCF8002080F3108848F2F8032F
:1008600040F6000443F6FA750022C0F200236FF050
:100870003F08C4F24004CFF6FE7500BF00BF00BFC2
:1008800033F8026BF7B208EA960606EB870621FA00
:1008900002F707F00107013230592840384404308C
:1008A00030510FF013C80121EFF3108081F310884D
:1008B000DCF8001021B1DCF800100139CCF8001090
:1008C000DCF8001039B940F614510022C4F240019E
:1008D0000A7080220A7080F31088BDE8F081D4D4B9
:1008E00070B54FF0040E48F2F00140F6000300200E
:1008F000C0F200216FF03F0CC4F24003012200243B
:1009000031F8025BEEB20CEA950505EB860502FABA
:1009100000F60130ED58AD0748BF34430FF011C069
:10092000E0B270BD10B500244FF47A71C4F2250412
:10093000208840F480602080012002F0CBFD2088D8
:1009400020F040002080208820F020002080208897
:1009500040F001002080208840F01000208010BD71
:1009600042F200200021C4F220000170FF2101703A
:10097000704742F20020C4F22000817941F08001EA
:100980008171017A01F07F01017243F223314180CC
:1009900000210170FF2101707047D4D444F200009F
:1009A00040F64053C4F23500C0F203030121002297
:1009B000D0F800C04CF0010CC0F800C0FFF790BBAD
:1009C00048F2D33C0A0BC0F2002CC1F303231CF8FD
:1009D000022002701CF80320C1F30313427001F0DF
:1009E0000F011CF8032082701CF80110C1707047C1
:1009F00048F2D3330A09C0F2002301F00F019A5CD8
:100A00000270595C4170704710B588B049F2907C13
:100A10006946C0F2002C0A46BCE81940A2E8194019
:100A20009CE8194082E8194040F24C4040F2504C9A
:100A3000C2F20020C2F2002C026848F2D330C2F3A6
:100A40000333C0F20020C2F30324C35C8DF80530E9
:100A5000BCF8003010F804E0C2F3031402F00F0CED
:100A60001A0B045D8DF806E08DF8074010F80C4075
:100A700010F802C0C3F303228DF80EC040F2524CAE
:100A8000C2F2002C10F802E08DF80840C3F3031402
:100A9000BCF8002003F00F0C045D8DF80FE0130B81
:100AA0008DF8104010F80C4010F803C0C2F3032377
:100AB0008DF813C040F2544CC2F2002C10F803E041
:100AC0008DF81140C2F303149CF8003002F00F0CB3
:100AD000045D8DF814E01A0903F00F038DF815403A
:100AE00010F80C40825CC05C8DF81B2048F2E402D8
:100AF000C0F200228DF81C008DF816401068FFF738
:100B000053FC08B010BDD4D42DE9F04182B00028C8
:100B10004FF0FF3400F0C9810E46002900F0C58176
:100B20001546002A00F1C18101680746A9B1002DD0
:100B300000F0BB8130460124082200F8012B00BFE1
:100B4000A5420CD001F07F02C90918BF803204F120
:100B5000010400F8012BF3D103E0002401E04FF081
:100B6000FF347868A8B1AC4280F09D8110213155E6
:100B70000134311900BF00BFA54200F0948100F09C
:100B80007F02C00918BF803204F1010401F8012B73
:100B9000F2D1002C00F18981B86840F2B0780028C9
:100BA000C2F2002800F0CD80F968A9B140460822C1
:100BB00000F8012B002200BF01F07F03C90918BF14
:100BC000803302F1010200F8013BF5D13969501C74
:100BD000C1B1BE2A03D919E03969D1B10020102270
:100BE00008F80020013008EB000200BF00BF00BF82
:100BF00001F07F03C90918BF803300F1010002F83A
:100C0000013BF5D17969C9B1BF2807D94FF0FF3051
:100C100014E07969002900F06E810020182208F89C
:100C20000020013008EB000201F07F03C90918BF62
:100C3000803300F1010002F8013BF5D1B96989B1B7
:100C4000BF2824D8202208F80020013008EB000239
:100C500001F07F03C90918BF803300F1010002F8D9
:100C6000013BF5D1F969A1B1BF2810D8282208F8B5
:100C70000020013008EB000201F07F03C90918BF12
:100C8000803300F1010002F8013BF5D101E04FF0A3
:100C9000FF30396AB9B1BF2813D8302208F80020D4
:100CA000013008EB000200BFC0280AD001F07F032A
:100CB000C90918BF803300F1010002F8013BF3D1EC
:100CC00001E04FF0FF30796AC9B1BF2815D838224A
:100CD00008F80020013008EB000200BF00BF00BF91
:100CE000C0280AD001F07F03C90918BF803300F182
:100CF000010002F8013BF3D101E04FF0FF30B96A87
:100D000079B1BF2805D8BF284FF0400108F800107E
:100D100002D14FF0FF3004E008EB00010230012265
:100D20004A7007F12C02092101F08DF9032300908C
:100D300030462946224600F0FBF80446002800F120
:100D4000B280F86BE8B1414608203A6C01F8010B1B
:100D5000012000BF00BF00BF02F07F03D20918BF0F
:100D6000803300F1010001F8013BF5D1042300902C
:100D700030462946224600F0DBF80446002800F100
:100D80009280786CE0B141460820BA6C01F8010B02
:100D9000012000BF00BF00BF02F07F03D20918BFCF
:100DA000803300F1010001F8013BF5D105230090EB
:100DB00030462946224600F0BBF80446002872D48B
:100DC000F86C80B3404608213A6D00F8021B002100
:100DD00002F07F03D20918BF803300F8013C00F114
:100DE000010001F10101F3D1BE2910D87A6D023161
:100DF000102300F8013C00BF02F07F03D20918BFA6
:100E0000803301F1010100F8013BF5D101E04FF021
:100E1000FF310623009130462946224600F088F82B
:100E2000044600283FD4B86D68B10021384600F070
:100E3000AFF80723009030462946224600F078F8A4
:100E4000044600282FD4786F68B10121384600F09D
:100E50009FF80823009030462946224600F068F8A3
:100E6000044600281FD4D7F89400F0B1D7F89810A2
:100E7000F9B14046082200F8012B002200BF00BF54
:100E800001F07F03C90918BF803302F1010200F8A5
:100E9000013BF5D1D7F89C10501CF9B1BE2A0CD9F2
:100EA0004FF0FF301AE04FF0FF34204602B0BDE8AB
:100EB000F081D7F89C10002081B1102208F80020A2
:100EC000013008EB000200BF01F07F03C90918BF21
:100ED000803300F1010002F8013BF5D107F1A002D7
:100EE000032101F0B0F8092300903046294622463C
:100EF00000F01EF8DAE7B96909B10020A2E6F96945
:100F000009B10020B2E6396A09B10020C5E6796A64
:100F100009B10020DBE6B86A28B1402088F800005B
:100F200000204146FAE60020FBE6D4D4D4D4D4D441
:100F3000B0B5049D4FF0FF34002D1CD48A421AD264
:100F4000DB00541C023383542A4600BF00BF00BF9D
:100F5000A1420ED002F07F03D20918BF803303559F
:100F600004F10104F4D1002C03D425B1491B8C42B7
:100F700003DD4FF0FF342046B0BD40F2B071204495
:100F8000C2F200212A4607F05BF82C44F3E7D4D4E0
:100F90002DE9F0478A4600294FF07801044608BF42
:100FA0005C2140584FF080024FF07C0140F2B07954
:100FB00004BF642260214FF088034FF08C06C2F218
:100FC0000029224404BF6C23702667584946E35C1D
:100FD00054F80680082601F8026B002600BF00BF07
:100FE00000F07F05C00918BF803501F8015C01F1F0
:100FF000010106F10106F3D1BE2E10D8102001F830
:10100000010CB01C00BF00BF07F07F06FF0918BF2E
:10101000803600F1010001F8016BF5D101E04FF0DD
:10102000FF30032101F024F8BF2805D8BF284FF076
:10103000200109F8001002D14FF0FF3007E009EB62
:101040000001B8F1000F5FEA0F9202304A70BAF166
:10105000000F08BFBDE8F087BF2807D8D4F890106C
:10106000BF284FF0280209F8002003D14FF0FF30CD
:10107000BDE8F08709EB000200295FEA0F9102301A
:101080005170BDE8F087D4D42DE9F04F87B0002926
:101090004FF0FF3800F1E5810746002800F0E181BC
:1010A0009346002A00F0DD818A46C821584606F0A2
:1010B00099FFBAF1000F4FF000080497CDF814A083
:1010C00000F0CF814FF00009DDF810E009F10100D8
:1010D0000EEB090109F102034A1C0025002400BFA0
:1010E00011F9016B06F07F07002E07FA04F745EAB5
:1010F000070511D5152C00F2B2810734824500F1A5
:10110000010009F1010902F1010203F1010300F0FC
:10111000A681E5E700BF00BF05F007014FEAD50C47
:101120000229069024D1A5F11804372C20D8504567
:1011300080F2958182455AEAC0800024C0F1010105
:10114000002000BF00BF00BF12F9015B05F07F0661
:10115000002D06FA04F640EA060032D5152C00F2FE
:101160007E8101330734CD18022D00F07881EBE742
:1011700041B104A800F076FA002800F07081DDE9A2
:1011800005A9FBE0504580F26A8182455AEAC08099
:101190000023411E002000BF12F9017B07F07F06EB
:1011A000002F06FA03F640EA060040F1B080152B46
:1011B00000F2558109F101090733494500F04F81DB
:1011C000EAE7BAEB0301C0F24A818142C0F04781ED
:1011D0000EEB0301CDE90010ACF1030103EB0009B4
:1011E0000529CDF80880CDF8189000F2CB80DFE813
:1011F00001F003B1A1A89CBB01284FF00101CBF87D
:101200000810C0F2BB800022824252EAC08C80F2F9
:1012100026810099541C1144002501F1010E002380
:1012200011F9016B06F07F07002E07FA03F745EA74
:1012300007050BD5152B00F212810132073301345B
:101240000EF1010E944500F00A81E9E74FEAD50C52
:10125000531C05F00701BCF1090F029308BF0229D6
:1012600004D089B1684600F0FDF905E01022684617
:101270000BF12C0100F029FF002800F0F080DDE9DF
:1012800001028242C0DB79E0834280F2E880A04222
:1012900050EAC4800023411E00201EF9014B04F0D7
:1012A0007F05002C05FA03F540EA050008D5152B4B
:1012B00000F2D58001320733914200F0D080ECE794
:1012C000ACF10101023207290292D8D8DFE801F01F
:1012D00004160A0D07191C10CBF80C00CFE7CBF849
:1012E0001C00CCE7CBF81400C9E7CBF81800C6E720
:1012F00000285FEA0F90CBF82800C0E7CBF8100079
:10130000BDE7CBF82000BAE7CBF82400B7E7BCF183
:10131000010F09F10209CDF8189000F09D80BCF191
:10132000020F2BD1CBF8040028E000220120CBF8DB
:1013300058001DE00120CBF8440068460BF148013D
:101340000EE00120CBF84C0068460BF150010BF188
:10135000540206E00120CBF83C0068460BF1400146
:1013600003AA00F0A9F807E00120CBF874000122DD
:101370006846594600F0D8F8002870D0D145FFF6ED
:10138000A3AE72E001284FF00101CBF89410F5DB19
:101390000022824252EAC08C61DA0099541C114446
:1013A000002501F1010E002311F9016B06F07F0702
:1013B000002E07FA03F745EA070509D5152B4ED885
:1013C0000132073301340EF1010E944547D0EBE7AB
:1013D0004FEAD50C531C05F00701BCF1030F029333
:1013E00008BF022904D079B1684600F03BF905E056
:1013F000282268460BF1A00100F067FE78B3DDE912
:1014000001028242C5DBB9E7834228DAA04250EAF2
:10141000C4800023411E00201EF9014B04F07F050B
:10142000002C05FA03F540EA050006D5152B16D861
:1014300001320733914212D0EEE7BCF1020F02F104
:101440000201029105D0BCF1010FD8D1CBF8980070
:10145000D5E7CBF89C00D2E7CBF800008EE74FF041
:10146000FF38404607B0BDE8F08F4FF00008F8E7BE
:10147000B0B5D0E901324FF0000E9A4252EAC38C67
:101480006FF0060300BF00BF94450FD00568541CE1
:1014900084600733AA5602F07F05002A05FA03F597
:1014A0004EEA050E04D5152B2246EDD90020B0BD1D
:1014B0000120C1F800E0B0BD2DE9F04383B00D4636
:1014C0000021064629601160D0E90101814224DA39
:1014D000914602AF0DF1040830463946FFF7C8FFC8
:1014E000E8B1029C304614F0070105D000F0BAF8CC
:1014F000A8B10EE000BF00BF4146FFF7B9FF70B1D1
:10150000E1082846012902D00229484601D1019963
:101510000160D6E901018142DEDB012000E000200C
:1015200003B0BDE8F083D4D42DE9F04F85B0044674
:10153000D0E90103834280F28C8015460E460DF1FE
:101540000C0A4FF00009EB4620465146FFF790FF8A
:10155000002800F083800398C70800F00701032FDC
:1015600008BF022908D0204691B300F07BF800287C
:1015700000F0748068E000BF204604A9CDE900991E
:10158000FFF776FF002869D0D4E90107B84265DB90
:10159000DDF81080C01B404560D3B8F1090F5AD266
:1015A000B8F1000F05D020684246C119584606F030
:1015B00047FD08EB0700A060DDB106F18000594649
:1015C000424606F03DFD86F888803DE000BF00BF42
:1015D00002A9FFF74DFF002840D09DB1781E0428D6
:1015E00032D8DFE800F0031F311822000298B067FC
:1015F0002AE006F164005946424606F021FD86F8CD
:101600006C8021E0042F1AD0022F15D0012F1BD19E
:101610000298F06518E0029800285FEA0F90C6F87B
:101620008C0011E00298F0670EE0029800285FEA53
:101630000F90C6F8900007E00298306604E0029828
:1016400000285FEA0F903067D4E901018142FFF67C
:101650007BAF012003E008EB0700A060002005B08D
:10166000BDE8F08F10B582B0044601294FF00000AC
:1016700001900BD0022903D0052916D1042006E0E1
:1016800001A92046FFF7F4FE10B909E008200190F7
:10169000D4E90110814203DB019A091A914201D277
:1016A000002002E01044A060012002B010BDD4D49C
:1016B0004FF6FF72F8B101291DDB70B54FF0000C39
:1016C000082441F2210300BF10F80C5044F001E05F
:1016D00082EA052200BF00BF15B25600002D48BFA8
:1016E00083EA420632460FF009C80CF1010C8C4522
:1016F000EAD1BDE8704090B27047D4D4D4D4D4D4E9
:101700002DE9F04383B0DDF828904FF0FF34B9F1B4
:10171000C00F00F28280DDF82C80B8F1000F00F0DD
:101720007C80002B5FEA1F97B9F1000F5FEA0F94EE
:1017300027424FF0FF3470D109F10A070C9EBE42D8
:101740006BDB01278DF806708DF807008DF8081007
:101750008DF8092000204FF6FF750DF106010827CE
:1017600041F221028DF80A908DF80B0000BF00BFF6
:101770000E5C47F001E085EA062500BF00BF00BF10
:101780002C462EB26D00002E48BF82EA44050FF0B1
:1017900009C801300628EBD1A8B24FEA1027EBB1F7
:1017A000B9F1000F1AD00020082241F2210100BF38
:1017B0001F5C42F001E085EA072500BF00BF00BFC3
:1017C0002F462EB26D00002E48BF81EA47050FF06C
:1017D00009C801304845EBD1A8B2070ABDF80A1084
:1017E000B9F1000F45F6A520A8F80000DDF80600C5
:1017F000C8F80200A8F8061008D008F10800194639
:101800004A4606F01DFC09F1080000E0082008EB3C
:101810000001841C08F800504F70204603B0BDE85A
:10182000F08320B180B5D02106F0DCFB80BD70478D
:101830002DE9F041002800F0A48002780A2A00F285
:101840008E80DFE802F02D06181E11313522811539
:10185000390000235A2908BF0223A5294FF00002AE
:1018600008BF012303708DE08170C172052187E0FC
:1018700001720A2184E0012974D1012141720321FE
:101880007EE04170817204217AE08288817342EAAD
:101890000122828093B2C12B4FF00003C38068D332
:1018A000A5295FEA1F916BE0C1700173062167E013
:1018B00081804173072163E090F808C000F10908B6
:1018C0004FF6FF740023082641F2210500BF00BF38
:1018D00018F8037046F001E084EA072400BF00BF57
:1018E00027B26200002F48BF85EA440214460FF079
:1018F00009C80133062BEBD183884CEA012CDBB1FC
:1019000000F10F080021082241F2210500BF00BFAD
:1019100018F8017042F001E084EA072400BF00BF1C
:1019200027B26600002F48BF85EA440634460FF010
:1019300009C801319942EBD1A1B200230370C380E1
:101940008C455FEA1F921DE0C2888388561C0244C2
:10195000B5B2C6809D42D17313D3092110E0002295
:1019600002700FE0A5295FEA1F9101700022C2807A
:1019700008E04FF6FF710A424FF0080151EA119159
:10198000017000221046BDE8F08128B32DE9F04136
:101990000F464FF4557104461E46904606F022FB52
:1019A00036B104F1D0000ECE0EC096E82E002EC047
:1019B000032084F8EC70B8F1000F4FF0D00108BF9D
:1019C000012084F8ED004FF00040C4F8F4002046F8
:1019D00006F008FBBDE8F0817047D4D4D4D4D4D449
:1019E0002DE9F04182B0002800F09C810446FFF709
:1019F0001FFF002800F09681607820B194F8EC1069
:101A0000884240F08F8104F52375C821284604F5EB
:101A1000E2760127C4F8F07006F0E4FAA18804F138
:101A20000F003246FFF730FB10B3E0780221C4F814
:101A30008C020020C4E9C8704FF00C0EC4F82813C3
:101A400049F29541C0F2002104F54B700131622248
:101A500000F8012B11F8012B0FF007C0002084F8CB
:101A600038032046294602B0BDE8F04100F0A5B990
:101A7000306800B9E078D4F8C811C4E9A3014A1E5F
:101A8000052A00F28480DFE802F00303320F9D553F
:101A9000D4F8E8200120002AC4F89402E1D0D4F858
:101AA000D00029469047DCE7D4F8080228B1D4F8E2
:101AB0000C12B1F5805FC0F0AD8004F548730120D1
:101AC0000421022207C34FF0070E49F26B71C0F2E6
:101AD000002104F54B700131622200BF00BF00BF3E
:101AE00000F8012B11F8012B0FF007C08EE0D4F89D
:101AF000000220B1D4F804121029C0F0908004F53F
:101B0000487301200321022207C34FF00B0E48F255
:101B10005761C0F2002104F54B700131622200BF11
:101B200000F8012B11F8012B0FF007C0002084F8FA
:101B3000370396E7D4F81C0280B1D4F820120129AB
:101B40000CD894F83032A3F10900C0B2F82805D3BC
:101B5000D4F82422B2F5006FC0F0818004F54873F8
:101B600001200621022207C34FF0070E48F27B2115
:101B7000C0F2002104F54B700131622200BF00BFAA
:101B800000F8012B11F8012B0FF007C03EE00120F7
:101B9000C4E9C801C4F828034FF00F0E49F22331FD
:101BA000C0F2002104F54B700131752200BF00BF67
:101BB00000F8012B11F8012B0FF007C0002084F86A
:101BC0003B034EE7D4F8100240B1D4F814120329B5
:101BD00004D8D4F81822B2F57A7F29D904F54873CD
:101BE00001200521022207C34FF0070E48F29C1185
:101BF000C0F2002104F54B700131622200BF00BF2A
:101C000000F8012B11F8012B0FF007C0002084F819
:101C1000330326E7D4F8DC2022B9042014E0D4F8FA
:101C2000D82082B1D4F8D0009047D4F8C8010BE096
:101C3000D4F8E030ABB3D4F8D00098470028D4F8FB
:101C4000C80101D02EE0032001210022C4F8201396
:101C5000C4F82403C4F8282384F82C2301E7D4F81B
:101C60003472002F35D094F8ED00800731D4012074
:101C70000621C4E9C8014FF0120EC4F8280349F246
:101C80008F51C0F2002104F54B700131632200F83E
:101C9000012B11F8012B0FF007C0002084F83E0340
:101CA000DFE6052001210222C4E9C8104FF0070E2B
:101CB000C4F8282348F29C11C0F2002104F54B70AF
:101CC0000131622200F8012B11F8012B0FF007C03F
:101CD0009CE7D4F8E46046B304F50A78D4F8D00061
:101CE000CDE900374346B0470028D4F8C8011DD1DC
:101CF0000121C4E9C810204629460022C4F828233F
:101D000084F82C2300F059F894F8201294F830024B
:101D1000D4F82422D4F83432CDE9000320464346D7
:101D200000F07DF802B0BDE8F0810620012102221A
:101D3000C4E9C8104FF0080EC4F8282349F28921DD
:101D4000C0F2002104F54B700131632200F8012B31
:101D500011F8012B0FF007C0002084F8340380E64F
:101D6000B0B548B30446D0F8F00028B304F52670A7
:101D7000BC2104F5237506F035F9D4F8F400D4F845
:101D8000E820411C0123B1F1004F4FF0004151EA1E
:101D90009091C4F8F4104FF00201C4F88C02C4E929
:101DA000A4131AB1D4F8D0002946904720462946FA
:101DB000BDE8B04000F001B8B0BDB0B584B0044695
:101DC000D0F8D40048B30D4640F67001C2F20021AD
:101DD000C0222846FEF798FE00281ED494F8ECC0D6
:101DE00094F8ED102A7840F6700380B20090C2F2A9
:101DF0000023604604F1F8054FF0CA0ECDE9015EFC
:101E0000FFF77EFC002808D4D4E9341382B20846D8
:101E1000294604B0BDE8B040184704B0B0BD2DE974
:101E2000F04F81B000283ED00A9E0446A6F109007A
:101E300010F1080F37D31D46ABB3D4F8F00090B3C0
:101E40000F4604F52470C4219046DDF82CA004F55B
:101E5000237906F0C7F8D4F8F400C4F88C02411CCA
:101E60003246B1F1004F4FF0004151EA909104F534
:101E70004370C4F8F41029464FF0010BC4E9C0B711
:101E8000C4F8088306F0DCF8BAF1000F5FEA0F909F
:101E900084F814634946C4E9C60B204601B0BDE886
:101EA000F04FFFF78ABF01B0BDE8F08FD4D4D4D48F
:101EB0009AB170B548F2E8001446C0F200200D4611
:101EC000066800BF00BF00BF15F8011B3046FEF7D3
:101ED0005BFA013CF8D1BDE8704070470846FEF758
:101EE00097BC0846FEF786BC08461146FEF7F4BBD1
:101EF00080B582B000200029C4F23800059900F5B1
:101F000000509C4604BF0020C4F2380000295FEA5C
:101F10000F9E1146049B6246CDF800E0FEF780FB61
:101F2000013802B080BD70B540F2524C40F24C40D6
:101F3000C2F2002C40F2544EC2F2002040F2504255
:101F4000C2F2002EBCF8003040F2554CC2F2002222
:101F5000C2F2002C06689EF8000040F2564E15882A
:101F6000C2F2002E9CF80020C1E9053001F11C00EE
:101F7000BEF800404FF0020C4FF0010E80E8141044
:101F800044F25210C1F828E0C1E90365C5F23800F7
:101F9000C8623120088670BD10B540F25C444FF431
:101FA0002171C2F2002404F1D00006F01BF841F6C2
:101FB000B16041F6DD61C0F20020C0F2002141F6BF
:101FC000E36241F6E96341F6F16C41F6277EC4F81D
:101FD000D400C4F8D81040F20230A4F8EC004FF05E
:101FE0000040C4F8F400D0212046C0F20022C0F224
:101FF0000023C0F2002CC0F2002EC4F8DC20C4F88C
:10200000E030C4F8E4C0C4F8E8E005F0EBFF10BD30
:10201000B0B548F2E800C0F2002004682046FEF7A0
:10202000DFF900280ED440F25C45C2F2002500BF63
:10203000C1B22846FFF7D4FC2046FEF7D1F9B0F133
:10204000FF3FF5DCB0BD70B51446127806465AB1B4
:1020500020460D4606F01CF8034630462946224627
:10206000BDE8704000F004B8304670BDD4D4D4D47C
:1020700070B5012B044626DBBF2C22D840F2B0708D
:10208000C900C2F200201E4602310155194600BFA8
:10209000BF2C16D001F07F030519C90904F1010412
:1020A00018BF80336B70F3D1C6F1C0018C4208DADF
:1020B000204411460130324605F0C2FF3019441C5D
:1020C00001E04FF0FF34204670BDF0B581B00D4601
:1020D000694616460446FFF7CBF938B1D4E901103A
:1020E000814203DB009F091AB94202D2002001B0ED
:1020F000F0BD711E8F4257EAB186012E05DB2168C3
:1021000032460144284605F09BFF0020A855A068F0
:102110003844A0600120EAE710B5FEF733F8FEF777
:1021200007F848F2E4004FF4E131C0F20020002249
:1021300004682046FEF7FCF848F2E8004FF4E1316D
:10214000C0F2002000220068FEF7F2F848F2EC002E
:102150004FF49641C0F2002002220068FEF7E8F832
:1021600048F607012046C0F20021FEF71DF9FEF7F0
:102170006BF9FEF797F90024C4F238042046FEF705
:1021800027FA04F50050FEF723FA40F2584042F2D5
:102190000014C2F200204DF28F01C4F232044EF658
:1021A0004702C0F203010160C0F2010201210123D4
:1021B0002046FEF76BFA04F530600C214FF2234203
:1021C0000023FEF763FA04F510600A2147F6112296
:1021D0000023FEF75BFAFEF7B9FAFEF7F7FAFEF70F
:1021E000A1FBFEF7DBFBFFF7D7FEBDE81040FEF7D3
:1021F000C0BB70B584B040F24C4440F25C40C2F2C7
:102200000024C2F200202568D0F8F000002805F173
:1022100001008DF80F5020600AD100F00F00FEF78A
:10222000F7FA20884FF47F6101EA0010FEF7E2FA26
:102230000024C4F23804FEF753FB40F25441C2F2CA
:1022400000210870FEF7A4FAEDB22846FEF70CF95B
:1022500050202946FEF747F90DF10F0240F22311F5
:1022600001232046002500950126FEF7D9F960B12B
:1022700040F25C400DF10F03C2F20020002140F259
:102280002312CDE90065FFF7CAFD04F500500DF1FA
:102290000F0240F22131012300950124FEF7C0F91D
:1022A00068B140F25C400DF10F03C2F20020012141
:1022B00040F221320026CDE90046FFF7B0FDFEF7DF
:1022C0009CF840F25C40C2F20020FFF749FDFEF7A7
:1022D0009BFB04B070BDD4D4FFF71EFF48F21F581B
:1022E0000024C5F2EB181926002700BF00BF00BF6D
:1022F000A7FB0801C80800FB0645FEF731FBFFF706
:1023000087FE0DB9FFF775FF1420013703F0E2FFD8
:10231000013CEDE7022818BF704740F6301049F243
:10232000E071C2F20020C0F2002100F053BAD4D410
:10233000FFF7D2BF7047D4D4FFF7FCBF00BE704791
:10234000B0B540F638144FF0FF31C2F200242068D7
:1023500002F0CAFA012803D020680021FFF7EEFF3F
:1023600040F63C10C2F20020017801B1B0BD01215D
:102370000170FFF7E1FF40F64015C2F2002500BFF3
:10238000286801382860F1D020680021002200234D
:1023900001F066FF0128F3D020680021FFF7CEFF8F
:1023A000EEE780B540F63C1240F64010C2F2002243
:1023B000C2F200200021117040F644120160C2F206
:1023C00000224FF48070012101F029FF40F63811FE
:1023D000C2F20021086018B900200021FFF7AEFF0B
:1023E00000F020F804F0E8F9002080BD40F68C1CD5
:1023F00040F6EC13C2F2002CC2F20023C0F800C079
:102400000B6080201060704740F6EC3C40F64C4377
:10241000C2F2002CC2F20023C0F800C00B60802082
:102420001060704780B584B040F6401049F2BC732C
:10243000C2F2002040F64C6C41F2881EC0F200232C
:1024400001684FF48062013101600120009042F286
:102450008D4048F64F51C0F20020C0F20021C2F278
:10246000002CC2F2002ECDE901EC03F0FDFB40F69A
:10247000AC61C2F20021086008B104B080BD002048
:10248000002104B0BDE88040FFF758BF10B50446F6
:10249000FFF756FF2046BDE81040FFF749BFD4D4F0
:1024A0001EF0040F0CBFEFF30880EFF30980014921
:1024B00008470000472500020F4B1968EFF3098217
:1024C0001EF0100F08BF22ED108A22E9F04FEFF343
:1024D0000B8342F8043D0A604FF0100080F311882E
:1024E000BFF34F8FBFF36F8F04F03AF84FF0000047
:1024F00080F3118800F002B87C0F002207480168C1
:102500000A6802CA81F30B88B2E8F04F1EF0100F80
:1025100008BFB2EC108A82F3098870477C0F002252
:1025200010B51020EFF3118480F3118804F0DCF96A
:1025300030B14EF604504FF08051CEF200000160F1
:1025400084F3118810BD806910F8020C022801D1B3
:10255000FFF7D4BF042838BF704780B548F2A410F5
:1025600048F6334248F2E433C0F20020C0F20022C1
:10257000C0F200234FF47E7100F0A6FF283140F82E
:10258000481D42F2A9514FF0807CC0F2002122F098
:102590000102C1630264C0F844C06FF00201C0E9E7
:1025A00009137047D4D4D4D400BE00BF00BF00BF0D
:1025B000FEE7D4D4D4D4D4D44EF62250F021CEF2B7
:1025C0000000017000F016F84EF63470CEF20000F4
:1025D000016841F04041016062B6BFF36F8FEFF3D5
:1025E000148C2CF0040C8CF31488BFF36F8F02DF73
:1025F00000BEFDE740F6287044F6D351C2F2002039
:10260000C1F262010068A0FB01014FF0FF3000EB56
:1026100091110020B0EB116F18BF70474EF21002FD
:10262000F023CEF2000251604EF62351CEF20001AB
:102630000B70906007201060704700BE7047EFF38A
:102640001180102181F3118840F6B061C2F200219F
:102650000A68002A02F101020A6018BF704740F6BA
:10266000B461C2F2002108604EF60450CEF20000C0
:102670000068C00500D1704780B548F2A41048F248
:10268000CA1248F6B923C0F20020C0F20022C0F2FC
:10269000002340F2A44100F017FF40F6B060C2F200
:1026A0000020016859B10139016018BF704740F638
:1026B000B460C2F20020006880F31188704780B5D2
:1026C00048F2A41049F2A24248F20013C0F20020DE
:1026D000C0F20022C0F2002340F2AD4100F0F4FE4F
:1026E00080B598B34EF6902EC4F2010E9EF80010FD
:1026F0000A0722D04EF2FA324AF2025CC4F2010218
:10270000CFF6FF7C00201388A2F800C08EF80000EE
:1027100043F425401080BFF34F8F30BFBFF36F8F5E
:1027200062B6BFF36F8F72B61088A2F800C08EF841
:10273000001040F42540108080BDBFF34F8F30BFA4
:10274000BFF36F8F62B6BFF36F8F72B680BD80B577
:1027500072B603F097FC0120FFF7C2FF62B6BDE836
:10276000804003F0E9BC80B5EFF30380103840B23D
:10277000002806D44EF20041CEF20001405C0F2842
:1027800017D94EF60C50CEF200000068400558BF35
:1027900080BD48F2A41049F21C1248F25B53C0F20B
:1027A0000020C0F20022C0F2002340F2216100F0BC
:1027B0008BFE48F2A41049F21C1249F21843C0F2F1
:1027C0000020C0F20022C0F2002340F20F6100F0AE
:1027D0007BFED4D480B545F25422C5F24F0202608C
:1027E000084600F021F9002080BD014600200022AB
:1027F0000A60704780B5084600F016F9002080BDD9
:1028000070B586B001A8049003A814460D46ADF833
:10281000081001920126ADF80C6000F069F940F64D
:102820001070EFF31081C2F2002086F31088026866
:102830003AB940F614520023C4F240021370402308
:10284000137002680132026081F31088E10340F6E0
:1028500000014FEA1522C4F2400101D4EBB20CE0B2
:1028600001EB8216EBB256F8235025F4803546F87A
:10287000235024F4803546F8235001EB82110122C5
:1028800041F82340EFF3108182F31088026812B1FF
:102890000268013A0260006838B940F6145000221C
:1028A000C4F2400002708022027081F31088002080
:1028B00006B070BD04200023C4F24000CFF6FF73C1
:1028C00040EAD100C9B220F01B00006843EA104082
:1028D00020FA01F1002001F001011170704780B56C
:1028E0006FF00100002300EAD110C4F2400340F26F
:1028F0000C0E012A43EA001C4FEA0013C4F2400EFA
:10290000C8B24FF001015EF803204FF4803301FAA2
:1029100000F103FA00F003D122EA0000014302E0D3
:1029200022EA010101430020CCF80C1080BD6FF0B9
:102930003F00CBB200EA910040F6000100EB8300BB
:10294000C4F2400141580020C1F3400111707047AA
:1029500010B5CBB2012098406FF0010E84B20EEAA0
:10296000D110002A40F208024FF4803C4FEA0011D7
:10297000C4F240024FF0000008BF0CFA03F45450B8
:1029800010BD80B56FF0010040F2000C00EAD110DC
:10299000C4F2400C010103EA020E62EA03025CF891
:1029A00001004EEA000E002002EA0E024CF801205F
:1029B00080BD6FF0010000EAD11004210001C4F2D3
:1029C000400109580020090C118070476FF0010088
:1029D00003EA020C00EAD11023EA02010C230201EF
:1029E000C4F2400300204CEA0141995070476FF057
:1029F0000100042300EAD110C4F2400301010020C9
:102A00005958118070476FF0010003EA020C00EA88
:102A1000D11023EA020108230201C4F2400300207E
:102A20004CEA01419950704770B5044600F060F8D7
:102A300040F6107CEFF31081C2F2002C012080F3ED
:102A40001088DCF8000038B940F614500022C4F2B7
:102A50004000027040220270DCF800000130CCF827
:102A6000000081F31088208828B340F6000E002172
:102A7000C4F2400E00BF00BF606800EBC10250F816
:102A800031309288D8034FEA1220D2B20BD50EEB28
:102A9000801555F8226026F4803645F8226023F42C
:102AA000803645F822600EEB8010013140F822306C
:102AB00020888142E0D30120EFF3108180F3108859
:102AC000DCF8000020B1DCF800000138CCF8000090
:102AD000DCF8000038B940F614500022C4F240007F
:102AE00002708022027081F3108870BDD4D4D4D4D7
:102AF0002DE9F04F81B004460088002862D04EF6E0
:102B00004C4B0025C4F2010B4FF0010A00BF00BF7F
:102B100042F2400649F620080027C4F22006C0F21F
:102B2000002800BF00BF00BF606838F8021B00EB40
:102B3000C50082888A423DD100689BF8001000F0F1
:102B4000B8500AFA07F9B0F1807F09EA010017D1FD
:102B500058B9012000F0C7FD9BF8000040EA0900C9
:102B60008BF80000012000F097FD96F90000002886
:102B700020D4307840F0800017E000BF00BF00BFD5
:102B800058B1012000F0AFFD9BF8000020EA0900D9
:102B90008BF80000012000F07FFD96F90000B0F1F5
:102BA000FF3F07DC307800F07F003070C820012143
:102BB00000F090FC01370236032FB5D12088013593
:102BC0008542A5D301B0BDE8F08FD4D4D4D4D4D4F9
:102BD0004EF2A001C4F201010A78D206FCD40870BA
:102BE0000878C006FCD4704740F2204205280868E7
:102BF000C2F2002205D150614868D0618868106235
:102C00007047906148685062886890627047D4D479
:102C10004EF22401C4F201018878098801F00F0204
:102C2000A2F1080103293BD8DFE801F0022C101EB5
:102C300040F22041C2F2002151F820004AF6AB21B7
:102C4000CAF6AA21A0FB0101480830E040F2204169
:102C5000C2F2002151F820004AF6AB21CAF6AA219F
:102C6000A0FB0101C80822E040F22041C2F200218D
:102C700051F820004AF6AB21CAF6AA21A0FB0101B7
:102C8000080914E040F22041C2F2002151F820006E
:102C90004AF6AB21CAF6AA21A0FB0101880806E08A
:102CA00040F22041C2F2002151F82000D04040F60D
:102CB0002871C2F200210860704710B54EF2200C56
:102CC0004FF0030EC4F2010C030158BF4FF0010E88
:102CD000DCF80020032312F0006F4FF00702DCF84D
:102CE000004004BF0F22012302EA1462C0F3026411
:102CF00003FA02F20EFA04F3934204D2ACF8041081
:102D0000CCF8000010BDCCF80000ACF8041010BDE9
:102D10004CF200000021C4F2130001700178017828
:102D2000007870474CF20000C4F2130041686FF362
:102D30009F21652938BF7047012101707047D4D4A5
:102D40002DE9F04F83B040F2204E0E468146C2F28C
:102D5000002E09014FF003011546C6F3026258BF69
:102D600001215EF8294091404EF2001342F200002A
:102D7000C0F2F553C4F20000B4FBF1F729074FF09D
:102D800003014AF201524FF0030A58BF0121029792
:102D90009F4205F0070C274601940BD902800127BA
:102DA000BFF35F8F07724FF42547BFF35F8F078034
:102DB0005EF829702B0B0122C5F302302CB202FA07
:102DC00003F3002C48BF0AFA00F3300FC6F3027475
:102DD00002FA00F04CF20008002EC4F2130848BFBB
:102DE0000AFA04F04EF22604C4F20104B7FBF0FA2A
:102DF000002088F8000098F8000098F8000098F883
:102E000000005EF829002278B7FBF3FB44F23F276D
:102E10005EF82220C0F20F07904201FA0CF00090F9
:102E20003DD21E20012100F055FB3046294684F892
:102E30000090FFF742FF4DF683600BEB0701C4F2F1
:102E40001B30BBF5004FA1FB00124FEA9241D8F8AE
:102E5000042098BF0021914208D001F1F05200BF38
:102E6000C8F80420D8F804309942F9D10AEB0701D8
:102E7000BAF5004FA1FB00014FEA9140D8F80810C5
:102E800098BF0020884247D000F1614100BF00BFD9
:102E9000C8F80810D8F808209042F9D13CE04DF667
:102EA00083600BEB0701C4F21B30BBF5004FA1FBA5
:102EB00000124FEA9241D8F8042098BF00219142B5
:102EC00008D001F1F05200BFC8F80420D8F804304F
:102ED0009942F9D10AEB0701BAF5004FA1FB0001B5
:102EE0004FEA9140D8F8081098BF0020884209D0D6
:102EF00000F1614100BF00BFC8F80810D8F80820F1
:102F00009042F9D130462946FFF7D7FE1E20012115
:102F100000F0E0FA84F80090DDE90010B0FBF1F079
:102F2000D8F804106FF39F21652902D3012188F896
:102F300000104EF2001140F62872C0F2F551C2F2B4
:102F400000220131029B10608B420FD242F200013D
:102F50004AF20150C4F2000108800020BFF35F8FE5
:102F600008724FF42540BFF35F8F088003B0BDE8BF
:102F7000F08F10B51E20012100F0ACFA40F6287049
:102F8000C2F20020046846F20150C1F6CD508442DE
:102F90001AD34EF2200040F6B862C4F20100C2F229
:102FA0000022818811800168C1F30362090E42EAA0
:102FB00002131B0143EA013111448180FFF728FE0F
:102FC0001E20012100F086FA46F20050C1F6CD50D5
:102FD00084425FEA9F9010BD10B504461E20012177
:102FE00000F078FA8CB140F6B8604EF22401C2F2DB
:102FF0000020C4F2010100880880FFF709FE1E20AE
:103000000121BDE8104000F065BA10BDD4D4D4D47D
:103010002DE9F041A0A04EF2FA38C4F201084AF2BC
:10302000015190ED001F40F22040CFF6FF71C2F237
:1030300000200231A8F800104CF600214EF601469F
:103040004EF60047C3F69A314FF40042C0E904211E
:1030500044F2553148F200424EF2140580ED001F53
:10306000C4F20106C4F20107C1F2DE31C1F2D77227
:10307000C4F20105C0E90712FFF7CAFD4FF6506020
:103080000A21CFF6FF703954092085F88E00387870
:1030900018B93078800700F0F980387858B90120E5
:1030A0003870C820012100F015FA00BF00BF00BF32
:1030B00038780128FCD10020307038704AF201566F
:1030C000002085F82200A87795F828000007FBD596
:1030D0004EF614504FF60211C5F8981040F25141C7
:1030E0002987CEF20000BFF34F8FBFF36F8F0268C6
:1030F0004EF2000122F4003202600022C0F83C22AD
:10310000CEF20101BFF34F8FBFF36F8F0A6822F435
:1031100040520A60BFF34F8FBFF36F8F2A7802F0DF
:10312000F80201322A7000BF2A78D206FCD40A685D
:1031300042F440520A60BFF34F8FBFF36F8F0168B4
:10314000890312D4BFF34F8FBFF36F8F0021C0F8F4
:103150003C12BFF34F8FBFF36F8F016841F4003112
:103160000160BFF34F8FBFF36F8F0020A87500BFC2
:1031700095F828008006FBD54CF200070020C4F229
:10318000130738703878387838787868FA2807D094
:10319000FA20C1F6006000BF78607968FA29FBD197
:1031A000B8687D2808D07D20CEF2001000BF00BF97
:1031B000B860B9687D29FBD143F23240C3F22320C5
:1031C000E86042F2201028820520A874FFF720FD55
:1031D0001E200121012400F07DF978686FF39F2003
:1031E000652828BF3C70FFF713FD42F200004FF442
:1031F0002541C4F200000680BFF35F8F0472BFF365
:103200005F8F018085F83F4095F8600040F04000F6
:1032100085F8600000BF00BF95F96000B0F1FF3F86
:10322000FADC002085F85800402185F8601085F808
:10323000600000BF00BF00BF95F960000028FBD40C
:1032400095F8620040F0400085F8620000BF00BFC2
:1032500095F96200B0F1FF3FFADC002085F85A00D2
:10326000C02085F8620095F8620000F0BF0085F884
:10327000620000BF00BF00BF95F962000028FBD4C8
:103280004FF42540A8F80000BDE8F0814FF47A70B3
:1032900000F00EF812E700BF006CDC0200127A00AA
:1032A0000080000000366E014FF47A7100F012B910
:1032B0007047D4D4D4D4D4D42DE9F04F81B04EF299
:1032C000FA3143F20406C4F201018246C4F2200638
:1032D0004AF20350B1F8009008804FF0010B00252E
:1032E0004FF480340127002004FA00F132680A42CA
:1032F00010D1EFF310888BF3108832680BFA00F0CE
:1033000011433160316805431E20012100F0E2F8CD
:1033100088F31088F8074FF001004FF00007E3D161
:103320004EF2750740F22041C4F20107C2F20021BB
:10333000387800F00F0051F8200017F8081C01F051
:103340000F01022901D801220BE0CA1E052A06D26C
:1033500049F61421C0F2002151F8221003E0083987
:10336000102202FA01F1B0FBF1F04DF68361C4F2D4
:103370001B31A0FB01016FF0010000EA5140012167
:1033800000F0A8F8387840F04000387000BF00BF67
:1033900097F90000B0F1FF3FFADC9AF8010007F856
:1033A000080C9AF8000040F0400038709AF80000CD
:1033B000387000BF00BF00BF97F900000028FBD4A1
:1033C00000204FF0010A4FF48038012400BF00BFF5
:1033D00025FA00F1C90710D0EFF310878AF310889F
:1033E00008FA00F0316821EA0000306030681E20E1
:1033F000012100F06FF887F31088E0074FF001001B
:103400004FF00004E4D14EF2FA3149F42540C4F201
:103410000101088001B0BDE8F08F40F22041C2F206
:10342000002151F820007047B0B542F22404C820B2
:10343000C4F2200401210025257100F04BF825700D
:10344000207808B12FF005C0207840F002002070ED
:1034500020788007FCD4002004F8020C00BF00BFD5
:1034600014F8020C08B12FF005C84FF0030E00202D
:1034700004F11C0100BF00BF11F8102002F07F0210
:1034800001F8102000BF00BF11F91020002AFBD462
:1034900001300FF00FC8012000F025F94EF64C4125
:1034A0000120C4F2010100220A70BDE8B04000F022
:1034B000F3B8D4D47047014600220020C0F206625F
:1034C0000A607047D4D4D4D400BE00BF00BF00BF90
:1034D000FEE7D4D440F6287241F20023C2F2002263
:1034E000C0F27A03484312689A420FD344F23F2154
:1034F000C0F20F0111444DF68362C4F21B32A1FBEE
:103500000212910CA0FB0101C9B11BE04CF6002195
:10351000C3F69A31B1FBF2F148F63812C0F241021B
:10352000904205D24FF47A725043B0FBF1F006E0BE
:10353000B0FBF1F0904205D24FF47A71484328B1C4
:1035400000F006B84FF0FF3000F002B87047D4D456
:1035500001380028FCD1704740F6BC630246C2F235
:103560000023002043F822107047D4D4D4D4D4D4FC
:10357000F0B581B04CF2001540F6BC67C4F200050E
:103580000024C2F200272868296A01EA000600BF69
:1035900026FA04F0C00704D057F8241009B12046D9
:1035A00088470134152CF3D12E6100BF00BF00BF46
:1035B000286A3042FCD101B0F0BDD4D4007800219B
:1035C000C4F2020151F82000002818BF08207047FB
:1035D00001780022C4F202020020012342F82130C7
:1035E000704780B540F61471C2F20021086043F2C2
:1035F0000F61C0F200211420FFF7AEFF4CF2001162
:103600000020C4F200014FF480120A6080BD14282B
:1036100018BF704788200121C4F20200016040F603
:103620001470C2F20020006800B100477047942176
:103630000020C4F2020101220A60704749F62820E6
:10364000C0F20020008820B14CF20031C4F2000129
:1036500008607047D4D4D4D470B50C468047D4B138
:10366000C8B949F64000C0F2002084689CB1C06827
:103670004FF4602600F10805B5F80500B6EB002F01
:1036800005D155E902022968121A04F0D9FC013C5F
:1036900005F11005F0D170BDEFF31081012282F326
:1036A000108840F61C72C2F2002232F8103023B1AA
:1036B00032F81030013B22F8103032F810207AB97D
:1036C0004EF2FA3249F62A2CC4F20102C0F2002C62
:1036D00013883CF8100043F4254323EA00001080CF
:1036E00081F31088704710B5EFF31081012282F347
:1036F000108840F61C72C2F2002232F8103083B9F2
:103700004EF2FA3E49F62A2CC4F2010EC0F2002C09
:10371000BEF800403CF81030234343F42543AEF894
:10372000003032F81030013322F8103081F3108865
:1037300010BDD4D480B505487844026804F098FCE4
:1037400001464FF0FF300C238B5080BD4C630000CE
:1037500070B543F600450446C4F2000500BF00BF43
:1037600095F8500008B12FF005C84FF08700A884E5
:103770004FF0100028709CB10020FFF7B4FF4EF20C
:1037800053000126C4F2010006700020FFF784FFF9
:1037900085F8206000BF00BF95F850000007FBD4FB
:1037A0000120A8700020687095F8500008B12FF033
:1037B00005C842F20350C0F20500A4B14FF40C71E9
:1037C000A5F8481000BF00BF95F85010C907FBD1FD
:1037D0006864012085F8400047F2A831A982A875E5
:1037E0001120287070BD6864012085F8400047F200
:1037F000A831A982A87500BF2878C007FCD195F828
:10380000500008B12FF009C00120287470BDD4D435
:1038100043F600401021C4F20000017000BF00BF59
:103820000178C907FCD190F8501009B12FF009C0F8
:10383000012101747047D4D410B54EF25304C4F280
:103840000104207838B90020FFF74DFF01202070D7
:103850000020FFF721FF43F60040C4F2000000BF44
:1038600090F8501009B12FF005C800210174112102
:10387000017010BDD4D4D4D400F006F8FEF791FD49
:10388000FEE700BE7047D4D470B54EF6005540F246
:103890000120CEF20005C0F20E004EF20006686173
:1038A000CEF20106BFF34F8FBFF36F8F2968C1F3CC
:1038B000035001285FEA1F9211F00F0F5FEA0F918A
:1038C0001142316811D102280FD241F0040030605A
:1038D0004EF20800BFF34F8FCEF20000BFF36F8FA0
:1038E000016841F48031016002E021F004003060A1
:1038F000BFF34F8FBFF36F8F4FF4700040F20001A2
:10390000C5F888000020C0F20021A9600024FEF75D
:1039100001FDFFF77DFB4EF2FA304EF6B022C4F205
:103920000100C4F201024AF20251018014704FF406
:10393000254101800120FEF7EDFC40F22000C2F29B
:10394000002080F30A883068800721D5A868B0F18C
:10395000007F1DD130694FF40071C0F3C30072695C
:1039600001FA00F3C2F3C30081400020DA08CB085B
:103970000146064642F005C0E6E802010FF005C028
:103980004FF0005243F005C0E2E802010FF005C01D
:10399000002000F099F8FFF73BF9FFF745FD032001
:1039A000FFF7A1FE4FF00E0E40F63050C4F240007B
:1039B00020F8044B0FF005C04EF210140320C4F29F
:1039C0000104FFF769FE0320FFF78DFE44F20400B7
:1039D0000021C4F22000016041608160C1600320C9
:1039E000FFF75AFED4F8C802800714D42078A0B19B
:1039F0000120FFF778FE00BF94F9000010F1410F9D
:103A0000FADC0020207000BF20783F28FCD801207D
:103A1000FFF742FE01E0D4F8C802D4F8C80240071C
:103A200015D42079A8B10120FFF75DFE00BF00BFCB
:103A300094F9040010F1410FFADC0020207100BF5E
:103A400020793F28FCD80120FFF726FE01E0D4F8BA
:103A5000C8020220FEF75EFC012000F035F841F2BA
:103A60008014C2F20024204604F028FB204604F013
:103A700005FBBFF34F8FBFF36F8F0020C5F85002D7
:103A800049F68C2049F68C21C0F20020C0F20021BA
:103A9000BFF34F8F081ABFF36F8F8410012C08DB20
:103AA00049F68C25C0F2002555F8040B8047013CEF
:103AB000FAD1FFF7C3FD0020BDE87040FFF7FABC64
:103AC0007047D4D4D4D4D4D4F0B581B049F64005ED
:103AD0000446C0F200252E6876B16868071D00BF55
:103AE0007879844204D157E90101091A04F07AFA7D
:103AF000013E07F10C07F3D1AE6896B1E86800F11A
:103B0000080500BF00BF00BF6879844205D155E9B0
:103B100002022968121A04F093FA013E05F1100519
:103B2000F2D101B0F0BDD4D410B582B070B104466A
:103B3000182001900198182817D12046002140F83C
:103B4000041B00F04FFA204602B010BD48F6AD301D
:103B500048F6FF2249F21D03C0F20020C0F2002205
:103B6000C0F200235D21FFF7AFFC48F6AD3048F608
:103B7000FF2248F61733C0F20020C0F20022C0F244
:103B800000236521FFF7A0FC2DE9F041B2F1807F11
:103B90004BD21446002A57D098460F46054603F0EC
:103BA0008DFAB8F1000F01D000285CD002F06AFA5B
:103BB000284639462E6800F067F83743F84320421C
:103BC00003D12868A04328602AE0B8F1000F26D06E
:103BD000281D44F0A061424603F00DF802F0ACFA53
:103BE00050B94EF604504FF08051CEF20000016003
:103BF000BFF34F8FBFF36F8F03F073FA0646800158
:103C00000AD4FEF71CFD2E68F043204202D126EABA
:103C100004002860FEF741FD26F07F4702E02F6890
:103C200002F08AFA3846BDE8F08148F6AD3048F631
:103C30001C0248F27773C0F20020C0F20022C0F2EA
:103C40000023C521FFF740FC48F6AD3048F61C02C2
:103C500048F2AF73C0F20020C0F20022C0F200238D
:103C6000C621FFF731FC48F6AD3048F61C0248F299
:103C70006E43C0F20020C0F20022C0F20023C9212E
:103C8000FFF722FCD4D4D4D42DE9F04198B30D46EB
:103C9000B1F1807F3FD2044600F10C0802F0F2F946
:103CA00027692068474540EA050020601DD00025AF
:103CB0003846D7E9003723F07F4221685E0101EAE8
:103CC00002060DD436B141F00071DB0148BF154347
:103CD00003F0A6F84745EBD105E000BF00BF00BFE9
:103CE0009642F0D0F6E72068A843206002F024FA5C
:103CF0002068BDE8F08148F6AD3048F2C14248F690
:103D00005A53C0F20020C0F20022C0F2002340F259
:103D10003221FFF7D9FB48F6AD3048F2C14248F6F0
:103D20008A03C0F20020C0F20022C0F2002340F259
:103D30003321FFF7C9FB2DE9F04381B000286ED095
:103D40000D46B1F1807F7AD2002D00F088800446C4
:103D50001F469046DDF8209003F0B0F9B9F1000F4E
:103D600002D0002800F08B8002F08CF9266816EA59
:103D700005005FEA1F91A8425FEA0F90002F51EA09
:103D8000008000283FD0B9F1000F42D04146B8F181
:103D9000000F18BF4FF08071002F04F1040018BF0E
:103DA00041F0806129434A4602F025FF02F0C4F940
:103DB00050B94EF604504FF08051CEF20000016031
:103DC000BFF34F8FBFF36F8F03F08BF9064680016F
:103DD00016D4FEF734FC266816EA05005FEA0F9158
:103DE000A8425FEA1F90002F51EA0080B8F1000F4F
:103DF00018BF002802D026EA05002060FEF74DFC1F
:103E000026F07F4607E0B8F1000F02D026EA050051
:103E1000206002F091F9304601B0BDE8F08348F629
:103E2000AD3048F6DB6248F65A53C0F20020C0F2CB
:103E30000022C0F2002340F24711FFF745FB48F68D
:103E4000AD3048F6DB6248F27773C0F20020C0F272
:103E50000022C0F200234FF4A471FFF735FB48F6AF
:103E6000AD3048F6DB6248F2AF73C0F20020C0F21A
:103E70000022C0F2002340F24911FFF725FB48F66B
:103E8000AD3048F6DB6248F26E43C0F20020C0F26B
:103E90000022C0F200234FF4A671FFF715FB70B5A6
:103EA00070B10D46B1F1807F1AD20446FEF7C7FB10
:103EB000266826EA05002060FEF7EFFB304670BD5D
:103EC00048F6AD3049F24D4248F65A53C0F2002050
:103ED000C0F20022C0F200234FF4F171FFF7F4FAB0
:103EE00048F6AD3049F24D4249F27063C0F200200D
:103EF000C0F20022C0F2002340F2E311FFF7E4FA1F
:103F00001021EFF3118281F31188006882F3118888
:103F10007047D4D4D4D4D4D4B0B540B3044602F05E
:103F2000B1F8606878B104F10C0500BF00BF00BFB4
:103F30002069A8420BD04FF0007102F071FF606859
:103F400008B12FF00BC8BDE8B04002F0F5B848F654
:103F5000AD3048F6DF3248F6BE03C0F20020C0F2B2
:103F60000022C0F2002340F29A21FFF7ADFA48F692
:103F7000AD3048F6DF3249F23B13C0F20020C0F208
:103F80000022C0F2002340F28E21FFF79DFA80B597
:103F900020B199B1024601200A6080BD48F6AD30DB
:103FA00049F2E42249F23B13C0F20020C0F20022A1
:103FB000C0F2002340F2C221FFF786FA48F6AD3086
:103FC00049F2E42248F28323C0F20020C0F200222A
:103FD000C0F2002340F2C321FFF776FAFFF754BE88
:103FE000FFF75DBF01464FF0FF3241F8082F002276
:103FF000C0E90311C0E90021704700210161704749
:1040000042684A6093688B605960916008610168FA
:10401000013101607047D4D480B5D1F800C01CF1E3
:10402000010207D000F10802964652681368634502
:10403000FAD903E0D0F810E0DEF804204A6091607D
:10404000C1F808E0CEF80410086101680131016090
:1040500080BDD0E901230169936042685A604A68D3
:10406000824201D182684A600022026108680138F8
:104070000860704770B500284BD00446C06BC0B3D1
:104080000E46216CA0FB010199BBFEF7D8FAD4E9DA
:104090000F010025226801FB00230138A56300FB06
:1040A0000120C4E90123E060FF2084F8440084F883
:1040B000450004F110004EB1FFF794FF04F1240015
:1040C000FFF790FFFEF7E9FA012070BD01680029B3
:1040D000F8D002F01DFE0028F4D04EF604504FF048
:1040E0008051CEF200000160BFF34F8FBFF36F8F9E
:1040F000E8E748F6206049F2624249F2C613C0F28E
:104100000020C0F20022C0F200234FF4B671FFF786
:10411000DBF948F6206049F2624249F29513C0F299
:104120000020C0F20022C0F2002340F23711FFF756
:10413000CBF910B582B043B3B8B11C4601B9A2B9EE
:1041400001B192B148230193019B482B2DD1002945
:1041500054EA0282019BC4E90F010121204622603A
:10416000FFF788FF204602B010BD48F6206048F6F1
:10417000F13249F23003C0F20020C0F20022C0F256
:1041800000234FF4D871FFF79FF948F6206048F6F6
:10419000F13248F26363C0F20020C0F20022C0F2A4
:1041A00000234FF4C271FFF78FF948F6206048F6FC
:1041B000F13248F63733C0F20020C0F20022C0F2DC
:1041C00000234FF4CB71FFF77FF980B538B1B2B15E
:1041D000034609B1186808600120136080BD48F6E5
:1041E000206048F6FC1249F29513C0F20020C0F29C
:1041F0000022C0F2002340F2C711FFF765F948F62C
:10420000206048F6FC1249F24713C0F20020C0F2C9
:104210000022C0F200234FF4E471FFF755F9B0B566
:1042200082B060B10D46814209D8144600210022B7
:104230002346FFF77EFFA563204602B0B0BD48F6D7
:10424000206048F6665248F27163C0F20020C0F266
:104250000022C0F200234FF45E71FFF735F9D4D489
:104260002DE9F04F83B00028029200F09D800446B3
:104270001D461646894619B9206C002840F0C480B6
:10428000022D03D1E06B012840F0AE8002F016FF52
:1042900010B9002E40F09880FEF7D1F9022DA06BE6
:1042A0005BD0E16B884258D301206F464FF0000B82
:1042B00002AE00BF00BF00BF0299002968D0C0074E
:1042C00002D0384602F05AFEFEF7E7F901F0DAFEB6
:1042D000FEF7B5F994F84400FF2808BF84F844B00D
:1042E00094F84500FF2808BF84F845B0FEF7D5F9DB
:1042F0003846314602F04FFE00284CD1FEF79FF9B8
:10430000D4F838A0D4F83C80FEF7C7F9C24517D1DD
:10431000029904F1100002F04DFC204600F0B4F8C0
:1043200001F00AFF88B94EF604504FF08051CEF2EA
:1043300000000160BFF34F8FBFF36F8F05E000BF38
:10434000204600F0A1F801F0F7FEFEF778F9A06B27
:10435000E16B88424FF00000AED2204649462A4623
:1043600000F062F854F8240F70B1204602F0D0FC3F
:1043700050B14EF604504FF08051CEF20000016073
:10438000BFF34F8FBFF36F8FFEF787F9012008E06F
:10439000FEF783F904E0204600F076F801F0CCFE49
:1043A000002003B0BDE8F08F48F6206048F2D44208
:1043B00049F29513C0F20020C0F20022C0F200239F
:1043C00040F2B631FFF780F848F6206048F2D44258
:1043D00048F26E43C0F20020C0F20022C0F2002377
:1043E00040F2BB31FFF770F848F6206048F2D44243
:1043F00048F27963C0F20020C0F20022C0F200232C
:104400004FF46E71FFF760F848F6206048F2D4422E
:1044100049F2A663C0F20020C0F20022C0F20023DD
:1044200040F2B731FFF750F870B5866B036C044665
:104430002BB31546B2B1E0681A4603F001FE2168BD
:10444000E268206C121AE2608A4203D24042A168FC
:104450000844E060022D5FEA1F90002E5FEA0080B2
:10446000361A0CE060681A4603F0EAFDD4E901014F
:10447000226C10446060884201D320686060701C28
:10448000A06370BDD4D4D4D4F0B581B00446FEF797
:10449000D6F894F94560012E0EDB04F1240500BF27
:1044A000286848B1284602F033FC08B102F0C3FD89
:1044B00070B2013E0128F3DCFF2684F84560FEF768
:1044C000ECF8FEF7BCF894F94470012F10DB04F10E
:1044D000100500BF00BF00BF286848B1284602F0A1
:1044E00017FC08B102F0A7FD78B2013F0128F3DC08
:1044F00084F8446001B0BDE8F040FEF7CEB82DE985
:10450000F047002849D005461E4690460F4611B98F
:10451000286C002861D1022E02D1E86B01284CD111
:10452000FEF721F9EFF31189102080F31188022E94
:10453000A86B04D0E96B884201D3002029E095F9EB
:104540004540A86B2846394632465FFA84FAFFF7A1
:104550006BFFBAF1FF0F0BD002F0B1FAA04217D9EE
:10456000BAF17F0F49D00AF1010085F845000FE04C
:1045700055F8240F60B1284602F0CAFB014601201D
:10458000B8F1000F18BF002903D0C8F8000000E000
:10459000012089F31188BDE8F08748F6206048F2D1
:1045A000E64249F29513C0F20020C0F20022C0F2A8
:1045B00000234FF49261FEF787FF48F6206048F22F
:1045C000E64248F27963C0F20020C0F20022C0F255
:1045D000002340F29241FEF777FF48F6206048F250
:1045E000E64249F2A663C0F20020C0F20022C0F207
:1045F000002340F29141FEF767FF48F6206048F241
:10460000E64248F6EF63C0F20020C0F20022C0F29A
:10461000002340F21E51FEF757FF2DE9F04100281C
:104620003CD00546006C002848D12868884610B95F
:10463000A868002852D1FEF796F81020EFF31186F3
:1046400080F31188A86BE96B884210D295F9454038
:104650000130A863E7B2FF2F0BD002F030FAA0427E
:1046600017D97F2F4AD0781C85F8450011E000202B
:1046700010E055F8240F60B1284602F049FB0146CE
:104680000120B8F1000F18BF002903D0C8F80000BE
:1046900000E0012086F31188BDE8F08148F6206033
:1046A00048F2FF4249F29513C0F20020C0F2002206
:1046B000C0F200234FF4A861FEF706FF48F6206021
:1046C00048F2FF4249F2B443C0F20020C0F2002297
:1046D000C0F2002340F24451FEF7F6FE48F6206097
:1046E00048F2FF4249F23333C0F20020C0F2002208
:1046F000C0F2002340F24951FEF7E6FE48F6206082
:1047000048F2FF4248F6EF63C0F20020C0F20022F8
:10471000C0F2002340F2CB51FEF7D6FED4D4D4D45D
:104720002DE9F04F83B00028029200F0AA800446E1
:104730001646894619B9206C002840F0C28002F064
:10474000BDFC10B9002E40F0AC80FDF778FFD4F826
:1047500038A0BAF1000F29D0226C52B1D4E902017D
:104760001144E160814201D32168E160484603F0D1
:1047700067FC54F8100F0028AAF10100A0620ED0C7
:10478000204602F0C5FA50B14EF604504FF0805169
:10479000CEF200000160BFF34F8FBFF36F8F012493
:1047A000FDF77BFF204603B0BDE8F08F04F124083D
:1047B00001206F464FF0000B02AE00BF00BF00BFEC
:1047C0000299002959D0C00702D0384602F0D6FB22
:1047D000FDF763FF01F056FCFDF731FF94F844004C
:1047E000FF2808BF84F844B094F84500FF2808BFAC
:1047F00084F845B0FDF751FF3846314602F0CBFB57
:1048000070B12046FFF740FE01F096FCFDF717FF60
:10481000A56BFDF742FF95B326E000BF00BF00BFC8
:10482000FDF70DFFA56BFDF738FF2DB12046FFF713
:104830002BFE01F081FC17E00299404602F0BAF924
:104840002046FFF721FE01F077FC68B94EF60450D0
:104850004FF08051CEF200000160BFF34F8FBFF3E5
:104860006F8F00BF00BF00BFFDF7E9FED4F838A08E
:104870000020BAF1000FA3D06EE7002490E70024D7
:1048800090E748F6206048F68A5248F2E953C0F2B1
:104890000020C0F20022C0F2002340F2E951FEF7EE
:1048A00013FE48F6206048F68A5248F26E43C0F282
:1048B0000020C0F20022C0F2002340F2F251FEF7C5
:1048C00003FE48F6206048F68A5249F23B03C0F2E4
:1048D0000020C0F20022C0F2002340F2ED51FEF7AA
:1048E000F3FDD4D4D4D4D4D42DE9F04F83B0002830
:1048F000029100F090800446006C002840F09B80FC
:104900000D4602F0DBFB10B9002D40F0A480FDF74E
:1049100096FEA06BD0B154F8101F0138A06271B19F
:10492000204602F0F5F950B14EF604504FF0805198
:10493000CEF200000160BFF34F8FBFF36F8F0124F1
:10494000FDF7ABFE204603B0BDE8F08F4EF60459EC
:1049500004F1240801216E464FF0000B02AFCEF2A5
:1049600000094FF0805A00BF029800284FD0C807B6
:1049700002D0304602F002FBFDF78FFE01F082FB11
:10498000FDF75DFE94F84400FF2808BF84F844B0AA
:1049900094F84500FF2808BF84F845B0FDF77DFE78
:1049A0003046394602F0F7FA70B12046FFF76CFD49
:1049B00001F0C2FBFDF743FEA56BFDF76EFE45B3AC
:1049C0001EE000BF00BF00BFFDF739FEA56BFDF77D
:1049D00064FE2DB12046FFF757FD01F0ADFB0FE05F
:1049E0000299404602F0E6F82046FFF74DFD01F03F
:1049F000A3FB28B9C9F800A0BFF34F8FBFF36F8F97
:104A0000FDF71DFEA06B00210028ADD083E7002438
:104A100096E7002496E748F6206048F6523248F2BE
:104A2000E953C0F20020C0F20022C0F2002340F29D
:104A30008261FEF749FD48F6206048F6523249F29D
:104A4000B443C0F20020C0F20022C0F2002340F2C2
:104A50008661FEF739FD48F6206048F6523248F28A
:104A60006E43C0F20020C0F20022C0F2002340F2E8
:104A70008B61FEF729FDD4D42DE9F04F83B00028D7
:104A8000029200F0A18004461646894619B9206CAE
:104A9000002840F0B98002F011FB10B9002E40F060
:104AA000A380FDF7CCFDA06B38B3226CE5684AB15A
:104AB000A068A918E160814201D32168E1604846FD
:104AC00003F0BEFA54F8240F44F8185C70B1204685
:104AD00002F01EF950B14EF604504FF08051CEF264
:104AE00000000160BFF34F8FBFF36F8F0124FDF70C
:104AF000D4FD204603B0BDE8F08F04F12408012066
:104B00006F464FF0000B02AE0299002958D0C00743
:104B100002D0384602F032FAFDF7BFFD01F0B2FADA
:104B2000FDF78DFD94F84400FF2808BF84F844B0D9
:104B300094F84500FF2808BF84F845B0FDF7ADFDA7
:104B40003846314602F027FA70B12046FFF79CFC48
:104B500001F0F2FAFDF773FDA56BFDF79EFD8DB335
:104B600026E000BF00BF00BFFDF769FDD4F838A004
:104B7000FDF793FDBAF1000F05D02046FFF784FC46
:104B800001F0DAFA14E00299404602F013F82046E8
:104B9000FFF77AFC01F0D0FA50B94EF604504FF00E
:104BA0008051CEF200000160BFF34F8FBFF36F8FD3
:104BB000FDF745FDA06B00284FF00000A4D074E77E
:104BC000002494E7002494E748F6206049F27542F7
:104BD00048F2E953C0F20020C0F20022C0F20023E4
:104BE00040F26171FEF770FC48F6206049F27542B0
:104BF00048F26E43C0F20020C0F20022C0F200234F
:104C000040F26A71FEF760FC48F6206049F2754296
:104C100049F23B03C0F20020C0F20022C0F20023A0
:104C200040F26571FEF750FC2DE9F047002849D0AD
:104C3000054690460E4611B9286C002852D1FDF762
:104C400092FD1020EFF3118980F31188AC6B14B33F
:104C500095F944702A6C5FFA87FA52B1D5E90201DE
:104C60001144E960814201D32968E960304603F0CC
:104C7000E7F9BAF1FF0FA4F10100A8630DD001F02C
:104C80001EFFB84219D9BAF17F0F3BD00AF10100DB
:104C900085F8440011E0002010E055F8100F60B1D5
:104CA000284602F035F801460120B8F1000F18BF80
:104CB000002903D0C8F8000000E0012089F3118822
:104CC000BDE8F08748F6206049F2FF2249F29513CB
:104CD000C0F20020C0F20022C0F2002340F2FD71B9
:104CE000FEF7F2FB48F6206049F2FF2248F61A234D
:104CF000C0F20020C0F20022C0F2002340F2FE7198
:104D0000FEF7E2FB48F6206049F2FF2248F2121358
:104D1000C0F20020C0F20022C0F2002340F644019D
:104D2000FEF7D2FBF0B581B010B304460D46006C1F
:104D300071B370B3FDF717FD1020EFF3118680F308
:104D40001188A06B78B1226CE7684AB1A068B918E5
:104D5000E160814201D32168E160284603F070F9E7
:104D60000120E76000E0002086F3118801B0F0BD6B
:104D700048F6206048F6597249F29513C0F20020B7
:104D8000C0F20022C0F2002340F66101FEF79CFB56
:104D900078B948F6206048F6597249F29D13C0F27E
:104DA0000020C0F20022C0F2002340F66301FEF7AB
:104DB0008BFB48F6206048F6597248F61A23C0F279
:104DC0000020C0F20022C0F2002340F66201FEF78C
:104DD0007BFB10B538B10446FDF731FCA46BFDF741
:104DE0005CFC204610BD48F6206048F64B6249F254
:104DF0009223C0F20020C0F20022C0F2002340F64D
:104E00009B01FEF761FB10B548B10446FDF717FCA6
:104E1000A06BE16B0C1AFDF740FC204610BD48F674
:104E2000206048F66B7249F29513C0F20020C0F280
:104E30000022C0F200234FF40B61FEF745FB08B1DE
:104E4000806B704780B548F6206048F6DD4249F235
:104E50009513C0F20020C0F20022C0F2002340F6F9
:104E6000C501FEF731FBD4D4A0B140F62C7C002163
:104E7000C2F2002C00BF00BF0CEBC1035A68824293
:104E800003D001310A29F7D1704700204CF83100D6
:104E90005860704780B548F6206049F2940249F2A4
:104EA0009513C0F20020C0F20022C0F2002340F6A9
:104EB000D401FEF709FBD4D4A0B140F62C7C00212C
:104EC000C2F2002C00BF00BF0CEBC1035A68824243
:104ED00003D001310A29F7D1704700204CF8310086
:104EE0005860704780B548F6206049F2A10249F247
:104EF0009223C0F20020C0F20022C0F2002340F64C
:104F00001D41FEF7E1FA006C7047C06B704720B19D
:104F1000806B00285FEA1F90704780B548F62060DC
:104F200048F2115249F29513C0F20020C0F200225B
:104F3000C0F2002340F65221FEF7C6FA28B1816B79
:104F4000C06B81425FEA1F90704780B548F62060D1
:104F500049F2FC6249F29513C0F20020C0F200222F
:104F6000C0F2002340F67F21FEF7AEFAD4D4D4D4A9
:104F7000B0B5F8B1C9B140F62C7E4FF0000CC2F2CA
:104F8000002E0022002300BF0EEB02046568A84239
:104F90000CD01BB92368002B54EA0C830832502A2A
:104FA000F2D1002B18BFC3E90010B0BD2346C3E9FE
:104FB0000010B0BD48F6206048F2341249F2922346
:104FC000C0F20020C0F20022C0F2002340F6C93136
:104FD000FEF77AFAD4D4D4D498B140F62C720021DA
:104FE000C2F2002200BF00BF02EBC1035B68834234
:104FF00004D001310A29F7D10020704752F831005E
:10500000704780B548F6206049F2923249F2922307
:10501000C0F20020C0F20022C0F2002340F6FB31B3
:10502000FEF752FA70B515460E460446FDF707FB2B
:1050300094F84400FF2802D1002084F8440094F83A
:105040004500FF2802D1002084F84500FDF725FB2C
:10505000A06B28B904F1240031462A4601F01CFE59
:105060002046BDE87040FFF70FBAD4D42DE9F041D7
:1050700082B09BB3089F002F40D00D460646814268
:105080004CD81C46022A06D0012A09D1042E65D923
:105090004FF0030806E0002E70D04FF0060801E044
:1050A0004FF00208242001900198242846D155226F
:1050B00020463146012D98BF012502F08DFF2021A9
:1050C000384602F08FFFBC610020C7E902653862F4
:1050D00087F81C80384602B0BDE8F08148F297207E
:1050E00048F2F55248F66633C0F20020C0F20022C2
:1050F000C0F200234FF4DE71FEF7E6F948F2972084
:1051000048F2F55248F28753C0F20020C0F2002264
:10511000C0F2002340F2BD11FEF7D6F948F2972005
:1051200048F2F55249F2A133C0F20020C0F2002249
:10513000C0F200234FF4DF71FEF7C6F948F2972062
:1051400048F2F55248F68273C0F20020C0F2002205
:10515000C0F200234FF4F271FEF7B6F948F297203F
:1051600048F2F55249F2B703C0F20020C0F2002223
:10517000C0F200234FF4E871FEF7A6F948F2972039
:1051800048F2F55249F25613C0F20020C0F2002254
:10519000C0F200234FF4EB71FEF796F980B558B1D9
:1051A000D1B14AB3037F9B0701D4002080BD83693E
:1051B0000B601060012080BD48F2972048F66B22FA
:1051C00048F62C03C0F20020C0F20022C0F20023F7
:1051D0004FF40571FEF778F948F2972048F66B22F4
:1051E00048F66263C0F20020C0F20022C0F2002341
:1051F00040F21521FEF768F948F2972048F66B2235
:1052000048F62413C0F20020C0F20022C0F20023AE
:1052100040F21621FEF758F980B5C8B1017F890721
:1052200012D4013008BF80BD48F2972048F60B42E7
:1052300049F2A253C0F20020C0F20022C0F20023C3
:1052400040F24321FEF740F9242102F0CBFE80BD5D
:1052500048F2972048F60B4248F62C03C0F2002093
:10526000C0F20022C0F2002340F23321FEF72CF9F5
:105270002DE9F04381B020B30446FDF7E0F9206941
:1052800008B1002517E060690025A0B9D4E90268DB
:105290005522A76994F81C903846314602F09CFECE
:1052A0002021204602F09EFE25620125C4E9026805
:1052B000A76184F81C90FDF7F0F9284601B0BDE81D
:1052C000F08348F2972048F6FB4248F62C03C0F2E0
:1052D0000020C0F20022C0F2002340F25E21FEF75F
:1052E000F3F82DE9F04730B304461020EFF31186B0
:1052F00080F31188206908B1002517E06069002556
:10530000A0B9D4E902895522A76994F81CA03846AF
:10531000414602F061FE2021204602F063FE256234
:105320000125C4E90289A76184F81CA086F31188CD
:105330002846BDE8F08748F2972048F2F53248F653
:105340002C03C0F20020C0F20022C0F200234FF470
:105350002771FEF7B9F850B18268012998BF012181
:10536000914202D2C160012070470020704780B591
:1053700048F2972048F2C47248F62C03C0F200208D
:10538000C0F20022C0F200234FF43671FEF79CF801
:1053900080B580B1D0F808C0D0F800E0026843685A
:1053A00001688E45F8D102EB0C00D94308446045F2
:1053B00028BF881880BD48F2972048F6A47248F6A6
:1053C0002C03C0F20020C0F20022C0F2002340F201
:1053D000FA21FEF779F840B141688268114400680B
:1053E000081A811A50EA3180704780B548F2972038
:1053F00049F2992248F62C03C0F20020C0F20022A4
:10540000C0F2002340F21E31FEF75EF8D4D4D4D4AB
:105410002DE9F04F85B00029049300F0A3800446E5
:10542000002800F0AF809146227FA068D207A0F14B
:10543000010203D1914559EA32860AE019F1040FBD
:1054400080F0B08009F10406964202D9002204924D
:1054500046E0002B44D00DF108080191404601F0D0
:1054600068FD4FF0000B0DF1100A00BF00BF00BF38
:10547000FDF7E5F8A06800BF236821686268276827
:10548000BB42F9D10B18D2439F18874228BF571847
:10549000B7421CD2216A002002F048F96069002856
:1054A00050D101F0FCFD6061FDF7F7F8206A0021A2
:1054B00000220023049D009501F078FE40465146ED
:1054C000C4F814B001F067FD18B92FF02FC8FDF72C
:1054D000E4F80FB101990FE0A068019900BF00BF87
:1054E0002368256862682768BB42F9D12B18D2432C
:1054F0009F18874228BF571920464A463B460096C8
:1055000000F060F80546C8B16068D4E902120844AA
:105510002368C01A411A50EA318090420ED300F03D
:10552000B1FD206940B12069216A002200230026D4
:10553000009601F0A3FE266100F0FEFD284605B0AE
:10554000BDE8F08F48F2972048F2C66248F63B0368
:10555000C0F20020C0F20022C0F2002340F27531F8
:10556000FDF7B2FF48F2972048F2C66249F2737322
:10557000C0F20020C0F20022C0F2002340F2353118
:10558000FDF7A2FF48F2972048F2C66248F62C03C6
:10559000C0F20020C0F20022C0F2002340F23631F7
:1055A000FDF792FF48F2972048F2C66248F67E6304
:1055B000C0F20020C0F20022C0F2002340F24531C8
:1055C000FDF782FF70B582B00546D0F804C0007FB9
:1055D00014460E46C00703D19C4254EA33840AE0C5
:1055E0000698019483420FD301A9042228466346FA
:1055F00000F0F6FA84463CB128463146224663461E
:1056000000F0EEFA686000E00024204602B070BDB1
:105610002DE9F04182B000293ED0044600284BD04D
:1056200094F81CC09846A0682568276866682368B7
:105630009D42F9D13B18F6430CF0010533448342F7
:1056400002EB850028BFF31900902046FFF7BAFF50
:105650000646E8B16068D4E9021208442368C01A1B
:10566000411A50EA3180904212D31020EFF3118793
:1056700080F31188206948B12069216A0022002343
:105680000025CDE9005801F0BDFE256187F31188A2
:10569000304602B0BDE8F08148F2972048F20F4250
:1056A00049F27373C0F20020C0F20022C0F200235E
:1056B00040F2BA31FDF708FF48F2972048F20F4256
:1056C00048F62C03C0F20020C0F20022C0F20023F2
:1056D00040F2BB31FDF7F8FE2DE9F04381B000291F
:1056E00064D00446002871D0207F89461F4690462A
:1056F000C10703D1400703D4002502E0042500E0E0
:10570000E56877B1FCF79BFF6068A16808442268F0
:10571000801A411A50EA3186AE420BD9FCF7BDFF20
:1057200025E06068A16808442268801A411A50EA9E
:1057300031861CE0216A0020002601F0F7FF206975
:10574000002853D101F0ABFC2061FCF7A6FF206AD2
:10575000002100220023009701F028FD2661A068A7
:10576000616801442268891A081A51EA3086AE42FB
:1057700017D9204649464246334600F047F880B1E3
:10578000054600F07FFC606940B16069216A002233
:1057900000230026009601F071FD666100F0CCFC4C
:1057A00000E00025284601B0BDE8F08348F29720CC
:1057B00048F2DD1248F69853C0F20020C0F20022F1
:1057C000C0F2002340F22741FDF77EFE48F2972009
:1057D00048F2DD1248F62C03C0F20020C0F200228D
:1057E000C0F200234FF48561FDF76EFE48F297206A
:1057F00048F2DD1249F2EA13C0F20020C0F20022A2
:10580000C0F2002340F25341FDF75EFE2DE9F04166
:1058100082B004460568007F1F4616468846C007CA
:105820000DD001A9042220462B4600F054F801991E
:105830000546B142A7F1040788BF00210E46BE42CB
:1058400056EA378636B12046414632462B4600F0AE
:1058500042F82060304602B0BDE8F08180B582B0E9
:10586000C8B1017FC90713D0426881680A44036840
:10587000D21A8A4238BF0021531A052B06D3036877
:1058800001A9042200F027F8019802E08A4212D10F
:10589000002002B080BD48F2972048F2D86248F656
:1058A0002C03C0F20020C0F20022C0F2002340F21C
:1058B0009941FDF709FE48F2972048F2D86248F670
:1058C000A063C0F20020C0F20022C0F2002340F228
:1058D000AE41FDF7F9FD2DE9F04104468068C71A95
:1058E0001646974257EA32821D461344834214D823
:1058F0008846A0694119404602F0A2FBBE4205D984
:1059000008EB0700A169F21B02F09AFBA819A16835
:10591000411A50EA3180BDE8F08148F2972049F2FF
:10592000322248F61173C0F20020C0F20022C0F209
:10593000002340F20361FDF7C7FD2DE9F04182B07D
:1059400089B3044600283ED01D46207F6368A768BF
:105950003B4426689B1B00F00100DF1B53EA3783A2
:10596000B3EB800F1AD92046FFF750FFB0B10646BF
:105970001020EFF3118780F31188606958B16069D6
:10598000216A002200234FF00008CDE9008501F0D4
:1059900039FDC4F8148087F3118800E000263046F2
:1059A00002B0BDE8F08148F2972048F22B5248F649
:1059B0009853C0F20020C0F20022C0F2002340F24F
:1059C000C741FDF781FD48F2972048F22B5248F677
:1059D0002C03C0F20020C0F20022C0F200234FF4DA
:1059E0009961FDF771FD28B10168406888425FEA5E
:1059F0001F90704780B548F2972048F2E17248F650
:105A00002C03C0F20020C0F20022C0F2002340F2BA
:105A10003B51FDF759FDD4D410B5C8B190F81CC066
:105A2000D0F808E000BF00BF01680368426804685E
:105A3000A142F9D103EB0E00D14308440CF001025E
:105A4000704528BFC818B0EB820F5FEA8F9010BD79
:105A500048F2972049F21E2248F62C03C0F200209B
:105A6000C0F20022C0F2002340F25751FDF72CFD96
:105A700070B582B0C8B104461020EFF3118680F3F0
:105A800011882069002558B12069D4F820C000226F
:105A90000023CDE90051614601F0B4FC25610125E8
:105AA00086F31188284602B070BD48F2972048F26C
:105AB000284248F62C03C0F20020C0F20022C0F2B7
:105AC000002340F27F51FDF7FFFC70B582B0C8B1F2
:105AD00004461020EFF3118680F3118860690025D9
:105AE00058B16069D4F820C000220023CDE90051EC
:105AF000614601F087FC6561012586F3118828461F
:105B000002B070BD48F2972049F2C83248F62C0323
